{
  "contractName": "ArbitrableTCRView",
  "abi": [
    {
      "constant": true,
      "inputs": [
        {
          "name": "_address",
          "type": "address"
        }
      ],
      "name": "fetchData",
      "outputs": [
        {
          "components": [
            {
              "name": "governor",
              "type": "address"
            },
            {
              "name": "arbitrator",
              "type": "address"
            },
            {
              "name": "arbitratorExtraData",
              "type": "bytes"
            },
            {
              "name": "requesterBaseDeposit",
              "type": "uint256"
            },
            {
              "name": "challengerBaseDeposit",
              "type": "uint256"
            },
            {
              "name": "challengePeriodDuration",
              "type": "uint256"
            },
            {
              "name": "metaEvidenceUpdates",
              "type": "uint256"
            },
            {
              "name": "winnerStakeMultiplier",
              "type": "uint256"
            },
            {
              "name": "loserStakeMultiplier",
              "type": "uint256"
            },
            {
              "name": "sharedStakeMultiplier",
              "type": "uint256"
            },
            {
              "name": "MULTIPLIER_DIVISOR",
              "type": "uint256"
            }
          ],
          "name": "result",
          "type": "tuple"
        }
      ],
      "payable": false,
      "stateMutability": "view",
      "type": "function"
    }
  ],
  "bytecode": "0x608060405234801561001057600080fd5b506109d9806100206000396000f3fe608060405234801561001057600080fd5b506004361061002e5760e060020a6000350463c4bfd57d8114610033575b600080fd5b6100466100413660046106e5565b61005c565b60405161005391906108b4565b60405180910390f35b6100646105fe565b600082905080600160a060020a0316630c340a246040518163ffffffff1660e060020a02815260040160206040518083038186803b1580156100a557600080fd5b505afa1580156100b9573d6000803e3d6000fd5b505050506040513d601f19601f820116820180604052506100dd919081019061070b565b600160a060020a039081168352604080517f6cc6cde1000000000000000000000000000000000000000000000000000000008152905191831691636cc6cde191600480820192602092909190829003018186803b15801561013d57600080fd5b505afa158015610151573d6000803e3d6000fd5b505050506040513d601f19601f82011682018060405250610175919081019061070b565b8260200190600160a060020a03169081600160a060020a03168152505080600160a060020a0316630c7ac7b66040518163ffffffff1660e060020a02815260040160006040518083038186803b1580156101ce57600080fd5b505afa1580156101e2573d6000803e3d6000fd5b505050506040513d6000823e601f3d908101601f1916820160405261020a9190810190610729565b826040018190525080600160a060020a0316638c10fef36040518163ffffffff1660e060020a02815260040160206040518083038186803b15801561024e57600080fd5b505afa158015610262573d6000803e3d6000fd5b505050506040513d601f19601f82011682018060405250610286919081019061075e565b82606001818152505080600160a060020a031663329cedb46040518163ffffffff1660e060020a02815260040160206040518083038186803b1580156102cb57600080fd5b505afa1580156102df573d6000803e3d6000fd5b505050506040513d601f19601f82011682018060405250610303919081019061075e565b82608001818152505080600160a060020a03166282a36d6040518163ffffffff1660e060020a02815260040160206040518083038186803b15801561034757600080fd5b505afa15801561035b573d6000803e3d6000fd5b505050506040513d601f19601f8201168201806040525061037f919081019061075e565b8260a001818152505080600160a060020a0316636cdc090f6040518163ffffffff1660e060020a02815260040160206040518083038186803b1580156103c457600080fd5b505afa1580156103d8573d6000803e3d6000fd5b505050506040513d601f19601f820116820180604052506103fc919081019061075e565b8260c001818152505080600160a060020a0316637b9433836040518163ffffffff1660e060020a02815260040160206040518083038186803b15801561044157600080fd5b505afa158015610455573d6000803e3d6000fd5b505050506040513d601f19601f82011682018060405250610479919081019061075e565b8260e001818152505080600160a060020a0316631d5120856040518163ffffffff1660e060020a02815260040160206040518083038186803b1580156104be57600080fd5b505afa1580156104d2573d6000803e3d6000fd5b505050506040513d601f19601f820116820180604052506104f6919081019061075e565b8261010001818152505080600160a060020a031663416583416040518163ffffffff1660e060020a02815260040160206040518083038186803b15801561053c57600080fd5b505afa158015610550573d6000803e3d6000fd5b505050506040513d601f19601f82011682018060405250610574919081019061075e565b8261012001818152505080600160a060020a031663d661dd316040518163ffffffff1660e060020a02815260040160206040518083038186803b1580156105ba57600080fd5b505afa1580156105ce573d6000803e3d6000fd5b505050506040513d601f19601f820116820180604052506105f2919081019061075e565b61014083015250919050565b6040518061016001604052806000600160a060020a031681526020016000600160a060020a031681526020016060815260200160008152602001600081526020016000815260200160008152602001600081526020016000815260200160008152602001600081525090565b803561067581610976565b92915050565b805161067581610976565b600082601f83011261069757600080fd5b81516106aa6106a5826108f3565b6108cc565b915080825260208301602083018583830111156106c657600080fd5b6106d183828461093c565b50505092915050565b80516106758161098d565b6000602082840312156106f757600080fd5b6000610703848461066a565b949350505050565b60006020828403121561071d57600080fd5b6000610703848461067b565b60006020828403121561073b57600080fd5b815167ffffffffffffffff81111561075257600080fd5b61070384828501610686565b60006020828403121561077057600080fd5b600061070384846106da565b61078581610928565b82525050565b60006107968261091b565b6107a0818561091f565b93506107b081856020860161093c565b6107b98161096c565b9093019392505050565b80516000906101608401906107d8858261077c565b5060208301516107eb602086018261077c565b5060408301518482036040860152610803828261078b565b915050606083015161081860608601826108ab565b50608083015161082b60808601826108ab565b5060a083015161083e60a08601826108ab565b5060c083015161085160c08601826108ab565b5060e083015161086460e08601826108ab565b506101008301516108796101008601826108ab565b5061012083015161088e6101208601826108ab565b506101408301516108a36101408601826108ab565b509392505050565b61078581610939565b602080825281016108c581846107c3565b9392505050565b60405181810167ffffffffffffffff811182821017156108eb57600080fd5b604052919050565b600067ffffffffffffffff82111561090a57600080fd5b506020601f91909101601f19160190565b5190565b90815260200190565b6000600160a060020a038216610675565b90565b60005b8381101561095757818101518382015260200161093f565b83811115610966576000848401525b50505050565b601f01601f191690565b61097f81610928565b811461098a57600080fd5b50565b61097f8161093956fea365627a7a72305820b5da0b96ccc79e3a3b1fc31a79e3036ec80a11ac956c695c28d4cfd344017b0d6c6578706572696d656e74616cf564736f6c634300050a0040",
  "source": "pragma solidity ^0.5.10;\npragma experimental ABIEncoderV2;\n\ninterface IArbitrableTCR {\n    function governor() external view returns (address);\n    function arbitrator() external view returns (address);\n    function arbitratorExtraData() external view returns (bytes memory);\n    function requesterBaseDeposit() external view returns (uint);\n    function challengerBaseDeposit() external view returns (uint);\n    function challengePeriodDuration() external view returns (uint);\n    function metaEvidenceUpdates() external view returns (uint);\n    function winnerStakeMultiplier() external view returns (uint);\n    function loserStakeMultiplier() external view returns (uint);\n    function sharedStakeMultiplier() external view returns (uint);\n    function MULTIPLIER_DIVISOR() external view returns (uint);\n}\n\n/**\n * @dev A utility contract batch view requests.\n */\ncontract ArbitrableTCRView {\n\n    struct QueryResult {\n        address governor;\n        address arbitrator;\n        bytes arbitratorExtraData;\n        uint requesterBaseDeposit;\n        uint challengerBaseDeposit;\n        uint challengePeriodDuration;\n        uint metaEvidenceUpdates;\n        uint winnerStakeMultiplier;\n        uint loserStakeMultiplier;\n        uint sharedStakeMultiplier;\n        uint MULTIPLIER_DIVISOR;\n    }\n\n    function fetchData(address _address) external view returns (QueryResult memory result) {\n        IArbitrableTCR tcr = IArbitrableTCR(_address);\n        result.governor = tcr.governor();\n        result.arbitrator = tcr.arbitrator();\n        result.arbitratorExtraData = tcr.arbitratorExtraData();\n        result.requesterBaseDeposit = tcr.requesterBaseDeposit();\n        result.challengerBaseDeposit = tcr.challengerBaseDeposit();\n        result.challengePeriodDuration = tcr.challengePeriodDuration();\n        result.metaEvidenceUpdates = tcr.metaEvidenceUpdates();\n        result.winnerStakeMultiplier = tcr.winnerStakeMultiplier();\n        result.loserStakeMultiplier = tcr.loserStakeMultiplier();\n        result.sharedStakeMultiplier = tcr.sharedStakeMultiplier();\n        result.MULTIPLIER_DIVISOR = tcr.MULTIPLIER_DIVISOR();\n    }\n}",
  "sourcePath": "/home/betelgiuse/Documents/visus/kleros/repos/gtcr/contracts/ArbitrableView.sol",
  "compiler": {
    "name": "solc",
    "version": "0.5.10+commit.5a6ea5b1.Emscripten.clang"
  },
  "schemaVersion": "3.0.11",
  "updatedAt": "2019-08-11T23:11:03.209Z",
  "devdoc": {
    "details": "A utility contract batch view requests.",
    "methods": {}
  },
  "userdoc": {
    "methods": {}
  }
}