{
  "contractName": "FindItemMock",
  "abi": [
    {
      "constant": true,
      "inputs": [
        {
          "internalType": "uint256",
          "name": "",
          "type": "uint256"
        }
      ],
      "name": "items",
      "outputs": [
        {
          "internalType": "bytes",
          "name": "",
          "type": "bytes"
        }
      ],
      "payable": false,
      "stateMutability": "view",
      "type": "function"
    },
    {
      "inputs": [
        {
          "internalType": "bytes",
          "name": "rlpEncodedItem",
          "type": "bytes"
        }
      ],
      "payable": false,
      "stateMutability": "nonpayable",
      "type": "constructor"
    },
    {
      "constant": true,
      "inputs": [
        {
          "internalType": "bytes",
          "name": "_rlpEncodedMatch",
          "type": "bytes"
        },
        {
          "internalType": "uint256",
          "name": "_count",
          "type": "uint256"
        }
      ],
      "name": "findItem",
      "outputs": [
        {
          "internalType": "bytes[]",
          "name": "",
          "type": "bytes[]"
        }
      ],
      "payable": false,
      "stateMutability": "view",
      "type": "function"
    }
  ],
  "bytecode": "0x60806040523480156200001157600080fd5b5060405162000c4b38038062000c4b833981016040819052620000349162000181565b6000805460018101808355918052825162000077917f290decd9548b62a8d60345a988386fc84ba6bc95484008f6362f93160ef3e5630190602085019062000080565b50505062000243565b828054600181600116156101000203166002900490600052602060002090601f016020900481019282601f10620000c357805160ff1916838001178555620000f3565b82800160010185558215620000f3579182015b82811115620000f3578251825591602001919060010190620000d6565b506200010192915062000105565b5090565b6200012291905b808211156200010157600081556001016200010c565b90565b600082601f8301126200013757600080fd5b81516200014e6200014882620001e8565b620001c1565b915080825260208301602083018583830111156200016b57600080fd5b6200017883828462000210565b50505092915050565b6000602082840312156200019457600080fd5b81516001604060020a03811115620001ab57600080fd5b620001b98482850162000125565b949350505050565b6040518181016001604060020a0381118282101715620001e057600080fd5b604052919050565b60006001604060020a03821115620001ff57600080fd5b506020601f91909101601f19160190565b60005b838110156200022d57818101518382015260200162000213565b838111156200023d576000848401525b50505050565b6109f880620002536000396000f3fe608060405234801561001057600080fd5b5060043610610052577c010000000000000000000000000000000000000000000000000000000060003504638aa0bd068114610057578063bfb231d214610080575b600080fd5b61006a6100653660046107a1565b6100a0565b60405161007791906108d1565b60405180910390f35b61009361008e3660046107f2565b6102d8565b60405161007791906108e2565b6060806100b46100af8561037e565b6103a4565b90506060836040519080825280602002602001820160405280156100ec57816020015b60608152602001906001900390816100d75790505b5090506000805b6000548110156102cb5760606101aa6100af6000848154811061011257fe5b600091825260209182902001805460408051601f60026000196101006001871615020190941693909304928301859004850281018501909152818152928301828280156101a05780601f10610175576101008083540402835291602001916101a0565b820191906000526020600020905b81548152906001019060200180831161018357829003601f168201915b505050505061037e565b905060005b85518110156102c1576101f26101d78783815181106101ca57fe5b6020026020010151610471565b6101e68484815181106101ca57fe5b9063ffffffff6104ea16565b156102b9576000838154811061020457fe5b600091825260209182902001805460408051601f60026000196101006001871615020190941693909304928301859004850281018501909152818152928301828280156102925780601f1061026757610100808354040283529160200191610292565b820191906000526020600020905b81548152906001019060200180831161027557829003601f168201915b50505050508585815181106102a357fe5b60209081029190910101526001909301926102c1565b6001016101af565b50506001016100f3565b5090925050505b92915050565b600081815481106102e557fe5b600091825260209182902001805460408051601f60026000196101006001871615020190941693909304928301859004850281018501909152818152935090918301828280156103765780601f1061034b57610100808354040283529160200191610376565b820191906000526020600020905b81548152906001019060200180831161035957829003601f168201915b505050505081565b610386610728565b5060408051808201909152815181526020828101908201525b919050565b60606103af8261054e565b6103b857600080fd5b60006103c383610588565b9050806040519080825280602002602001820160405280156103ff57816020015b6103ec610728565b8152602001906001900390816103e45790505b509150600061041184602001516105e4565b60208501510190506000805b838110156104685761042e8361064d565b915060405180604001604052808381526020018481525085828151811061045157fe5b60209081029190910101529181019160010161041d565b50505050919050565b805160609061047f57600080fd5b600061048e83602001516105e4565b83516040805191839003808352601f19601f82011683016020019091529192506060908280156104c5576020820181803883390190505b50905060008160200190506104e18487602001510182856106dd565b50949350505050565b8151815160009160019181148083146105065760009250610544565b600160208701838101602088015b60028483851001141561053f5780518351146105335760009650600093505b60209283019201610514565b505050505b5090949350505050565b805160009061055f5750600061039f565b6020820151805160001a9060c082101561057e5760009250505061039f565b5060019392505050565b80516000906105995750600061039f565b600080905060006105ad84602001516105e4565b602085015185519181019250015b808210156105db576105cc8261064d565b600190930192909101906105bb565b50909392505050565b8051600090811a60808110156105fe57600091505061039f565b60b8811080610619575060c08110801590610619575060f881105b1561062857600191505061039f565b60c081101561063c5760b51901905061039f565b60f51901905061039f565b50919050565b8051600090811a608081101561066757600191505061039f565b60b881101561067b57607e1901905061039f565b60c08110156106a85760b78103600184019350806020036101000a84510460018201810193505050610647565b60f88110156106bc5760be1901905061039f565b60019290920151602083900360f7016101000a900490910160f51901919050565b806106e757610723565b5b60208110610707578251825260209283019290910190601f19016106e8565b8251825160208390036101000a60001901801990921691161782525b505050565b604051806040016040528060008152602001600081525090565b600082601f83011261075357600080fd5b81356107666107618261091a565b6108f3565b9150808252602083016020830185838301111561078257600080fd5b61078d838284610958565b50505092915050565b80356102d28161099e565b600080604083850312156107b457600080fd5b823567ffffffffffffffff8111156107cb57600080fd5b6107d785828601610742565b92505060206107e885828601610796565b9150509250929050565b60006020828403121561080457600080fd5b60006108108484610796565b949350505050565b60006108248383610899565b9392505050565b600061083682610948565b610840818561094c565b93508360208202850161085285610942565b8060005b8581101561088c578484038952815161086f8582610818565b945061087a83610942565b60209a909a0199925050600101610856565b5091979650505050505050565b60006108a482610948565b6108ae818561094c565b93506108be818560208601610964565b6108c781610994565b9093019392505050565b60208082528101610824818461082b565b602080825281016108248184610899565b60405181810167ffffffffffffffff8111828210171561091257600080fd5b604052919050565b600067ffffffffffffffff82111561093157600080fd5b506020601f91909101601f19160190565b60200190565b5190565b90815260200190565b90565b82818337506000910152565b60005b8381101561097f578181015183820152602001610967565b8381111561098e576000848401525b50505050565b601f01601f191690565b6109a781610955565b81146109b257600080fd5b5056fea365627a7a7231582082f3b38e81cfa8a95f483abe8d5dc3867d224da73a66de46b06f756afe762ecc6c6578706572696d656e74616cf564736f6c634300050b0040",
  "source": "\npragma solidity ^0.5.11;\npragma experimental ABIEncoderV2;\n\nimport \"solidity-bytes-utils/contracts/BytesLib.sol\";\nimport \"solidity-rlp/contracts/RLPReader.sol\";\n\ncontract FindItemMock {\n    using RLPReader for RLPReader.RLPItem;\n    using RLPReader for bytes;\n    using BytesLib for bytes;\n\n    bytes[] public items;\n\n    // Item [18, 'PNK', 'Pinakion', '0xca35b7d915458ef540ade6068dfe2f44e8fa733c']\n    // RLP encoded: 0xe383504e4b128850696e616b696f6e94ca35b7d915458ef540ade6068dfe2f44e8fa733c\n    // Input for remix: [\"0xe3\",\"0x83\",\"0x50\",\"0x4e\",\"0x4b\",\"0x12\",\"0x88\",\"0x50\",\"0x69\",\"0x6e\",\"0x61\",\"0x6b\",\"0x69\",\"0x6f\",\"0x6e\",\"0x94\",\"0xca\",\"0x35\",\"0xb7\",\"0xd9\",\"0x15\",\"0x45\",\"0x8e\",\"0xf5\",\"0x40\",\"0xad\",\"0xe6\",\"0x06\",\"0x8d\",\"0xfe\",\"0x2f\",\"0x44\",\"0xe8\",\"0xfa\",\"0x73\",\"0x3c\"]\n    constructor (bytes memory rlpEncodedItem) public {\n        items.push(rlpEncodedItem);\n    }\n\n    function findItem(bytes memory _rlpEncodedMatch, uint _count) public view returns (bytes[] memory) {\n        RLPReader.RLPItem[] memory matchItem = _rlpEncodedMatch.toRlpItem().toList();\n        bytes[] memory results = new bytes[](_count);\n        uint itemsFound;\n        for(uint i = 0; i < items.length; i++) { // Iterate over every item in storage.\n            RLPReader.RLPItem[] memory item = items[i].toRlpItem().toList();\n            for (uint j = 0; j < matchItem.length; j++) { // Iterate over every column.\n                if (item[j].toBytes().equal(matchItem[j].toBytes())) {\n                    results[itemsFound] = items[i];\n                    itemsFound++;\n                    break;\n                }\n            }\n        }\n        return results;\n    }\n}\n",
  "sourcePath": "/home/betelgiuse/Documents/visus/kleros/repos/gtcr/contracts/FindItemMock.sol",
  "compiler": {
    "name": "solc",
    "version": "0.5.11+commit.c082d0b4.Emscripten.clang"
  },
  "schemaVersion": "3.0.11",
  "updatedAt": "2019-08-16T21:13:59.761Z",
  "devdoc": {
    "methods": {}
  },
  "userdoc": {
    "methods": {}
  }
}