{
  "contractName": "GTCRMock",
  "abi": [
    {
      "constant": true,
      "inputs": [],
      "name": "challengePeriodDuration",
      "outputs": [
        {
          "internalType": "uint256",
          "name": "",
          "type": "uint256"
        }
      ],
      "payable": false,
      "stateMutability": "view",
      "type": "function"
    },
    {
      "constant": true,
      "inputs": [],
      "name": "governor",
      "outputs": [
        {
          "internalType": "address",
          "name": "",
          "type": "address"
        }
      ],
      "payable": false,
      "stateMutability": "view",
      "type": "function"
    },
    {
      "constant": true,
      "inputs": [],
      "name": "arbitratorExtraData",
      "outputs": [
        {
          "internalType": "bytes",
          "name": "",
          "type": "bytes"
        }
      ],
      "payable": false,
      "stateMutability": "view",
      "type": "function"
    },
    {
      "constant": true,
      "inputs": [],
      "name": "loserStakeMultiplier",
      "outputs": [
        {
          "internalType": "uint256",
          "name": "",
          "type": "uint256"
        }
      ],
      "payable": false,
      "stateMutability": "view",
      "type": "function"
    },
    {
      "constant": true,
      "inputs": [],
      "name": "challengerBaseDeposit",
      "outputs": [
        {
          "internalType": "uint256",
          "name": "",
          "type": "uint256"
        }
      ],
      "payable": false,
      "stateMutability": "view",
      "type": "function"
    },
    {
      "constant": true,
      "inputs": [],
      "name": "sharedStakeMultiplier",
      "outputs": [
        {
          "internalType": "uint256",
          "name": "",
          "type": "uint256"
        }
      ],
      "payable": false,
      "stateMutability": "view",
      "type": "function"
    },
    {
      "constant": true,
      "inputs": [
        {
          "internalType": "bytes32",
          "name": "",
          "type": "bytes32"
        }
      ],
      "name": "items",
      "outputs": [
        {
          "internalType": "bytes",
          "name": "data",
          "type": "bytes"
        },
        {
          "internalType": "enum GTCRMock.ItemStatus",
          "name": "status",
          "type": "uint8"
        }
      ],
      "payable": false,
      "stateMutability": "view",
      "type": "function"
    },
    {
      "constant": true,
      "inputs": [],
      "name": "relatedTCR",
      "outputs": [
        {
          "internalType": "address",
          "name": "",
          "type": "address"
        }
      ],
      "payable": false,
      "stateMutability": "view",
      "type": "function"
    },
    {
      "constant": true,
      "inputs": [],
      "name": "arbitrator",
      "outputs": [
        {
          "internalType": "contract Arbitrator",
          "name": "",
          "type": "address"
        }
      ],
      "payable": false,
      "stateMutability": "view",
      "type": "function"
    },
    {
      "constant": true,
      "inputs": [],
      "name": "metaEvidenceUpdates",
      "outputs": [
        {
          "internalType": "uint256",
          "name": "",
          "type": "uint256"
        }
      ],
      "payable": false,
      "stateMutability": "view",
      "type": "function"
    },
    {
      "constant": true,
      "inputs": [],
      "name": "winnerStakeMultiplier",
      "outputs": [
        {
          "internalType": "uint256",
          "name": "",
          "type": "uint256"
        }
      ],
      "payable": false,
      "stateMutability": "view",
      "type": "function"
    },
    {
      "constant": true,
      "inputs": [],
      "name": "requesterBaseDeposit",
      "outputs": [
        {
          "internalType": "uint256",
          "name": "",
          "type": "uint256"
        }
      ],
      "payable": false,
      "stateMutability": "view",
      "type": "function"
    },
    {
      "constant": true,
      "inputs": [
        {
          "internalType": "address",
          "name": "",
          "type": "address"
        },
        {
          "internalType": "uint256",
          "name": "",
          "type": "uint256"
        }
      ],
      "name": "arbitratorDisputeIDToItemID",
      "outputs": [
        {
          "internalType": "bytes32",
          "name": "",
          "type": "bytes32"
        }
      ],
      "payable": false,
      "stateMutability": "view",
      "type": "function"
    },
    {
      "constant": true,
      "inputs": [
        {
          "internalType": "uint256",
          "name": "",
          "type": "uint256"
        }
      ],
      "name": "itemIDs",
      "outputs": [
        {
          "internalType": "bytes32",
          "name": "",
          "type": "bytes32"
        }
      ],
      "payable": false,
      "stateMutability": "view",
      "type": "function"
    },
    {
      "constant": true,
      "inputs": [],
      "name": "MULTIPLIER_DIVISOR",
      "outputs": [
        {
          "internalType": "uint256",
          "name": "",
          "type": "uint256"
        }
      ],
      "payable": false,
      "stateMutability": "view",
      "type": "function"
    },
    {
      "inputs": [
        {
          "internalType": "contract Arbitrator",
          "name": "_arbitrator",
          "type": "address"
        },
        {
          "internalType": "bytes",
          "name": "_arbitratorExtraData",
          "type": "bytes"
        },
        {
          "internalType": "string",
          "name": "_registrationMetaEvidence",
          "type": "string"
        },
        {
          "internalType": "string",
          "name": "_clearingMetaEvidence",
          "type": "string"
        },
        {
          "internalType": "address",
          "name": "_governor",
          "type": "address"
        },
        {
          "internalType": "uint256",
          "name": "_requesterBaseDeposit",
          "type": "uint256"
        },
        {
          "internalType": "uint256",
          "name": "_challengerBaseDeposit",
          "type": "uint256"
        },
        {
          "internalType": "uint256",
          "name": "_challengePeriodDuration",
          "type": "uint256"
        },
        {
          "internalType": "uint256",
          "name": "_sharedStakeMultiplier",
          "type": "uint256"
        },
        {
          "internalType": "uint256",
          "name": "_winnerStakeMultiplier",
          "type": "uint256"
        },
        {
          "internalType": "uint256",
          "name": "_loserStakeMultiplier",
          "type": "uint256"
        }
      ],
      "payable": false,
      "stateMutability": "nonpayable",
      "type": "constructor"
    },
    {
      "anonymous": false,
      "inputs": [
        {
          "indexed": true,
          "internalType": "uint256",
          "name": "_metaEvidenceID",
          "type": "uint256"
        },
        {
          "indexed": false,
          "internalType": "string",
          "name": "_evidence",
          "type": "string"
        }
      ],
      "name": "MetaEvidence",
      "type": "event"
    },
    {
      "anonymous": false,
      "inputs": [
        {
          "indexed": true,
          "internalType": "contract Arbitrator",
          "name": "_arbitrator",
          "type": "address"
        },
        {
          "indexed": true,
          "internalType": "uint256",
          "name": "_evidenceGroupID",
          "type": "uint256"
        },
        {
          "indexed": true,
          "internalType": "address",
          "name": "_party",
          "type": "address"
        },
        {
          "indexed": false,
          "internalType": "string",
          "name": "_evidence",
          "type": "string"
        }
      ],
      "name": "Evidence",
      "type": "event"
    },
    {
      "anonymous": false,
      "inputs": [
        {
          "indexed": true,
          "internalType": "contract Arbitrator",
          "name": "_arbitrator",
          "type": "address"
        },
        {
          "indexed": true,
          "internalType": "uint256",
          "name": "_disputeID",
          "type": "uint256"
        },
        {
          "indexed": false,
          "internalType": "uint256",
          "name": "_metaEvidenceID",
          "type": "uint256"
        },
        {
          "indexed": false,
          "internalType": "uint256",
          "name": "_evidenceGroupID",
          "type": "uint256"
        }
      ],
      "name": "Dispute",
      "type": "event"
    },
    {
      "anonymous": false,
      "inputs": [
        {
          "indexed": true,
          "internalType": "contract Arbitrator",
          "name": "_arbitrator",
          "type": "address"
        },
        {
          "indexed": true,
          "internalType": "uint256",
          "name": "_disputeID",
          "type": "uint256"
        },
        {
          "indexed": false,
          "internalType": "uint256",
          "name": "_ruling",
          "type": "uint256"
        }
      ],
      "name": "Ruling",
      "type": "event"
    },
    {
      "constant": false,
      "inputs": [
        {
          "internalType": "bytes",
          "name": "_item",
          "type": "bytes"
        }
      ],
      "name": "addItem",
      "outputs": [],
      "payable": true,
      "stateMutability": "payable",
      "type": "function"
    },
    {
      "constant": false,
      "inputs": [
        {
          "internalType": "bytes",
          "name": "_item",
          "type": "bytes"
        }
      ],
      "name": "removeItem",
      "outputs": [],
      "payable": true,
      "stateMutability": "payable",
      "type": "function"
    },
    {
      "constant": false,
      "inputs": [
        {
          "internalType": "bytes32",
          "name": "_item",
          "type": "bytes32"
        }
      ],
      "name": "executeRequest",
      "outputs": [],
      "payable": false,
      "stateMutability": "nonpayable",
      "type": "function"
    },
    {
      "constant": false,
      "inputs": [
        {
          "internalType": "bytes32",
          "name": "_itemID",
          "type": "bytes32"
        },
        {
          "internalType": "string",
          "name": "_evidence",
          "type": "string"
        }
      ],
      "name": "challengeRequest",
      "outputs": [],
      "payable": true,
      "stateMutability": "payable",
      "type": "function"
    },
    {
      "constant": false,
      "inputs": [
        {
          "internalType": "uint256",
          "name": "_disputeID",
          "type": "uint256"
        },
        {
          "internalType": "uint256",
          "name": "_ruling",
          "type": "uint256"
        }
      ],
      "name": "rule",
      "outputs": [],
      "payable": false,
      "stateMutability": "nonpayable",
      "type": "function"
    },
    {
      "constant": false,
      "inputs": [
        {
          "internalType": "address payable",
          "name": "_beneficiary",
          "type": "address"
        },
        {
          "internalType": "bytes32",
          "name": "_itemID",
          "type": "bytes32"
        },
        {
          "internalType": "uint256",
          "name": "_request",
          "type": "uint256"
        },
        {
          "internalType": "uint256",
          "name": "_round",
          "type": "uint256"
        }
      ],
      "name": "withdrawFeesAndRewards",
      "outputs": [],
      "payable": false,
      "stateMutability": "nonpayable",
      "type": "function"
    },
    {
      "constant": false,
      "inputs": [
        {
          "internalType": "uint256",
          "name": "_challengePeriodDuration",
          "type": "uint256"
        }
      ],
      "name": "changeTimeToChallenge",
      "outputs": [],
      "payable": false,
      "stateMutability": "nonpayable",
      "type": "function"
    },
    {
      "constant": true,
      "inputs": [
        {
          "internalType": "bytes32",
          "name": "_itemID",
          "type": "bytes32"
        }
      ],
      "name": "isPermitted",
      "outputs": [
        {
          "internalType": "bool",
          "name": "allowed",
          "type": "bool"
        }
      ],
      "payable": false,
      "stateMutability": "view",
      "type": "function"
    },
    {
      "constant": true,
      "inputs": [],
      "name": "itemCount",
      "outputs": [
        {
          "internalType": "uint256",
          "name": "",
          "type": "uint256"
        }
      ],
      "payable": false,
      "stateMutability": "view",
      "type": "function"
    },
    {
      "constant": true,
      "inputs": [
        {
          "internalType": "bytes32",
          "name": "_itemID",
          "type": "bytes32"
        }
      ],
      "name": "getItem",
      "outputs": [
        {
          "components": [
            {
              "internalType": "bytes32",
              "name": "ID",
              "type": "bytes32"
            },
            {
              "internalType": "bytes",
              "name": "data",
              "type": "bytes"
            },
            {
              "internalType": "enum GTCRMock.ItemStatus",
              "name": "status",
              "type": "uint8"
            },
            {
              "internalType": "bool",
              "name": "disputed",
              "type": "bool"
            },
            {
              "internalType": "bool",
              "name": "resolved",
              "type": "bool"
            },
            {
              "internalType": "uint256",
              "name": "disputeID",
              "type": "uint256"
            },
            {
              "internalType": "uint256",
              "name": "appealStart",
              "type": "uint256"
            },
            {
              "internalType": "uint256",
              "name": "appealEnd",
              "type": "uint256"
            },
            {
              "internalType": "address",
              "name": "requester",
              "type": "address"
            },
            {
              "internalType": "address",
              "name": "challenger",
              "type": "address"
            },
            {
              "internalType": "address",
              "name": "arbitrator",
              "type": "address"
            },
            {
              "internalType": "bytes",
              "name": "arbitratorExtraData",
              "type": "bytes"
            },
            {
              "internalType": "uint256",
              "name": "currentRuling",
              "type": "uint256"
            },
            {
              "internalType": "bool[3]",
              "name": "hasPaid",
              "type": "bool[3]"
            },
            {
              "internalType": "uint256",
              "name": "feeRewards",
              "type": "uint256"
            },
            {
              "internalType": "uint256",
              "name": "submissionTime",
              "type": "uint256"
            },
            {
              "internalType": "uint256[3]",
              "name": "paidFees",
              "type": "uint256[3]"
            },
            {
              "internalType": "enum Arbitrator.DisputeStatus",
              "name": "disputeStatus",
              "type": "uint8"
            }
          ],
          "internalType": "struct GTCRMock.QueryResult",
          "name": "result",
          "type": "tuple"
        }
      ],
      "payable": false,
      "stateMutability": "view",
      "type": "function"
    },
    {
      "constant": true,
      "inputs": [
        {
          "internalType": "bytes",
          "name": "_rlpEncodedMatch",
          "type": "bytes"
        },
        {
          "internalType": "uint256",
          "name": "_cursor",
          "type": "uint256"
        },
        {
          "internalType": "uint256",
          "name": "_returnCount",
          "type": "uint256"
        },
        {
          "internalType": "uint256",
          "name": "_count",
          "type": "uint256"
        }
      ],
      "name": "findItem",
      "outputs": [
        {
          "internalType": "bytes[]",
          "name": "",
          "type": "bytes[]"
        }
      ],
      "payable": false,
      "stateMutability": "view",
      "type": "function"
    },
    {
      "constant": true,
      "inputs": [
        {
          "internalType": "bytes32",
          "name": "_cursor",
          "type": "bytes32"
        },
        {
          "internalType": "uint256",
          "name": "_count",
          "type": "uint256"
        },
        {
          "internalType": "bool[8]",
          "name": "_filter",
          "type": "bool[8]"
        },
        {
          "internalType": "bool",
          "name": "_oldestFirst",
          "type": "bool"
        },
        {
          "internalType": "address",
          "name": "_party",
          "type": "address"
        }
      ],
      "name": "queryItems",
      "outputs": [
        {
          "components": [
            {
              "internalType": "bytes32",
              "name": "ID",
              "type": "bytes32"
            },
            {
              "internalType": "bytes",
              "name": "data",
              "type": "bytes"
            },
            {
              "internalType": "enum GTCRMock.ItemStatus",
              "name": "status",
              "type": "uint8"
            },
            {
              "internalType": "bool",
              "name": "disputed",
              "type": "bool"
            },
            {
              "internalType": "bool",
              "name": "resolved",
              "type": "bool"
            },
            {
              "internalType": "uint256",
              "name": "disputeID",
              "type": "uint256"
            },
            {
              "internalType": "uint256",
              "name": "appealStart",
              "type": "uint256"
            },
            {
              "internalType": "uint256",
              "name": "appealEnd",
              "type": "uint256"
            },
            {
              "internalType": "address",
              "name": "requester",
              "type": "address"
            },
            {
              "internalType": "address",
              "name": "challenger",
              "type": "address"
            },
            {
              "internalType": "address",
              "name": "arbitrator",
              "type": "address"
            },
            {
              "internalType": "bytes",
              "name": "arbitratorExtraData",
              "type": "bytes"
            },
            {
              "internalType": "uint256",
              "name": "currentRuling",
              "type": "uint256"
            },
            {
              "internalType": "bool[3]",
              "name": "hasPaid",
              "type": "bool[3]"
            },
            {
              "internalType": "uint256",
              "name": "feeRewards",
              "type": "uint256"
            },
            {
              "internalType": "uint256",
              "name": "submissionTime",
              "type": "uint256"
            },
            {
              "internalType": "uint256[3]",
              "name": "paidFees",
              "type": "uint256[3]"
            },
            {
              "internalType": "enum Arbitrator.DisputeStatus",
              "name": "disputeStatus",
              "type": "uint8"
            }
          ],
          "internalType": "struct GTCRMock.QueryResult[]",
          "name": "results",
          "type": "tuple[]"
        },
        {
          "internalType": "bool",
          "name": "hasMore",
          "type": "bool"
        }
      ],
      "payable": false,
      "stateMutability": "view",
      "type": "function"
    }
  ],
  "bytecode": "0x608060405260026000553480156200001657600080fd5b50604051620043d8380380620043d8833981016040819052620000399162000230565b6000600080516020620043b88339815191528a6040516200005b9190620003bd565b60405180910390a26001600080516020620043b883398151915289604051620000859190620003bd565b60405180910390a260038054600160a060020a031916600160a060020a038d161790558951620000bd9060049060208d019062000102565b5060018054600160a060020a031916600160a060020a039890981697909717909655600594909455600692909255600755600b55600955600a5550620004c692505050565b828054600181600116156101000203166002900490600052602060002090601f016020900481019282601f106200014557805160ff191683800117855562000175565b8280016001018555821562000175579182015b828111156200017557825182559160200191906001019062000158565b506200018392915062000187565b5090565b620001a491905b808211156200018357600081556001016200018e565b90565b8051620001b48162000496565b92915050565b600082601f830112620001cc57600080fd5b8151620001e3620001dd82620003fe565b620003d7565b915080825260208301602083018583830111156200020057600080fd5b6200020d83828462000459565b50505092915050565b8051620001b481620004b0565b8051620001b481620004bb565b60008060008060008060008060008060006101608c8e0312156200025357600080fd5b6000620002618e8e62000216565b9b505060208c01516001604060020a038111156200027e57600080fd5b6200028c8e828f01620001ba565b9a505060408c01516001604060020a03811115620002a957600080fd5b620002b78e828f01620001ba565b99505060608c01516001604060020a03811115620002d457600080fd5b620002e28e828f01620001ba565b9850506080620002f58e828f01620001a7565b97505060a0620003088e828f0162000223565b96505060c06200031b8e828f0162000223565b95505060e06200032e8e828f0162000223565b945050610100620003428e828f0162000223565b935050610120620003568e828f0162000223565b9250506101406200036a8e828f0162000223565b9150509295989b509295989b9093969950565b60006200038a8262000426565b6200039681856200042a565b9350620003a881856020860162000459565b620003b3816200048c565b9093019392505050565b60208082528101620003d081846200037d565b9392505050565b6040518181016001604060020a0381118282101715620003f657600080fd5b604052919050565b60006001604060020a038211156200041557600080fd5b506020601f91909101601f19160190565b5190565b90815260200190565b6000620001b4826200044d565b6000620001b48262000433565b600160a060020a031690565b60005b83811015620004765781810151838201526020016200045c565b8381111562000486576000848401525b50505050565b601f01601f191690565b620004a18162000433565b8114620004ad57600080fd5b50565b620004a18162000440565b620004a181620001a4565b613ee280620004d66000396000f3fe6080604052600436106101b8576000357c0100000000000000000000000000000000000000000000000000000000900480636cdc090f11610109578063aa0372e7116100a7578063d294ccef11610081578063d294ccef14610481578063d36fdb1814610494578063d661dd31146104b4578063e9c24166146104c9576101b8565b8063aa0372e7146103f9578063b70e6a0f14610426578063beabdb7b14610454576101b8565b80638c10fef3116100e35780638c10fef3146103845780639c81a82714610399578063a1c2bf4d146103b9578063a836f307146103d9576101b8565b80636cdc090f146103475780637b9433831461035c578063873db1a714610371576101b8565b8063329cedb411610176578063571e053d11610150578063571e053d146102ce5780635cfb0924146102e35780636bfb0d01146103105780636cc6cde114610325576101b8565b8063329cedb414610276578063416583411461028b57806348f343f3146102a0576101b8565b806282a36d146101bd5780630c340a24146101e85780630c7ac7b61461020a5780631d5120851461022c5780632c2decc114610241578063311a6c5614610256575b600080fd5b3480156101c957600080fd5b506101d26104e9565b6040516101df9190613bec565b60405180910390f35b3480156101f457600080fd5b506101fd6104ef565b6040516101df9190613b9f565b34801561021657600080fd5b5061021f6104fe565b6040516101df9190613bfa565b34801561023857600080fd5b506101d261058c565b61025461024f366004613230565b610592565b005b34801561026257600080fd5b506102546102713660046132e7565b61063e565b34801561028257600080fd5b506101d26108ee565b34801561029757600080fd5b506101d26108f4565b3480156102ac57600080fd5b506102c06102bb366004613144565b6108fa565b6040516101df929190613c0b565b3480156102da57600080fd5b506101fd6109a4565b3480156102ef57600080fd5b506103036102fe366004613272565b6109b3565b6040516101df9190613bad565b34801561031c57600080fd5b506101d2610c0f565b34801561033157600080fd5b5061033a610c16565b6040516101df9190613c3c565b34801561035357600080fd5b506101d2610c25565b34801561036857600080fd5b506101d2610c2b565b61025461037f366004613162565b610c31565b34801561039057600080fd5b506101d2611047565b3480156103a557600080fd5b506101d26103b43660046130ec565b61104d565b3480156103c557600080fd5b506102546103d436600461308b565b61106a565b3480156103e557600080fd5b506101d26103f4366004613144565b6112d5565b34801561040557600080fd5b50610419610414366004613144565b6112f3565b6040516101df9190613d1c565b34801561043257600080fd5b506104466104413660046131b8565b6118cb565b6040516101df929190613bbe565b34801561046057600080fd5b5061047461046f366004613144565b61222d565b6040516101df9190613bde565b61025461048f366004613230565b612276565b3480156104a057600080fd5b506102546104af366004613144565b6122d4565b3480156104c057600080fd5b506101d2612306565b3480156104d557600080fd5b506102546104e4366004613144565b61230c565b60075481565b600154600160a060020a031681565b6004805460408051602060026001851615610100026000190190941693909304601f810184900484028201840190925281815292918301828280156105845780601f1061055957610100808354040283529160200191610584565b820191906000526020600020905b81548152906001019060200180831161056757829003601f168201915b505050505081565b600a5481565b600082826040516105a4929190613b92565b604051908190039020905060016000828152600d602052604090206001015460ff1660038111156105d157fe5b146105fa5760405160e560020a62461bcd0281526004016105f190613ccc565b60405180910390fd5b61063983838080601f01602080910402602001604051908101604052809392919081815260200183838082843760009201919091525061244492505050565b505050565b600081600281111561064c57fe5b336000908152600e60209081526040808320878452825280832054808452600d9092528220600281018054949550919390929190600019810190811061068e57fe5b6000918252602082206007600a9092020190810180549193509060001981019081106106b657fe5b906000526020600020906006020190506000548611156106d557600080fd5b60088201546101009004600160a060020a031633146106f357600080fd5b600382015460ff161561070557600080fd5b600381015460ff610100909104161515600114156107265760019450610743565b600381015462010000900460ff1615156001141561074357600294505b86337f394027a5fa6e098a1191094d1719d6929b9abc535fcc0c8f448d6a4e7562227687600281111561077257fe5b60405161077f9190613bec565b60405180910390a3600185600281111561079557fe5b14156107e9576002600184015460ff1660038111156107b057fe5b14156107cb576001838101805460ff191690911790556107e4565b6001808401805460009260ff1990911690835b02179055505b610847565b6002600184015460ff1660038111156107fe57fe5b141561081b576001808401805460009260ff1990911690836107de565b6003600184015460ff16600381111561083057fe5b1415610847576001838101805460ff191690911790555b600382018054600160ff19918216811790925560088401805488939192169083600281111561087257fe5b0217905550600085600281111561088557fe5b14156108d2576108bf6004830160015b6003811061089f57fe5b01546002850154600160a060020a0390911690869060001901600061106a565b6108cd600483016002610895565b6108e5565b6108e58260040186600281111561089557fe5b50505050505050565b60065481565b600b5481565b600d6020908152600091825260409182902080548351601f600260001961010060018616150201909316929092049182018490048402810184019094528084529092918391908301828280156109915780601f1061096657610100808354040283529160200191610991565b820191906000526020600020905b81548152906001019060200180831161097457829003601f168201915b5050506001909301549192505060ff1682565b600254600160a060020a031681565b6060806109c76109c287612734565b612759565b90506060836040519080825280602002602001820160405280156109ff57816020015b60608152602001906001900390816109ea5790505b5090506000865b8515610a125785610a16565b600c545b811015610c02576000600d6000600c8481548110610a3057fe5b9060005260206000200154815260200190815260200160002060000190506060610af56109c2838054600181600116156101000203166002900480601f016020809104026020016040519081016040528092919081815260200182805460018160011615610100020316600290048015610aeb5780601f10610ac057610100808354040283529160200191610aeb565b820191906000526020600020905b815481529060010190602001808311610ace57829003601f168201915b5050505050612734565b905060005b8651811015610bf757610b3d610b22888381518110610b1557fe5b6020026020010151612826565b610b31848481518110610b1557fe5b9063ffffffff61289f16565b15610bef578254604080516020601f60026000196101006001881615020190951694909404938401819004810282018101909252828152918591830182828015610bc85780601f10610b9d57610100808354040283529160200191610bc8565b820191906000526020600020905b815481529060010190602001808311610bab57829003601f168201915b5050505050868681518110610bd957fe5b6020908102919091010152600190940193610bf7565b600101610afa565b505050600101610a06565b5090979650505050505050565b600c545b90565b600354600160a060020a031681565b60085481565b60095481565b6000838152600d602052604090206002600182015460ff166003811115610c5457fe5b1480610c7257506003600182015460ff166003811115610c7057fe5b145b610c915760405160e560020a62461bcd0281526004016105f190613d0c565b600281018054600091906000198101908110610ca957fe5b90600052602060002090600a02019050600754816002015442031115610ce45760405160e560020a62461bcd0281526004016105f190613cac565b805460ff1615610d095760405160e560020a62461bcd0281526004016105f190613c7c565b60068101805473ffffffffffffffffffffffffffffffffffffffff191633179055600781018054600091906000198101908110610d4257fe5b60009182526020822060088501546040517ff7434ea900000000000000000000000000000000000000000000000000000000815260069093029091019350600160a060020a03610100909104169063f7434ea990610da7906009870190600401613c2b565b60206040518083038186803b158015610dbf57600080fd5b505afa158015610dd3573d6000803e3d6000fd5b505050506040513d601f19601f82011682018060405250610df791908101906132c9565b90506000610e3e600654610e32612710610e1c600b548761290590919063ffffffff16565b81610e2357fe5b8691900463ffffffff61293916565b9063ffffffff61293916565b9050610e4e83600233348561294e565b8083600201541015610e755760405160e560020a62461bcd0281526004016105f190613c5c565b6003830180546201000062ff00001990911617905560088401546000546040517fc13517e1000000000000000000000000000000000000000000000000000000008152610100909204600160a060020a03169163c13517e1918591610ee2919060098a0190600401613d2d565b6020604051808303818588803b158015610efb57600080fd5b505af1158015610f0f573d6000803e3d6000fd5b50505050506040513d601f19601f82011682018060405250610f3491908101906132c9565b600185810182905560088601546101009004600160a060020a03166000908152600e6020908152604080832094835293905291909120899055845460ff19168117855560078501805491610f8a91908301612c34565b506004830154610fa0908363ffffffff612a1a16565b6004840155851561103d5760028501546040513391610fc8918b916000190190602001613b6c565b60405160208183030381529060405280519060200120600190048560080160019054906101000a9004600160a060020a0316600160a060020a03167fdccf2f8b2cc26eafcd61905cba744cff4b81d14740725f6376390dc6298a6a3c8a8a604051611034929190613c4a565b60405180910390a45b5050505050505050565b60055481565b600e60209081526000928352604080842090915290825290205481565b6000838152600d602052604081206002810180549192918590811061108b57fe5b90600052602060002090600a0201905060008160070184815481106110ac57fe5b600091825260209091206003840154600690920201915060ff166110cf57600080fd5b815460009060ff1615806110f557506000600884015460ff1660028111156110f357fe5b145b156111ce5760008083600101541161110e57600061114a565b826001015483600201546004850154600160a060020a038c1660009081526005870160205260409020929091019160010154028161114857fe5b045b905060008084600201541161116057600061119c565b836001015484600201546004860154600160a060020a038d1660009081526005880160205260409020929091019160020154028161119a57fe5b045b600160a060020a038b166000908152600586016020526040812060018101829055600201559190910191506112a69050565b6008830154600090839060ff1660028111156111e657fe5b600381106111f057fe5b0154116111fe576000611267565b6008830154829060ff16600281111561121357fe5b6003811061121d57fe5b01546004830154600160a060020a038a1660009081526005850160205260409020600886015460ff16600281111561125157fe5b6003811061125b57fe5b0154028161126557fe5b045b600160a060020a038916600090815260058401602052604081206008860154929350909160ff16600281111561129957fe5b600381106112a357fe5b01555b604051600160a060020a0389169082156108fc029083906000818181858888f150505050505050505050505050565b600c81815481106112e257fe5b600091825260209091200154905081565b6112fb612c60565b6000828152600d60205260408120600281018054919291600019810190811061132057fe5b6000918252602082206007600a90920201908101805491935090600019810190811061134857fe5b6000918252602091829020604080516102408101825289815287548251601f600260001961010060018616150201909316929092049182018790048702810187019093528083526006909402909201945090928381019287918301828280156113f25780601f106113c7576101008083540402835291602001916113f2565b820191906000526020600020905b8154815290600101906020018083116113d557829003601f168201915b5050509183525050600185015460209091019060ff16600381111561141357fe5b8152835460ff9081161515602083015260038501541615156040820152600180850154606083015260006080830181905260a083015260c090910190600485010154600160a060020a031681526020016004840160020154600160a060020a03908116825260088501546101009081900490911660208084019190915260098601805460408051600260018416159096026000190190921694909404601f81018490048402820184018552808252939094019392909183018282801561151a5780601f106114ef5761010080835404028352916020019161151a565b820191906000526020600020905b8154815290600101906020018083116114fd57829003601f168201915b5050509183525050600060208083018290526040805160608082018352848252818401859052818301859052828601919091528085018490526002880154608086015281519081018252838152918201839052810182905260a083015260c090910152825490945060ff168015611627575060016008830154600184015460405160e360020a63021e2d3d028152610100909204600160a060020a0316916310f169e8916115ca91600401613bec565b60206040518083038186803b1580156115e257600080fd5b505afa1580156115f6573d6000803e3d6000fd5b505050506040513d601f19601f8201168201806040525061161a91908101906132ab565b600281111561162557fe5b145b156118c357600882015460018301546040517f1c3db16d000000000000000000000000000000000000000000000000000000008152610100909204600160a060020a031691631c3db16d9161167e91600401613bec565b60206040518083038186803b15801561169657600080fd5b505afa1580156116aa573d6000803e3d6000fd5b505050506040513d601f19601f820116820180604052506116ce91908101906132c9565b6101808501526008820154600183015460405160e360020a63021e2d3d028152610100909204600160a060020a0316916310f169e89161171091600401613bec565b60206040518083038186803b15801561172857600080fd5b505afa15801561173c573d6000803e3d6000fd5b505050506040513d601f19601f8201168201806040525061176091908101906132ab565b846102200190600281111561177157fe5b9081600281111561177e57fe5b905250600882015460018301546040517fafe15cfb000000000000000000000000000000000000000000000000000000008152610100909204600160a060020a03169163afe15cfb916117d391600401613bec565b604080518083038186803b1580156117ea57600080fd5b505afa1580156117fe573d6000803e3d6000fd5b505050506040513d601f19601f820116820180604052506118229190810190613306565b60e086015260c085015260048101546101c085015260408051606081019182905290600380840191826000855b825461010083900a900460ff16151581526020600192830181810494850194909303909202910180841161184f5750505050506101a08601919091525060408051606081019182905290829060039082845b8154815260200190600101908083116118a15750505050508461020001819052505b505050919050565b60606000808660405190808252806020026020018201604052801561190a57816020015b6118f7612c60565b8152602001906001900390816118ef5790505b50925060008861191d576000915061197a565b60005b600c548110156119595789600c828154811061193857fe5b9060005260206000200154141561195157809250611959565b600101611920565b508161197a5760405160e560020a62461bcd0281526004016105f190613cec565b6000821561199f578661199557600c5483900360010161199a565b826001015b6119b2565b866119ab5760016119ae565b60005b60ff165b90505b866119c557600c548111156119cb565b600c5481105b15612220576000600c886119e457600c548390036119e6565b825b815481106119f057fe5b6000918252602080832090910154808352600d909152604082206002810180549294509092916000198101908110611a2457fe5b6000918252602091829020600a91909102019150611a44908c018c613126565b8015611a6257506000600183015460ff166003811115611a6057fe5b145b80611a955750611a7860408c0160208d01613126565b8015611a95575060018083015460ff166003811115611a9357fe5b145b80611ad75750611aab60608c0160408d01613126565b8015611ac957506002600183015460ff166003811115611ac757fe5b145b8015611ad75750805460ff16155b80611b195750611aed60808c0160608d01613126565b8015611b0b57506003600183015460ff166003811115611b0957fe5b145b8015611b195750805460ff16155b80611b5a5750611b2f60a08c0160808d01613126565b8015611b4d57506002600183015460ff166003811115611b4b57fe5b145b8015611b5a5750805460ff165b80611b9b5750611b7060c08c0160a08d01613126565b8015611b8e57506003600183015460ff166003811115611b8c57fe5b145b8015611b9b5750805460ff165b80611bd55750611bb160e08c0160c08d01613126565b8015611bd55750600160a060020a0389166004820160010154600160a060020a0316145b80611c105750611bec6101008c0160e08d01613126565b8015611c105750600160a060020a0389166004820160020154600160a060020a0316145b15612215578b85101561220957611c25612c60565b604051806102400160405280600c8d611c4357600c54889003611c45565b875b81548110611c4f57fe5b600091825260209182902001548252855460408051601f600260001961010060018716150201909416939093049283018490048402810184019091528181529282019291879190830182828015611ce75780601f10611cbc57610100808354040283529160200191611ce7565b820191906000526020600020905b815481529060010190602001808311611cca57829003601f168201915b5050509183525050600185015460209091019060ff166003811115611d0857fe5b8152835460ff9081161515602083015260038501541615156040820152600180850154606083015260006080830181905260a083015260c090910190600485010154600160a060020a031681526020016004840160020154600160a060020a03908116825260088501546101009081900490911660208084019190915260098601805460408051600260018416159096026000190190921694909404601f810184900484028201840185528082529390940193929091830182828015611e0f5780601f10611de457610100808354040283529160200191611e0f565b820191906000526020600020905b815481529060010190602001808311611df257829003601f168201915b5050509183525050600060208083018290526040805160608082018352848252818401859052818301859052828601919091528085018490526002880154608086015281519081018252838152918201839052810182905260a083015260c090910152825490915060ff168015611f1c575060016008830154600184015460405160e360020a63021e2d3d028152610100909204600160a060020a0316916310f169e891611ebf91600401613bec565b60206040518083038186803b158015611ed757600080fd5b505afa158015611eeb573d6000803e3d6000fd5b505050506040513d601f19601f82011682018060405250611f0f91908101906132ab565b6002811115611f1a57fe5b145b156121e557600882015460018301546040517f1c3db16d000000000000000000000000000000000000000000000000000000008152610100909204600160a060020a031691631c3db16d91611f7391600401613bec565b60206040518083038186803b158015611f8b57600080fd5b505afa158015611f9f573d6000803e3d6000fd5b505050506040513d601f19601f82011682018060405250611fc391908101906132c9565b6101808201526008820154600183015460405160e360020a63021e2d3d028152610100909204600160a060020a0316916310f169e89161200591600401613bec565b60206040518083038186803b15801561201d57600080fd5b505afa158015612031573d6000803e3d6000fd5b505050506040513d601f19601f8201168201806040525061205591908101906132ab565b816102200190600281111561206657fe5b9081600281111561207357fe5b905250600882015460018301546040517fafe15cfb000000000000000000000000000000000000000000000000000000008152610100909204600160a060020a03169163afe15cfb916120c891600401613bec565b604080518083038186803b1580156120df57600080fd5b505afa1580156120f3573d6000803e3d6000fd5b505050506040513d601f19601f820116820180604052506121179190810190613306565b60e083015260c082015260078201805460009190600019810190811061213957fe5b60009182526020822060069091020160048101546101c0850152604080516060810191829052919350909160038085019290918390855b825461010083900a900460ff1615158152602060019283018181049485019490930390920291018084116121705750505050506101a08401919091525060408051606081019182905290829060039082845b8154815260200190600101908083116121c2575050505050826102000181905250505b808987815181106121f257fe5b602090810291909101015250600190940193612215565b60019650505050612220565b5050506001016119b5565b5050509550959350505050565b6000818152600d6020526040812060018082015460ff16600381111561224f57fe5b148061226d57506003600182015460ff16600381111561226b57fe5b145b9150505b919050565b60008282604051612288929190613b92565b6040519081900390209050600080828152600d602052604090206001015460ff1660038111156122b457fe5b146105fa5760405160e560020a62461bcd0281526004016105f190613cbc565b600154600160a060020a031633146123015760405160e560020a62461bcd0281526004016105f190613c8c565b600755565b61271081565b6000818152600d60205260408120600281018054919291600019810190811061233157fe5b90600052602060002090600a02019050600754816002015442031161236b5760405160e560020a62461bcd0281526004016105f190613c9c565b805460ff16156123905760405160e560020a62461bcd0281526004016105f190613c6c565b6002600183015460ff1660038111156123a557fe5b14156123c3576001828101805460ff191682805b0217905550612410565b6003600183015460ff1660038111156123d857fe5b14156123f5576001808301805460009260ff1990911690836123b9565b60405160e560020a62461bcd0281526004016105f190613cdc565b60038101805460ff191660011790556005810154600283015461063991600160a060020a031690859060001901600061106a565b80516020808301919091206000818152600d909252604090912060028101546124b057600c80546001810182556000919091527fdf6966c971051c3d54ec59162606531493a51404a002842f56009d7e5cf4a8c70182905582516124ae9082906020860190612cf9565b505b6000600182015460ff1660038111156124c557fe5b14156124e8576001808201805460029260ff1990911690835b0217905550612534565b60018082015460ff1660038111156124fc57fe5b1415612519576001808201805460039260ff1990911690836124de565b60405160e560020a62461bcd0281526004016105f190613cfc565b6002810180546000919061254b8260018301612d77565b8154811061255557fe5b60009182526020909120600a909102016005810180543373ffffffffffffffffffffffffffffffffffffffff199091161790554260028083019190915560035460088301805474ffffffffffffffffffffffffffffffffffffffff001916610100600160a060020a039093168302179055600480549394506125e99360098601939192600182161502600019011604612da3565b50600781018054600091906126018260018301612c34565b8154811061260b57fe5b60009182526020822060088501546040517ff7434ea900000000000000000000000000000000000000000000000000000000815260069093029091019350600160a060020a03610100909104169063f7434ea990612670906009870190600401613c2b565b60206040518083038186803b15801561268857600080fd5b505afa15801561269c573d6000803e3d6000fd5b505050506040513d601f19601f820116820180604052506126c091908101906132c9565b905060006126e5600554610e32612710610e1c600b548761290590919063ffffffff16565b90506126f583600133348561294e565b808360010154101561271c5760405160e560020a62461bcd0281526004016105f190613c5c565b5050600301805461ff00191661010017905550505050565b61273c612e18565b506040805180820190915281518152602082810190820152919050565b606061276482612a35565b61276d57600080fd5b600061277883612a6f565b9050806040519080825280602002602001820160405280156127b457816020015b6127a1612e18565b8152602001906001900390816127995790505b50915060006127c68460200151612acb565b60208501510190506000805b8381101561281d576127e383612b34565b915060405180604001604052808381526020018481525085828151811061280657fe5b6020908102919091010152918101916001016127d2565b50505050919050565b805160609061283457600080fd5b60006128438360200151612acb565b83516040805191839003808352601f19601f820116830160200190915291925060609082801561287a576020820181803883390190505b5090506000816020019050612896848760200151018285612bc4565b50949350505050565b8151815160009160019181148083146128bb57600092506128f9565b600160208701838101602088015b6002848385100114156128f45780518351146128e85760009650600093505b602092830192016128c9565b505050505b50909150505b92915050565b600082612914575060006128ff565b8282028284828161292157fe5b041461292f57600019612931565b805b949350505050565b60008282018381101561292f57600019612931565b6000806129838461297e8989600281111561296557fe5b6003811061296f57fe5b0154869063ffffffff612a1a16565b612c0f565b600160a060020a038716600090815260058a0160205260409020919350915082908760028111156129b057fe5b600381106129ba57fe5b018054909101905581878760028111156129d057fe5b600381106129da57fe5b018054909101905560048701805483019055604051600160a060020a0386169082156108fc029083906000818181858888f1505050505050505050505050565b600082821115612a2c575060006128ff565b508082036128ff565b8051600090612a4657506000612271565b6020820151805160001a9060c0821015612a6557600092505050612271565b5060019392505050565b8051600090612a8057506000612271565b60008090506000612a948460200151612acb565b602085015185519181019250015b80821015612ac257612ab382612b34565b60019093019290910190612aa2565b50909392505050565b8051600090811a6080811015612ae5576000915050612271565b60b8811080612b00575060c08110801590612b00575060f881105b15612b0f576001915050612271565b60c0811015612b235760b519019050612271565b60f519019050612271565b50919050565b8051600090811a6080811015612b4e576001915050612271565b60b8811015612b6257607e19019050612271565b60c0811015612b8f5760b78103600184019350806020036101000a84510460018201810193505050612b2e565b60f8811015612ba35760be19019050612271565b60019290920151602083900360f7016101000a900490910160f51901919050565b80612bce57610639565b5b60208110612bee578251825260209283019290910190601f1901612bcf565b915181516020939093036101000a6000190180199091169216919091179052565b60008083831115612c2557508290506000612c2d565b508190508083035b9250929050565b815481835581811115610639576006028160060283600052602060002091820191016106399190612e32565b6040805161024081018252600080825260606020830152909182019081526000602082018190526040820181905260608083018290526080830182905260a0830182905260c0830182905260e08301829052610100830182905261012083015261014082015261016001612cd2612e6a565b81526020016000815260200160008152602001612ced612e6a565b81526020016000905290565b828054600181600116156101000203166002900490600052602060002090601f016020900481019282601f10612d3a57805160ff1916838001178555612d67565b82800160010185558215612d67579182015b82811115612d67578251825591602001919060010190612d4c565b50612d73929150612e88565b5090565b81548183558181111561063957600a0281600a0283600052602060002091820191016106399190612ea2565b828054600181600116156101000203166002900490600052602060002090601f016020900481019282601f10612ddc5780548555612d67565b82800160010185558215612d6757600052602060002091601f016020900482015b82811115612d67578254825591600101919060010190612dfd565b604051806040016040528060008152602001600081525090565b610c1391905b80821115612d73576000612e4c8282612f28565b612e5a600383016000612f3d565b5060006004820155600601612e38565b60405180606001604052806003906020820280388339509192915050565b610c1391905b80821115612d735760008155600101612e8e565b610c1391905b80821115612d7357805460ff19908116825560006001830181905560028301819055600383018054909216909155612ee36004830182612f28565b612ef1600783016000612f44565b60088201805474ffffffffffffffffffffffffffffffffffffffffff19169055612f1f600983016000612f68565b50600a01612ea8565b50600081556001016000815560010160009055565b5060009055565b5080546000825560060290600052602060002090810190612f659190612e32565b50565b50805460018160011615610100020316600290046000825580601f10612f8e5750612f65565b601f016020900490600052602060002090810190612f659190612e88565b80356128ff81613e6c565b8061010081018310156128ff57600080fd5b80356128ff81613e80565b80356128ff81613e89565b60008083601f840112612ff157600080fd5b50813567ffffffffffffffff81111561300957600080fd5b602083019150836001820283011115612c2d57600080fd5b600082601f83011261303257600080fd5b813561304561304082613d74565b613d4d565b9150808252602083016020830185838301111561306157600080fd5b61306c838284613e12565b50505092915050565b80516128ff81613e92565b80516128ff81613e89565b600080600080608085870312156130a157600080fd5b60006130ad8787612fac565b94505060206130be87828801612fd4565b93505060406130cf87828801612fd4565b92505060606130e087828801612fd4565b91505092959194509250565b600080604083850312156130ff57600080fd5b600061310b8585612fac565b925050602061311c85828601612fd4565b9150509250929050565b60006020828403121561313857600080fd5b60006129318484612fc9565b60006020828403121561315657600080fd5b60006129318484612fd4565b60008060006040848603121561317757600080fd5b60006131838686612fd4565b935050602084013567ffffffffffffffff8111156131a057600080fd5b6131ac86828701612fdf565b92509250509250925092565b600080600080600061018086880312156131d157600080fd5b60006131dd8888612fd4565b95505060206131ee88828901612fd4565b94505060406131ff88828901612fb7565b93505061014061321188828901612fc9565b92505061016061322388828901612fac565b9150509295509295909350565b6000806020838503121561324357600080fd5b823567ffffffffffffffff81111561325a57600080fd5b61326685828601612fdf565b92509250509250929050565b6000806000806080858703121561328857600080fd5b843567ffffffffffffffff81111561329f57600080fd5b6130ad87828801613021565b6000602082840312156132bd57600080fd5b60006129318484613075565b6000602082840312156132db57600080fd5b60006129318484613080565b600080604083850312156132fa57600080fd5b600061310b8585612fd4565b6000806040838503121561331957600080fd5b60006133258585613080565b925050602061311c85828601613080565b600061334283836134f3565b505060200190565b60006133568383613535565b9392505050565b600061335683836139ea565b600061334283836134fc565b61337e81613dc1565b82525050565b61338d81613dae565b6133978184612271565b92506133a282610c13565b8060005b838110156133d05781516133ba8782613336565b96506133c583613d9c565b9250506001016133a6565b505050505050565b60006133e382613db4565b6133ed8185613db8565b9350836020820285016133ff85613d9c565b8060005b85811015613439578484038952815161341c858261334a565b945061342783613d9c565b60209a909a0199925050600101613403565b5091979650505050505050565b600061345182613db4565b61345b8185613db8565b93508360208202850161346d85613d9c565b8060005b85811015613439578484038952815161348a858261335d565b945061349583613d9c565b60209a909a0199925050600101613471565b6134b081613dae565b6134ba8184612271565b92506134c582610c13565b8060005b838110156133d05781516134dd8782613369565b96506134e883613d9c565b9250506001016134c9565b61337e81613dcc565b61337e81610c13565b61337e61351182610c13565b610c13565b60006135228385612271565b935061352f838584613e12565b50500190565b600061354082613db4565b61354a8185613db8565b935061355a818560208601613e1e565b61356381613e4e565b9093019392505050565b60008154600181166000811461358a57600181146135b0576135ef565b607f600283041661359b8187613db8565b60ff19841681529550506020850192506135ef565b600282046135be8187613db8565b95506135c985613da2565b60005b828110156135e8578154888201526001909101906020016135cc565b8701945050505b505092915050565b61337e81613df1565b61337e81613dfc565b61337e81613e07565b600061361e8385613db8565b935061362b838584613e12565b61356383613e4e565b6000613641601e83613db8565b7f596f75206d7573742066756c6c792066756e6420796f757220736964652e0000815260200192915050565b600061367a602383613db8565b7f54686520726571756573742073686f756c64206e6f742062652064697370757481527f65642e0000000000000000000000000000000000000000000000000000000000602082015260400192915050565b60006136d9603283613db8565b7f54686520726571756573742073686f756c64206e6f74206861766520616c726581527f616479206265656e2064697370757465642e0000000000000000000000000000602082015260400192915050565b6000613738602083613db8565b7f5468652063616c6c6572206d7573742062652074686520676f7665726e6f722e815260200192915050565b6000613771602f83613db8565b7f54696d6520746f206368616c6c656e6765207468652072657175657374206d7581527f73742068617665207061737365642e0000000000000000000000000000000000602082015260400192915050565b60006137d0603283613db8565b7f4368616c6c656e676573206d757374206f6363757220647572696e672074686581527f206368616c6c656e676520706572696f642e0000000000000000000000000000602082015260400192915050565b600061382f602083613db8565b7f4974656d206d75737420626520616273656e7420746f2062652061646465642e815260200192915050565b6000613868602683613db8565b7f4974656d206d757374206265207265676973746572656420746f20626520726581527f6d6f7665642e0000000000000000000000000000000000000000000000000000602082015260400192915050565b60006138c7601883613db8565b7f5468657265206d757374206265206120726571756573742e0000000000000000815260200192915050565b6000613900601683613db8565b7f54686520637572736f7220697320696e76616c69642e00000000000000000000815260200192915050565b6000613939602383613db8565b7f4974656d20616c72656164792068617320612070656e64696e6720726571756581527f73742e0000000000000000000000000000000000000000000000000000000000602082015260400192915050565b6000613998602583613db8565b7f546865206974656d206d757374206861766520612070656e64696e672072657181527f756573742e000000000000000000000000000000000000000000000000000000602082015260400192915050565b80516000906102c08401906139ff85826134fc565b5060208301518482036020860152613a178282613535565b9150506040830151613a2c6040860182613609565b506060830151613a3f60608601826134f3565b506080830151613a5260808601826134f3565b5060a0830151613a6560a08601826134fc565b5060c0830151613a7860c08601826134fc565b5060e0830151613a8b60e08601826134fc565b50610100830151613aa0610100860182613375565b50610120830151613ab5610120860182613375565b50610140830151613aca610140860182613375565b50610160830151848203610160860152613ae48282613535565b915050610180830151613afb6101808601826134fc565b506101a0830151613b106101a0860182613384565b506101c0830151613b256102008601826134fc565b506101e0830151613b3a6102208601826134fc565b50610200830151613b4f6102408601826134a7565b50610220830151613b646102a0860182613600565b509392505050565b6000613b788285613505565b602082019150613b888284613505565b5060200192915050565b6000612931828486613516565b602081016128ff8284613375565b6020808252810161335681846133d8565b60408082528101613bcf8185613446565b905061335660208301846134f3565b602081016128ff82846134f3565b602081016128ff82846134fc565b602080825281016133568184613535565b60408082528101613c1c8185613535565b90506133566020830184613609565b60208082528101613356818461356d565b602081016128ff82846135f7565b60208082528101612931818486613612565b602080825281016128ff81613634565b602080825281016128ff8161366d565b602080825281016128ff816136cc565b602080825281016128ff8161372b565b602080825281016128ff81613764565b602080825281016128ff816137c3565b602080825281016128ff81613822565b602080825281016128ff8161385b565b602080825281016128ff816138ba565b602080825281016128ff816138f3565b602080825281016128ff8161392c565b602080825281016128ff8161398b565b6020808252810161335681846139ea565b60408101613d3b82856134fc565b8181036020830152612931818461356d565b60405181810167ffffffffffffffff81118282101715613d6c57600080fd5b604052919050565b600067ffffffffffffffff821115613d8b57600080fd5b506020601f91909101601f19160190565b60200190565b60009081526020902090565b50600390565b5190565b90815260200190565b60006128ff82613de5565b151590565b8061227181613e58565b8061227181613e62565b600160a060020a031690565b60006128ff82613dc1565b60006128ff82613dd1565b60006128ff82613ddb565b82818337506000910152565b60005b83811015613e39578181015183820152602001613e21565b83811115613e48576000848401525b50505050565b601f01601f191690565b60038110612f6557fe5b60048110612f6557fe5b613e7581613dc1565b8114612f6557600080fd5b613e7581613dcc565b613e7581610c13565b60038110612f6557600080fdfea365627a7a723158206caba7479bbe392be8a832749a56208410d636368beb32ab4b5a8b65572e0d3c6c6578706572696d656e74616cf564736f6c634300050b004061606860eb6c87306811e2695215385101daab53bd6ab4e9f9049aead9363c7d",
  "source": "/**\n *  @authors: [@mtsalenc]\n *  @reviewers: []\n *  @auditors: []\n *  @bounties: []\n *  @deployments: []\n */\n\npragma solidity ^0.5.11;\npragma experimental ABIEncoderV2;\n\nimport { IArbitrable, Arbitrator } from \"@kleros/erc-792/contracts/Arbitrator.sol\";\nimport { IEvidence } from \"@kleros/erc-792/contracts/erc-1497/IEvidence.sol\";\n\nimport \"solidity-bytes-utils/contracts/BytesLib.sol\";\nimport \"solidity-rlp/contracts/RLPReader.sol\";\nimport \"./libraries/CappedMath.sol\";\n\ncontract GTCRMock is IArbitrable, IEvidence{\n    using CappedMath for uint; // Operations bounded between 0 and 2**256 - 1.\n    using RLPReader for RLPReader.RLPItem;\n    using RLPReader for bytes;\n    using BytesLib for bytes;\n\n    /* Enums */\n\n    enum ItemStatus {\n        Absent,\n        Registered,\n        RegistrationRequested,\n        ClearingRequested\n    }\n\n    enum Party {\n        None,      // Party per default when there is no challenger or requester. Also used for unconclusive ruling.\n        Requester, // Party that made the request to change an address status.\n        Challenger // Party that challenges the request to change an address status.\n    }\n\n    /* Structs */\n\n    struct Item {\n        bytes data;\n        ItemStatus status; // The status of the item.\n        Request[] requests; // List of status change requests made for the item.\n    }\n\n    struct Request {\n        bool disputed; // True if a dispute was raised.\n        uint disputeID; // ID of the dispute, if any.\n        uint submissionTime; // Time when the request was made. Used to track when the challenge period ends.\n        bool resolved; // True if the request was executed and/or any disputes raised were resolved.\n        address payable[3] parties; // Address of requester and challenger, if any.\n        Round[] rounds; // Tracks each round of a dispute.\n        Party ruling; // The final ruling given, if any.\n        Arbitrator arbitrator; // The arbitrator trusted to solve disputes for this request.\n        bytes arbitratorExtraData; // The extra data for the trusted arbitrator of this request.\n    }\n\n    struct Round {\n        uint[3] paidFees; // Tracks the fees paid by each side on this round.\n        bool[3] hasPaid; // True when the side has fully paid its fee. False otherwise.\n        uint feeRewards; // Sum of reimbursable fees and stake rewards available to the parties that made contributions to the side that ultimately wins a dispute.\n        mapping(address => uint[3]) contributions; // Maps contributors to their contributions for each side.\n    }\n\n    struct QueryResult {\n        bytes32 ID;\n        bytes data;\n        ItemStatus status;\n        bool disputed;\n        bool resolved;\n        uint disputeID;\n        uint appealStart;\n        uint appealEnd;\n        address requester;\n        address challenger;\n        address arbitrator;\n        bytes arbitratorExtraData;\n        uint currentRuling;\n        bool[3] hasPaid;\n        uint feeRewards;\n        uint submissionTime;\n        uint[3] paidFees;\n        Arbitrator.DisputeStatus disputeStatus;\n    }\n\n    /* Storage */\n\n    // Constants\n\n    uint RULING_OPTIONS = 2; // The amount of non 0 choices the arbitrator can give.\n\n    // Settings\n    address public governor; // The address that can make governance changes to the parameters of the TCR.\n    address public relatedTCR; // The address of the TCR of TCRs related to this one.\n    Arbitrator public arbitrator; // The arbitrator that will be used to resolve disputes on the next requests.\n    bytes public arbitratorExtraData; // The arbitrator extra data used for the next requests.\n    uint public requesterBaseDeposit; // The base deposit to make a request.\n    uint public challengerBaseDeposit; // The base deposit to challenge a request.\n    uint public challengePeriodDuration; // The time before a request becomes executable if not challenged.\n    uint public metaEvidenceUpdates; // The number of times the meta evidence has been updated. Used to track the latest meta evidence ID.\n\n    // The required fee stake that a party must pay depends on who won the previous round and is proportional to the arbitration cost such that the fee stake for a round is stake multiplier * arbitration cost for that round.\n    // Multipliers are in basis points.\n    uint public winnerStakeMultiplier; // Multiplier for calculating the fee stake paid by the party that won the previous round.\n    uint public loserStakeMultiplier; // Multiplier for calculating the fee stake paid by the party that lost the previous round.\n    uint public sharedStakeMultiplier; // Multiplier for calculating the fee stake that must be paid in the case where there isn't a winner and loser (e.g. when it's the first round or the arbitrator ruled \"refused to rule\"/\"could not rule\").\n    uint public constant MULTIPLIER_DIVISOR = 10000; // Divisor parameter for multipliers.\n\n    // Registry data.\n    bytes32[] public itemIDs; // List of IDs of submitted items.\n    mapping(bytes32 => Item) public items; // Maps the item ID to the item.\n    mapping(address => mapping(uint => bytes32)) public arbitratorDisputeIDToItemID; // Maps a dispute ID to the ID of the item with the disputed request. On the form arbitratorDisputeIDToItemID[arbitrator][disputeID].\n\n    /* Modifiers */\n\n    modifier onlyGovernor {require(msg.sender == governor, \"The caller must be the governor.\"); _;}\n\n    constructor(\n        Arbitrator _arbitrator,\n        bytes memory _arbitratorExtraData,\n        string memory _registrationMetaEvidence,\n        string memory _clearingMetaEvidence,\n        address _governor,\n        uint _requesterBaseDeposit,\n        uint _challengerBaseDeposit,\n        uint _challengePeriodDuration,\n        uint _sharedStakeMultiplier,\n        uint _winnerStakeMultiplier,\n        uint _loserStakeMultiplier\n    ) public {\n        emit MetaEvidence(0, _registrationMetaEvidence);\n        emit MetaEvidence(1, _clearingMetaEvidence);\n\n        arbitrator = _arbitrator;\n        arbitratorExtraData = _arbitratorExtraData;\n        governor = _governor;\n        requesterBaseDeposit = _requesterBaseDeposit;\n        challengerBaseDeposit = _challengerBaseDeposit;\n        challengePeriodDuration = _challengePeriodDuration;\n        sharedStakeMultiplier = _sharedStakeMultiplier;\n        winnerStakeMultiplier = _winnerStakeMultiplier;\n        loserStakeMultiplier = _loserStakeMultiplier;\n    }\n\n    function addItem(bytes calldata _item) external payable {\n        bytes32 itemID = keccak256(_item);\n        require(items[itemID].status == ItemStatus.Absent, \"Item must be absent to be added.\");\n        requestStatusChange(_item);\n    }\n\n    function removeItem(bytes calldata _item) external payable {\n        bytes32 itemID = keccak256(_item);\n        require(items[itemID].status == ItemStatus.Registered, \"Item must be registered to be removed.\");\n        requestStatusChange(_item);\n    }\n\n    /** @dev Executes a request if the challenge period passed and no one challenged the request.\n     *  @param _item The item with the request to execute.\n     */\n    function executeRequest(bytes32 _item) external {\n        Item storage addr = items[_item];\n        Request storage request = addr.requests[addr.requests.length - 1];\n        require(\n            now - request.submissionTime > challengePeriodDuration,\n            \"Time to challenge the request must have passed.\"\n        );\n        require(!request.disputed, \"The request should not be disputed.\");\n\n        if (addr.status == ItemStatus.RegistrationRequested)\n            addr.status = ItemStatus.Registered;\n        else if (addr.status == ItemStatus.ClearingRequested)\n            addr.status = ItemStatus.Absent;\n        else\n            revert(\"There must be a request.\");\n\n        request.resolved = true;\n        withdrawFeesAndRewards(request.parties[uint(Party.Requester)], _item, addr.requests.length - 1, 0); // Automatically withdraw for the requester.\n    }\n\n    /** @dev Challenges the latest request of a item. Accepts enough ETH to fund a potential dispute considering the current required amount. Reimburses unused ETH. TRUSTED.\n     *  @param _itemID The ID of the item with the request to challenge.\n     *  @param _evidence A link to an evidence using its URI. Ignored if not provided or if not enough funds were provided to create a dispute.\n     */\n    function challengeRequest(bytes32 _itemID, string calldata _evidence) external payable {\n        Item storage item = items[_itemID];\n        require(\n            item.status == ItemStatus.RegistrationRequested || item.status == ItemStatus.ClearingRequested,\n            \"The item must have a pending request.\"\n        );\n        Request storage request = item.requests[item.requests.length - 1];\n        require(now - request.submissionTime <= challengePeriodDuration, \"Challenges must occur during the challenge period.\");\n        require(!request.disputed, \"The request should not have already been disputed.\");\n\n        // Take the deposit and save the challenger's address.\n        request.parties[uint(Party.Challenger)] = msg.sender;\n\n        Round storage round = request.rounds[request.rounds.length - 1];\n        uint arbitrationCost = request.arbitrator.arbitrationCost(request.arbitratorExtraData);\n        uint totalCost = arbitrationCost.addCap((arbitrationCost.mulCap(sharedStakeMultiplier)) / MULTIPLIER_DIVISOR).addCap(challengerBaseDeposit);\n        contribute(round, Party.Challenger, msg.sender, msg.value, totalCost);\n        require(round.paidFees[uint(Party.Challenger)] >= totalCost, \"You must fully fund your side.\");\n        round.hasPaid[uint(Party.Challenger)] = true;\n\n        // Raise a dispute.\n        request.disputeID = request.arbitrator.createDispute.value(arbitrationCost)(RULING_OPTIONS, request.arbitratorExtraData);\n        arbitratorDisputeIDToItemID[address(request.arbitrator)][request.disputeID] = _itemID;\n        request.disputed = true;\n        request.rounds.length++;\n        round.feeRewards = round.feeRewards.subCap(arbitrationCost);\n\n        if (bytes(_evidence).length > 0)\n            emit Evidence(request.arbitrator, uint(keccak256(abi.encodePacked(_itemID,item.requests.length - 1))), msg.sender, _evidence);\n    }\n\n\n    /** @dev Give a ruling for a dispute. Can only be called by the arbitrator. TRUSTED.\n     *  Overrides parent function to account for the situation where the winner loses a case due to paying less appeal fees than expected.\n     *  @param _disputeID ID of the dispute in the arbitrator contract.\n     *  @param _ruling Ruling given by the arbitrator. Note that 0 is reserved for \"Not able/wanting to make a decision\".\n     */\n    function rule(uint _disputeID, uint _ruling) public {\n        Party winner = Party(_ruling);\n        bytes32 itemID = arbitratorDisputeIDToItemID[msg.sender][_disputeID];\n        Item storage item = items[itemID];\n        Request storage request = item.requests[item.requests.length - 1];\n        Round storage round = request.rounds[request.rounds.length - 1];\n        require(_ruling <= RULING_OPTIONS); // solium-disable-line error-reason\n        require(address(request.arbitrator) == msg.sender); // solium-disable-line error-reason\n        require(!request.resolved); // solium-disable-line error-reason\n\n        // The ruling is inverted if the loser paid its fees.\n        if (round.hasPaid[uint(Party.Requester)] == true) // If one side paid its fees, the ruling is in its favor. Note that if the other side had also paid, an appeal would have been created.\n            winner = Party.Requester;\n        else if (round.hasPaid[uint(Party.Challenger)] == true)\n            winner = Party.Challenger;\n\n        emit Ruling(Arbitrator(msg.sender), _disputeID, uint(winner));\n\n        // Update the item's state\n        if (winner == Party.Requester) { // Execute Request\n            if (item.status == ItemStatus.RegistrationRequested)\n                item.status = ItemStatus.Registered;\n            else\n                item.status = ItemStatus.Absent;\n        } else { // Revert to previous state.\n            if (item.status == ItemStatus.RegistrationRequested)\n                item.status = ItemStatus.Absent;\n            else if (item.status == ItemStatus.ClearingRequested)\n                item.status = ItemStatus.Registered;\n        }\n\n        request.resolved = true;\n        request.ruling = Party(winner);\n        // Automatically withdraw.\n        if (winner == Party.None) {\n            withdrawFeesAndRewards(request.parties[uint(Party.Requester)], itemID, item.requests.length-1, 0);\n            withdrawFeesAndRewards(request.parties[uint(Party.Challenger)], itemID, item.requests.length-1, 0);\n        } else {\n            withdrawFeesAndRewards(request.parties[uint(winner)], itemID, item.requests.length-1, 0);\n        }\n    }\n\n    /** @dev Reimburses contributions if no disputes were raised. If a dispute was raised, sends the fee stake rewards and reimbursements proportional to the contributions made to the winner of a dispute.\n     *  @param _beneficiary The address that made contributions to a request.\n     *  @param _itemID The ID of the item with the request from which to withdraw.\n     *  @param _request The request from which to withdraw.\n     *  @param _round The round from which to withdraw.\n     */\n    function withdrawFeesAndRewards(address payable _beneficiary, bytes32 _itemID, uint _request, uint _round) public {\n        Item storage item = items[_itemID];\n        Request storage request = item.requests[_request];\n        Round storage round = request.rounds[_round];\n        // The request must be executed and there can be no disputes pending resolution.\n        require(request.resolved); // solium-disable-line error-reason\n\n        uint reward;\n        if (!request.disputed || request.ruling == Party.None) {\n            // No disputes were raised, or there isn't a winner and loser. Reimburse unspent fees proportionally.\n            uint rewardRequester = round.paidFees[uint(Party.Requester)] > 0\n                ? (round.contributions[_beneficiary][uint(Party.Requester)] * round.feeRewards) / (round.paidFees[uint(Party.Challenger)] + round.paidFees[uint(Party.Requester)])\n                : 0;\n            uint rewardChallenger = round.paidFees[uint(Party.Challenger)] > 0\n                ? (round.contributions[_beneficiary][uint(Party.Challenger)] * round.feeRewards) / (round.paidFees[uint(Party.Challenger)] + round.paidFees[uint(Party.Requester)])\n                : 0;\n\n            reward = rewardRequester + rewardChallenger;\n            round.contributions[_beneficiary][uint(Party.Requester)] = 0;\n            round.contributions[_beneficiary][uint(Party.Challenger)] = 0;\n        } else {\n            // Reward the winner.\n            reward = round.paidFees[uint(request.ruling)] > 0\n                ? (round.contributions[_beneficiary][uint(request.ruling)] * round.feeRewards) / round.paidFees[uint(request.ruling)]\n                : 0;\n\n            round.contributions[_beneficiary][uint(request.ruling)] = 0;\n        }\n\n        _beneficiary.send(reward); // It is the user responsibility to accept ETH.\n    }\n\n    /** @dev Change the duration of the challenge period.\n     *  @param _challengePeriodDuration The new duration of the challenge period.\n     */\n    function changeTimeToChallenge(uint _challengePeriodDuration) external onlyGovernor {\n        challengePeriodDuration = _challengePeriodDuration;\n    }\n\n    /* Internal */\n\n    function requestStatusChange(bytes memory _item) internal {\n        bytes32 itemID = keccak256(_item);\n\n        Item storage item = items[itemID];\n        if (item.requests.length == 0) { // Initial item registration.\n            itemIDs.push(itemID);\n            item.data = _item;\n        }\n\n        // Update item status.\n        if (item.status == ItemStatus.Absent)\n            item.status = ItemStatus.RegistrationRequested;\n        else if (item.status == ItemStatus.Registered)\n            item.status = ItemStatus.ClearingRequested;\n        else\n            revert(\"Item already has a pending request.\");\n\n        // Setup request.\n        Request storage request = item.requests[item.requests.length++];\n        request.parties[uint(Party.Requester)] = msg.sender;\n        request.submissionTime = now;\n        request.arbitrator = arbitrator;\n        request.arbitratorExtraData = arbitratorExtraData;\n        Round storage round = request.rounds[request.rounds.length++];\n\n\n        // Amount required to fully fund each side: requesterBaseDeposit + arbitration cost + (arbitration cost * multiplier).\n        uint arbitrationCost = request.arbitrator.arbitrationCost(request.arbitratorExtraData);\n        uint totalCost = arbitrationCost.addCap((arbitrationCost.mulCap(sharedStakeMultiplier)) / MULTIPLIER_DIVISOR).addCap(requesterBaseDeposit);\n        contribute(round, Party.Requester, msg.sender, msg.value, totalCost);\n        require(round.paidFees[uint(Party.Requester)] >= totalCost, \"You must fully fund your side.\");\n        round.hasPaid[uint(Party.Requester)] = true;\n    }\n\n    /** @dev Returns the contribution value and remainder from available ETH and required amount.\n     *  @param _available The amount of ETH available for the contribution.\n     *  @param _requiredAmount The amount of ETH required for the contribution.\n     *  @return taken The amount of ETH taken.\n     *  @return remainder The amount of ETH left from the contribution.\n     */\n    function calculateContribution(uint _available, uint _requiredAmount)\n        internal\n        pure\n        returns(uint taken, uint remainder)\n    {\n        if (_requiredAmount > _available)\n            return (_available, 0); // Take whatever is available, return 0 as leftover ETH.\n\n        remainder = _available - _requiredAmount;\n        return (_requiredAmount, remainder);\n    }\n\n    /** @dev Make a fee contribution.\n     *  @param _round The round to contribute.\n     *  @param _side The side for which to contribute.\n     *  @param _contributor The contributor.\n     *  @param _amount The amount contributed.\n     *  @param _totalRequired The total amount required for this side.\n     */\n    function contribute(Round storage _round, Party _side, address payable _contributor, uint _amount, uint _totalRequired) internal {\n        // Take up to the amount necessary to fund the current round at the current costs.\n        uint contribution; // Amount contributed.\n        uint remainingETH; // Remaining ETH to send back.\n        (contribution, remainingETH) = calculateContribution(_amount, _totalRequired.subCap(_round.paidFees[uint(_side)]));\n        _round.contributions[_contributor][uint(_side)] += contribution;\n        _round.paidFees[uint(_side)] += contribution;\n        _round.feeRewards += contribution;\n\n        // Reimburse leftover ETH.\n        _contributor.send(remainingETH); // Deliberate use of send in order to not block the contract in case of reverting fallback.\n    }\n\n    /* Views */\n\n    /** @dev Return true if the item is on the list.\n     *  @param _itemID The ID of the item to be queried.\n     *  @return allowed True if the item is allowed, false otherwise.\n     */\n    function isPermitted(bytes32 _itemID) external view returns (bool allowed) {\n        Item storage item = items[_itemID];\n        return item.status == ItemStatus.Registered || item.status == ItemStatus.ClearingRequested;\n    }\n\n    function itemCount() external view returns (uint) {\n        return itemIDs.length;\n    }\n\n    function getItem(bytes32 _itemID) external view returns (QueryResult memory result) {\n        Item storage item = items[_itemID];\n        Request storage request = item.requests[item.requests.length - 1];\n        Round storage round = request.rounds[request.rounds.length - 1];\n\n        result = QueryResult({\n            ID: _itemID,\n            data: item.data,\n            status: item.status,\n            disputed: request.disputed,\n            resolved: request.resolved,\n            disputeID: request.disputeID,\n            requester: request.parties[uint(Party.Requester)],\n            challenger: request.parties[uint(Party.Challenger)],\n            appealStart: 0,\n            appealEnd: 0,\n            arbitrator: address(request.arbitrator),\n            arbitratorExtraData: request.arbitratorExtraData,\n            submissionTime: request.submissionTime,\n            hasPaid: [false,false,false],\n            paidFees: [uint(0), uint(0), uint(0)],\n            currentRuling: 0,\n            feeRewards: 0,\n            disputeStatus: Arbitrator.DisputeStatus.Waiting\n        });\n        if (request.disputed && request.arbitrator.disputeStatus(request.disputeID) == Arbitrator.DisputeStatus.Appealable) {\n            result.currentRuling = request.arbitrator.currentRuling(request.disputeID);\n            result.disputeStatus = request.arbitrator.disputeStatus(request.disputeID);\n            (result.appealStart, result.appealEnd) = request.arbitrator.appealPeriod(request.disputeID);\n\n            result.feeRewards = round.feeRewards;\n            result.hasPaid = round.hasPaid;\n            result.paidFees = round.paidFees;\n        }\n    }\n\n    /** @dev Find an item by matching column values.\n     *  - Example:\n     *  Item [18, 'PNK', 'Pinakion', '0xca35b7d915458ef540ade6068dfe2f44e8fa733c']\n     *  RLP encoded: 0xe383504e4b128850696e616b696f6e94ca35b7d915458ef540ade6068dfe2f44e8fa733c\n     *  Input for remix: [\"0xe3\",\"0x83\",\"0x50\",\"0x4e\",\"0x4b\",\"0x12\",\"0x88\",\"0x50\",\"0x69\",\"0x6e\",\"0x61\",\"0x6b\",\"0x69\",\"0x6f\",\"0x6e\",\"0x94\",\"0xca\",\"0x35\",\"0xb7\",\"0xd9\",\"0x15\",\"0x45\",\"0x8e\",\"0xf5\",\"0x40\",\"0xad\",\"0xe6\",\"0x06\",\"0x8d\",\"0xfe\",\"0x2f\",\"0x44\",\"0xe8\",\"0xfa\",\"0x73\",\"0x3c\"]\n     *  @param _rlpEncodedMatch The RLP encoded item to match against the items on the list.\n     *  @param _cursor The index from where to start looking for matches.\n     *  @param _returnCount The size of the array to return with matching values.\n     *  @param _count The number of items to iterate while searching.\n     *  @return An array with items that match the query.\n     */\n    function findItem(bytes memory _rlpEncodedMatch, uint _cursor, uint _returnCount, uint _count) public view returns (bytes[] memory) {\n        RLPReader.RLPItem[] memory matchItem = _rlpEncodedMatch.toRlpItem().toList();\n        bytes[] memory results = new bytes[](_count);\n        uint itemsFound;\n\n        for(uint i = _cursor; i < (_count == 0 ? itemIDs.length : _count); i++) { // Iterate over every item in storage.\n            bytes storage itemBytes = items[itemIDs[i]].data;\n            RLPReader.RLPItem[] memory item = itemBytes.toRlpItem().toList();\n            for (uint j = 0; j < matchItem.length; j++) { // Iterate over every column.\n                if (item[j].toBytes().equal(matchItem[j].toBytes())) {\n                    results[itemsFound] = itemBytes;\n                    itemsFound++;\n                    break;\n                }\n            }\n        }\n        return results;\n    }\n\n    /** @dev Return the values of the items the query finds. This function is O(n), where n is the number of items. This could exceed the gas limit, therefore this function should only be used for interface display and not by other contracts.\n     *  @param _cursor The ID of the items from which to start iterating. To start from either the oldest or newest item.\n     *  @param _count The number of items to return.\n     *  @param _filter The filter to use. Each element of the array in sequence means:\n     *  - Include absent items in result.\n     *  - Include registered items in result.\n     *  - Include items with registration requests that are not disputed in result.\n     *  - Include items with clearing requests that are not disputed in result.\n     *  - Include disputed items with registration requests in result.\n     *  - Include disputed items with clearing requests in result.\n     *  - Include items submitted by _party.\n     *  - Include items challenged by _party.\n     *  @param _oldestFirst Whether to sort from oldest to the newest item.\n     *  @param _party The address to use if checking for items submitted or challenged by a specific party.\n     *  @return The values of the tokens found and whether there are more tokens for the current filter and sort.\n     */\n    function queryItems(bytes32 _cursor, uint _count, bool[8] calldata _filter, bool _oldestFirst, address _party)\n        external\n        view\n        returns (QueryResult[] memory results, bool hasMore)\n    {\n        uint cursorIndex;\n        results = new QueryResult[](_count);\n\n        uint index = 0;\n\n        if (_cursor == 0)\n            cursorIndex = 0;\n        else {\n            for (uint j = 0; j < itemIDs.length; j++) {\n                if (itemIDs[j] == _cursor) {\n                    cursorIndex = j;\n                    break;\n                }\n            }\n            require(cursorIndex != 0, \"The cursor is invalid.\");\n        }\n\n        for (\n                uint i = cursorIndex == 0 ? (_oldestFirst ? 0 : 1) : (_oldestFirst ? cursorIndex + 1 : itemIDs.length - cursorIndex + 1);\n                _oldestFirst ? i < itemIDs.length : i <= itemIDs.length;\n                i++\n            ) { // Oldest or newest first.\n            bytes32 itemID = itemIDs[_oldestFirst ? i : itemIDs.length - i];\n            Item storage item = items[itemID];\n            Request storage request = item.requests[item.requests.length - 1];\n            if (\n                /* solium-disable operator-whitespace */\n                (_filter[0] && item.status == ItemStatus.Absent) ||\n                (_filter[1] && item.status == ItemStatus.Registered) ||\n                (_filter[2] && item.status == ItemStatus.RegistrationRequested && !request.disputed) ||\n                (_filter[3] && item.status == ItemStatus.ClearingRequested && !request.disputed) ||\n                (_filter[4] && item.status == ItemStatus.RegistrationRequested && request.disputed) ||\n                (_filter[5] && item.status == ItemStatus.ClearingRequested && request.disputed) ||\n                (_filter[6] && request.parties[uint(Party.Requester)] == _party) ||\n                (_filter[7] && request.parties[uint(Party.Challenger)] == _party)\n                /* solium-enable operator-whitespace */\n            ) {\n                if (index < _count) {\n                    QueryResult memory result = QueryResult({\n                        ID: itemIDs[_oldestFirst ? i : itemIDs.length - i],\n                        data: item.data,\n                        status: item.status,\n                        disputed: request.disputed,\n                        resolved: request.resolved,\n                        disputeID: request.disputeID,\n                        requester: request.parties[uint(Party.Requester)],\n                        challenger: request.parties[uint(Party.Challenger)],\n                        appealStart: 0,\n                        appealEnd: 0,\n                        arbitrator: address(request.arbitrator),\n                        arbitratorExtraData: request.arbitratorExtraData,\n                        submissionTime: request.submissionTime,\n                        hasPaid: [false,false,false],\n                        paidFees: [uint(0), uint(0), uint(0)],\n                        currentRuling: 0,\n                        feeRewards: 0,\n                        disputeStatus: Arbitrator.DisputeStatus.Waiting\n                    });\n                    if (request.disputed && request.arbitrator.disputeStatus(request.disputeID) == Arbitrator.DisputeStatus.Appealable) {\n                        result.currentRuling = request.arbitrator.currentRuling(request.disputeID);\n                        result.disputeStatus = request.arbitrator.disputeStatus(request.disputeID);\n                        (result.appealStart, result.appealEnd) = request.arbitrator.appealPeriod(request.disputeID);\n\n                        Round storage round = request.rounds[request.rounds.length - 1];\n                        result.feeRewards = round.feeRewards;\n                        result.hasPaid = round.hasPaid;\n                        result.paidFees = round.paidFees;\n                    }\n                    results[index] = result;\n                    index++;\n                } else {\n                    hasMore = true;\n                    break;\n                }\n            }\n        }\n    }\n\n}\n",
  "sourcePath": "/home/betelgiuse/Documents/visus/kleros/repos/gtcr/contracts/GTCRMock.sol",
  "compiler": {
    "name": "solc",
    "version": "0.5.11+commit.c082d0b4.Emscripten.clang"
  },
  "schemaVersion": "3.0.11",
  "updatedAt": "2019-08-17T20:33:04.188Z",
  "devdoc": {
    "methods": {
      "challengeRequest(bytes32,string)": {
        "details": "Challenges the latest request of a item. Accepts enough ETH to fund a potential dispute considering the current required amount. Reimburses unused ETH. TRUSTED.",
        "params": {
          "_evidence": "A link to an evidence using its URI. Ignored if not provided or if not enough funds were provided to create a dispute.",
          "_itemID": "The ID of the item with the request to challenge."
        }
      },
      "changeTimeToChallenge(uint256)": {
        "details": "Change the duration of the challenge period.",
        "params": {
          "_challengePeriodDuration": "The new duration of the challenge period."
        }
      },
      "executeRequest(bytes32)": {
        "details": "Executes a request if the challenge period passed and no one challenged the request.",
        "params": {
          "_item": "The item with the request to execute."
        }
      },
      "findItem(bytes,uint256,uint256,uint256)": {
        "details": "Find an item by matching column values. - Example: Item [18, 'PNK', 'Pinakion', '0xca35b7d915458ef540ade6068dfe2f44e8fa733c'] RLP encoded: 0xe383504e4b128850696e616b696f6e94ca35b7d915458ef540ade6068dfe2f44e8fa733c Input for remix: [\"0xe3\",\"0x83\",\"0x50\",\"0x4e\",\"0x4b\",\"0x12\",\"0x88\",\"0x50\",\"0x69\",\"0x6e\",\"0x61\",\"0x6b\",\"0x69\",\"0x6f\",\"0x6e\",\"0x94\",\"0xca\",\"0x35\",\"0xb7\",\"0xd9\",\"0x15\",\"0x45\",\"0x8e\",\"0xf5\",\"0x40\",\"0xad\",\"0xe6\",\"0x06\",\"0x8d\",\"0xfe\",\"0x2f\",\"0x44\",\"0xe8\",\"0xfa\",\"0x73\",\"0x3c\"]",
        "params": {
          "_count": "The number of items to iterate while searching.",
          "_cursor": "The index from where to start looking for matches.",
          "_returnCount": "The size of the array to return with matching values.",
          "_rlpEncodedMatch": "The RLP encoded item to match against the items on the list."
        },
        "return": "An array with items that match the query."
      },
      "isPermitted(bytes32)": {
        "details": "Return true if the item is on the list.",
        "params": {
          "_itemID": "The ID of the item to be queried."
        },
        "return": "allowed True if the item is allowed, false otherwise."
      },
      "queryItems(bytes32,uint256,bool[8],bool,address)": {
        "details": "Return the values of the items the query finds. This function is O(n), where n is the number of items. This could exceed the gas limit, therefore this function should only be used for interface display and not by other contracts.",
        "params": {
          "_count": "The number of items to return.",
          "_cursor": "The ID of the items from which to start iterating. To start from either the oldest or newest item.",
          "_filter": "The filter to use. Each element of the array in sequence means: - Include absent items in result. - Include registered items in result. - Include items with registration requests that are not disputed in result. - Include items with clearing requests that are not disputed in result. - Include disputed items with registration requests in result. - Include disputed items with clearing requests in result. - Include items submitted by _party. - Include items challenged by _party.",
          "_oldestFirst": "Whether to sort from oldest to the newest item.",
          "_party": "The address to use if checking for items submitted or challenged by a specific party."
        },
        "return": "The values of the tokens found and whether there are more tokens for the current filter and sort."
      },
      "rule(uint256,uint256)": {
        "details": "Give a ruling for a dispute. Can only be called by the arbitrator. TRUSTED. Overrides parent function to account for the situation where the winner loses a case due to paying less appeal fees than expected.",
        "params": {
          "_disputeID": "ID of the dispute in the arbitrator contract.",
          "_ruling": "Ruling given by the arbitrator. Note that 0 is reserved for \"Not able/wanting to make a decision\"."
        }
      },
      "withdrawFeesAndRewards(address,bytes32,uint256,uint256)": {
        "details": "Reimburses contributions if no disputes were raised. If a dispute was raised, sends the fee stake rewards and reimbursements proportional to the contributions made to the winner of a dispute.",
        "params": {
          "_beneficiary": "The address that made contributions to a request.",
          "_itemID": "The ID of the item with the request from which to withdraw.",
          "_request": "The request from which to withdraw.",
          "_round": "The round from which to withdraw."
        }
      }
    }
  },
  "userdoc": {
    "methods": {}
  }
}