{
  "contractName": "GTCRMock",
  "abi": [
    {
      "constant": true,
      "inputs": [],
      "name": "prevBlockNumber",
      "outputs": [
        {
          "name": "",
          "type": "uint256"
        }
      ],
      "payable": false,
      "stateMutability": "view",
      "type": "function"
    },
    {
      "constant": true,
      "inputs": [
        {
          "name": "",
          "type": "uint256"
        }
      ],
      "name": "items",
      "outputs": [
        {
          "name": "",
          "type": "bytes"
        }
      ],
      "payable": false,
      "stateMutability": "view",
      "type": "function"
    },
    {
      "inputs": [
        {
          "name": "_offsets",
          "type": "uint256[]"
        },
        {
          "name": "_lengths",
          "type": "uint256[]"
        },
        {
          "name": "_registrationMetaEvidence",
          "type": "string"
        },
        {
          "name": "_clearingMetaEvidence",
          "type": "string"
        },
        {
          "name": "_prevBlockNumber",
          "type": "uint256"
        }
      ],
      "payable": false,
      "stateMutability": "nonpayable",
      "type": "constructor"
    },
    {
      "anonymous": false,
      "inputs": [
        {
          "indexed": true,
          "name": "_metaEvidenceID",
          "type": "uint256"
        },
        {
          "indexed": false,
          "name": "_evidence",
          "type": "string"
        }
      ],
      "name": "MetaEvidence",
      "type": "event"
    },
    {
      "constant": false,
      "inputs": [
        {
          "name": "_item",
          "type": "bytes"
        }
      ],
      "name": "addItem",
      "outputs": [],
      "payable": false,
      "stateMutability": "nonpayable",
      "type": "function"
    },
    {
      "constant": true,
      "inputs": [],
      "name": "itemCount",
      "outputs": [
        {
          "name": "",
          "type": "uint256"
        }
      ],
      "payable": false,
      "stateMutability": "view",
      "type": "function"
    },
    {
      "constant": true,
      "inputs": [
        {
          "name": "_index",
          "type": "uint256"
        }
      ],
      "name": "getItems",
      "outputs": [
        {
          "name": "results",
          "type": "bytes[100]"
        },
        {
          "name": "hasMore",
          "type": "bool"
        }
      ],
      "payable": false,
      "stateMutability": "view",
      "type": "function"
    },
    {
      "constant": true,
      "inputs": [
        {
          "name": "_selector",
          "type": "bytes"
        },
        {
          "name": "cursor",
          "type": "uint256"
        },
        {
          "name": "_skipColumn",
          "type": "bool[]"
        }
      ],
      "name": "getItem",
      "outputs": [
        {
          "name": "",
          "type": "uint256[10]"
        }
      ],
      "payable": false,
      "stateMutability": "view",
      "type": "function"
    }
  ],
  "bytecode": "0x60806040523480156200001157600080fd5b506040516200100538038062001005833981016040819052620000349162000208565b60005b8551811015620000af57600260405180604001604052808884815181106200005b57fe5b602002602001015181526020018784815181106200007557fe5b6020908102919091018101519091528254600181810185556000948552938290208351600290920201908155910151908201550162000037565b5080600381905550600060008051602062000fe583398151915284604051620000d9919062000327565b60405180910390a2600160008051602062000fe58339815191528360405162000103919062000327565b60405180910390a2505050505062000418565b600082601f8301126200012857600080fd5b81516200013f620001398262000368565b62000341565b915081818352602084019350602081019050838560208402820111156200016557600080fd5b60005b838110156200019557816200017e8882620001f5565b845250602092830192919091019060010162000168565b5050505092915050565b600082601f830112620001b157600080fd5b8151620001c2620001398262000389565b91508082526020830160208301858383011115620001df57600080fd5b620001ec838284620003c1565b50505092915050565b80516200020281620003fe565b92915050565b600080600080600060a086880312156200022157600080fd5b85516001604060020a038111156200023857600080fd5b620002468882890162000116565b95505060208601516001604060020a038111156200026357600080fd5b620002718882890162000116565b94505060408601516001604060020a038111156200028e57600080fd5b6200029c888289016200019f565b93505060608601516001604060020a03811115620002b957600080fd5b620002c7888289016200019f565b9250506080620002da88828901620001f5565b9150509295509295909350565b6000620002f482620003b1565b620003008185620003b5565b935062000312818560208601620003c1565b6200031d81620003f4565b9093019392505050565b602080825281016200033a8184620002e7565b9392505050565b6040518181016001604060020a03811182821017156200036057600080fd5b604052919050565b60006001604060020a038211156200037f57600080fd5b5060209081020190565b60006001604060020a03821115620003a057600080fd5b506020601f91909101601f19160190565b5190565b90815260200190565b90565b60005b83811015620003de578181015183820152602001620003c4565b83811115620003ee576000848401525b50505050565b601f01601f191690565b6200040981620003be565b81146200041557600080fd5b50565b610bbd80620004286000396000f3fe608060405234801561001057600080fd5b506004361061007e577c010000000000000000000000000000000000000000000000000000000060003504636bfb0d018114610083578063707c3492146100a15780637806b777146100a9578063796c5e94146100c9578063bfb231d2146100ea578063d294ccef1461010a575b600080fd5b61008b61011f565b6040516100989190610add565b60405180910390f35b61008b610126565b6100bc6100b7366004610852565b61012c565b6040516100989190610aad565b6100dc6100d73660046108d8565b610324565b604051610098929190610a8d565b6100fd6100f83660046108d8565b61040d565b6040516100989190610abc565b61011d610118366004610810565b6104b3565b005b6000545b90565b60035481565b61013461066a565b61013c61066a565b6000855b60005481101561031757600080828154811061015857fe5b6000918252602082200191505b60025481101561030d5787878281811061017b57fe5b905060200201602061019091908101906107ea565b1561019a57610305565b6000600282815481106101a957fe5b90600052602060002090600202016000015490506000600283815481106101cc57fe5b90600052602060002090600202016001015490506060610286858054600181600116156101000203166002900480601f01602080910402602001604051908101604052809291908181526020018280546001816001161561010002031660029004801561027a5780601f1061024f5761010080835404028352916020019161027a565b820191906000526020600020905b81548152906001019060200180831161025d57829003601f168201915b50505050508484610582565b905060606102cd8f8f8080601f0160208091040260200160405190810160405280939291908181526020018383808284376000920191909152508892508791506105829050565b90506102d98282610604565b1561030057868989600a81106102eb57fe5b602002015250506001909501945061030d9050565b505050505b600101610165565b5050600101610140565b5090979650505050505050565b61032c610689565b6000805b600054811080156103415750606481105b156104015760008482018154811061035557fe5b600091825260209182902001805460408051601f60026000196101006001871615020190941693909304928301859004850281018501909152818152928301828280156103e35780601f106103b8576101008083540402835291602001916103e3565b820191906000526020600020905b8154815290600101906020018083116103c657829003601f168201915b50505050508382606481106103f457fe5b6020020152600101610330565b60005492949211925050565b6000818154811061041a57fe5b600091825260209182902001805460408051601f60026000196101006001871615020190941693909304928301859004850281018501909152818152935090918301828280156104ab5780601f10610480576101008083540402835291602001916104ab565b820191906000526020600020905b81548152906001019060200180831161048e57829003601f168201915b505050505081565b600082826040516104c5929190610a80565b604080519182900390912060008181526001602052919091205490915060ff1615610525576040517f08c379a000000000000000000000000000000000000000000000000000000000815260040161051c90610acd565b60405180910390fd5b6000805460018101808355918052610560907f290decd9548b62a8d60345a988386fc84ba6bc95484008f6362f93160ef3e5630185856106b1565b50506000908152600160208190526040909120805460ff191690911790555050565b60608183018451101561059457600080fd5b6060821580156105af576040519150602082016040526105f9565b6040519150601f8416801560200281840101858101878315602002848b0101015b818310156105e85780518352602092830192016105d0565b5050858452601f01601f1916604052505b5090505b9392505050565b815181516000916001918114808314610620576000925061065e565b600160208701838101602088015b60028483851001141561065957805183511461064d5760009650600093505b6020928301920161062e565b505050505b50909150505b92915050565b604051806101400160405280600a906020820280388339509192915050565b60405180610c8001604052806064905b60608152602001906001900390816106995790505090565b828054600181600116156101000203166002900490600052602060002090601f016020900481019282601f106106f25782800160ff1982351617855561071f565b8280016001018555821561071f579182015b8281111561071f578235825591602001919060010190610704565b5061072b92915061072f565b5090565b61012391905b8082111561072b5760008155600101610735565b60008083601f84011261075b57600080fd5b50813567ffffffffffffffff81111561077357600080fd5b60208301915083602082028301111561078b57600080fd5b9250929050565b803561066481610b5a565b60008083601f8401126107af57600080fd5b50813567ffffffffffffffff8111156107c757600080fd5b60208301915083600182028301111561078b57600080fd5b803561066481610b71565b6000602082840312156107fc57600080fd5b60006108088484610792565b949350505050565b6000806020838503121561082357600080fd5b823567ffffffffffffffff81111561083a57600080fd5b6108468582860161079d565b92509250509250929050565b60008060008060006060868803121561086a57600080fd5b853567ffffffffffffffff81111561088157600080fd5b61088d8882890161079d565b955095505060206108a0888289016107df565b935050604086013567ffffffffffffffff8111156108bd57600080fd5b6108c988828901610749565b92509250509295509295909350565b6000602082840312156108ea57600080fd5b600061080884846107df565b60006105fd8383610a06565b600061090e8383610a77565b505060200190565b600061092182610aeb565b61092b8185610b01565b93508360208202850161093d85610123565b8060005b85811015610977578484038952815161095a85826108f6565b945061096583610afb565b60209a909a0199925050600101610941565b5091979650505050505050565b61098d81610af1565b6109978184610b01565b92506109a282610123565b8060005b838110156109d05781516109ba8782610902565b96506109c583610afb565b9250506001016109a6565b505050505050565b6109e181610b0f565b82525050565b60006109f38385610b01565b9350610a00838584610b14565b50500190565b6000610a1182610af7565b610a1b8185610b06565b9350610a2b818560208601610b20565b610a3481610b50565b9093019392505050565b6000610a4b601283610b06565b7f4974656d20616c72656164792061646465640000000000000000000000000000815260200192915050565b6109e181610123565b60006108088284866109e7565b60408082528101610a9e8185610916565b90506105fd60208301846109d8565b61014081016106648284610984565b602080825281016105fd8184610a06565b6020808252810161066481610a3e565b602081016106648284610a77565b50606490565b50600a90565b5190565b60200190565b919050565b90815260200190565b151590565b82818337506000910152565b60005b83811015610b3b578181015183820152602001610b23565b83811115610b4a576000848401525b50505050565b601f01601f191690565b610b6381610b0f565b8114610b6e57600080fd5b50565b610b638161012356fea365627a7a72305820fecd21bb94cb253812625534a107e9c738d7253f474e8e23312bf840516e59eb6c6578706572696d656e74616cf564736f6c634300050a004061606860eb6c87306811e2695215385101daab53bd6ab4e9f9049aead9363c7d",
  "source": "/**\n *  @authors: [@mtsalenc]\n *  @reviewers: []\n *  @auditors: []\n *  @bounties: []\n *  @deployments: []\n */\n\npragma solidity ^0.5.10;\npragma experimental ABIEncoderV2;\n\ncontract GTCRMock {\n\n    bytes[] public items;\n    mapping(bytes32 => bool) keys;\n    Column[] columns;\n    uint public prevBlockNumber;\n\n    struct Column {\n        uint offset;\n        uint length;\n    }\n\n    event MetaEvidence(uint indexed _metaEvidenceID, string _evidence);\n\n    constructor(\n        uint[] memory _offsets,\n        uint[] memory _lengths,\n        string memory _registrationMetaEvidence,\n        string memory _clearingMetaEvidence,\n        uint _prevBlockNumber // The most recent mined block number. Used for speeding up log scanning.\n    ) public {\n        for (uint i = 0; i < _offsets.length; i++)\n            columns.push(Column(_offsets[i], _lengths[i]));\n\n        prevBlockNumber = _prevBlockNumber;\n\n        emit MetaEvidence(0, _registrationMetaEvidence);\n        emit MetaEvidence(1, _clearingMetaEvidence);\n    }\n\n    function addItem(bytes calldata _item) external {\n        bytes32 key = keccak256(_item);\n        require(!keys[key], \"Item already added\");\n        items.push(_item);\n        keys[key] = true;\n    }\n\n    function itemCount() external view returns (uint) {\n        return items.length;\n    }\n\n    function getItems( uint _index) external view returns (bytes[100] memory results, bool hasMore){\n        uint i = 0;\n        for (; i < items.length && i < 100; i++) {\n            results[i] = items[i+_index];\n        }\n        hasMore = items.length > i;\n    }\n\n    /**\n     * @dev Search the list of items by columns.\n     * @return Any item that with a column value that matches the column provided at `_selector`.\n     */\n    function getItem(bytes calldata _selector, uint cursor, bool[] calldata _skipColumn) external view returns (uint[10] memory) {\n        uint[10] memory indexes;\n        uint count = 0;\n        for(uint i = cursor; i < items.length; i++) { // Iterate over list of items starting at cursor.\n            bytes storage item = items[i];\n            for(uint j = 0; j < columns.length; j++) { // Iterate over each column.\n                if (_skipColumn[j]) continue; // Skip that column if the caller doesn't want to provide it.\n                uint offset = columns[j].offset;\n                uint length = columns[j].length;\n                bytes memory val = slice(item, offset, length);\n                bytes memory selector = slice(_selector, offset, length);\n                if (equal(val, selector)) {\n                    indexes[count] = i;\n                    count++;\n                    break;\n                }\n            }\n        }\n        return indexes;\n    }\n\n    function equal(bytes memory _preBytes, bytes memory _postBytes) internal pure returns (bool) {\n        bool success = true;\n\n        assembly {\n            let length := mload(_preBytes)\n\n            // if lengths don't match the arrays are not equal\n            switch eq(length, mload(_postBytes))\n            case 1 {\n                // cb is a circuit breaker in the for loop since there's\n                //  no said feature for inline assembly loops\n                // cb = 1 - don't breaker\n                // cb = 0 - break\n                let cb := 1\n\n                let mc := add(_preBytes, 0x20)\n                let end := add(mc, length)\n\n                for {\n                    let cc := add(_postBytes, 0x20)\n                // the next line is the loop condition:\n                // while(uint(mc < end) + cb == 2)\n                } eq(add(lt(mc, end), cb), 2) {\n                    mc := add(mc, 0x20)\n                    cc := add(cc, 0x20)\n                } {\n                    // if any of these checks fails then arrays are not equal\n                    if iszero(eq(mload(mc), mload(cc))) {\n                        // unsuccess:\n                        success := 0\n                        cb := 0\n                    }\n                }\n            }\n            default {\n                // unsuccess:\n                success := 0\n            }\n        }\n\n        return success;\n    }\n\n    function slice(\n        bytes memory _bytes,\n        uint _start,\n        uint _length\n    )\n        internal\n        pure\n        returns (bytes memory)\n    {\n        require(_bytes.length >= (_start + _length));\n\n        bytes memory tempBytes;\n\n        assembly {\n            switch iszero(_length)\n            case 0 {\n                // Get a location of some free memory and store it in tempBytes as\n                // Solidity does for memory variables.\n                tempBytes := mload(0x40)\n\n                // The first word of the slice result is potentially a partial\n                // word read from the original array. To read it, we calculate\n                // the length of that partial word and start copying that many\n                // bytes into the array. The first word we copy will start with\n                // data we don't care about, but the last `lengthmod` bytes will\n                // land at the beginning of the contents of the new array. When\n                // we're done copying, we overwrite the full first word with\n                // the actual length of the slice.\n                let lengthmod := and(_length, 31)\n\n                // The multiplication in the next line is necessary\n                // because when slicing multiples of 32 bytes (lengthmod == 0)\n                // the following copy loop was copying the origin's length\n                // and then ending prematurely not copying everything it should.\n                let mc := add(add(tempBytes, lengthmod), mul(0x20, iszero(lengthmod)))\n                let end := add(mc, _length)\n\n                for {\n                    // The multiplication in the next line has the same exact purpose\n                    // as the one above.\n                    let cc := add(add(add(_bytes, lengthmod), mul(0x20, iszero(lengthmod))), _start)\n                } lt(mc, end) {\n                    mc := add(mc, 0x20)\n                    cc := add(cc, 0x20)\n                } {\n                    mstore(mc, mload(cc))\n                }\n\n                mstore(tempBytes, _length)\n\n                //update free-memory pointer\n                //allocating the array padded to 32 bytes like the compiler does now\n                mstore(0x40, and(add(mc, 31), not(31)))\n            }\n            //if we want a zero-length slice let's just return a zero-length array\n            default {\n                tempBytes := mload(0x40)\n\n                mstore(0x40, add(tempBytes, 0x20))\n            }\n        }\n\n        return tempBytes;\n    }\n\n}\n",
  "sourcePath": "/home/betelgiuse/Documents/visus/kleros/repositories/gtcr/contracts/GTCRMock.sol",
  "compiler": {
    "name": "solc",
    "version": "0.5.10+commit.5a6ea5b1.Emscripten.clang"
  },
  "schemaVersion": "3.0.11",
  "updatedAt": "2019-07-31T11:55:26.630Z",
  "devdoc": {
    "methods": {
      "getItem(bytes,uint256,bool[])": {
        "details": "Search the list of items by columns.",
        "return": "Any item that with a column value that matches the column provided at `_selector`."
      }
    }
  },
  "userdoc": {
    "methods": {}
  }
}