{
  "contractName": "GTCRMock",
  "abi": [
    {
      "constant": true,
      "inputs": [],
      "name": "challengePeriodDuration",
      "outputs": [
        {
          "internalType": "uint256",
          "name": "",
          "type": "uint256"
        }
      ],
      "payable": false,
      "stateMutability": "view",
      "type": "function"
    },
    {
      "constant": true,
      "inputs": [],
      "name": "governor",
      "outputs": [
        {
          "internalType": "address",
          "name": "",
          "type": "address"
        }
      ],
      "payable": false,
      "stateMutability": "view",
      "type": "function"
    },
    {
      "constant": true,
      "inputs": [],
      "name": "arbitratorExtraData",
      "outputs": [
        {
          "internalType": "bytes",
          "name": "",
          "type": "bytes"
        }
      ],
      "payable": false,
      "stateMutability": "view",
      "type": "function"
    },
    {
      "constant": true,
      "inputs": [],
      "name": "loserStakeMultiplier",
      "outputs": [
        {
          "internalType": "uint256",
          "name": "",
          "type": "uint256"
        }
      ],
      "payable": false,
      "stateMutability": "view",
      "type": "function"
    },
    {
      "constant": true,
      "inputs": [],
      "name": "challengerBaseDeposit",
      "outputs": [
        {
          "internalType": "uint256",
          "name": "",
          "type": "uint256"
        }
      ],
      "payable": false,
      "stateMutability": "view",
      "type": "function"
    },
    {
      "constant": true,
      "inputs": [],
      "name": "sharedStakeMultiplier",
      "outputs": [
        {
          "internalType": "uint256",
          "name": "",
          "type": "uint256"
        }
      ],
      "payable": false,
      "stateMutability": "view",
      "type": "function"
    },
    {
      "constant": true,
      "inputs": [
        {
          "internalType": "bytes32",
          "name": "",
          "type": "bytes32"
        }
      ],
      "name": "items",
      "outputs": [
        {
          "internalType": "bytes",
          "name": "data",
          "type": "bytes"
        },
        {
          "internalType": "enum GTCRMock.ItemStatus",
          "name": "status",
          "type": "uint8"
        }
      ],
      "payable": false,
      "stateMutability": "view",
      "type": "function"
    },
    {
      "constant": true,
      "inputs": [],
      "name": "relatedTCR",
      "outputs": [
        {
          "internalType": "address",
          "name": "",
          "type": "address"
        }
      ],
      "payable": false,
      "stateMutability": "view",
      "type": "function"
    },
    {
      "constant": true,
      "inputs": [],
      "name": "arbitrator",
      "outputs": [
        {
          "internalType": "contract Arbitrator",
          "name": "",
          "type": "address"
        }
      ],
      "payable": false,
      "stateMutability": "view",
      "type": "function"
    },
    {
      "constant": true,
      "inputs": [],
      "name": "metaEvidenceUpdates",
      "outputs": [
        {
          "internalType": "uint256",
          "name": "",
          "type": "uint256"
        }
      ],
      "payable": false,
      "stateMutability": "view",
      "type": "function"
    },
    {
      "constant": true,
      "inputs": [],
      "name": "winnerStakeMultiplier",
      "outputs": [
        {
          "internalType": "uint256",
          "name": "",
          "type": "uint256"
        }
      ],
      "payable": false,
      "stateMutability": "view",
      "type": "function"
    },
    {
      "constant": true,
      "inputs": [],
      "name": "requesterBaseDeposit",
      "outputs": [
        {
          "internalType": "uint256",
          "name": "",
          "type": "uint256"
        }
      ],
      "payable": false,
      "stateMutability": "view",
      "type": "function"
    },
    {
      "constant": true,
      "inputs": [
        {
          "internalType": "address",
          "name": "",
          "type": "address"
        },
        {
          "internalType": "uint256",
          "name": "",
          "type": "uint256"
        }
      ],
      "name": "arbitratorDisputeIDToItemID",
      "outputs": [
        {
          "internalType": "bytes32",
          "name": "",
          "type": "bytes32"
        }
      ],
      "payable": false,
      "stateMutability": "view",
      "type": "function"
    },
    {
      "constant": true,
      "inputs": [
        {
          "internalType": "uint256",
          "name": "",
          "type": "uint256"
        }
      ],
      "name": "itemIDs",
      "outputs": [
        {
          "internalType": "bytes32",
          "name": "",
          "type": "bytes32"
        }
      ],
      "payable": false,
      "stateMutability": "view",
      "type": "function"
    },
    {
      "constant": true,
      "inputs": [],
      "name": "MULTIPLIER_DIVISOR",
      "outputs": [
        {
          "internalType": "uint256",
          "name": "",
          "type": "uint256"
        }
      ],
      "payable": false,
      "stateMutability": "view",
      "type": "function"
    },
    {
      "inputs": [
        {
          "internalType": "contract Arbitrator",
          "name": "_arbitrator",
          "type": "address"
        },
        {
          "internalType": "bytes",
          "name": "_arbitratorExtraData",
          "type": "bytes"
        },
        {
          "internalType": "string",
          "name": "_registrationMetaEvidence",
          "type": "string"
        },
        {
          "internalType": "string",
          "name": "_clearingMetaEvidence",
          "type": "string"
        },
        {
          "internalType": "address",
          "name": "_governor",
          "type": "address"
        },
        {
          "internalType": "uint256",
          "name": "_requesterBaseDeposit",
          "type": "uint256"
        },
        {
          "internalType": "uint256",
          "name": "_challengerBaseDeposit",
          "type": "uint256"
        },
        {
          "internalType": "uint256",
          "name": "_challengePeriodDuration",
          "type": "uint256"
        },
        {
          "internalType": "uint256",
          "name": "_sharedStakeMultiplier",
          "type": "uint256"
        },
        {
          "internalType": "uint256",
          "name": "_winnerStakeMultiplier",
          "type": "uint256"
        },
        {
          "internalType": "uint256",
          "name": "_loserStakeMultiplier",
          "type": "uint256"
        }
      ],
      "payable": false,
      "stateMutability": "nonpayable",
      "type": "constructor"
    },
    {
      "anonymous": false,
      "inputs": [
        {
          "indexed": true,
          "internalType": "uint256",
          "name": "_metaEvidenceID",
          "type": "uint256"
        },
        {
          "indexed": false,
          "internalType": "string",
          "name": "_evidence",
          "type": "string"
        }
      ],
      "name": "MetaEvidence",
      "type": "event"
    },
    {
      "anonymous": false,
      "inputs": [
        {
          "indexed": true,
          "internalType": "contract Arbitrator",
          "name": "_arbitrator",
          "type": "address"
        },
        {
          "indexed": true,
          "internalType": "uint256",
          "name": "_evidenceGroupID",
          "type": "uint256"
        },
        {
          "indexed": true,
          "internalType": "address",
          "name": "_party",
          "type": "address"
        },
        {
          "indexed": false,
          "internalType": "string",
          "name": "_evidence",
          "type": "string"
        }
      ],
      "name": "Evidence",
      "type": "event"
    },
    {
      "anonymous": false,
      "inputs": [
        {
          "indexed": true,
          "internalType": "contract Arbitrator",
          "name": "_arbitrator",
          "type": "address"
        },
        {
          "indexed": true,
          "internalType": "uint256",
          "name": "_disputeID",
          "type": "uint256"
        },
        {
          "indexed": false,
          "internalType": "uint256",
          "name": "_metaEvidenceID",
          "type": "uint256"
        },
        {
          "indexed": false,
          "internalType": "uint256",
          "name": "_evidenceGroupID",
          "type": "uint256"
        }
      ],
      "name": "Dispute",
      "type": "event"
    },
    {
      "anonymous": false,
      "inputs": [
        {
          "indexed": true,
          "internalType": "contract Arbitrator",
          "name": "_arbitrator",
          "type": "address"
        },
        {
          "indexed": true,
          "internalType": "uint256",
          "name": "_disputeID",
          "type": "uint256"
        },
        {
          "indexed": false,
          "internalType": "uint256",
          "name": "_ruling",
          "type": "uint256"
        }
      ],
      "name": "Ruling",
      "type": "event"
    },
    {
      "constant": false,
      "inputs": [
        {
          "internalType": "bytes",
          "name": "_item",
          "type": "bytes"
        }
      ],
      "name": "requestStatusChange",
      "outputs": [],
      "payable": true,
      "stateMutability": "payable",
      "type": "function"
    },
    {
      "constant": false,
      "inputs": [
        {
          "internalType": "bytes32",
          "name": "_item",
          "type": "bytes32"
        }
      ],
      "name": "executeRequest",
      "outputs": [],
      "payable": false,
      "stateMutability": "nonpayable",
      "type": "function"
    },
    {
      "constant": false,
      "inputs": [
        {
          "internalType": "bytes32",
          "name": "_itemID",
          "type": "bytes32"
        },
        {
          "internalType": "string",
          "name": "_evidence",
          "type": "string"
        }
      ],
      "name": "challengeRequest",
      "outputs": [],
      "payable": true,
      "stateMutability": "payable",
      "type": "function"
    },
    {
      "constant": false,
      "inputs": [
        {
          "internalType": "uint256",
          "name": "_disputeID",
          "type": "uint256"
        },
        {
          "internalType": "uint256",
          "name": "_ruling",
          "type": "uint256"
        }
      ],
      "name": "rule",
      "outputs": [],
      "payable": false,
      "stateMutability": "nonpayable",
      "type": "function"
    },
    {
      "constant": false,
      "inputs": [
        {
          "internalType": "address payable",
          "name": "_beneficiary",
          "type": "address"
        },
        {
          "internalType": "bytes32",
          "name": "_itemID",
          "type": "bytes32"
        },
        {
          "internalType": "uint256",
          "name": "_request",
          "type": "uint256"
        },
        {
          "internalType": "uint256",
          "name": "_round",
          "type": "uint256"
        }
      ],
      "name": "withdrawFeesAndRewards",
      "outputs": [],
      "payable": false,
      "stateMutability": "nonpayable",
      "type": "function"
    },
    {
      "constant": true,
      "inputs": [
        {
          "internalType": "bytes32",
          "name": "_itemID",
          "type": "bytes32"
        }
      ],
      "name": "isPermitted",
      "outputs": [
        {
          "internalType": "bool",
          "name": "allowed",
          "type": "bool"
        }
      ],
      "payable": false,
      "stateMutability": "view",
      "type": "function"
    },
    {
      "constant": true,
      "inputs": [],
      "name": "itemCount",
      "outputs": [
        {
          "internalType": "uint256",
          "name": "",
          "type": "uint256"
        }
      ],
      "payable": false,
      "stateMutability": "view",
      "type": "function"
    },
    {
      "constant": true,
      "inputs": [
        {
          "internalType": "bytes32",
          "name": "_itemID",
          "type": "bytes32"
        }
      ],
      "name": "getItem",
      "outputs": [
        {
          "components": [
            {
              "internalType": "bytes32",
              "name": "ID",
              "type": "bytes32"
            },
            {
              "internalType": "bytes",
              "name": "data",
              "type": "bytes"
            },
            {
              "internalType": "enum GTCRMock.ItemStatus",
              "name": "status",
              "type": "uint8"
            },
            {
              "internalType": "bool",
              "name": "disputed",
              "type": "bool"
            },
            {
              "internalType": "bool",
              "name": "resolved",
              "type": "bool"
            },
            {
              "internalType": "uint256",
              "name": "disputeID",
              "type": "uint256"
            },
            {
              "internalType": "uint256",
              "name": "appealStart",
              "type": "uint256"
            },
            {
              "internalType": "uint256",
              "name": "appealEnd",
              "type": "uint256"
            },
            {
              "internalType": "address",
              "name": "requester",
              "type": "address"
            },
            {
              "internalType": "address",
              "name": "challenger",
              "type": "address"
            },
            {
              "internalType": "address",
              "name": "arbitrator",
              "type": "address"
            },
            {
              "internalType": "bytes",
              "name": "arbitratorExtraData",
              "type": "bytes"
            },
            {
              "internalType": "uint256",
              "name": "currentRuling",
              "type": "uint256"
            },
            {
              "internalType": "bool[3]",
              "name": "hasPaid",
              "type": "bool[3]"
            },
            {
              "internalType": "uint256",
              "name": "feeRewards",
              "type": "uint256"
            },
            {
              "internalType": "uint256",
              "name": "submissionTime",
              "type": "uint256"
            },
            {
              "internalType": "uint256[3]",
              "name": "paidFees",
              "type": "uint256[3]"
            },
            {
              "internalType": "enum Arbitrator.DisputeStatus",
              "name": "disputeStatus",
              "type": "uint8"
            }
          ],
          "internalType": "struct GTCRMock.QueryResult",
          "name": "result",
          "type": "tuple"
        }
      ],
      "payable": false,
      "stateMutability": "view",
      "type": "function"
    },
    {
      "constant": true,
      "inputs": [
        {
          "internalType": "bytes32",
          "name": "_cursor",
          "type": "bytes32"
        },
        {
          "internalType": "uint256",
          "name": "_count",
          "type": "uint256"
        },
        {
          "internalType": "bool[8]",
          "name": "_filter",
          "type": "bool[8]"
        },
        {
          "internalType": "bool",
          "name": "_oldestFirst",
          "type": "bool"
        },
        {
          "internalType": "address",
          "name": "_party",
          "type": "address"
        }
      ],
      "name": "queryItems",
      "outputs": [
        {
          "components": [
            {
              "internalType": "bytes32",
              "name": "ID",
              "type": "bytes32"
            },
            {
              "internalType": "bytes",
              "name": "data",
              "type": "bytes"
            },
            {
              "internalType": "enum GTCRMock.ItemStatus",
              "name": "status",
              "type": "uint8"
            },
            {
              "internalType": "bool",
              "name": "disputed",
              "type": "bool"
            },
            {
              "internalType": "bool",
              "name": "resolved",
              "type": "bool"
            },
            {
              "internalType": "uint256",
              "name": "disputeID",
              "type": "uint256"
            },
            {
              "internalType": "uint256",
              "name": "appealStart",
              "type": "uint256"
            },
            {
              "internalType": "uint256",
              "name": "appealEnd",
              "type": "uint256"
            },
            {
              "internalType": "address",
              "name": "requester",
              "type": "address"
            },
            {
              "internalType": "address",
              "name": "challenger",
              "type": "address"
            },
            {
              "internalType": "address",
              "name": "arbitrator",
              "type": "address"
            },
            {
              "internalType": "bytes",
              "name": "arbitratorExtraData",
              "type": "bytes"
            },
            {
              "internalType": "uint256",
              "name": "currentRuling",
              "type": "uint256"
            },
            {
              "internalType": "bool[3]",
              "name": "hasPaid",
              "type": "bool[3]"
            },
            {
              "internalType": "uint256",
              "name": "feeRewards",
              "type": "uint256"
            },
            {
              "internalType": "uint256",
              "name": "submissionTime",
              "type": "uint256"
            },
            {
              "internalType": "uint256[3]",
              "name": "paidFees",
              "type": "uint256[3]"
            },
            {
              "internalType": "enum Arbitrator.DisputeStatus",
              "name": "disputeStatus",
              "type": "uint8"
            }
          ],
          "internalType": "struct GTCRMock.QueryResult[]",
          "name": "results",
          "type": "tuple[]"
        },
        {
          "internalType": "bool",
          "name": "hasMore",
          "type": "bool"
        }
      ],
      "payable": false,
      "stateMutability": "view",
      "type": "function"
    }
  ],
  "bytecode": "0x608060405260026000553480156200001657600080fd5b506040516200399638038062003996833981016040819052620000399162000230565b6000600080516020620039768339815191528a6040516200005b9190620003bd565b60405180910390a260016000805160206200397683398151915289604051620000859190620003bd565b60405180910390a260038054600160a060020a031916600160a060020a038d161790558951620000bd9060049060208d019062000102565b5060018054600160a060020a031916600160a060020a039890981697909717909655600594909455600692909255600755600b55600955600a5550620004c692505050565b828054600181600116156101000203166002900490600052602060002090601f016020900481019282601f106200014557805160ff191683800117855562000175565b8280016001018555821562000175579182015b828111156200017557825182559160200191906001019062000158565b506200018392915062000187565b5090565b620001a491905b808211156200018357600081556001016200018e565b90565b8051620001b48162000496565b92915050565b600082601f830112620001cc57600080fd5b8151620001e3620001dd82620003fe565b620003d7565b915080825260208301602083018583830111156200020057600080fd5b6200020d83828462000459565b50505092915050565b8051620001b481620004b0565b8051620001b481620004bb565b60008060008060008060008060008060006101608c8e0312156200025357600080fd5b6000620002618e8e62000216565b9b505060208c01516001604060020a038111156200027e57600080fd5b6200028c8e828f01620001ba565b9a505060408c01516001604060020a03811115620002a957600080fd5b620002b78e828f01620001ba565b99505060608c01516001604060020a03811115620002d457600080fd5b620002e28e828f01620001ba565b9850506080620002f58e828f01620001a7565b97505060a0620003088e828f0162000223565b96505060c06200031b8e828f0162000223565b95505060e06200032e8e828f0162000223565b945050610100620003428e828f0162000223565b935050610120620003568e828f0162000223565b9250506101406200036a8e828f0162000223565b9150509295989b509295989b9093969950565b60006200038a8262000426565b6200039681856200042a565b9350620003a881856020860162000459565b620003b3816200048c565b9093019392505050565b60208082528101620003d081846200037d565b9392505050565b6040518181016001604060020a0381118282101715620003f657600080fd5b604052919050565b60006001604060020a038211156200041557600080fd5b506020601f91909101601f19160190565b5190565b90815260200190565b6000620001b4826200044d565b6000620001b48262000433565b600160a060020a031690565b60005b83811015620004765781810151838201526020016200045c565b8381111562000486576000848401525b50505050565b601f01601f191690565b620004a18162000433565b8114620004ad57600080fd5b50565b620004a18162000440565b620004a181620001a4565b6134a080620004d66000396000f3fe608060405260043610610167576000357c0100000000000000000000000000000000000000000000000000000000900480636cdc090f116100d3578063a836f3071161008c578063a836f3071461035b578063aa0372e71461037b578063b70e6a0f146103a8578063beabdb7b146103d6578063d661dd3114610403578063e9c241661461041857610167565b80636cdc090f146102c95780637b943383146102de578063873db1a7146102f35780638c10fef3146103065780639c81a8271461031b578063a1c2bf4d1461033b57610167565b8063329cedb411610125578063329cedb414610225578063416583411461023a57806348f343f31461024f578063571e053d1461027d5780636bfb0d01146102925780636cc6cde1146102a757610167565b806282a36d1461016c5780630c340a24146101975780630c7ac7b6146101b95780631d512085146101db578063246d0f3e146101f0578063311a6c5614610205575b600080fd5b34801561017857600080fd5b50610181610438565b60405161018e9190613229565b60405180910390f35b3480156101a357600080fd5b506101ac61043e565b60405161018e91906131ed565b3480156101c557600080fd5b506101ce61044d565b60405161018e9190613237565b3480156101e757600080fd5b506101816104db565b6102036101fe3660046129ed565b6104e1565b005b34801561021157600080fd5b50610203610220366004612a6b565b61080b565b34801561023157600080fd5b50610181610abb565b34801561024657600080fd5b50610181610ac1565b34801561025b57600080fd5b5061026f61026a366004612901565b610ac7565b60405161018e929190613248565b34801561028957600080fd5b506101ac610b71565b34801561029e57600080fd5b50610181610b80565b3480156102b357600080fd5b506102bc610b87565b60405161018e9190613279565b3480156102d557600080fd5b50610181610b96565b3480156102ea57600080fd5b50610181610b9c565b61020361030136600461291f565b610ba2565b34801561031257600080fd5b50610181610f96565b34801561032757600080fd5b506101816103363660046128a9565b610f9c565b34801561034757600080fd5b50610203610356366004612848565b610fb9565b34801561036757600080fd5b50610181610376366004612901565b611224565b34801561038757600080fd5b5061039b610396366004612901565b611242565b60405161018e9190613329565b3480156103b457600080fd5b506103c86103c3366004612975565b61181a565b60405161018e9291906131fb565b3480156103e257600080fd5b506103f66103f1366004612901565b61217c565b60405161018e919061321b565b34801561040f57600080fd5b506101816121c5565b34801561042457600080fd5b50610203610433366004612901565b6121cb565b60075481565b600154600160a060020a031681565b6004805460408051602060026001851615610100026000190190941693909304601f810184900484028201840190925281815292918301828280156104d35780601f106104a8576101008083540402835291602001916104d3565b820191906000526020600020905b8154815290600101906020018083116104b657829003601f168201915b505050505081565b600a5481565b600082826040516104f39291906131d8565b60408051918290039091206000818152600d6020529190912060028101549192509061055b57600c80546001810182556000919091527fdf6966c971051c3d54ec59162606531493a51404a002842f56009d7e5cf4a8c70182905561055981858561245f565b505b6000600182015460ff16600381111561057057fe5b1415610593576001808201805460029260ff1990911690835b02179055506105e8565b60018082015460ff1660038111156105a757fe5b14156105c4576001808201805460039260ff199091169083610589565b60405160e560020a62461bcd0281526004016105df90613309565b60405180910390fd5b600281018054600091906105ff82600183016124dd565b8154811061060957fe5b60009182526020909120600a909102016005810180543373ffffffffffffffffffffffffffffffffffffffff199091161790554260028083019190915560035460088301805474ffffffffffffffffffffffffffffffffffffffff001916610100600160a060020a0390931683021790556004805493945061069d9360098601939192600182161502600019011604612509565b50600781018054600091906106b5826001830161257e565b815481106106bf57fe5b60009182526020822060088501546040517ff7434ea900000000000000000000000000000000000000000000000000000000815260069093029091019350600160a060020a03610100909104169063f7434ea990610724906009870190600401613268565b60206040518083038186803b15801561073c57600080fd5b505afa158015610750573d6000803e3d6000fd5b505050506040513d601f19601f820116820180604052506107749190810190612a4d565b905060006107bb6005546107af612710610799600b548761230890919063ffffffff16565b816107a057fe5b8691900463ffffffff61233e16565b9063ffffffff61233e16565b90506107cb836001333485612353565b80836001015410156107f25760405160e560020a62461bcd0281526004016105df90613299565b5050600301805461ff0019166101001790555050505050565b600081600281111561081957fe5b336000908152600e60209081526040808320878452825280832054808452600d9092528220600281018054949550919390929190600019810190811061085b57fe5b6000918252602082206007600a90920201908101805491935090600019810190811061088357fe5b906000526020600020906006020190506000548611156108a257600080fd5b60088201546101009004600160a060020a031633146108c057600080fd5b600382015460ff16156108d257600080fd5b600381015460ff610100909104161515600114156108f35760019450610910565b600381015462010000900460ff1615156001141561091057600294505b86337f394027a5fa6e098a1191094d1719d6929b9abc535fcc0c8f448d6a4e7562227687600281111561093f57fe5b60405161094c9190613229565b60405180910390a3600185600281111561096257fe5b14156109b6576002600184015460ff16600381111561097d57fe5b1415610998576001838101805460ff191690911790556109b1565b6001808401805460009260ff1990911690835b02179055505b610a14565b6002600184015460ff1660038111156109cb57fe5b14156109e8576001808401805460009260ff1990911690836109ab565b6003600184015460ff1660038111156109fd57fe5b1415610a14576001838101805460ff191690911790555b600382018054600160ff199182168117909255600884018054889391921690836002811115610a3f57fe5b02179055506000856002811115610a5257fe5b1415610a9f57610a8c6004830160015b60038110610a6c57fe5b01546002850154600160a060020a03909116908690600019016000610fb9565b610a9a600483016002610a62565b610ab2565b610ab282600401866002811115610a6257fe5b50505050505050565b60065481565b600b5481565b600d6020908152600091825260409182902080548351601f60026000196101006001861615020190931692909204918201849004840281018401909452808452909291839190830182828015610b5e5780601f10610b3357610100808354040283529160200191610b5e565b820191906000526020600020905b815481529060010190602001808311610b4157829003601f168201915b5050506001909301549192505060ff1682565b600254600160a060020a031681565b600c545b90565b600354600160a060020a031681565b60085481565b60095481565b6000838152600d602052604090206002600182015460ff166003811115610bc557fe5b1480610be357506003600182015460ff166003811115610be157fe5b145b610c025760405160e560020a62461bcd0281526004016105df90613319565b600281018054600091906000198101908110610c1a57fe5b90600052602060002090600a02019050600754816002015442031115610c555760405160e560020a62461bcd0281526004016105df906132d9565b805460ff1615610c7a5760405160e560020a62461bcd0281526004016105df906132b9565b60068101805473ffffffffffffffffffffffffffffffffffffffff191633179055600781018054600091906000198101908110610cb357fe5b60009182526020822060088501546040517ff7434ea900000000000000000000000000000000000000000000000000000000815260069093029091019350600160a060020a03610100909104169063f7434ea990610d18906009870190600401613268565b60206040518083038186803b158015610d3057600080fd5b505afa158015610d44573d6000803e3d6000fd5b505050506040513d601f19601f82011682018060405250610d689190810190612a4d565b90506000610d8d6006546107af612710610799600b548761230890919063ffffffff16565b9050610d9d836002333485612353565b8083600201541015610dc45760405160e560020a62461bcd0281526004016105df90613299565b6003830180546201000062ff00001990911617905560088401546000546040517fc13517e1000000000000000000000000000000000000000000000000000000008152610100909204600160a060020a03169163c13517e1918591610e31919060098a019060040161333a565b6020604051808303818588803b158015610e4a57600080fd5b505af1158015610e5e573d6000803e3d6000fd5b50505050506040513d601f19601f82011682018060405250610e839190810190612a4d565b600185810182905560088601546101009004600160a060020a03166000908152600e6020908152604080832094835293905291909120899055845460ff19168117855560078501805491610ed99190830161257e565b506004830154610eef908363ffffffff61241f16565b60048401558515610f8c5760028501546040513391610f17918b9160001901906020016131b2565b60405160208183030381529060405280519060200120600190048560080160019054906101000a9004600160a060020a0316600160a060020a03167fdccf2f8b2cc26eafcd61905cba744cff4b81d14740725f6376390dc6298a6a3c8a8a604051610f83929190613287565b60405180910390a45b5050505050505050565b60055481565b600e60209081526000928352604080842090915290825290205481565b6000838152600d6020526040812060028101805491929185908110610fda57fe5b90600052602060002090600a020190506000816007018481548110610ffb57fe5b600091825260209091206003840154600690920201915060ff1661101e57600080fd5b815460009060ff16158061104457506000600884015460ff16600281111561104257fe5b145b1561111d5760008083600101541161105d576000611099565b826001015483600201546004850154600160a060020a038c1660009081526005870160205260409020929091019160010154028161109757fe5b045b90506000808460020154116110af5760006110eb565b836001015484600201546004860154600160a060020a038d166000908152600588016020526040902092909101916002015402816110e957fe5b045b600160a060020a038b166000908152600586016020526040812060018101829055600201559190910191506111f59050565b6008830154600090839060ff16600281111561113557fe5b6003811061113f57fe5b01541161114d5760006111b6565b6008830154829060ff16600281111561116257fe5b6003811061116c57fe5b01546004830154600160a060020a038a1660009081526005850160205260409020600886015460ff1660028111156111a057fe5b600381106111aa57fe5b015402816111b457fe5b045b600160a060020a038916600090815260058401602052604081206008860154929350909160ff1660028111156111e857fe5b600381106111f257fe5b01555b604051600160a060020a0389169082156108fc029083906000818181858888f150505050505050505050505050565b600c818154811061123157fe5b600091825260209091200154905081565b61124a6125aa565b6000828152600d60205260408120600281018054919291600019810190811061126f57fe5b6000918252602082206007600a90920201908101805491935090600019810190811061129757fe5b6000918252602091829020604080516102408101825289815287548251601f600260001961010060018616150201909316929092049182018790048702810187019093528083526006909402909201945090928381019287918301828280156113415780601f1061131657610100808354040283529160200191611341565b820191906000526020600020905b81548152906001019060200180831161132457829003601f168201915b5050509183525050600185015460209091019060ff16600381111561136257fe5b8152835460ff9081161515602083015260038501541615156040820152600180850154606083015260006080830181905260a083015260c090910190600485010154600160a060020a031681526020016004840160020154600160a060020a03908116825260088501546101009081900490911660208084019190915260098601805460408051600260018416159096026000190190921694909404601f8101849004840282018401855280825293909401939290918301828280156114695780601f1061143e57610100808354040283529160200191611469565b820191906000526020600020905b81548152906001019060200180831161144c57829003601f168201915b5050509183525050600060208083018290526040805160608082018352848252818401859052818301859052828601919091528085018490526002880154608086015281519081018252838152918201839052810182905260a083015260c090910152825490945060ff168015611576575060016008830154600184015460405160e360020a63021e2d3d028152610100909204600160a060020a0316916310f169e89161151991600401613229565b60206040518083038186803b15801561153157600080fd5b505afa158015611545573d6000803e3d6000fd5b505050506040513d601f19601f820116820180604052506115699190810190612a2f565b600281111561157457fe5b145b1561181257600882015460018301546040517f1c3db16d000000000000000000000000000000000000000000000000000000008152610100909204600160a060020a031691631c3db16d916115cd91600401613229565b60206040518083038186803b1580156115e557600080fd5b505afa1580156115f9573d6000803e3d6000fd5b505050506040513d601f19601f8201168201806040525061161d9190810190612a4d565b6101808501526008820154600183015460405160e360020a63021e2d3d028152610100909204600160a060020a0316916310f169e89161165f91600401613229565b60206040518083038186803b15801561167757600080fd5b505afa15801561168b573d6000803e3d6000fd5b505050506040513d601f19601f820116820180604052506116af9190810190612a2f565b84610220019060028111156116c057fe5b908160028111156116cd57fe5b905250600882015460018301546040517fafe15cfb000000000000000000000000000000000000000000000000000000008152610100909204600160a060020a03169163afe15cfb9161172291600401613229565b604080518083038186803b15801561173957600080fd5b505afa15801561174d573d6000803e3d6000fd5b505050506040513d601f19601f820116820180604052506117719190810190612a8a565b60e086015260c085015260048101546101c085015260408051606081019182905290600380840191826000855b825461010083900a900460ff16151581526020600192830181810494850194909303909202910180841161179e5750505050506101a08601919091525060408051606081019182905290829060039082845b8154815260200190600101908083116117f05750505050508461020001819052505b505050919050565b60606000808660405190808252806020026020018201604052801561185957816020015b6118466125aa565b81526020019060019003908161183e5790505b50925060008861186c57600091506118c9565b60005b600c548110156118a85789600c828154811061188757fe5b906000526020600020015414156118a0578092506118a8565b60010161186f565b50816118c95760405160e560020a62461bcd0281526004016105df906132f9565b600082156118ee57866118e457600c548390036001016118e9565b826001015b611901565b866118fa5760016118fd565b60005b60ff165b90505b8661191457600c5481111561191a565b600c5481105b1561216f576000600c8861193357600c54839003611935565b825b8154811061193f57fe5b6000918252602080832090910154808352600d90915260408220600281018054929450909291600019810190811061197357fe5b6000918252602091829020600a91909102019150611993908c018c6128e3565b80156119b157506000600183015460ff1660038111156119af57fe5b145b806119e457506119c760408c0160208d016128e3565b80156119e4575060018083015460ff1660038111156119e257fe5b145b80611a2657506119fa60608c0160408d016128e3565b8015611a1857506002600183015460ff166003811115611a1657fe5b145b8015611a265750805460ff16155b80611a685750611a3c60808c0160608d016128e3565b8015611a5a57506003600183015460ff166003811115611a5857fe5b145b8015611a685750805460ff16155b80611aa95750611a7e60a08c0160808d016128e3565b8015611a9c57506002600183015460ff166003811115611a9a57fe5b145b8015611aa95750805460ff165b80611aea5750611abf60c08c0160a08d016128e3565b8015611add57506003600183015460ff166003811115611adb57fe5b145b8015611aea5750805460ff165b80611b245750611b0060e08c0160c08d016128e3565b8015611b245750600160a060020a0389166004820160010154600160a060020a0316145b80611b5f5750611b3b6101008c0160e08d016128e3565b8015611b5f5750600160a060020a0389166004820160020154600160a060020a0316145b15612164578b85101561215857611b746125aa565b604051806102400160405280600c8d611b9257600c54889003611b94565b875b81548110611b9e57fe5b600091825260209182902001548252855460408051601f600260001961010060018716150201909416939093049283018490048402810184019091528181529282019291879190830182828015611c365780601f10611c0b57610100808354040283529160200191611c36565b820191906000526020600020905b815481529060010190602001808311611c1957829003601f168201915b5050509183525050600185015460209091019060ff166003811115611c5757fe5b8152835460ff9081161515602083015260038501541615156040820152600180850154606083015260006080830181905260a083015260c090910190600485010154600160a060020a031681526020016004840160020154600160a060020a03908116825260088501546101009081900490911660208084019190915260098601805460408051600260018416159096026000190190921694909404601f810184900484028201840185528082529390940193929091830182828015611d5e5780601f10611d3357610100808354040283529160200191611d5e565b820191906000526020600020905b815481529060010190602001808311611d4157829003601f168201915b5050509183525050600060208083018290526040805160608082018352848252818401859052818301859052828601919091528085018490526002880154608086015281519081018252838152918201839052810182905260a083015260c090910152825490915060ff168015611e6b575060016008830154600184015460405160e360020a63021e2d3d028152610100909204600160a060020a0316916310f169e891611e0e91600401613229565b60206040518083038186803b158015611e2657600080fd5b505afa158015611e3a573d6000803e3d6000fd5b505050506040513d601f19601f82011682018060405250611e5e9190810190612a2f565b6002811115611e6957fe5b145b1561213457600882015460018301546040517f1c3db16d000000000000000000000000000000000000000000000000000000008152610100909204600160a060020a031691631c3db16d91611ec291600401613229565b60206040518083038186803b158015611eda57600080fd5b505afa158015611eee573d6000803e3d6000fd5b505050506040513d601f19601f82011682018060405250611f129190810190612a4d565b6101808201526008820154600183015460405160e360020a63021e2d3d028152610100909204600160a060020a0316916310f169e891611f5491600401613229565b60206040518083038186803b158015611f6c57600080fd5b505afa158015611f80573d6000803e3d6000fd5b505050506040513d601f19601f82011682018060405250611fa49190810190612a2f565b8161022001906002811115611fb557fe5b90816002811115611fc257fe5b905250600882015460018301546040517fafe15cfb000000000000000000000000000000000000000000000000000000008152610100909204600160a060020a03169163afe15cfb9161201791600401613229565b604080518083038186803b15801561202e57600080fd5b505afa158015612042573d6000803e3d6000fd5b505050506040513d601f19601f820116820180604052506120669190810190612a8a565b60e083015260c082015260078201805460009190600019810190811061208857fe5b60009182526020822060069091020160048101546101c0850152604080516060810191829052919350909160038085019290918390855b825461010083900a900460ff1615158152602060019283018181049485019490930390920291018084116120bf5750505050506101a08401919091525060408051606081019182905290829060039082845b815481526020019060010190808311612111575050505050826102000181905250505b8089878151811061214157fe5b602090810291909101015250600190940193612164565b6001965050505061216f565b505050600101611904565b5050509550959350505050565b6000818152600d6020526040812060018082015460ff16600381111561219e57fe5b14806121bc57506003600182015460ff1660038111156121ba57fe5b145b9150505b919050565b61271081565b6000818152600d6020526040812060028101805491929160001981019081106121f057fe5b90600052602060002090600a02019050600754816002015442031161222a5760405160e560020a62461bcd0281526004016105df906132c9565b805460ff161561224f5760405160e560020a62461bcd0281526004016105df906132a9565b6002600183015460ff16600381111561226457fe5b1415612282576001828101805460ff191682805b02179055506122cf565b6003600183015460ff16600381111561229757fe5b14156122b4576001808301805460009260ff199091169083612278565b60405160e560020a62461bcd0281526004016105df906132e9565b60038101805460ff191660011790556005810154600283015461230391600160a060020a0316908590600019016000610fb9565b505050565b60008261231757506000612338565b8282028284828161232457fe5b041461233257600019612334565b805b9150505b92915050565b60008282018381101561233257600019612334565b600080612388846123838989600281111561236a57fe5b6003811061237457fe5b0154869063ffffffff61241f16565b61243a565b600160a060020a038716600090815260058a0160205260409020919350915082908760028111156123b557fe5b600381106123bf57fe5b018054909101905581878760028111156123d557fe5b600381106123df57fe5b018054909101905560048701805483019055604051600160a060020a0386169082156108fc029083906000818181858888f1505050505050505050505050565b60008282111561243157506000612338565b50808203612338565b6000808383111561245057508290506000612458565b508190508083035b9250929050565b828054600181600116156101000203166002900490600052602060002090601f016020900481019282601f106124a05782800160ff198235161785556124cd565b828001600101855582156124cd579182015b828111156124cd5782358255916020019190600101906124b2565b506124d9929150612643565b5090565b81548183558181111561230357600a0281600a028360005260206000209182019101612303919061265d565b828054600181600116156101000203166002900490600052602060002090601f016020900481019282601f1061254257805485556124cd565b828001600101855582156124cd57600052602060002091601f016020900482015b828111156124cd578254825591600101919060010190612563565b8154818355818111156123035760060281600602836000526020600020918201910161230391906126e3565b6040805161024081018252600080825260606020830152909182019081526000602082018190526040820181905260608083018290526080830182905260a0830182905260c0830182905260e0830182905261010083018290526101208301526101408201526101600161261c61271b565b8152602001600081526020016000815260200161263761271b565b81526020016000905290565b610b8491905b808211156124d95760008155600101612649565b610b8491905b808211156124d957805460ff1990811682556000600183018190556002830181905560038301805490921690915561269e6004830182612739565b6126ac60078301600061274e565b60088201805474ffffffffffffffffffffffffffffffffffffffffff191690556126da600983016000612772565b50600a01612663565b610b8491905b808211156124d95760006126fd8282612739565b61270b6003830160006127b6565b50600060048201556006016126e9565b60405180606001604052806003906020820280388339509192915050565b50600081556001016000815560010160009055565b508054600082556006029060005260206000209081019061276f91906126e3565b50565b50805460018160011615610100020316600290046000825580601f10612798575061276f565b601f01602090049060005260206000209081019061276f9190612643565b5060009055565b80356123388161342a565b80610100810183101561233857600080fd5b80356123388161343e565b803561233881613447565b60008083601f84011261280257600080fd5b50813567ffffffffffffffff81111561281a57600080fd5b60208301915083600182028301111561245857600080fd5b805161233881613450565b805161233881613447565b6000806000806080858703121561285e57600080fd5b600061286a87876127bd565b945050602061287b878288016127e5565b935050604061288c878288016127e5565b925050606061289d878288016127e5565b91505092959194509250565b600080604083850312156128bc57600080fd5b60006128c885856127bd565b92505060206128d9858286016127e5565b9150509250929050565b6000602082840312156128f557600080fd5b600061233484846127da565b60006020828403121561291357600080fd5b600061233484846127e5565b60008060006040848603121561293457600080fd5b600061294086866127e5565b935050602084013567ffffffffffffffff81111561295d57600080fd5b612969868287016127f0565b92509250509250925092565b6000806000806000610180868803121561298e57600080fd5b600061299a88886127e5565b95505060206129ab888289016127e5565b94505060406129bc888289016127c8565b9350506101406129ce888289016127da565b9250506101606129e0888289016127bd565b9150509295509295909350565b60008060208385031215612a0057600080fd5b823567ffffffffffffffff811115612a1757600080fd5b612a23858286016127f0565b92509250509250929050565b600060208284031215612a4157600080fd5b60006123348484612832565b600060208284031215612a5f57600080fd5b6000612334848461283d565b60008060408385031215612a7e57600080fd5b60006128c885856127e5565b60008060408385031215612a9d57600080fd5b6000612aa9858561283d565b92505060206128d98582860161283d565b6000612ac68383612c0a565b505060200190565b6000612ada8383613030565b9392505050565b6000612ac68383612c13565b612af68161337f565b82525050565b612b058161336c565b612b0f81846121c0565b9250612b1a82610b84565b8060005b83811015612b48578151612b328782612aba565b9650612b3d8361335a565b925050600101612b1e565b505050505050565b6000612b5b82613372565b612b658185613376565b935083602082028501612b778561335a565b8060005b85811015612bb15784840389528151612b948582612ace565b9450612b9f8361335a565b60209a909a0199925050600101612b7b565b5091979650505050505050565b612bc78161336c565b612bd181846121c0565b9250612bdc82610b84565b8060005b83811015612b48578151612bf48782612ae1565b9650612bff8361335a565b925050600101612be0565b612af68161338a565b612af681610b84565b612af6612c2882610b84565b610b84565b6000612c3983856121c0565b9350612c468385846133d0565b50500190565b6000612c5782613372565b612c618185613376565b9350612c718185602086016133dc565b612c7a8161340c565b9093019392505050565b600081546001811660008114612ca15760018114612cc757612d06565b607f6002830416612cb28187613376565b60ff1984168152955050602085019250612d06565b60028204612cd58187613376565b9550612ce085613360565b60005b82811015612cff57815488820152600190910190602001612ce3565b8701945050505b505092915050565b612af6816133af565b612af6816133ba565b612af6816133c5565b6000612d358385613376565b9350612d428385846133d0565b612c7a8361340c565b6000612d58601e83613376565b7f596f75206d7573742066756c6c792066756e6420796f757220736964652e0000815260200192915050565b6000612d91602383613376565b7f54686520726571756573742073686f756c64206e6f742062652064697370757481527f65642e0000000000000000000000000000000000000000000000000000000000602082015260400192915050565b6000612df0603283613376565b7f54686520726571756573742073686f756c64206e6f74206861766520616c726581527f616479206265656e2064697370757465642e0000000000000000000000000000602082015260400192915050565b6000612e4f602f83613376565b7f54696d6520746f206368616c6c656e6765207468652072657175657374206d7581527f73742068617665207061737365642e0000000000000000000000000000000000602082015260400192915050565b6000612eae603283613376565b7f4368616c6c656e676573206d757374206f6363757220647572696e672074686581527f206368616c6c656e676520706572696f642e0000000000000000000000000000602082015260400192915050565b6000612f0d601883613376565b7f5468657265206d757374206265206120726571756573742e0000000000000000815260200192915050565b6000612f46601683613376565b7f54686520637572736f7220697320696e76616c69642e00000000000000000000815260200192915050565b6000612f7f602383613376565b7f4974656d20616c72656164792068617320612070656e64696e6720726571756581527f73742e0000000000000000000000000000000000000000000000000000000000602082015260400192915050565b6000612fde602583613376565b7f546865206974656d206d757374206861766520612070656e64696e672072657181527f756573742e000000000000000000000000000000000000000000000000000000602082015260400192915050565b80516000906102c08401906130458582612c13565b506020830151848203602086015261305d8282612c4c565b91505060408301516130726040860182612d20565b5060608301516130856060860182612c0a565b5060808301516130986080860182612c0a565b5060a08301516130ab60a0860182612c13565b5060c08301516130be60c0860182612c13565b5060e08301516130d160e0860182612c13565b506101008301516130e6610100860182612aed565b506101208301516130fb610120860182612aed565b50610140830151613110610140860182612aed565b5061016083015184820361016086015261312a8282612c4c565b915050610180830151613141610180860182612c13565b506101a08301516131566101a0860182612afc565b506101c083015161316b610200860182612c13565b506101e0830151613180610220860182612c13565b50610200830151613195610240860182612bbe565b506102208301516131aa6102a0860182612d17565b509392505050565b60006131be8285612c1c565b6020820191506131ce8284612c1c565b5060200192915050565b60006131e5828486612c2d565b949350505050565b602081016123388284612aed565b6040808252810161320c8185612b50565b9050612ada6020830184612c0a565b602081016123388284612c0a565b602081016123388284612c13565b60208082528101612ada8184612c4c565b604080825281016132598185612c4c565b9050612ada6020830184612d20565b60208082528101612ada8184612c84565b602081016123388284612d0e565b602080825281016131e5818486612d29565b6020808252810161233881612d4b565b6020808252810161233881612d84565b6020808252810161233881612de3565b6020808252810161233881612e42565b6020808252810161233881612ea1565b6020808252810161233881612f00565b6020808252810161233881612f39565b6020808252810161233881612f72565b6020808252810161233881612fd1565b60208082528101612ada8184613030565b604081016133488285612c13565b81810360208301526131e58184612c84565b60200190565b60009081526020902090565b50600390565b5190565b90815260200190565b6000612338826133a3565b151590565b806121c081613416565b806121c081613420565b600160a060020a031690565b60006123388261337f565b60006123388261338f565b600061233882613399565b82818337506000910152565b60005b838110156133f75781810151838201526020016133df565b83811115613406576000848401525b50505050565b601f01601f191690565b6003811061276f57fe5b6004811061276f57fe5b6134338161337f565b811461276f57600080fd5b6134338161338a565b61343381610b84565b6003811061276f57600080fdfea365627a7a72315820d6385b064bd18fd9ee51d8b26496a07dc29a5289758327a7a9ee38da90b4d0386c6578706572696d656e74616cf564736f6c634300050b004061606860eb6c87306811e2695215385101daab53bd6ab4e9f9049aead9363c7d",
  "source": "/**\n *  @authors: [@mtsalenc]\n *  @reviewers: []\n *  @auditors: []\n *  @bounties: []\n *  @deployments: []\n */\n\npragma solidity ^0.5.11;\npragma experimental ABIEncoderV2;\n\nimport { IArbitrable, Arbitrator } from \"@kleros/erc-792/contracts/Arbitrator.sol\";\nimport { IEvidence } from \"@kleros/erc-792/contracts/erc-1497/IEvidence.sol\";\nimport \"./libraries/CappedMath.sol\";\n\ncontract GTCRMock is IArbitrable, IEvidence{\n    using CappedMath for uint; // Operations bounded between 0 and 2**256 - 1.\n\n    /* Enums */\n\n    enum ItemStatus {\n        Absent,\n        Registered,\n        RegistrationRequested,\n        ClearingRequested\n    }\n\n    enum Party {\n        None,      // Party per default when there is no challenger or requester. Also used for unconclusive ruling.\n        Requester, // Party that made the request to change an address status.\n        Challenger // Party that challenges the request to change an address status.\n    }\n\n    /* Structs */\n\n    struct Item {\n        bytes data;\n        ItemStatus status; // The status of the item.\n        Request[] requests; // List of status change requests made for the item.\n    }\n\n    struct Request {\n        bool disputed; // True if a dispute was raised.\n        uint disputeID; // ID of the dispute, if any.\n        uint submissionTime; // Time when the request was made. Used to track when the challenge period ends.\n        bool resolved; // True if the request was executed and/or any disputes raised were resolved.\n        address payable[3] parties; // Address of requester and challenger, if any.\n        Round[] rounds; // Tracks each round of a dispute.\n        Party ruling; // The final ruling given, if any.\n        Arbitrator arbitrator; // The arbitrator trusted to solve disputes for this request.\n        bytes arbitratorExtraData; // The extra data for the trusted arbitrator of this request.\n    }\n\n    struct Round {\n        uint[3] paidFees; // Tracks the fees paid by each side on this round.\n        bool[3] hasPaid; // True when the side has fully paid its fee. False otherwise.\n        uint feeRewards; // Sum of reimbursable fees and stake rewards available to the parties that made contributions to the side that ultimately wins a dispute.\n        mapping(address => uint[3]) contributions; // Maps contributors to their contributions for each side.\n    }\n\n    struct QueryResult {\n        bytes32 ID;\n        bytes data;\n        ItemStatus status;\n        bool disputed;\n        bool resolved;\n        uint disputeID;\n        uint appealStart;\n        uint appealEnd;\n        address requester;\n        address challenger;\n        address arbitrator;\n        bytes arbitratorExtraData;\n        uint currentRuling;\n        bool[3] hasPaid;\n        uint feeRewards;\n        uint submissionTime;\n        uint[3] paidFees;\n        Arbitrator.DisputeStatus disputeStatus;\n    }\n\n    /* Storage */\n\n    // Constants\n\n    uint RULING_OPTIONS = 2; // The amount of non 0 choices the arbitrator can give.\n\n    // Settings\n    address public governor; // The address that can make governance changes to the parameters of the TCR.\n    address public relatedTCR; // The address of the TCR of TCRs related to this one.\n    Arbitrator public arbitrator; // The arbitrator that will be used to resolve disputes on the next requests.\n    bytes public arbitratorExtraData; // The arbitrator extra data used for the next requests.\n    uint public requesterBaseDeposit; // The base deposit to make a request.\n    uint public challengerBaseDeposit; // The base deposit to challenge a request.\n    uint public challengePeriodDuration; // The time before a request becomes executable if not challenged.\n    uint public metaEvidenceUpdates; // The number of times the meta evidence has been updated. Used to track the latest meta evidence ID.\n\n    // The required fee stake that a party must pay depends on who won the previous round and is proportional to the arbitration cost such that the fee stake for a round is stake multiplier * arbitration cost for that round.\n    // Multipliers are in basis points.\n    uint public winnerStakeMultiplier; // Multiplier for calculating the fee stake paid by the party that won the previous round.\n    uint public loserStakeMultiplier; // Multiplier for calculating the fee stake paid by the party that lost the previous round.\n    uint public sharedStakeMultiplier; // Multiplier for calculating the fee stake that must be paid in the case where there isn't a winner and loser (e.g. when it's the first round or the arbitrator ruled \"refused to rule\"/\"could not rule\").\n    uint public constant MULTIPLIER_DIVISOR = 10000; // Divisor parameter for multipliers.\n\n    // Registry data.\n    bytes32[] public itemIDs; // List of IDs of submitted items.\n    mapping(bytes32 => Item) public items; // Maps the item ID to the item.\n    mapping(address => mapping(uint => bytes32)) public arbitratorDisputeIDToItemID; // Maps a dispute ID to the ID of the item with the disputed request. On the form arbitratorDisputeIDToItemID[arbitrator][disputeID].\n\n    constructor(\n        Arbitrator _arbitrator,\n        bytes memory _arbitratorExtraData,\n        string memory _registrationMetaEvidence,\n        string memory _clearingMetaEvidence,\n        address _governor,\n        uint _requesterBaseDeposit,\n        uint _challengerBaseDeposit,\n        uint _challengePeriodDuration,\n        uint _sharedStakeMultiplier,\n        uint _winnerStakeMultiplier,\n        uint _loserStakeMultiplier\n    ) public {\n        emit MetaEvidence(0, _registrationMetaEvidence);\n        emit MetaEvidence(1, _clearingMetaEvidence);\n\n        arbitrator = _arbitrator;\n        arbitratorExtraData = _arbitratorExtraData;\n        governor = _governor;\n        requesterBaseDeposit = _requesterBaseDeposit;\n        challengerBaseDeposit = _challengerBaseDeposit;\n        challengePeriodDuration = _challengePeriodDuration;\n        sharedStakeMultiplier = _sharedStakeMultiplier;\n        winnerStakeMultiplier = _winnerStakeMultiplier;\n        loserStakeMultiplier = _loserStakeMultiplier;\n    }\n\n    function requestStatusChange(bytes calldata _item)\n        external\n        payable\n    {\n        bytes32 itemID = keccak256(_item);\n\n        Item storage item = items[itemID];\n        if (item.requests.length == 0) { // Initial item registration.\n            itemIDs.push(itemID);\n            item.data = _item;\n        }\n\n        // Update item status.\n        if (item.status == ItemStatus.Absent)\n            item.status = ItemStatus.RegistrationRequested;\n        else if (item.status == ItemStatus.Registered)\n            item.status = ItemStatus.ClearingRequested;\n        else\n            revert(\"Item already has a pending request.\");\n\n        // Setup request.\n        Request storage request = item.requests[item.requests.length++];\n        request.parties[uint(Party.Requester)] = msg.sender;\n        request.submissionTime = now;\n        request.arbitrator = arbitrator;\n        request.arbitratorExtraData = arbitratorExtraData;\n        Round storage round = request.rounds[request.rounds.length++];\n\n\n        // Amount required to fully fund each side: requesterBaseDeposit + arbitration cost + (arbitration cost * multiplier).\n        uint arbitrationCost = request.arbitrator.arbitrationCost(request.arbitratorExtraData);\n        uint totalCost = arbitrationCost.addCap((arbitrationCost.mulCap(sharedStakeMultiplier)) / MULTIPLIER_DIVISOR).addCap(requesterBaseDeposit);\n        contribute(round, Party.Requester, msg.sender, msg.value, totalCost);\n        require(round.paidFees[uint(Party.Requester)] >= totalCost, \"You must fully fund your side.\");\n        round.hasPaid[uint(Party.Requester)] = true;\n    }\n\n    /** @dev Executes a request if the challenge period passed and no one challenged the request.\n     *  @param _item The item with the request to execute.\n     */\n    function executeRequest(bytes32 _item) external {\n        Item storage addr = items[_item];\n        Request storage request = addr.requests[addr.requests.length - 1];\n        require(\n            now - request.submissionTime > challengePeriodDuration,\n            \"Time to challenge the request must have passed.\"\n        );\n        require(!request.disputed, \"The request should not be disputed.\");\n\n        if (addr.status == ItemStatus.RegistrationRequested)\n            addr.status = ItemStatus.Registered;\n        else if (addr.status == ItemStatus.ClearingRequested)\n            addr.status = ItemStatus.Absent;\n        else\n            revert(\"There must be a request.\");\n\n        request.resolved = true;\n        withdrawFeesAndRewards(request.parties[uint(Party.Requester)], _item, addr.requests.length - 1, 0); // Automatically withdraw for the requester.\n    }\n\n    /** @dev Challenges the latest request of a item. Accepts enough ETH to fund a potential dispute considering the current required amount. Reimburses unused ETH. TRUSTED.\n     *  @param _itemID The ID of the item with the request to challenge.\n     *  @param _evidence A link to an evidence using its URI. Ignored if not provided or if not enough funds were provided to create a dispute.\n     */\n    function challengeRequest(bytes32 _itemID, string calldata _evidence) external payable {\n        Item storage item = items[_itemID];\n        require(\n            item.status == ItemStatus.RegistrationRequested || item.status == ItemStatus.ClearingRequested,\n            \"The item must have a pending request.\"\n        );\n        Request storage request = item.requests[item.requests.length - 1];\n        require(now - request.submissionTime <= challengePeriodDuration, \"Challenges must occur during the challenge period.\");\n        require(!request.disputed, \"The request should not have already been disputed.\");\n\n        // Take the deposit and save the challenger's address.\n        request.parties[uint(Party.Challenger)] = msg.sender;\n\n        Round storage round = request.rounds[request.rounds.length - 1];\n        uint arbitrationCost = request.arbitrator.arbitrationCost(request.arbitratorExtraData);\n        uint totalCost = arbitrationCost.addCap((arbitrationCost.mulCap(sharedStakeMultiplier)) / MULTIPLIER_DIVISOR).addCap(challengerBaseDeposit);\n        contribute(round, Party.Challenger, msg.sender, msg.value, totalCost);\n        require(round.paidFees[uint(Party.Challenger)] >= totalCost, \"You must fully fund your side.\");\n        round.hasPaid[uint(Party.Challenger)] = true;\n\n        // Raise a dispute.\n        request.disputeID = request.arbitrator.createDispute.value(arbitrationCost)(RULING_OPTIONS, request.arbitratorExtraData);\n        arbitratorDisputeIDToItemID[address(request.arbitrator)][request.disputeID] = _itemID;\n        request.disputed = true;\n        request.rounds.length++;\n        round.feeRewards = round.feeRewards.subCap(arbitrationCost);\n\n        if (bytes(_evidence).length > 0)\n            emit Evidence(request.arbitrator, uint(keccak256(abi.encodePacked(_itemID,item.requests.length - 1))), msg.sender, _evidence);\n    }\n\n\n    /** @dev Give a ruling for a dispute. Can only be called by the arbitrator. TRUSTED.\n     *  Overrides parent function to account for the situation where the winner loses a case due to paying less appeal fees than expected.\n     *  @param _disputeID ID of the dispute in the arbitrator contract.\n     *  @param _ruling Ruling given by the arbitrator. Note that 0 is reserved for \"Not able/wanting to make a decision\".\n     */\n    function rule(uint _disputeID, uint _ruling) public {\n        Party winner = Party(_ruling);\n        bytes32 itemID = arbitratorDisputeIDToItemID[msg.sender][_disputeID];\n        Item storage item = items[itemID];\n        Request storage request = item.requests[item.requests.length - 1];\n        Round storage round = request.rounds[request.rounds.length - 1];\n        require(_ruling <= RULING_OPTIONS); // solium-disable-line error-reason\n        require(address(request.arbitrator) == msg.sender); // solium-disable-line error-reason\n        require(!request.resolved); // solium-disable-line error-reason\n\n        // The ruling is inverted if the loser paid its fees.\n        if (round.hasPaid[uint(Party.Requester)] == true) // If one side paid its fees, the ruling is in its favor. Note that if the other side had also paid, an appeal would have been created.\n            winner = Party.Requester;\n        else if (round.hasPaid[uint(Party.Challenger)] == true)\n            winner = Party.Challenger;\n\n        emit Ruling(Arbitrator(msg.sender), _disputeID, uint(winner));\n\n        // Update the item's state\n        if (winner == Party.Requester) { // Execute Request\n            if (item.status == ItemStatus.RegistrationRequested)\n                item.status = ItemStatus.Registered;\n            else\n                item.status = ItemStatus.Absent;\n        } else { // Revert to previous state.\n            if (item.status == ItemStatus.RegistrationRequested)\n                item.status = ItemStatus.Absent;\n            else if (item.status == ItemStatus.ClearingRequested)\n                item.status = ItemStatus.Registered;\n        }\n\n        request.resolved = true;\n        request.ruling = Party(winner);\n        // Automatically withdraw.\n        if (winner == Party.None) {\n            withdrawFeesAndRewards(request.parties[uint(Party.Requester)], itemID, item.requests.length-1, 0);\n            withdrawFeesAndRewards(request.parties[uint(Party.Challenger)], itemID, item.requests.length-1, 0);\n        } else {\n            withdrawFeesAndRewards(request.parties[uint(winner)], itemID, item.requests.length-1, 0);\n        }\n    }\n\n    /** @dev Reimburses contributions if no disputes were raised. If a dispute was raised, sends the fee stake rewards and reimbursements proportional to the contributions made to the winner of a dispute.\n     *  @param _beneficiary The address that made contributions to a request.\n     *  @param _itemID The ID of the item with the request from which to withdraw.\n     *  @param _request The request from which to withdraw.\n     *  @param _round The round from which to withdraw.\n     */\n    function withdrawFeesAndRewards(address payable _beneficiary, bytes32 _itemID, uint _request, uint _round) public {\n        Item storage item = items[_itemID];\n        Request storage request = item.requests[_request];\n        Round storage round = request.rounds[_round];\n        // The request must be executed and there can be no disputes pending resolution.\n        require(request.resolved); // solium-disable-line error-reason\n\n        uint reward;\n        if (!request.disputed || request.ruling == Party.None) {\n            // No disputes were raised, or there isn't a winner and loser. Reimburse unspent fees proportionally.\n            uint rewardRequester = round.paidFees[uint(Party.Requester)] > 0\n                ? (round.contributions[_beneficiary][uint(Party.Requester)] * round.feeRewards) / (round.paidFees[uint(Party.Challenger)] + round.paidFees[uint(Party.Requester)])\n                : 0;\n            uint rewardChallenger = round.paidFees[uint(Party.Challenger)] > 0\n                ? (round.contributions[_beneficiary][uint(Party.Challenger)] * round.feeRewards) / (round.paidFees[uint(Party.Challenger)] + round.paidFees[uint(Party.Requester)])\n                : 0;\n\n            reward = rewardRequester + rewardChallenger;\n            round.contributions[_beneficiary][uint(Party.Requester)] = 0;\n            round.contributions[_beneficiary][uint(Party.Challenger)] = 0;\n        } else {\n            // Reward the winner.\n            reward = round.paidFees[uint(request.ruling)] > 0\n                ? (round.contributions[_beneficiary][uint(request.ruling)] * round.feeRewards) / round.paidFees[uint(request.ruling)]\n                : 0;\n\n            round.contributions[_beneficiary][uint(request.ruling)] = 0;\n        }\n\n        _beneficiary.send(reward); // It is the user responsibility to accept ETH.\n    }\n\n\n    /* Internal */\n\n    /** @dev Returns the contribution value and remainder from available ETH and required amount.\n     *  @param _available The amount of ETH available for the contribution.\n     *  @param _requiredAmount The amount of ETH required for the contribution.\n     *  @return taken The amount of ETH taken.\n     *  @return remainder The amount of ETH left from the contribution.\n     */\n    function calculateContribution(uint _available, uint _requiredAmount)\n        internal\n        pure\n        returns(uint taken, uint remainder)\n    {\n        if (_requiredAmount > _available)\n            return (_available, 0); // Take whatever is available, return 0 as leftover ETH.\n\n        remainder = _available - _requiredAmount;\n        return (_requiredAmount, remainder);\n    }\n\n    /** @dev Make a fee contribution.\n     *  @param _round The round to contribute.\n     *  @param _side The side for which to contribute.\n     *  @param _contributor The contributor.\n     *  @param _amount The amount contributed.\n     *  @param _totalRequired The total amount required for this side.\n     */\n    function contribute(Round storage _round, Party _side, address payable _contributor, uint _amount, uint _totalRequired) internal {\n        // Take up to the amount necessary to fund the current round at the current costs.\n        uint contribution; // Amount contributed.\n        uint remainingETH; // Remaining ETH to send back.\n        (contribution, remainingETH) = calculateContribution(_amount, _totalRequired.subCap(_round.paidFees[uint(_side)]));\n        _round.contributions[_contributor][uint(_side)] += contribution;\n        _round.paidFees[uint(_side)] += contribution;\n        _round.feeRewards += contribution;\n\n        // Reimburse leftover ETH.\n        _contributor.send(remainingETH); // Deliberate use of send in order to not block the contract in case of reverting fallback.\n    }\n\n    /* Views */\n\n    /** @dev Return true if the item is on the list.\n     *  @param _itemID The ID of the item to be queried.\n     *  @return allowed True if the item is allowed, false otherwise.\n     */\n    function isPermitted(bytes32 _itemID) external view returns (bool allowed) {\n        Item storage item = items[_itemID];\n        return item.status == ItemStatus.Registered || item.status == ItemStatus.ClearingRequested;\n    }\n\n    function itemCount() external view returns (uint) {\n        return itemIDs.length;\n    }\n\n    function getItem(bytes32 _itemID) external view returns (QueryResult memory result) {\n        Item storage item = items[_itemID];\n        Request storage request = item.requests[item.requests.length - 1];\n        Round storage round = request.rounds[request.rounds.length - 1];\n\n        result = QueryResult({\n            ID: _itemID,\n            data: item.data,\n            status: item.status,\n            disputed: request.disputed,\n            resolved: request.resolved,\n            disputeID: request.disputeID,\n            requester: request.parties[uint(Party.Requester)],\n            challenger: request.parties[uint(Party.Challenger)],\n            appealStart: 0,\n            appealEnd: 0,\n            arbitrator: address(request.arbitrator),\n            arbitratorExtraData: request.arbitratorExtraData,\n            submissionTime: request.submissionTime,\n            hasPaid: [false,false,false],\n            paidFees: [uint(0), uint(0), uint(0)],\n            currentRuling: 0,\n            feeRewards: 0,\n            disputeStatus: Arbitrator.DisputeStatus.Waiting\n        });\n        if (request.disputed && request.arbitrator.disputeStatus(request.disputeID) == Arbitrator.DisputeStatus.Appealable) {\n            result.currentRuling = request.arbitrator.currentRuling(request.disputeID);\n            result.disputeStatus = request.arbitrator.disputeStatus(request.disputeID);\n            (result.appealStart, result.appealEnd) = request.arbitrator.appealPeriod(request.disputeID);\n\n            result.feeRewards = round.feeRewards;\n            result.hasPaid = round.hasPaid;\n            result.paidFees = round.paidFees;\n        }\n    }\n\n    /** @dev Return the values of the items the query finds. This function is O(n), where n is the number of items. This could exceed the gas limit, therefore this function should only be used for interface display and not by other contracts.\n     *  @param _cursor The ID of the items from which to start iterating. To start from either the oldest or newest item.\n     *  @param _count The number of items to return.\n     *  @param _filter The filter to use. Each element of the array in sequence means:\n     *  - Include absent items in result.\n     *  - Include registered items in result.\n     *  - Include items with registration requests that are not disputed in result.\n     *  - Include items with clearing requests that are not disputed in result.\n     *  - Include disputed items with registration requests in result.\n     *  - Include disputed items with clearing requests in result.\n     *  - Include items submitted by _party.\n     *  - Include items challenged by _party.\n     *  @param _oldestFirst Whether to sort from oldest to the newest item.\n     *  @param _party The address to use if checking for items submitted or challenged by a specific party.\n     *  @return The values of the tokens found and whether there are more tokens for the current filter and sort.\n     */\n    function queryItems(bytes32 _cursor, uint _count, bool[8] calldata _filter, bool _oldestFirst, address _party)\n        external\n        view\n        returns (QueryResult[] memory results, bool hasMore)\n    {\n        uint cursorIndex;\n        results = new QueryResult[](_count);\n\n        uint index = 0;\n\n        if (_cursor == 0)\n            cursorIndex = 0;\n        else {\n            for (uint j = 0; j < itemIDs.length; j++) {\n                if (itemIDs[j] == _cursor) {\n                    cursorIndex = j;\n                    break;\n                }\n            }\n            require(cursorIndex != 0, \"The cursor is invalid.\");\n        }\n\n        for (\n                uint i = cursorIndex == 0 ? (_oldestFirst ? 0 : 1) : (_oldestFirst ? cursorIndex + 1 : itemIDs.length - cursorIndex + 1);\n                _oldestFirst ? i < itemIDs.length : i <= itemIDs.length;\n                i++\n            ) { // Oldest or newest first.\n            bytes32 itemID = itemIDs[_oldestFirst ? i : itemIDs.length - i];\n            Item storage item = items[itemID];\n            Request storage request = item.requests[item.requests.length - 1];\n            if (\n                /* solium-disable operator-whitespace */\n                (_filter[0] && item.status == ItemStatus.Absent) ||\n                (_filter[1] && item.status == ItemStatus.Registered) ||\n                (_filter[2] && item.status == ItemStatus.RegistrationRequested && !request.disputed) ||\n                (_filter[3] && item.status == ItemStatus.ClearingRequested && !request.disputed) ||\n                (_filter[4] && item.status == ItemStatus.RegistrationRequested && request.disputed) ||\n                (_filter[5] && item.status == ItemStatus.ClearingRequested && request.disputed) ||\n                (_filter[6] && request.parties[uint(Party.Requester)] == _party) ||\n                (_filter[7] && request.parties[uint(Party.Challenger)] == _party)\n                /* solium-enable operator-whitespace */\n            ) {\n                if (index < _count) {\n                    QueryResult memory result = QueryResult({\n                        ID: itemIDs[_oldestFirst ? i : itemIDs.length - i],\n                        data: item.data,\n                        status: item.status,\n                        disputed: request.disputed,\n                        resolved: request.resolved,\n                        disputeID: request.disputeID,\n                        requester: request.parties[uint(Party.Requester)],\n                        challenger: request.parties[uint(Party.Challenger)],\n                        appealStart: 0,\n                        appealEnd: 0,\n                        arbitrator: address(request.arbitrator),\n                        arbitratorExtraData: request.arbitratorExtraData,\n                        submissionTime: request.submissionTime,\n                        hasPaid: [false,false,false],\n                        paidFees: [uint(0), uint(0), uint(0)],\n                        currentRuling: 0,\n                        feeRewards: 0,\n                        disputeStatus: Arbitrator.DisputeStatus.Waiting\n                    });\n                    if (request.disputed && request.arbitrator.disputeStatus(request.disputeID) == Arbitrator.DisputeStatus.Appealable) {\n                        result.currentRuling = request.arbitrator.currentRuling(request.disputeID);\n                        result.disputeStatus = request.arbitrator.disputeStatus(request.disputeID);\n                        (result.appealStart, result.appealEnd) = request.arbitrator.appealPeriod(request.disputeID);\n\n                        Round storage round = request.rounds[request.rounds.length - 1];\n                        result.feeRewards = round.feeRewards;\n                        result.hasPaid = round.hasPaid;\n                        result.paidFees = round.paidFees;\n                    }\n                    results[index] = result;\n                    index++;\n                } else {\n                    hasMore = true;\n                    break;\n                }\n            }\n        }\n    }\n\n}\n",
  "sourcePath": "/home/betelgiuse/Documents/visus/kleros/repos/gtcr/contracts/GTCRMock.sol",
  "compiler": {
    "name": "solc",
    "version": "0.5.11+commit.c082d0b4.Emscripten.clang"
  },
  "schemaVersion": "3.0.11",
  "updatedAt": "2019-08-16T21:13:59.778Z",
  "devdoc": {
    "methods": {
      "challengeRequest(bytes32,string)": {
        "details": "Challenges the latest request of a item. Accepts enough ETH to fund a potential dispute considering the current required amount. Reimburses unused ETH. TRUSTED.",
        "params": {
          "_evidence": "A link to an evidence using its URI. Ignored if not provided or if not enough funds were provided to create a dispute.",
          "_itemID": "The ID of the item with the request to challenge."
        }
      },
      "executeRequest(bytes32)": {
        "details": "Executes a request if the challenge period passed and no one challenged the request.",
        "params": {
          "_item": "The item with the request to execute."
        }
      },
      "isPermitted(bytes32)": {
        "details": "Return true if the item is on the list.",
        "params": {
          "_itemID": "The ID of the item to be queried."
        },
        "return": "allowed True if the item is allowed, false otherwise."
      },
      "queryItems(bytes32,uint256,bool[8],bool,address)": {
        "details": "Return the values of the items the query finds. This function is O(n), where n is the number of items. This could exceed the gas limit, therefore this function should only be used for interface display and not by other contracts.",
        "params": {
          "_count": "The number of items to return.",
          "_cursor": "The ID of the items from which to start iterating. To start from either the oldest or newest item.",
          "_filter": "The filter to use. Each element of the array in sequence means: - Include absent items in result. - Include registered items in result. - Include items with registration requests that are not disputed in result. - Include items with clearing requests that are not disputed in result. - Include disputed items with registration requests in result. - Include disputed items with clearing requests in result. - Include items submitted by _party. - Include items challenged by _party.",
          "_oldestFirst": "Whether to sort from oldest to the newest item.",
          "_party": "The address to use if checking for items submitted or challenged by a specific party."
        },
        "return": "The values of the tokens found and whether there are more tokens for the current filter and sort."
      },
      "rule(uint256,uint256)": {
        "details": "Give a ruling for a dispute. Can only be called by the arbitrator. TRUSTED. Overrides parent function to account for the situation where the winner loses a case due to paying less appeal fees than expected.",
        "params": {
          "_disputeID": "ID of the dispute in the arbitrator contract.",
          "_ruling": "Ruling given by the arbitrator. Note that 0 is reserved for \"Not able/wanting to make a decision\"."
        }
      },
      "withdrawFeesAndRewards(address,bytes32,uint256,uint256)": {
        "details": "Reimburses contributions if no disputes were raised. If a dispute was raised, sends the fee stake rewards and reimbursements proportional to the contributions made to the winner of a dispute.",
        "params": {
          "_beneficiary": "The address that made contributions to a request.",
          "_itemID": "The ID of the item with the request from which to withdraw.",
          "_request": "The request from which to withdraw.",
          "_round": "The round from which to withdraw."
        }
      }
    }
  },
  "userdoc": {
    "methods": {}
  }
}