{
  "contractName": "GTCRMock",
  "abi": [
    {
      "constant": true,
      "inputs": [],
      "name": "challengePeriodDuration",
      "outputs": [
        {
          "internalType": "uint256",
          "name": "",
          "type": "uint256"
        }
      ],
      "payable": false,
      "stateMutability": "view",
      "type": "function"
    },
    {
      "constant": true,
      "inputs": [],
      "name": "governor",
      "outputs": [
        {
          "internalType": "address",
          "name": "",
          "type": "address"
        }
      ],
      "payable": false,
      "stateMutability": "view",
      "type": "function"
    },
    {
      "constant": true,
      "inputs": [],
      "name": "arbitratorExtraData",
      "outputs": [
        {
          "internalType": "bytes",
          "name": "",
          "type": "bytes"
        }
      ],
      "payable": false,
      "stateMutability": "view",
      "type": "function"
    },
    {
      "constant": true,
      "inputs": [],
      "name": "loserStakeMultiplier",
      "outputs": [
        {
          "internalType": "uint256",
          "name": "",
          "type": "uint256"
        }
      ],
      "payable": false,
      "stateMutability": "view",
      "type": "function"
    },
    {
      "constant": true,
      "inputs": [],
      "name": "challengerBaseDeposit",
      "outputs": [
        {
          "internalType": "uint256",
          "name": "",
          "type": "uint256"
        }
      ],
      "payable": false,
      "stateMutability": "view",
      "type": "function"
    },
    {
      "constant": true,
      "inputs": [],
      "name": "sharedStakeMultiplier",
      "outputs": [
        {
          "internalType": "uint256",
          "name": "",
          "type": "uint256"
        }
      ],
      "payable": false,
      "stateMutability": "view",
      "type": "function"
    },
    {
      "constant": true,
      "inputs": [
        {
          "internalType": "bytes32",
          "name": "",
          "type": "bytes32"
        }
      ],
      "name": "items",
      "outputs": [
        {
          "internalType": "bytes",
          "name": "data",
          "type": "bytes"
        },
        {
          "internalType": "enum GTCRMock.ItemStatus",
          "name": "status",
          "type": "uint8"
        }
      ],
      "payable": false,
      "stateMutability": "view",
      "type": "function"
    },
    {
      "constant": true,
      "inputs": [],
      "name": "relatedTCR",
      "outputs": [
        {
          "internalType": "address",
          "name": "",
          "type": "address"
        }
      ],
      "payable": false,
      "stateMutability": "view",
      "type": "function"
    },
    {
      "constant": true,
      "inputs": [],
      "name": "arbitrator",
      "outputs": [
        {
          "internalType": "contract Arbitrator",
          "name": "",
          "type": "address"
        }
      ],
      "payable": false,
      "stateMutability": "view",
      "type": "function"
    },
    {
      "constant": true,
      "inputs": [],
      "name": "metaEvidenceUpdates",
      "outputs": [
        {
          "internalType": "uint256",
          "name": "",
          "type": "uint256"
        }
      ],
      "payable": false,
      "stateMutability": "view",
      "type": "function"
    },
    {
      "constant": true,
      "inputs": [],
      "name": "winnerStakeMultiplier",
      "outputs": [
        {
          "internalType": "uint256",
          "name": "",
          "type": "uint256"
        }
      ],
      "payable": false,
      "stateMutability": "view",
      "type": "function"
    },
    {
      "constant": true,
      "inputs": [],
      "name": "requesterBaseDeposit",
      "outputs": [
        {
          "internalType": "uint256",
          "name": "",
          "type": "uint256"
        }
      ],
      "payable": false,
      "stateMutability": "view",
      "type": "function"
    },
    {
      "constant": true,
      "inputs": [
        {
          "internalType": "address",
          "name": "",
          "type": "address"
        },
        {
          "internalType": "uint256",
          "name": "",
          "type": "uint256"
        }
      ],
      "name": "arbitratorDisputeIDToItemID",
      "outputs": [
        {
          "internalType": "bytes32",
          "name": "",
          "type": "bytes32"
        }
      ],
      "payable": false,
      "stateMutability": "view",
      "type": "function"
    },
    {
      "constant": true,
      "inputs": [
        {
          "internalType": "uint256",
          "name": "",
          "type": "uint256"
        }
      ],
      "name": "itemIDs",
      "outputs": [
        {
          "internalType": "bytes32",
          "name": "",
          "type": "bytes32"
        }
      ],
      "payable": false,
      "stateMutability": "view",
      "type": "function"
    },
    {
      "constant": true,
      "inputs": [],
      "name": "MULTIPLIER_DIVISOR",
      "outputs": [
        {
          "internalType": "uint256",
          "name": "",
          "type": "uint256"
        }
      ],
      "payable": false,
      "stateMutability": "view",
      "type": "function"
    },
    {
      "inputs": [
        {
          "internalType": "contract Arbitrator",
          "name": "_arbitrator",
          "type": "address"
        },
        {
          "internalType": "bytes",
          "name": "_arbitratorExtraData",
          "type": "bytes"
        },
        {
          "internalType": "string",
          "name": "_registrationMetaEvidence",
          "type": "string"
        },
        {
          "internalType": "string",
          "name": "_clearingMetaEvidence",
          "type": "string"
        },
        {
          "internalType": "address",
          "name": "_governor",
          "type": "address"
        },
        {
          "internalType": "uint256",
          "name": "_requesterBaseDeposit",
          "type": "uint256"
        },
        {
          "internalType": "uint256",
          "name": "_challengerBaseDeposit",
          "type": "uint256"
        },
        {
          "internalType": "uint256",
          "name": "_challengePeriodDuration",
          "type": "uint256"
        },
        {
          "internalType": "uint256",
          "name": "_sharedStakeMultiplier",
          "type": "uint256"
        },
        {
          "internalType": "uint256",
          "name": "_winnerStakeMultiplier",
          "type": "uint256"
        },
        {
          "internalType": "uint256",
          "name": "_loserStakeMultiplier",
          "type": "uint256"
        }
      ],
      "payable": false,
      "stateMutability": "nonpayable",
      "type": "constructor"
    },
    {
      "anonymous": false,
      "inputs": [
        {
          "indexed": true,
          "internalType": "uint256",
          "name": "_metaEvidenceID",
          "type": "uint256"
        },
        {
          "indexed": false,
          "internalType": "string",
          "name": "_evidence",
          "type": "string"
        }
      ],
      "name": "MetaEvidence",
      "type": "event"
    },
    {
      "anonymous": false,
      "inputs": [
        {
          "indexed": true,
          "internalType": "contract Arbitrator",
          "name": "_arbitrator",
          "type": "address"
        },
        {
          "indexed": true,
          "internalType": "uint256",
          "name": "_evidenceGroupID",
          "type": "uint256"
        },
        {
          "indexed": true,
          "internalType": "address",
          "name": "_party",
          "type": "address"
        },
        {
          "indexed": false,
          "internalType": "string",
          "name": "_evidence",
          "type": "string"
        }
      ],
      "name": "Evidence",
      "type": "event"
    },
    {
      "anonymous": false,
      "inputs": [
        {
          "indexed": true,
          "internalType": "contract Arbitrator",
          "name": "_arbitrator",
          "type": "address"
        },
        {
          "indexed": true,
          "internalType": "uint256",
          "name": "_disputeID",
          "type": "uint256"
        },
        {
          "indexed": false,
          "internalType": "uint256",
          "name": "_metaEvidenceID",
          "type": "uint256"
        },
        {
          "indexed": false,
          "internalType": "uint256",
          "name": "_evidenceGroupID",
          "type": "uint256"
        }
      ],
      "name": "Dispute",
      "type": "event"
    },
    {
      "anonymous": false,
      "inputs": [
        {
          "indexed": true,
          "internalType": "contract Arbitrator",
          "name": "_arbitrator",
          "type": "address"
        },
        {
          "indexed": true,
          "internalType": "uint256",
          "name": "_disputeID",
          "type": "uint256"
        },
        {
          "indexed": false,
          "internalType": "uint256",
          "name": "_ruling",
          "type": "uint256"
        }
      ],
      "name": "Ruling",
      "type": "event"
    },
    {
      "constant": false,
      "inputs": [
        {
          "internalType": "bytes",
          "name": "_item",
          "type": "bytes"
        }
      ],
      "name": "addItem",
      "outputs": [],
      "payable": true,
      "stateMutability": "payable",
      "type": "function"
    },
    {
      "constant": false,
      "inputs": [
        {
          "internalType": "bytes",
          "name": "_item",
          "type": "bytes"
        }
      ],
      "name": "removeItem",
      "outputs": [],
      "payable": true,
      "stateMutability": "payable",
      "type": "function"
    },
    {
      "constant": false,
      "inputs": [
        {
          "internalType": "bytes32",
          "name": "_item",
          "type": "bytes32"
        }
      ],
      "name": "executeRequest",
      "outputs": [],
      "payable": false,
      "stateMutability": "nonpayable",
      "type": "function"
    },
    {
      "constant": false,
      "inputs": [
        {
          "internalType": "bytes32",
          "name": "_itemID",
          "type": "bytes32"
        },
        {
          "internalType": "string",
          "name": "_evidence",
          "type": "string"
        }
      ],
      "name": "challengeRequest",
      "outputs": [],
      "payable": true,
      "stateMutability": "payable",
      "type": "function"
    },
    {
      "constant": false,
      "inputs": [
        {
          "internalType": "uint256",
          "name": "_disputeID",
          "type": "uint256"
        },
        {
          "internalType": "uint256",
          "name": "_ruling",
          "type": "uint256"
        }
      ],
      "name": "rule",
      "outputs": [],
      "payable": false,
      "stateMutability": "nonpayable",
      "type": "function"
    },
    {
      "constant": false,
      "inputs": [
        {
          "internalType": "address payable",
          "name": "_beneficiary",
          "type": "address"
        },
        {
          "internalType": "bytes32",
          "name": "_itemID",
          "type": "bytes32"
        },
        {
          "internalType": "uint256",
          "name": "_request",
          "type": "uint256"
        },
        {
          "internalType": "uint256",
          "name": "_round",
          "type": "uint256"
        }
      ],
      "name": "withdrawFeesAndRewards",
      "outputs": [],
      "payable": false,
      "stateMutability": "nonpayable",
      "type": "function"
    },
    {
      "constant": true,
      "inputs": [
        {
          "internalType": "bytes32",
          "name": "_itemID",
          "type": "bytes32"
        }
      ],
      "name": "isPermitted",
      "outputs": [
        {
          "internalType": "bool",
          "name": "allowed",
          "type": "bool"
        }
      ],
      "payable": false,
      "stateMutability": "view",
      "type": "function"
    },
    {
      "constant": true,
      "inputs": [],
      "name": "itemCount",
      "outputs": [
        {
          "internalType": "uint256",
          "name": "",
          "type": "uint256"
        }
      ],
      "payable": false,
      "stateMutability": "view",
      "type": "function"
    },
    {
      "constant": true,
      "inputs": [
        {
          "internalType": "bytes32",
          "name": "_itemID",
          "type": "bytes32"
        }
      ],
      "name": "getItem",
      "outputs": [
        {
          "components": [
            {
              "internalType": "bytes32",
              "name": "ID",
              "type": "bytes32"
            },
            {
              "internalType": "bytes",
              "name": "data",
              "type": "bytes"
            },
            {
              "internalType": "enum GTCRMock.ItemStatus",
              "name": "status",
              "type": "uint8"
            },
            {
              "internalType": "bool",
              "name": "disputed",
              "type": "bool"
            },
            {
              "internalType": "bool",
              "name": "resolved",
              "type": "bool"
            },
            {
              "internalType": "uint256",
              "name": "disputeID",
              "type": "uint256"
            },
            {
              "internalType": "uint256",
              "name": "appealStart",
              "type": "uint256"
            },
            {
              "internalType": "uint256",
              "name": "appealEnd",
              "type": "uint256"
            },
            {
              "internalType": "address",
              "name": "requester",
              "type": "address"
            },
            {
              "internalType": "address",
              "name": "challenger",
              "type": "address"
            },
            {
              "internalType": "address",
              "name": "arbitrator",
              "type": "address"
            },
            {
              "internalType": "bytes",
              "name": "arbitratorExtraData",
              "type": "bytes"
            },
            {
              "internalType": "uint256",
              "name": "currentRuling",
              "type": "uint256"
            },
            {
              "internalType": "bool[3]",
              "name": "hasPaid",
              "type": "bool[3]"
            },
            {
              "internalType": "uint256",
              "name": "feeRewards",
              "type": "uint256"
            },
            {
              "internalType": "uint256",
              "name": "submissionTime",
              "type": "uint256"
            },
            {
              "internalType": "uint256[3]",
              "name": "paidFees",
              "type": "uint256[3]"
            },
            {
              "internalType": "enum Arbitrator.DisputeStatus",
              "name": "disputeStatus",
              "type": "uint8"
            }
          ],
          "internalType": "struct GTCRMock.QueryResult",
          "name": "result",
          "type": "tuple"
        }
      ],
      "payable": false,
      "stateMutability": "view",
      "type": "function"
    },
    {
      "constant": true,
      "inputs": [
        {
          "internalType": "bytes",
          "name": "_rlpEncodedMatch",
          "type": "bytes"
        },
        {
          "internalType": "uint256",
          "name": "_cursor",
          "type": "uint256"
        },
        {
          "internalType": "uint256",
          "name": "_returnCount",
          "type": "uint256"
        },
        {
          "internalType": "uint256",
          "name": "_count",
          "type": "uint256"
        }
      ],
      "name": "findItem",
      "outputs": [
        {
          "internalType": "bytes[]",
          "name": "",
          "type": "bytes[]"
        }
      ],
      "payable": false,
      "stateMutability": "view",
      "type": "function"
    },
    {
      "constant": true,
      "inputs": [
        {
          "internalType": "bytes32",
          "name": "_cursor",
          "type": "bytes32"
        },
        {
          "internalType": "uint256",
          "name": "_count",
          "type": "uint256"
        },
        {
          "internalType": "bool[8]",
          "name": "_filter",
          "type": "bool[8]"
        },
        {
          "internalType": "bool",
          "name": "_oldestFirst",
          "type": "bool"
        },
        {
          "internalType": "address",
          "name": "_party",
          "type": "address"
        }
      ],
      "name": "queryItems",
      "outputs": [
        {
          "components": [
            {
              "internalType": "bytes32",
              "name": "ID",
              "type": "bytes32"
            },
            {
              "internalType": "bytes",
              "name": "data",
              "type": "bytes"
            },
            {
              "internalType": "enum GTCRMock.ItemStatus",
              "name": "status",
              "type": "uint8"
            },
            {
              "internalType": "bool",
              "name": "disputed",
              "type": "bool"
            },
            {
              "internalType": "bool",
              "name": "resolved",
              "type": "bool"
            },
            {
              "internalType": "uint256",
              "name": "disputeID",
              "type": "uint256"
            },
            {
              "internalType": "uint256",
              "name": "appealStart",
              "type": "uint256"
            },
            {
              "internalType": "uint256",
              "name": "appealEnd",
              "type": "uint256"
            },
            {
              "internalType": "address",
              "name": "requester",
              "type": "address"
            },
            {
              "internalType": "address",
              "name": "challenger",
              "type": "address"
            },
            {
              "internalType": "address",
              "name": "arbitrator",
              "type": "address"
            },
            {
              "internalType": "bytes",
              "name": "arbitratorExtraData",
              "type": "bytes"
            },
            {
              "internalType": "uint256",
              "name": "currentRuling",
              "type": "uint256"
            },
            {
              "internalType": "bool[3]",
              "name": "hasPaid",
              "type": "bool[3]"
            },
            {
              "internalType": "uint256",
              "name": "feeRewards",
              "type": "uint256"
            },
            {
              "internalType": "uint256",
              "name": "submissionTime",
              "type": "uint256"
            },
            {
              "internalType": "uint256[3]",
              "name": "paidFees",
              "type": "uint256[3]"
            },
            {
              "internalType": "enum Arbitrator.DisputeStatus",
              "name": "disputeStatus",
              "type": "uint8"
            }
          ],
          "internalType": "struct GTCRMock.QueryResult[]",
          "name": "results",
          "type": "tuple[]"
        },
        {
          "internalType": "bool",
          "name": "hasMore",
          "type": "bool"
        }
      ],
      "payable": false,
      "stateMutability": "view",
      "type": "function"
    }
  ],
  "bytecode": "0x608060405260026000553480156200001657600080fd5b506040516200432238038062004322833981016040819052620000399162000230565b6000600080516020620043028339815191528a6040516200005b9190620003bd565b60405180910390a260016000805160206200430283398151915289604051620000859190620003bd565b60405180910390a260038054600160a060020a031916600160a060020a038d161790558951620000bd9060049060208d019062000102565b5060018054600160a060020a031916600160a060020a039890981697909717909655600594909455600692909255600755600b55600955600a5550620004c692505050565b828054600181600116156101000203166002900490600052602060002090601f016020900481019282601f106200014557805160ff191683800117855562000175565b8280016001018555821562000175579182015b828111156200017557825182559160200191906001019062000158565b506200018392915062000187565b5090565b620001a491905b808211156200018357600081556001016200018e565b90565b8051620001b48162000496565b92915050565b600082601f830112620001cc57600080fd5b8151620001e3620001dd82620003fe565b620003d7565b915080825260208301602083018583830111156200020057600080fd5b6200020d83828462000459565b50505092915050565b8051620001b481620004b0565b8051620001b481620004bb565b60008060008060008060008060008060006101608c8e0312156200025357600080fd5b6000620002618e8e62000216565b9b505060208c01516001604060020a038111156200027e57600080fd5b6200028c8e828f01620001ba565b9a505060408c01516001604060020a03811115620002a957600080fd5b620002b78e828f01620001ba565b99505060608c01516001604060020a03811115620002d457600080fd5b620002e28e828f01620001ba565b9850506080620002f58e828f01620001a7565b97505060a0620003088e828f0162000223565b96505060c06200031b8e828f0162000223565b95505060e06200032e8e828f0162000223565b945050610100620003428e828f0162000223565b935050610120620003568e828f0162000223565b9250506101406200036a8e828f0162000223565b9150509295989b509295989b9093969950565b60006200038a8262000426565b6200039681856200042a565b9350620003a881856020860162000459565b620003b3816200048c565b9093019392505050565b60208082528101620003d081846200037d565b9392505050565b6040518181016001604060020a0381118282101715620003f657600080fd5b604052919050565b60006001604060020a038211156200041557600080fd5b506020601f91909101601f19160190565b5190565b90815260200190565b6000620001b4826200044d565b6000620001b48262000433565b600160a060020a031690565b60005b83811015620004765781810151838201526020016200045c565b8381111562000486576000848401525b50505050565b601f01601f191690565b620004a18162000433565b8114620004ad57600080fd5b50565b620004a18162000440565b620004a181620001a4565b613e2c80620004d66000396000f3fe60806040526004361061019d576000357c0100000000000000000000000000000000000000000000000000000000900480636cdc090f116100ee578063a836f307116100a7578063beabdb7b11610081578063beabdb7b14610439578063d294ccef14610466578063d661dd3114610479578063e9c241661461048e5761019d565b8063a836f307146103be578063aa0372e7146103de578063b70e6a0f1461040b5761019d565b80636cdc090f1461032c5780637b94338314610341578063873db1a7146103565780638c10fef3146103695780639c81a8271461037e578063a1c2bf4d1461039e5761019d565b8063329cedb41161015b578063571e053d11610135578063571e053d146102b35780635cfb0924146102c85780636bfb0d01146102f55780636cc6cde11461030a5761019d565b8063329cedb41461025b578063416583411461027057806348f343f3146102855761019d565b806282a36d146101a25780630c340a24146101cd5780630c7ac7b6146101ef5780631d512085146102115780632c2decc114610226578063311a6c561461023b575b600080fd5b3480156101ae57600080fd5b506101b76104ae565b6040516101c49190613b46565b60405180910390f35b3480156101d957600080fd5b506101e26104b4565b6040516101c49190613af9565b3480156101fb57600080fd5b506102046104c3565b6040516101c49190613b54565b34801561021d57600080fd5b506101b7610551565b6102396102343660046131c3565b610557565b005b34801561024757600080fd5b5061023961025636600461327a565b610603565b34801561026757600080fd5b506101b76108b3565b34801561027c57600080fd5b506101b76108b9565b34801561029157600080fd5b506102a56102a03660046130d7565b6108bf565b6040516101c4929190613b65565b3480156102bf57600080fd5b506101e2610969565b3480156102d457600080fd5b506102e86102e3366004613205565b610978565b6040516101c49190613b07565b34801561030157600080fd5b506101b7610bd4565b34801561031657600080fd5b5061031f610bdb565b6040516101c49190613b96565b34801561033857600080fd5b506101b7610bea565b34801561034d57600080fd5b506101b7610bf0565b6102396103643660046130f5565b610bf6565b34801561037557600080fd5b506101b761100c565b34801561038a57600080fd5b506101b761039936600461307f565b611012565b3480156103aa57600080fd5b506102396103b936600461301e565b61102f565b3480156103ca57600080fd5b506101b76103d93660046130d7565b61129a565b3480156103ea57600080fd5b506103fe6103f93660046130d7565b6112b8565b6040516101c49190613c66565b34801561041757600080fd5b5061042b61042636600461314b565b611890565b6040516101c4929190613b18565b34801561044557600080fd5b506104596104543660046130d7565b6121f2565b6040516101c49190613b38565b6102396104743660046131c3565b61223b565b34801561048557600080fd5b506101b7612299565b34801561049a57600080fd5b506102396104a93660046130d7565b61229f565b60075481565b600154600160a060020a031681565b6004805460408051602060026001851615610100026000190190941693909304601f810184900484028201840190925281815292918301828280156105495780601f1061051e57610100808354040283529160200191610549565b820191906000526020600020905b81548152906001019060200180831161052c57829003601f168201915b505050505081565b600a5481565b60008282604051610569929190613aec565b604051908190039020905060016000828152600d602052604090206001015460ff16600381111561059657fe5b146105bf5760405160e560020a62461bcd0281526004016105b690613c16565b60405180910390fd5b6105fe83838080601f0160208091040260200160405190810160405280939291908181526020018383808284376000920191909152506123d792505050565b505050565b600081600281111561061157fe5b336000908152600e60209081526040808320878452825280832054808452600d9092528220600281018054949550919390929190600019810190811061065357fe5b6000918252602082206007600a90920201908101805491935090600019810190811061067b57fe5b9060005260206000209060060201905060005486111561069a57600080fd5b60088201546101009004600160a060020a031633146106b857600080fd5b600382015460ff16156106ca57600080fd5b600381015460ff610100909104161515600114156106eb5760019450610708565b600381015462010000900460ff1615156001141561070857600294505b86337f394027a5fa6e098a1191094d1719d6929b9abc535fcc0c8f448d6a4e7562227687600281111561073757fe5b6040516107449190613b46565b60405180910390a3600185600281111561075a57fe5b14156107ae576002600184015460ff16600381111561077557fe5b1415610790576001838101805460ff191690911790556107a9565b6001808401805460009260ff1990911690835b02179055505b61080c565b6002600184015460ff1660038111156107c357fe5b14156107e0576001808401805460009260ff1990911690836107a3565b6003600184015460ff1660038111156107f557fe5b141561080c576001838101805460ff191690911790555b600382018054600160ff19918216811790925560088401805488939192169083600281111561083757fe5b0217905550600085600281111561084a57fe5b1415610897576108846004830160015b6003811061086457fe5b01546002850154600160a060020a0390911690869060001901600061102f565b61089260048301600261085a565b6108aa565b6108aa8260040186600281111561085a57fe5b50505050505050565b60065481565b600b5481565b600d6020908152600091825260409182902080548351601f600260001961010060018616150201909316929092049182018490048402810184019094528084529092918391908301828280156109565780601f1061092b57610100808354040283529160200191610956565b820191906000526020600020905b81548152906001019060200180831161093957829003601f168201915b5050506001909301549192505060ff1682565b600254600160a060020a031681565b60608061098c610987876126c7565b6126ec565b90506060836040519080825280602002602001820160405280156109c457816020015b60608152602001906001900390816109af5790505b5090506000865b85156109d757856109db565b600c545b811015610bc7576000600d6000600c84815481106109f557fe5b9060005260206000200154815260200190815260200160002060000190506060610aba610987838054600181600116156101000203166002900480601f016020809104026020016040519081016040528092919081815260200182805460018160011615610100020316600290048015610ab05780601f10610a8557610100808354040283529160200191610ab0565b820191906000526020600020905b815481529060010190602001808311610a9357829003601f168201915b50505050506126c7565b905060005b8651811015610bbc57610b02610ae7888381518110610ada57fe5b60200260200101516127b9565b610af6848481518110610ada57fe5b9063ffffffff61283216565b15610bb4578254604080516020601f60026000196101006001881615020190951694909404938401819004810282018101909252828152918591830182828015610b8d5780601f10610b6257610100808354040283529160200191610b8d565b820191906000526020600020905b815481529060010190602001808311610b7057829003601f168201915b5050505050868681518110610b9e57fe5b6020908102919091010152600190940193610bbc565b600101610abf565b5050506001016109cb565b5090979650505050505050565b600c545b90565b600354600160a060020a031681565b60085481565b60095481565b6000838152600d602052604090206002600182015460ff166003811115610c1957fe5b1480610c3757506003600182015460ff166003811115610c3557fe5b145b610c565760405160e560020a62461bcd0281526004016105b690613c56565b600281018054600091906000198101908110610c6e57fe5b90600052602060002090600a02019050600754816002015442031115610ca95760405160e560020a62461bcd0281526004016105b690613bf6565b805460ff1615610cce5760405160e560020a62461bcd0281526004016105b690613bd6565b60068101805473ffffffffffffffffffffffffffffffffffffffff191633179055600781018054600091906000198101908110610d0757fe5b60009182526020822060088501546040517ff7434ea900000000000000000000000000000000000000000000000000000000815260069093029091019350600160a060020a03610100909104169063f7434ea990610d6c906009870190600401613b85565b60206040518083038186803b158015610d8457600080fd5b505afa158015610d98573d6000803e3d6000fd5b505050506040513d601f19601f82011682018060405250610dbc919081019061325c565b90506000610e03600654610df7612710610de1600b548761289890919063ffffffff16565b81610de857fe5b8691900463ffffffff6128cc16565b9063ffffffff6128cc16565b9050610e138360023334856128e1565b8083600201541015610e3a5760405160e560020a62461bcd0281526004016105b690613bb6565b6003830180546201000062ff00001990911617905560088401546000546040517fc13517e1000000000000000000000000000000000000000000000000000000008152610100909204600160a060020a03169163c13517e1918591610ea7919060098a0190600401613c77565b6020604051808303818588803b158015610ec057600080fd5b505af1158015610ed4573d6000803e3d6000fd5b50505050506040513d601f19601f82011682018060405250610ef9919081019061325c565b600185810182905560088601546101009004600160a060020a03166000908152600e6020908152604080832094835293905291909120899055845460ff19168117855560078501805491610f4f91908301612bc7565b506004830154610f65908363ffffffff6129ad16565b600484015585156110025760028501546040513391610f8d918b916000190190602001613ac6565b60405160208183030381529060405280519060200120600190048560080160019054906101000a9004600160a060020a0316600160a060020a03167fdccf2f8b2cc26eafcd61905cba744cff4b81d14740725f6376390dc6298a6a3c8a8a604051610ff9929190613ba4565b60405180910390a45b5050505050505050565b60055481565b600e60209081526000928352604080842090915290825290205481565b6000838152600d602052604081206002810180549192918590811061105057fe5b90600052602060002090600a02019050600081600701848154811061107157fe5b600091825260209091206003840154600690920201915060ff1661109457600080fd5b815460009060ff1615806110ba57506000600884015460ff1660028111156110b857fe5b145b15611193576000808360010154116110d357600061110f565b826001015483600201546004850154600160a060020a038c1660009081526005870160205260409020929091019160010154028161110d57fe5b045b9050600080846002015411611125576000611161565b836001015484600201546004860154600160a060020a038d1660009081526005880160205260409020929091019160020154028161115f57fe5b045b600160a060020a038b1660009081526005860160205260408120600181018290556002015591909101915061126b9050565b6008830154600090839060ff1660028111156111ab57fe5b600381106111b557fe5b0154116111c357600061122c565b6008830154829060ff1660028111156111d857fe5b600381106111e257fe5b01546004830154600160a060020a038a1660009081526005850160205260409020600886015460ff16600281111561121657fe5b6003811061122057fe5b0154028161122a57fe5b045b600160a060020a038916600090815260058401602052604081206008860154929350909160ff16600281111561125e57fe5b6003811061126857fe5b01555b604051600160a060020a0389169082156108fc029083906000818181858888f150505050505050505050505050565b600c81815481106112a757fe5b600091825260209091200154905081565b6112c0612bf3565b6000828152600d6020526040812060028101805491929160001981019081106112e557fe5b6000918252602082206007600a90920201908101805491935090600019810190811061130d57fe5b6000918252602091829020604080516102408101825289815287548251601f600260001961010060018616150201909316929092049182018790048702810187019093528083526006909402909201945090928381019287918301828280156113b75780601f1061138c576101008083540402835291602001916113b7565b820191906000526020600020905b81548152906001019060200180831161139a57829003601f168201915b5050509183525050600185015460209091019060ff1660038111156113d857fe5b8152835460ff9081161515602083015260038501541615156040820152600180850154606083015260006080830181905260a083015260c090910190600485010154600160a060020a031681526020016004840160020154600160a060020a03908116825260088501546101009081900490911660208084019190915260098601805460408051600260018416159096026000190190921694909404601f8101849004840282018401855280825293909401939290918301828280156114df5780601f106114b4576101008083540402835291602001916114df565b820191906000526020600020905b8154815290600101906020018083116114c257829003601f168201915b5050509183525050600060208083018290526040805160608082018352848252818401859052818301859052828601919091528085018490526002880154608086015281519081018252838152918201839052810182905260a083015260c090910152825490945060ff1680156115ec575060016008830154600184015460405160e360020a63021e2d3d028152610100909204600160a060020a0316916310f169e89161158f91600401613b46565b60206040518083038186803b1580156115a757600080fd5b505afa1580156115bb573d6000803e3d6000fd5b505050506040513d601f19601f820116820180604052506115df919081019061323e565b60028111156115ea57fe5b145b1561188857600882015460018301546040517f1c3db16d000000000000000000000000000000000000000000000000000000008152610100909204600160a060020a031691631c3db16d9161164391600401613b46565b60206040518083038186803b15801561165b57600080fd5b505afa15801561166f573d6000803e3d6000fd5b505050506040513d601f19601f82011682018060405250611693919081019061325c565b6101808501526008820154600183015460405160e360020a63021e2d3d028152610100909204600160a060020a0316916310f169e8916116d591600401613b46565b60206040518083038186803b1580156116ed57600080fd5b505afa158015611701573d6000803e3d6000fd5b505050506040513d601f19601f82011682018060405250611725919081019061323e565b846102200190600281111561173657fe5b9081600281111561174357fe5b905250600882015460018301546040517fafe15cfb000000000000000000000000000000000000000000000000000000008152610100909204600160a060020a03169163afe15cfb9161179891600401613b46565b604080518083038186803b1580156117af57600080fd5b505afa1580156117c3573d6000803e3d6000fd5b505050506040513d601f19601f820116820180604052506117e79190810190613299565b60e086015260c085015260048101546101c085015260408051606081019182905290600380840191826000855b825461010083900a900460ff1615158152602060019283018181049485019490930390920291018084116118145750505050506101a08601919091525060408051606081019182905290829060039082845b8154815260200190600101908083116118665750505050508461020001819052505b505050919050565b6060600080866040519080825280602002602001820160405280156118cf57816020015b6118bc612bf3565b8152602001906001900390816118b45790505b5092506000886118e2576000915061193f565b60005b600c5481101561191e5789600c82815481106118fd57fe5b906000526020600020015414156119165780925061191e565b6001016118e5565b508161193f5760405160e560020a62461bcd0281526004016105b690613c36565b60008215611964578661195a57600c5483900360010161195f565b826001015b611977565b86611970576001611973565b60005b60ff165b90505b8661198a57600c54811115611990565b600c5481105b156121e5576000600c886119a957600c548390036119ab565b825b815481106119b557fe5b6000918252602080832090910154808352600d9091526040822060028101805492945090929160001981019081106119e957fe5b6000918252602091829020600a91909102019150611a09908c018c6130b9565b8015611a2757506000600183015460ff166003811115611a2557fe5b145b80611a5a5750611a3d60408c0160208d016130b9565b8015611a5a575060018083015460ff166003811115611a5857fe5b145b80611a9c5750611a7060608c0160408d016130b9565b8015611a8e57506002600183015460ff166003811115611a8c57fe5b145b8015611a9c5750805460ff16155b80611ade5750611ab260808c0160608d016130b9565b8015611ad057506003600183015460ff166003811115611ace57fe5b145b8015611ade5750805460ff16155b80611b1f5750611af460a08c0160808d016130b9565b8015611b1257506002600183015460ff166003811115611b1057fe5b145b8015611b1f5750805460ff165b80611b605750611b3560c08c0160a08d016130b9565b8015611b5357506003600183015460ff166003811115611b5157fe5b145b8015611b605750805460ff165b80611b9a5750611b7660e08c0160c08d016130b9565b8015611b9a5750600160a060020a0389166004820160010154600160a060020a0316145b80611bd55750611bb16101008c0160e08d016130b9565b8015611bd55750600160a060020a0389166004820160020154600160a060020a0316145b156121da578b8510156121ce57611bea612bf3565b604051806102400160405280600c8d611c0857600c54889003611c0a565b875b81548110611c1457fe5b600091825260209182902001548252855460408051601f600260001961010060018716150201909416939093049283018490048402810184019091528181529282019291879190830182828015611cac5780601f10611c8157610100808354040283529160200191611cac565b820191906000526020600020905b815481529060010190602001808311611c8f57829003601f168201915b5050509183525050600185015460209091019060ff166003811115611ccd57fe5b8152835460ff9081161515602083015260038501541615156040820152600180850154606083015260006080830181905260a083015260c090910190600485010154600160a060020a031681526020016004840160020154600160a060020a03908116825260088501546101009081900490911660208084019190915260098601805460408051600260018416159096026000190190921694909404601f810184900484028201840185528082529390940193929091830182828015611dd45780601f10611da957610100808354040283529160200191611dd4565b820191906000526020600020905b815481529060010190602001808311611db757829003601f168201915b5050509183525050600060208083018290526040805160608082018352848252818401859052818301859052828601919091528085018490526002880154608086015281519081018252838152918201839052810182905260a083015260c090910152825490915060ff168015611ee1575060016008830154600184015460405160e360020a63021e2d3d028152610100909204600160a060020a0316916310f169e891611e8491600401613b46565b60206040518083038186803b158015611e9c57600080fd5b505afa158015611eb0573d6000803e3d6000fd5b505050506040513d601f19601f82011682018060405250611ed4919081019061323e565b6002811115611edf57fe5b145b156121aa57600882015460018301546040517f1c3db16d000000000000000000000000000000000000000000000000000000008152610100909204600160a060020a031691631c3db16d91611f3891600401613b46565b60206040518083038186803b158015611f5057600080fd5b505afa158015611f64573d6000803e3d6000fd5b505050506040513d601f19601f82011682018060405250611f88919081019061325c565b6101808201526008820154600183015460405160e360020a63021e2d3d028152610100909204600160a060020a0316916310f169e891611fca91600401613b46565b60206040518083038186803b158015611fe257600080fd5b505afa158015611ff6573d6000803e3d6000fd5b505050506040513d601f19601f8201168201806040525061201a919081019061323e565b816102200190600281111561202b57fe5b9081600281111561203857fe5b905250600882015460018301546040517fafe15cfb000000000000000000000000000000000000000000000000000000008152610100909204600160a060020a03169163afe15cfb9161208d91600401613b46565b604080518083038186803b1580156120a457600080fd5b505afa1580156120b8573d6000803e3d6000fd5b505050506040513d601f19601f820116820180604052506120dc9190810190613299565b60e083015260c08201526007820180546000919060001981019081106120fe57fe5b60009182526020822060069091020160048101546101c0850152604080516060810191829052919350909160038085019290918390855b825461010083900a900460ff1615158152602060019283018181049485019490930390920291018084116121355750505050506101a08401919091525060408051606081019182905290829060039082845b815481526020019060010190808311612187575050505050826102000181905250505b808987815181106121b757fe5b6020908102919091010152506001909401936121da565b600196505050506121e5565b50505060010161197a565b5050509550959350505050565b6000818152600d6020526040812060018082015460ff16600381111561221457fe5b148061223257506003600182015460ff16600381111561223057fe5b145b9150505b919050565b6000828260405161224d929190613aec565b6040519081900390209050600080828152600d602052604090206001015460ff16600381111561227957fe5b146105bf5760405160e560020a62461bcd0281526004016105b690613c06565b61271081565b6000818152600d6020526040812060028101805491929160001981019081106122c457fe5b90600052602060002090600a0201905060075481600201544203116122fe5760405160e560020a62461bcd0281526004016105b690613be6565b805460ff16156123235760405160e560020a62461bcd0281526004016105b690613bc6565b6002600183015460ff16600381111561233857fe5b1415612356576001828101805460ff191682805b02179055506123a3565b6003600183015460ff16600381111561236b57fe5b1415612388576001808301805460009260ff19909116908361234c565b60405160e560020a62461bcd0281526004016105b690613c26565b60038101805460ff19166001179055600581015460028301546105fe91600160a060020a031690859060001901600061102f565b80516020808301919091206000818152600d9092526040909120600281015461244357600c80546001810182556000919091527fdf6966c971051c3d54ec59162606531493a51404a002842f56009d7e5cf4a8c70182905582516124419082906020860190612c8c565b505b6000600182015460ff16600381111561245857fe5b141561247b576001808201805460029260ff1990911690835b02179055506124c7565b60018082015460ff16600381111561248f57fe5b14156124ac576001808201805460039260ff199091169083612471565b60405160e560020a62461bcd0281526004016105b690613c46565b600281018054600091906124de8260018301612d0a565b815481106124e857fe5b60009182526020909120600a909102016005810180543373ffffffffffffffffffffffffffffffffffffffff199091161790554260028083019190915560035460088301805474ffffffffffffffffffffffffffffffffffffffff001916610100600160a060020a0390931683021790556004805493945061257c9360098601939192600182161502600019011604612d36565b50600781018054600091906125948260018301612bc7565b8154811061259e57fe5b60009182526020822060088501546040517ff7434ea900000000000000000000000000000000000000000000000000000000815260069093029091019350600160a060020a03610100909104169063f7434ea990612603906009870190600401613b85565b60206040518083038186803b15801561261b57600080fd5b505afa15801561262f573d6000803e3d6000fd5b505050506040513d601f19601f82011682018060405250612653919081019061325c565b90506000612678600554610df7612710610de1600b548761289890919063ffffffff16565b90506126888360013334856128e1565b80836001015410156126af5760405160e560020a62461bcd0281526004016105b690613bb6565b5050600301805461ff00191661010017905550505050565b6126cf612dab565b506040805180820190915281518152602082810190820152919050565b60606126f7826129c8565b61270057600080fd5b600061270b83612a02565b90508060405190808252806020026020018201604052801561274757816020015b612734612dab565b81526020019060019003908161272c5790505b50915060006127598460200151612a5e565b60208501510190506000805b838110156127b05761277683612ac7565b915060405180604001604052808381526020018481525085828151811061279957fe5b602090810291909101015291810191600101612765565b50505050919050565b80516060906127c757600080fd5b60006127d68360200151612a5e565b83516040805191839003808352601f19601f820116830160200190915291925060609082801561280d576020820181803883390190505b5090506000816020019050612829848760200151018285612b57565b50949350505050565b81518151600091600191811480831461284e576000925061288c565b600160208701838101602088015b60028483851001141561288757805183511461287b5760009650600093505b6020928301920161285c565b505050505b50909150505b92915050565b6000826128a757506000612892565b828202828482816128b457fe5b04146128c2576000196128c4565b805b949350505050565b6000828201838110156128c2576000196128c4565b60008061291684612911898960028111156128f857fe5b6003811061290257fe5b0154869063ffffffff6129ad16565b612ba2565b600160a060020a038716600090815260058a01602052604090209193509150829087600281111561294357fe5b6003811061294d57fe5b0180549091019055818787600281111561296357fe5b6003811061296d57fe5b018054909101905560048701805483019055604051600160a060020a0386169082156108fc029083906000818181858888f1505050505050505050505050565b6000828211156129bf57506000612892565b50808203612892565b80516000906129d957506000612236565b6020820151805160001a9060c08210156129f857600092505050612236565b5060019392505050565b8051600090612a1357506000612236565b60008090506000612a278460200151612a5e565b602085015185519181019250015b80821015612a5557612a4682612ac7565b60019093019290910190612a35565b50909392505050565b8051600090811a6080811015612a78576000915050612236565b60b8811080612a93575060c08110801590612a93575060f881105b15612aa2576001915050612236565b60c0811015612ab65760b519019050612236565b60f519019050612236565b50919050565b8051600090811a6080811015612ae1576001915050612236565b60b8811015612af557607e19019050612236565b60c0811015612b225760b78103600184019350806020036101000a84510460018201810193505050612ac1565b60f8811015612b365760be19019050612236565b60019290920151602083900360f7016101000a900490910160f51901919050565b80612b61576105fe565b5b60208110612b81578251825260209283019290910190601f1901612b62565b915181516020939093036101000a6000190180199091169216919091179052565b60008083831115612bb857508290506000612bc0565b508190508083035b9250929050565b8154818355818111156105fe576006028160060283600052602060002091820191016105fe9190612dc5565b6040805161024081018252600080825260606020830152909182019081526000602082018190526040820181905260608083018290526080830182905260a0830182905260c0830182905260e08301829052610100830182905261012083015261014082015261016001612c65612dfd565b81526020016000815260200160008152602001612c80612dfd565b81526020016000905290565b828054600181600116156101000203166002900490600052602060002090601f016020900481019282601f10612ccd57805160ff1916838001178555612cfa565b82800160010185558215612cfa579182015b82811115612cfa578251825591602001919060010190612cdf565b50612d06929150612e1b565b5090565b8154818355818111156105fe57600a0281600a0283600052602060002091820191016105fe9190612e35565b828054600181600116156101000203166002900490600052602060002090601f016020900481019282601f10612d6f5780548555612cfa565b82800160010185558215612cfa57600052602060002091601f016020900482015b82811115612cfa578254825591600101919060010190612d90565b604051806040016040528060008152602001600081525090565b610bd891905b80821115612d06576000612ddf8282612ebb565b612ded600383016000612ed0565b5060006004820155600601612dcb565b60405180606001604052806003906020820280388339509192915050565b610bd891905b80821115612d065760008155600101612e21565b610bd891905b80821115612d0657805460ff19908116825560006001830181905560028301819055600383018054909216909155612e766004830182612ebb565b612e84600783016000612ed7565b60088201805474ffffffffffffffffffffffffffffffffffffffffff19169055612eb2600983016000612efb565b50600a01612e3b565b50600081556001016000815560010160009055565b5060009055565b5080546000825560060290600052602060002090810190612ef89190612dc5565b50565b50805460018160011615610100020316600290046000825580601f10612f215750612ef8565b601f016020900490600052602060002090810190612ef89190612e1b565b803561289281613db6565b80610100810183101561289257600080fd5b803561289281613dca565b803561289281613dd3565b60008083601f840112612f8457600080fd5b50813567ffffffffffffffff811115612f9c57600080fd5b602083019150836001820283011115612bc057600080fd5b600082601f830112612fc557600080fd5b8135612fd8612fd382613cbe565b613c97565b91508082526020830160208301858383011115612ff457600080fd5b612fff838284613d5c565b50505092915050565b805161289281613ddc565b805161289281613dd3565b6000806000806080858703121561303457600080fd5b60006130408787612f3f565b945050602061305187828801612f67565b935050604061306287828801612f67565b925050606061307387828801612f67565b91505092959194509250565b6000806040838503121561309257600080fd5b600061309e8585612f3f565b92505060206130af85828601612f67565b9150509250929050565b6000602082840312156130cb57600080fd5b60006128c48484612f5c565b6000602082840312156130e957600080fd5b60006128c48484612f67565b60008060006040848603121561310a57600080fd5b60006131168686612f67565b935050602084013567ffffffffffffffff81111561313357600080fd5b61313f86828701612f72565b92509250509250925092565b6000806000806000610180868803121561316457600080fd5b60006131708888612f67565b955050602061318188828901612f67565b945050604061319288828901612f4a565b9350506101406131a488828901612f5c565b9250506101606131b688828901612f3f565b9150509295509295909350565b600080602083850312156131d657600080fd5b823567ffffffffffffffff8111156131ed57600080fd5b6131f985828601612f72565b92509250509250929050565b6000806000806080858703121561321b57600080fd5b843567ffffffffffffffff81111561323257600080fd5b61304087828801612fb4565b60006020828403121561325057600080fd5b60006128c48484613008565b60006020828403121561326e57600080fd5b60006128c48484613013565b6000806040838503121561328d57600080fd5b600061309e8585612f67565b600080604083850312156132ac57600080fd5b60006132b88585613013565b92505060206130af85828601613013565b60006132d58383613486565b505060200190565b60006132e983836134c8565b9392505050565b60006132e98383613944565b60006132d5838361348f565b61331181613d0b565b82525050565b61332081613cf8565b61332a8184612236565b925061333582610bd8565b8060005b8381101561336357815161334d87826132c9565b965061335883613ce6565b925050600101613339565b505050505050565b600061337682613cfe565b6133808185613d02565b93508360208202850161339285613ce6565b8060005b858110156133cc57848403895281516133af85826132dd565b94506133ba83613ce6565b60209a909a0199925050600101613396565b5091979650505050505050565b60006133e482613cfe565b6133ee8185613d02565b93508360208202850161340085613ce6565b8060005b858110156133cc578484038952815161341d85826132f0565b945061342883613ce6565b60209a909a0199925050600101613404565b61344381613cf8565b61344d8184612236565b925061345882610bd8565b8060005b8381101561336357815161347087826132fc565b965061347b83613ce6565b92505060010161345c565b61331181613d16565b61331181610bd8565b6133116134a482610bd8565b610bd8565b60006134b58385612236565b93506134c2838584613d5c565b50500190565b60006134d382613cfe565b6134dd8185613d02565b93506134ed818560208601613d68565b6134f681613d98565b9093019392505050565b60008154600181166000811461351d576001811461354357613582565b607f600283041661352e8187613d02565b60ff1984168152955050602085019250613582565b600282046135518187613d02565b955061355c85613cec565b60005b8281101561357b5781548882015260019091019060200161355f565b8701945050505b505092915050565b61331181613d3b565b61331181613d46565b61331181613d51565b60006135b18385613d02565b93506135be838584613d5c565b6134f683613d98565b60006135d4601e83613d02565b7f596f75206d7573742066756c6c792066756e6420796f757220736964652e0000815260200192915050565b600061360d602383613d02565b7f54686520726571756573742073686f756c64206e6f742062652064697370757481527f65642e0000000000000000000000000000000000000000000000000000000000602082015260400192915050565b600061366c603283613d02565b7f54686520726571756573742073686f756c64206e6f74206861766520616c726581527f616479206265656e2064697370757465642e0000000000000000000000000000602082015260400192915050565b60006136cb602f83613d02565b7f54696d6520746f206368616c6c656e6765207468652072657175657374206d7581527f73742068617665207061737365642e0000000000000000000000000000000000602082015260400192915050565b600061372a603283613d02565b7f4368616c6c656e676573206d757374206f6363757220647572696e672074686581527f206368616c6c656e676520706572696f642e0000000000000000000000000000602082015260400192915050565b6000613789602083613d02565b7f4974656d206d75737420626520616273656e7420746f2062652061646465642e815260200192915050565b60006137c2602683613d02565b7f4974656d206d757374206265207265676973746572656420746f20626520726581527f6d6f7665642e0000000000000000000000000000000000000000000000000000602082015260400192915050565b6000613821601883613d02565b7f5468657265206d757374206265206120726571756573742e0000000000000000815260200192915050565b600061385a601683613d02565b7f54686520637572736f7220697320696e76616c69642e00000000000000000000815260200192915050565b6000613893602383613d02565b7f4974656d20616c72656164792068617320612070656e64696e6720726571756581527f73742e0000000000000000000000000000000000000000000000000000000000602082015260400192915050565b60006138f2602583613d02565b7f546865206974656d206d757374206861766520612070656e64696e672072657181527f756573742e000000000000000000000000000000000000000000000000000000602082015260400192915050565b80516000906102c0840190613959858261348f565b506020830151848203602086015261397182826134c8565b9150506040830151613986604086018261359c565b5060608301516139996060860182613486565b5060808301516139ac6080860182613486565b5060a08301516139bf60a086018261348f565b5060c08301516139d260c086018261348f565b5060e08301516139e560e086018261348f565b506101008301516139fa610100860182613308565b50610120830151613a0f610120860182613308565b50610140830151613a24610140860182613308565b50610160830151848203610160860152613a3e82826134c8565b915050610180830151613a5561018086018261348f565b506101a0830151613a6a6101a0860182613317565b506101c0830151613a7f61020086018261348f565b506101e0830151613a9461022086018261348f565b50610200830151613aa961024086018261343a565b50610220830151613abe6102a0860182613593565b509392505050565b6000613ad28285613498565b602082019150613ae28284613498565b5060200192915050565b60006128c48284866134a9565b602081016128928284613308565b602080825281016132e9818461336b565b60408082528101613b2981856133d9565b90506132e96020830184613486565b602081016128928284613486565b60208101612892828461348f565b602080825281016132e981846134c8565b60408082528101613b7681856134c8565b90506132e9602083018461359c565b602080825281016132e98184613500565b60208101612892828461358a565b602080825281016128c48184866135a5565b60208082528101612892816135c7565b6020808252810161289281613600565b602080825281016128928161365f565b60208082528101612892816136be565b602080825281016128928161371d565b602080825281016128928161377c565b60208082528101612892816137b5565b6020808252810161289281613814565b602080825281016128928161384d565b6020808252810161289281613886565b60208082528101612892816138e5565b602080825281016132e98184613944565b60408101613c85828561348f565b81810360208301526128c48184613500565b60405181810167ffffffffffffffff81118282101715613cb657600080fd5b604052919050565b600067ffffffffffffffff821115613cd557600080fd5b506020601f91909101601f19160190565b60200190565b60009081526020902090565b50600390565b5190565b90815260200190565b600061289282613d2f565b151590565b8061223681613da2565b8061223681613dac565b600160a060020a031690565b600061289282613d0b565b600061289282613d1b565b600061289282613d25565b82818337506000910152565b60005b83811015613d83578181015183820152602001613d6b565b83811115613d92576000848401525b50505050565b601f01601f191690565b60038110612ef857fe5b60048110612ef857fe5b613dbf81613d0b565b8114612ef857600080fd5b613dbf81613d16565b613dbf81610bd8565b60038110612ef857600080fdfea365627a7a723158209cff2f3d33650c3f785392a373e706938413c34fcd7be965e15f32e319ecff316c6578706572696d656e74616cf564736f6c634300050b004061606860eb6c87306811e2695215385101daab53bd6ab4e9f9049aead9363c7d",
  "source": "/**\n *  @authors: [@mtsalenc]\n *  @reviewers: []\n *  @auditors: []\n *  @bounties: []\n *  @deployments: []\n */\n\npragma solidity ^0.5.11;\npragma experimental ABIEncoderV2;\n\nimport { IArbitrable, Arbitrator } from \"@kleros/erc-792/contracts/Arbitrator.sol\";\nimport { IEvidence } from \"@kleros/erc-792/contracts/erc-1497/IEvidence.sol\";\n\nimport \"solidity-bytes-utils/contracts/BytesLib.sol\";\nimport \"solidity-rlp/contracts/RLPReader.sol\";\nimport \"./libraries/CappedMath.sol\";\n\ncontract GTCRMock is IArbitrable, IEvidence{\n    using CappedMath for uint; // Operations bounded between 0 and 2**256 - 1.\n    using RLPReader for RLPReader.RLPItem;\n    using RLPReader for bytes;\n    using BytesLib for bytes;\n\n    /* Enums */\n\n    enum ItemStatus {\n        Absent,\n        Registered,\n        RegistrationRequested,\n        ClearingRequested\n    }\n\n    enum Party {\n        None,      // Party per default when there is no challenger or requester. Also used for unconclusive ruling.\n        Requester, // Party that made the request to change an address status.\n        Challenger // Party that challenges the request to change an address status.\n    }\n\n    /* Structs */\n\n    struct Item {\n        bytes data;\n        ItemStatus status; // The status of the item.\n        Request[] requests; // List of status change requests made for the item.\n    }\n\n    struct Request {\n        bool disputed; // True if a dispute was raised.\n        uint disputeID; // ID of the dispute, if any.\n        uint submissionTime; // Time when the request was made. Used to track when the challenge period ends.\n        bool resolved; // True if the request was executed and/or any disputes raised were resolved.\n        address payable[3] parties; // Address of requester and challenger, if any.\n        Round[] rounds; // Tracks each round of a dispute.\n        Party ruling; // The final ruling given, if any.\n        Arbitrator arbitrator; // The arbitrator trusted to solve disputes for this request.\n        bytes arbitratorExtraData; // The extra data for the trusted arbitrator of this request.\n    }\n\n    struct Round {\n        uint[3] paidFees; // Tracks the fees paid by each side on this round.\n        bool[3] hasPaid; // True when the side has fully paid its fee. False otherwise.\n        uint feeRewards; // Sum of reimbursable fees and stake rewards available to the parties that made contributions to the side that ultimately wins a dispute.\n        mapping(address => uint[3]) contributions; // Maps contributors to their contributions for each side.\n    }\n\n    struct QueryResult {\n        bytes32 ID;\n        bytes data;\n        ItemStatus status;\n        bool disputed;\n        bool resolved;\n        uint disputeID;\n        uint appealStart;\n        uint appealEnd;\n        address requester;\n        address challenger;\n        address arbitrator;\n        bytes arbitratorExtraData;\n        uint currentRuling;\n        bool[3] hasPaid;\n        uint feeRewards;\n        uint submissionTime;\n        uint[3] paidFees;\n        Arbitrator.DisputeStatus disputeStatus;\n    }\n\n    /* Storage */\n\n    // Constants\n\n    uint RULING_OPTIONS = 2; // The amount of non 0 choices the arbitrator can give.\n\n    // Settings\n    address public governor; // The address that can make governance changes to the parameters of the TCR.\n    address public relatedTCR; // The address of the TCR of TCRs related to this one.\n    Arbitrator public arbitrator; // The arbitrator that will be used to resolve disputes on the next requests.\n    bytes public arbitratorExtraData; // The arbitrator extra data used for the next requests.\n    uint public requesterBaseDeposit; // The base deposit to make a request.\n    uint public challengerBaseDeposit; // The base deposit to challenge a request.\n    uint public challengePeriodDuration; // The time before a request becomes executable if not challenged.\n    uint public metaEvidenceUpdates; // The number of times the meta evidence has been updated. Used to track the latest meta evidence ID.\n\n    // The required fee stake that a party must pay depends on who won the previous round and is proportional to the arbitration cost such that the fee stake for a round is stake multiplier * arbitration cost for that round.\n    // Multipliers are in basis points.\n    uint public winnerStakeMultiplier; // Multiplier for calculating the fee stake paid by the party that won the previous round.\n    uint public loserStakeMultiplier; // Multiplier for calculating the fee stake paid by the party that lost the previous round.\n    uint public sharedStakeMultiplier; // Multiplier for calculating the fee stake that must be paid in the case where there isn't a winner and loser (e.g. when it's the first round or the arbitrator ruled \"refused to rule\"/\"could not rule\").\n    uint public constant MULTIPLIER_DIVISOR = 10000; // Divisor parameter for multipliers.\n\n    // Registry data.\n    bytes32[] public itemIDs; // List of IDs of submitted items.\n    mapping(bytes32 => Item) public items; // Maps the item ID to the item.\n    mapping(address => mapping(uint => bytes32)) public arbitratorDisputeIDToItemID; // Maps a dispute ID to the ID of the item with the disputed request. On the form arbitratorDisputeIDToItemID[arbitrator][disputeID].\n\n    constructor(\n        Arbitrator _arbitrator,\n        bytes memory _arbitratorExtraData,\n        string memory _registrationMetaEvidence,\n        string memory _clearingMetaEvidence,\n        address _governor,\n        uint _requesterBaseDeposit,\n        uint _challengerBaseDeposit,\n        uint _challengePeriodDuration,\n        uint _sharedStakeMultiplier,\n        uint _winnerStakeMultiplier,\n        uint _loserStakeMultiplier\n    ) public {\n        emit MetaEvidence(0, _registrationMetaEvidence);\n        emit MetaEvidence(1, _clearingMetaEvidence);\n\n        arbitrator = _arbitrator;\n        arbitratorExtraData = _arbitratorExtraData;\n        governor = _governor;\n        requesterBaseDeposit = _requesterBaseDeposit;\n        challengerBaseDeposit = _challengerBaseDeposit;\n        challengePeriodDuration = _challengePeriodDuration;\n        sharedStakeMultiplier = _sharedStakeMultiplier;\n        winnerStakeMultiplier = _winnerStakeMultiplier;\n        loserStakeMultiplier = _loserStakeMultiplier;\n    }\n\n    function addItem(bytes calldata _item) external payable {\n        bytes32 itemID = keccak256(_item);\n        require(items[itemID].status == ItemStatus.Absent, \"Item must be absent to be added.\");\n        requestStatusChange(_item);\n    }\n\n    function removeItem(bytes calldata _item) external payable {\n        bytes32 itemID = keccak256(_item);\n        require(items[itemID].status == ItemStatus.Registered, \"Item must be registered to be removed.\");\n        requestStatusChange(_item);\n    }\n\n    /** @dev Executes a request if the challenge period passed and no one challenged the request.\n     *  @param _item The item with the request to execute.\n     */\n    function executeRequest(bytes32 _item) external {\n        Item storage addr = items[_item];\n        Request storage request = addr.requests[addr.requests.length - 1];\n        require(\n            now - request.submissionTime > challengePeriodDuration,\n            \"Time to challenge the request must have passed.\"\n        );\n        require(!request.disputed, \"The request should not be disputed.\");\n\n        if (addr.status == ItemStatus.RegistrationRequested)\n            addr.status = ItemStatus.Registered;\n        else if (addr.status == ItemStatus.ClearingRequested)\n            addr.status = ItemStatus.Absent;\n        else\n            revert(\"There must be a request.\");\n\n        request.resolved = true;\n        withdrawFeesAndRewards(request.parties[uint(Party.Requester)], _item, addr.requests.length - 1, 0); // Automatically withdraw for the requester.\n    }\n\n    /** @dev Challenges the latest request of a item. Accepts enough ETH to fund a potential dispute considering the current required amount. Reimburses unused ETH. TRUSTED.\n     *  @param _itemID The ID of the item with the request to challenge.\n     *  @param _evidence A link to an evidence using its URI. Ignored if not provided or if not enough funds were provided to create a dispute.\n     */\n    function challengeRequest(bytes32 _itemID, string calldata _evidence) external payable {\n        Item storage item = items[_itemID];\n        require(\n            item.status == ItemStatus.RegistrationRequested || item.status == ItemStatus.ClearingRequested,\n            \"The item must have a pending request.\"\n        );\n        Request storage request = item.requests[item.requests.length - 1];\n        require(now - request.submissionTime <= challengePeriodDuration, \"Challenges must occur during the challenge period.\");\n        require(!request.disputed, \"The request should not have already been disputed.\");\n\n        // Take the deposit and save the challenger's address.\n        request.parties[uint(Party.Challenger)] = msg.sender;\n\n        Round storage round = request.rounds[request.rounds.length - 1];\n        uint arbitrationCost = request.arbitrator.arbitrationCost(request.arbitratorExtraData);\n        uint totalCost = arbitrationCost.addCap((arbitrationCost.mulCap(sharedStakeMultiplier)) / MULTIPLIER_DIVISOR).addCap(challengerBaseDeposit);\n        contribute(round, Party.Challenger, msg.sender, msg.value, totalCost);\n        require(round.paidFees[uint(Party.Challenger)] >= totalCost, \"You must fully fund your side.\");\n        round.hasPaid[uint(Party.Challenger)] = true;\n\n        // Raise a dispute.\n        request.disputeID = request.arbitrator.createDispute.value(arbitrationCost)(RULING_OPTIONS, request.arbitratorExtraData);\n        arbitratorDisputeIDToItemID[address(request.arbitrator)][request.disputeID] = _itemID;\n        request.disputed = true;\n        request.rounds.length++;\n        round.feeRewards = round.feeRewards.subCap(arbitrationCost);\n\n        if (bytes(_evidence).length > 0)\n            emit Evidence(request.arbitrator, uint(keccak256(abi.encodePacked(_itemID,item.requests.length - 1))), msg.sender, _evidence);\n    }\n\n\n    /** @dev Give a ruling for a dispute. Can only be called by the arbitrator. TRUSTED.\n     *  Overrides parent function to account for the situation where the winner loses a case due to paying less appeal fees than expected.\n     *  @param _disputeID ID of the dispute in the arbitrator contract.\n     *  @param _ruling Ruling given by the arbitrator. Note that 0 is reserved for \"Not able/wanting to make a decision\".\n     */\n    function rule(uint _disputeID, uint _ruling) public {\n        Party winner = Party(_ruling);\n        bytes32 itemID = arbitratorDisputeIDToItemID[msg.sender][_disputeID];\n        Item storage item = items[itemID];\n        Request storage request = item.requests[item.requests.length - 1];\n        Round storage round = request.rounds[request.rounds.length - 1];\n        require(_ruling <= RULING_OPTIONS); // solium-disable-line error-reason\n        require(address(request.arbitrator) == msg.sender); // solium-disable-line error-reason\n        require(!request.resolved); // solium-disable-line error-reason\n\n        // The ruling is inverted if the loser paid its fees.\n        if (round.hasPaid[uint(Party.Requester)] == true) // If one side paid its fees, the ruling is in its favor. Note that if the other side had also paid, an appeal would have been created.\n            winner = Party.Requester;\n        else if (round.hasPaid[uint(Party.Challenger)] == true)\n            winner = Party.Challenger;\n\n        emit Ruling(Arbitrator(msg.sender), _disputeID, uint(winner));\n\n        // Update the item's state\n        if (winner == Party.Requester) { // Execute Request\n            if (item.status == ItemStatus.RegistrationRequested)\n                item.status = ItemStatus.Registered;\n            else\n                item.status = ItemStatus.Absent;\n        } else { // Revert to previous state.\n            if (item.status == ItemStatus.RegistrationRequested)\n                item.status = ItemStatus.Absent;\n            else if (item.status == ItemStatus.ClearingRequested)\n                item.status = ItemStatus.Registered;\n        }\n\n        request.resolved = true;\n        request.ruling = Party(winner);\n        // Automatically withdraw.\n        if (winner == Party.None) {\n            withdrawFeesAndRewards(request.parties[uint(Party.Requester)], itemID, item.requests.length-1, 0);\n            withdrawFeesAndRewards(request.parties[uint(Party.Challenger)], itemID, item.requests.length-1, 0);\n        } else {\n            withdrawFeesAndRewards(request.parties[uint(winner)], itemID, item.requests.length-1, 0);\n        }\n    }\n\n    /** @dev Reimburses contributions if no disputes were raised. If a dispute was raised, sends the fee stake rewards and reimbursements proportional to the contributions made to the winner of a dispute.\n     *  @param _beneficiary The address that made contributions to a request.\n     *  @param _itemID The ID of the item with the request from which to withdraw.\n     *  @param _request The request from which to withdraw.\n     *  @param _round The round from which to withdraw.\n     */\n    function withdrawFeesAndRewards(address payable _beneficiary, bytes32 _itemID, uint _request, uint _round) public {\n        Item storage item = items[_itemID];\n        Request storage request = item.requests[_request];\n        Round storage round = request.rounds[_round];\n        // The request must be executed and there can be no disputes pending resolution.\n        require(request.resolved); // solium-disable-line error-reason\n\n        uint reward;\n        if (!request.disputed || request.ruling == Party.None) {\n            // No disputes were raised, or there isn't a winner and loser. Reimburse unspent fees proportionally.\n            uint rewardRequester = round.paidFees[uint(Party.Requester)] > 0\n                ? (round.contributions[_beneficiary][uint(Party.Requester)] * round.feeRewards) / (round.paidFees[uint(Party.Challenger)] + round.paidFees[uint(Party.Requester)])\n                : 0;\n            uint rewardChallenger = round.paidFees[uint(Party.Challenger)] > 0\n                ? (round.contributions[_beneficiary][uint(Party.Challenger)] * round.feeRewards) / (round.paidFees[uint(Party.Challenger)] + round.paidFees[uint(Party.Requester)])\n                : 0;\n\n            reward = rewardRequester + rewardChallenger;\n            round.contributions[_beneficiary][uint(Party.Requester)] = 0;\n            round.contributions[_beneficiary][uint(Party.Challenger)] = 0;\n        } else {\n            // Reward the winner.\n            reward = round.paidFees[uint(request.ruling)] > 0\n                ? (round.contributions[_beneficiary][uint(request.ruling)] * round.feeRewards) / round.paidFees[uint(request.ruling)]\n                : 0;\n\n            round.contributions[_beneficiary][uint(request.ruling)] = 0;\n        }\n\n        _beneficiary.send(reward); // It is the user responsibility to accept ETH.\n    }\n\n\n    /* Internal */\n\n    function requestStatusChange(bytes memory _item) internal {\n        bytes32 itemID = keccak256(_item);\n\n        Item storage item = items[itemID];\n        if (item.requests.length == 0) { // Initial item registration.\n            itemIDs.push(itemID);\n            item.data = _item;\n        }\n\n        // Update item status.\n        if (item.status == ItemStatus.Absent)\n            item.status = ItemStatus.RegistrationRequested;\n        else if (item.status == ItemStatus.Registered)\n            item.status = ItemStatus.ClearingRequested;\n        else\n            revert(\"Item already has a pending request.\");\n\n        // Setup request.\n        Request storage request = item.requests[item.requests.length++];\n        request.parties[uint(Party.Requester)] = msg.sender;\n        request.submissionTime = now;\n        request.arbitrator = arbitrator;\n        request.arbitratorExtraData = arbitratorExtraData;\n        Round storage round = request.rounds[request.rounds.length++];\n\n\n        // Amount required to fully fund each side: requesterBaseDeposit + arbitration cost + (arbitration cost * multiplier).\n        uint arbitrationCost = request.arbitrator.arbitrationCost(request.arbitratorExtraData);\n        uint totalCost = arbitrationCost.addCap((arbitrationCost.mulCap(sharedStakeMultiplier)) / MULTIPLIER_DIVISOR).addCap(requesterBaseDeposit);\n        contribute(round, Party.Requester, msg.sender, msg.value, totalCost);\n        require(round.paidFees[uint(Party.Requester)] >= totalCost, \"You must fully fund your side.\");\n        round.hasPaid[uint(Party.Requester)] = true;\n    }\n\n    /** @dev Returns the contribution value and remainder from available ETH and required amount.\n     *  @param _available The amount of ETH available for the contribution.\n     *  @param _requiredAmount The amount of ETH required for the contribution.\n     *  @return taken The amount of ETH taken.\n     *  @return remainder The amount of ETH left from the contribution.\n     */\n    function calculateContribution(uint _available, uint _requiredAmount)\n        internal\n        pure\n        returns(uint taken, uint remainder)\n    {\n        if (_requiredAmount > _available)\n            return (_available, 0); // Take whatever is available, return 0 as leftover ETH.\n\n        remainder = _available - _requiredAmount;\n        return (_requiredAmount, remainder);\n    }\n\n    /** @dev Make a fee contribution.\n     *  @param _round The round to contribute.\n     *  @param _side The side for which to contribute.\n     *  @param _contributor The contributor.\n     *  @param _amount The amount contributed.\n     *  @param _totalRequired The total amount required for this side.\n     */\n    function contribute(Round storage _round, Party _side, address payable _contributor, uint _amount, uint _totalRequired) internal {\n        // Take up to the amount necessary to fund the current round at the current costs.\n        uint contribution; // Amount contributed.\n        uint remainingETH; // Remaining ETH to send back.\n        (contribution, remainingETH) = calculateContribution(_amount, _totalRequired.subCap(_round.paidFees[uint(_side)]));\n        _round.contributions[_contributor][uint(_side)] += contribution;\n        _round.paidFees[uint(_side)] += contribution;\n        _round.feeRewards += contribution;\n\n        // Reimburse leftover ETH.\n        _contributor.send(remainingETH); // Deliberate use of send in order to not block the contract in case of reverting fallback.\n    }\n\n    /* Views */\n\n    /** @dev Return true if the item is on the list.\n     *  @param _itemID The ID of the item to be queried.\n     *  @return allowed True if the item is allowed, false otherwise.\n     */\n    function isPermitted(bytes32 _itemID) external view returns (bool allowed) {\n        Item storage item = items[_itemID];\n        return item.status == ItemStatus.Registered || item.status == ItemStatus.ClearingRequested;\n    }\n\n    function itemCount() external view returns (uint) {\n        return itemIDs.length;\n    }\n\n    function getItem(bytes32 _itemID) external view returns (QueryResult memory result) {\n        Item storage item = items[_itemID];\n        Request storage request = item.requests[item.requests.length - 1];\n        Round storage round = request.rounds[request.rounds.length - 1];\n\n        result = QueryResult({\n            ID: _itemID,\n            data: item.data,\n            status: item.status,\n            disputed: request.disputed,\n            resolved: request.resolved,\n            disputeID: request.disputeID,\n            requester: request.parties[uint(Party.Requester)],\n            challenger: request.parties[uint(Party.Challenger)],\n            appealStart: 0,\n            appealEnd: 0,\n            arbitrator: address(request.arbitrator),\n            arbitratorExtraData: request.arbitratorExtraData,\n            submissionTime: request.submissionTime,\n            hasPaid: [false,false,false],\n            paidFees: [uint(0), uint(0), uint(0)],\n            currentRuling: 0,\n            feeRewards: 0,\n            disputeStatus: Arbitrator.DisputeStatus.Waiting\n        });\n        if (request.disputed && request.arbitrator.disputeStatus(request.disputeID) == Arbitrator.DisputeStatus.Appealable) {\n            result.currentRuling = request.arbitrator.currentRuling(request.disputeID);\n            result.disputeStatus = request.arbitrator.disputeStatus(request.disputeID);\n            (result.appealStart, result.appealEnd) = request.arbitrator.appealPeriod(request.disputeID);\n\n            result.feeRewards = round.feeRewards;\n            result.hasPaid = round.hasPaid;\n            result.paidFees = round.paidFees;\n        }\n    }\n\n    /** @dev Find an item by matching column values.\n     *  - Example:\n     *  Item [18, 'PNK', 'Pinakion', '0xca35b7d915458ef540ade6068dfe2f44e8fa733c']\n     *  RLP encoded: 0xe383504e4b128850696e616b696f6e94ca35b7d915458ef540ade6068dfe2f44e8fa733c\n     *  Input for remix: [\"0xe3\",\"0x83\",\"0x50\",\"0x4e\",\"0x4b\",\"0x12\",\"0x88\",\"0x50\",\"0x69\",\"0x6e\",\"0x61\",\"0x6b\",\"0x69\",\"0x6f\",\"0x6e\",\"0x94\",\"0xca\",\"0x35\",\"0xb7\",\"0xd9\",\"0x15\",\"0x45\",\"0x8e\",\"0xf5\",\"0x40\",\"0xad\",\"0xe6\",\"0x06\",\"0x8d\",\"0xfe\",\"0x2f\",\"0x44\",\"0xe8\",\"0xfa\",\"0x73\",\"0x3c\"]\n     *  @param _rlpEncodedMatch The RLP encoded item to match against the items on the list.\n     *  @param _cursor The index from where to start looking for matches.\n     *  @param _returnCount The size of the array to return with matching values.\n     *  @param _count The number of items to iterate while searching.\n     *  @return An array with items that match the query.\n     */\n    function findItem(bytes memory _rlpEncodedMatch, uint _cursor, uint _returnCount, uint _count) public view returns (bytes[] memory) {\n        RLPReader.RLPItem[] memory matchItem = _rlpEncodedMatch.toRlpItem().toList();\n        bytes[] memory results = new bytes[](_count);\n        uint itemsFound;\n\n        for(uint i = _cursor; i < (_count == 0 ? itemIDs.length : _count); i++) { // Iterate over every item in storage.\n            bytes storage itemBytes = items[itemIDs[i]].data;\n            RLPReader.RLPItem[] memory item = itemBytes.toRlpItem().toList();\n            for (uint j = 0; j < matchItem.length; j++) { // Iterate over every column.\n                if (item[j].toBytes().equal(matchItem[j].toBytes())) {\n                    results[itemsFound] = itemBytes;\n                    itemsFound++;\n                    break;\n                }\n            }\n        }\n        return results;\n    }\n\n    /** @dev Return the values of the items the query finds. This function is O(n), where n is the number of items. This could exceed the gas limit, therefore this function should only be used for interface display and not by other contracts.\n     *  @param _cursor The ID of the items from which to start iterating. To start from either the oldest or newest item.\n     *  @param _count The number of items to return.\n     *  @param _filter The filter to use. Each element of the array in sequence means:\n     *  - Include absent items in result.\n     *  - Include registered items in result.\n     *  - Include items with registration requests that are not disputed in result.\n     *  - Include items with clearing requests that are not disputed in result.\n     *  - Include disputed items with registration requests in result.\n     *  - Include disputed items with clearing requests in result.\n     *  - Include items submitted by _party.\n     *  - Include items challenged by _party.\n     *  @param _oldestFirst Whether to sort from oldest to the newest item.\n     *  @param _party The address to use if checking for items submitted or challenged by a specific party.\n     *  @return The values of the tokens found and whether there are more tokens for the current filter and sort.\n     */\n    function queryItems(bytes32 _cursor, uint _count, bool[8] calldata _filter, bool _oldestFirst, address _party)\n        external\n        view\n        returns (QueryResult[] memory results, bool hasMore)\n    {\n        uint cursorIndex;\n        results = new QueryResult[](_count);\n\n        uint index = 0;\n\n        if (_cursor == 0)\n            cursorIndex = 0;\n        else {\n            for (uint j = 0; j < itemIDs.length; j++) {\n                if (itemIDs[j] == _cursor) {\n                    cursorIndex = j;\n                    break;\n                }\n            }\n            require(cursorIndex != 0, \"The cursor is invalid.\");\n        }\n\n        for (\n                uint i = cursorIndex == 0 ? (_oldestFirst ? 0 : 1) : (_oldestFirst ? cursorIndex + 1 : itemIDs.length - cursorIndex + 1);\n                _oldestFirst ? i < itemIDs.length : i <= itemIDs.length;\n                i++\n            ) { // Oldest or newest first.\n            bytes32 itemID = itemIDs[_oldestFirst ? i : itemIDs.length - i];\n            Item storage item = items[itemID];\n            Request storage request = item.requests[item.requests.length - 1];\n            if (\n                /* solium-disable operator-whitespace */\n                (_filter[0] && item.status == ItemStatus.Absent) ||\n                (_filter[1] && item.status == ItemStatus.Registered) ||\n                (_filter[2] && item.status == ItemStatus.RegistrationRequested && !request.disputed) ||\n                (_filter[3] && item.status == ItemStatus.ClearingRequested && !request.disputed) ||\n                (_filter[4] && item.status == ItemStatus.RegistrationRequested && request.disputed) ||\n                (_filter[5] && item.status == ItemStatus.ClearingRequested && request.disputed) ||\n                (_filter[6] && request.parties[uint(Party.Requester)] == _party) ||\n                (_filter[7] && request.parties[uint(Party.Challenger)] == _party)\n                /* solium-enable operator-whitespace */\n            ) {\n                if (index < _count) {\n                    QueryResult memory result = QueryResult({\n                        ID: itemIDs[_oldestFirst ? i : itemIDs.length - i],\n                        data: item.data,\n                        status: item.status,\n                        disputed: request.disputed,\n                        resolved: request.resolved,\n                        disputeID: request.disputeID,\n                        requester: request.parties[uint(Party.Requester)],\n                        challenger: request.parties[uint(Party.Challenger)],\n                        appealStart: 0,\n                        appealEnd: 0,\n                        arbitrator: address(request.arbitrator),\n                        arbitratorExtraData: request.arbitratorExtraData,\n                        submissionTime: request.submissionTime,\n                        hasPaid: [false,false,false],\n                        paidFees: [uint(0), uint(0), uint(0)],\n                        currentRuling: 0,\n                        feeRewards: 0,\n                        disputeStatus: Arbitrator.DisputeStatus.Waiting\n                    });\n                    if (request.disputed && request.arbitrator.disputeStatus(request.disputeID) == Arbitrator.DisputeStatus.Appealable) {\n                        result.currentRuling = request.arbitrator.currentRuling(request.disputeID);\n                        result.disputeStatus = request.arbitrator.disputeStatus(request.disputeID);\n                        (result.appealStart, result.appealEnd) = request.arbitrator.appealPeriod(request.disputeID);\n\n                        Round storage round = request.rounds[request.rounds.length - 1];\n                        result.feeRewards = round.feeRewards;\n                        result.hasPaid = round.hasPaid;\n                        result.paidFees = round.paidFees;\n                    }\n                    results[index] = result;\n                    index++;\n                } else {\n                    hasMore = true;\n                    break;\n                }\n            }\n        }\n    }\n\n}\n",
  "sourcePath": "/home/betelgiuse/Documents/visus/kleros/repos/gtcr/contracts/GTCRMock.sol",
  "compiler": {
    "name": "solc",
    "version": "0.5.11+commit.c082d0b4.Emscripten.clang"
  },
  "schemaVersion": "3.0.11",
  "updatedAt": "2019-08-17T20:02:26.118Z",
  "devdoc": {
    "methods": {
      "challengeRequest(bytes32,string)": {
        "details": "Challenges the latest request of a item. Accepts enough ETH to fund a potential dispute considering the current required amount. Reimburses unused ETH. TRUSTED.",
        "params": {
          "_evidence": "A link to an evidence using its URI. Ignored if not provided or if not enough funds were provided to create a dispute.",
          "_itemID": "The ID of the item with the request to challenge."
        }
      },
      "executeRequest(bytes32)": {
        "details": "Executes a request if the challenge period passed and no one challenged the request.",
        "params": {
          "_item": "The item with the request to execute."
        }
      },
      "findItem(bytes,uint256,uint256,uint256)": {
        "details": "Find an item by matching column values. - Example: Item [18, 'PNK', 'Pinakion', '0xca35b7d915458ef540ade6068dfe2f44e8fa733c'] RLP encoded: 0xe383504e4b128850696e616b696f6e94ca35b7d915458ef540ade6068dfe2f44e8fa733c Input for remix: [\"0xe3\",\"0x83\",\"0x50\",\"0x4e\",\"0x4b\",\"0x12\",\"0x88\",\"0x50\",\"0x69\",\"0x6e\",\"0x61\",\"0x6b\",\"0x69\",\"0x6f\",\"0x6e\",\"0x94\",\"0xca\",\"0x35\",\"0xb7\",\"0xd9\",\"0x15\",\"0x45\",\"0x8e\",\"0xf5\",\"0x40\",\"0xad\",\"0xe6\",\"0x06\",\"0x8d\",\"0xfe\",\"0x2f\",\"0x44\",\"0xe8\",\"0xfa\",\"0x73\",\"0x3c\"]",
        "params": {
          "_count": "The number of items to iterate while searching.",
          "_cursor": "The index from where to start looking for matches.",
          "_returnCount": "The size of the array to return with matching values.",
          "_rlpEncodedMatch": "The RLP encoded item to match against the items on the list."
        },
        "return": "An array with items that match the query."
      },
      "isPermitted(bytes32)": {
        "details": "Return true if the item is on the list.",
        "params": {
          "_itemID": "The ID of the item to be queried."
        },
        "return": "allowed True if the item is allowed, false otherwise."
      },
      "queryItems(bytes32,uint256,bool[8],bool,address)": {
        "details": "Return the values of the items the query finds. This function is O(n), where n is the number of items. This could exceed the gas limit, therefore this function should only be used for interface display and not by other contracts.",
        "params": {
          "_count": "The number of items to return.",
          "_cursor": "The ID of the items from which to start iterating. To start from either the oldest or newest item.",
          "_filter": "The filter to use. Each element of the array in sequence means: - Include absent items in result. - Include registered items in result. - Include items with registration requests that are not disputed in result. - Include items with clearing requests that are not disputed in result. - Include disputed items with registration requests in result. - Include disputed items with clearing requests in result. - Include items submitted by _party. - Include items challenged by _party.",
          "_oldestFirst": "Whether to sort from oldest to the newest item.",
          "_party": "The address to use if checking for items submitted or challenged by a specific party."
        },
        "return": "The values of the tokens found and whether there are more tokens for the current filter and sort."
      },
      "rule(uint256,uint256)": {
        "details": "Give a ruling for a dispute. Can only be called by the arbitrator. TRUSTED. Overrides parent function to account for the situation where the winner loses a case due to paying less appeal fees than expected.",
        "params": {
          "_disputeID": "ID of the dispute in the arbitrator contract.",
          "_ruling": "Ruling given by the arbitrator. Note that 0 is reserved for \"Not able/wanting to make a decision\"."
        }
      },
      "withdrawFeesAndRewards(address,bytes32,uint256,uint256)": {
        "details": "Reimburses contributions if no disputes were raised. If a dispute was raised, sends the fee stake rewards and reimbursements proportional to the contributions made to the winner of a dispute.",
        "params": {
          "_beneficiary": "The address that made contributions to a request.",
          "_itemID": "The ID of the item with the request from which to withdraw.",
          "_request": "The request from which to withdraw.",
          "_round": "The round from which to withdraw."
        }
      }
    }
  },
  "userdoc": {
    "methods": {}
  }
}