{
  "contractName": "GTCRMock",
  "abi": [
    {
      "constant": true,
      "inputs": [
        {
          "name": "",
          "type": "uint256"
        }
      ],
      "name": "items",
      "outputs": [
        {
          "name": "",
          "type": "bytes"
        }
      ],
      "payable": false,
      "stateMutability": "view",
      "type": "function"
    },
    {
      "inputs": [
        {
          "name": "_registrationMetaEvidence",
          "type": "string"
        },
        {
          "name": "_clearingMetaEvidence",
          "type": "string"
        }
      ],
      "payable": false,
      "stateMutability": "nonpayable",
      "type": "constructor"
    },
    {
      "anonymous": false,
      "inputs": [
        {
          "indexed": true,
          "name": "_metaEvidenceID",
          "type": "uint256"
        },
        {
          "indexed": false,
          "name": "_evidence",
          "type": "string"
        }
      ],
      "name": "MetaEvidence",
      "type": "event"
    },
    {
      "constant": false,
      "inputs": [
        {
          "name": "_item",
          "type": "bytes"
        }
      ],
      "name": "addItem",
      "outputs": [],
      "payable": false,
      "stateMutability": "nonpayable",
      "type": "function"
    },
    {
      "constant": true,
      "inputs": [],
      "name": "itemCount",
      "outputs": [
        {
          "name": "",
          "type": "uint256"
        }
      ],
      "payable": false,
      "stateMutability": "view",
      "type": "function"
    },
    {
      "constant": true,
      "inputs": [
        {
          "name": "_index",
          "type": "uint256"
        }
      ],
      "name": "getItems",
      "outputs": [
        {
          "name": "results",
          "type": "bytes[100]"
        },
        {
          "name": "hasMore",
          "type": "bool"
        }
      ],
      "payable": false,
      "stateMutability": "view",
      "type": "function"
    }
  ],
  "bytecode": "0x60806040523480156200001157600080fd5b506040516200098d3803806200098d8339810160408190526200003491620000ec565b60006000805160206200096d833981519152836040516200005691906200019a565b60405180910390a260016000805160206200096d833981519152826040516200008091906200019a565b60405180910390a250506200024d565b600082601f830112620000a257600080fd5b8151620000b9620000b382620001db565b620001b4565b91508082526020830160208301858383011115620000d657600080fd5b620000e383828462000210565b50505092915050565b600080604083850312156200010057600080fd5b82516001604060020a038111156200011757600080fd5b620001258582860162000090565b92505060208301516001604060020a038111156200014257600080fd5b620001508582860162000090565b9150509250929050565b6000620001678262000203565b62000173818562000207565b93506200018581856020860162000210565b620001908162000243565b9093019392505050565b60208082528101620001ad81846200015a565b9392505050565b6040518181016001604060020a0381118282101715620001d357600080fd5b604052919050565b60006001604060020a03821115620001f257600080fd5b506020601f91909101601f19160190565b5190565b90815260200190565b60005b838110156200022d57818101518382015260200162000213565b838111156200023d576000848401525b50505050565b601f01601f191690565b610710806200025d6000396000f3fe608060405234801561001057600080fd5b5060043610610068577c010000000000000000000000000000000000000000000000000000000060003504636bfb0d01811461006d578063796c5e941461008b578063bfb231d2146100ac578063d294ccef146100cc575b600080fd5b6100756100e1565b604051610082919061063f565b60405180910390f35b61009e6100993660046104a2565b6100e8565b6040516100829291906105fe565b6100bf6100ba3660046104a2565b6101d1565b604051610082919061061e565b6100df6100da366004610460565b610277565b005b6000545b90565b6100f0610346565b6000805b600054811080156101055750606481105b156101c55760008482018154811061011957fe5b600091825260209182902001805460408051601f60026000196101006001871615020190941693909304928301859004850281018501909152818152928301828280156101a75780601f1061017c576101008083540402835291602001916101a7565b820191906000526020600020905b81548152906001019060200180831161018a57829003601f168201915b50505050508382606481106101b857fe5b60200201526001016100f4565b60005492949211925050565b600081815481106101de57fe5b600091825260209182902001805460408051601f600260001961010060018716150201909416939093049283018590048502810185019091528181529350909183018282801561026f5780601f106102445761010080835404028352916020019161026f565b820191906000526020600020905b81548152906001019060200180831161025257829003601f168201915b505050505081565b600082826040516102899291906105f1565b604080519182900390912060008181526001602052919091205490915060ff16156102e9576040517f08c379a00000000000000000000000000000000000000000000000000000000081526004016102e09061062f565b60405180910390fd5b6000805460018101808355918052610324907f290decd9548b62a8d60345a988386fc84ba6bc95484008f6362f93160ef3e56301858561036e565b50506000908152600160208190526040909120805460ff191690911790555050565b60405180610c8001604052806064905b60608152602001906001900390816103565790505090565b828054600181600116156101000203166002900490600052602060002090601f016020900481019282601f106103af5782800160ff198235161785556103dc565b828001600101855582156103dc579182015b828111156103dc5782358255916020019190600101906103c1565b506103e89291506103ec565b5090565b6100e591905b808211156103e857600081556001016103f2565b60008083601f84011261041857600080fd5b50813567ffffffffffffffff81111561043057600080fd5b60208301915083600182028301111561044857600080fd5b9250929050565b803561045a816106b6565b92915050565b6000806020838503121561047357600080fd5b823567ffffffffffffffff81111561048a57600080fd5b61049685828601610406565b92509250509250929050565b6000602082840312156104b457600080fd5b60006104c0848461044f565b949350505050565b60006104d48383610577565b9392505050565b60006104e68261064d565b6104f0818561065d565b935083602082028501610502856100e5565b8060005b8581101561053c578484038952815161051f85826104c8565b945061052a83610657565b60209a909a0199925050600101610506565b5091979650505050505050565b6105528161066b565b82525050565b6000610564838561065d565b9350610571838584610670565b50500190565b600061058282610653565b61058c8185610662565b935061059c81856020860161067c565b6105a5816106ac565b9093019392505050565b60006105bc601283610662565b7f4974656d20616c72656164792061646465640000000000000000000000000000815260200192915050565b610552816100e5565b60006104c0828486610558565b6040808252810161060f81856104db565b90506104d46020830184610549565b602080825281016104d48184610577565b6020808252810161045a816105af565b6020810161045a82846105e8565b50606490565b5190565b60200190565b919050565b90815260200190565b151590565b82818337506000910152565b60005b8381101561069757818101518382015260200161067f565b838111156106a6576000848401525b50505050565b601f01601f191690565b6106bf816100e5565b81146106ca57600080fd5b5056fea365627a7a72305820bc31fd28adda47fa19418f9fb8b7f8ddafddabcfe066aa4311722237ec4b66b36c6578706572696d656e74616cf564736f6c634300050a004061606860eb6c87306811e2695215385101daab53bd6ab4e9f9049aead9363c7d",
  "source": "/**\n *  @authors: [@mtsalenc]\n *  @reviewers: []\n *  @auditors: []\n *  @bounties: []\n *  @deployments: []\n */\n\npragma solidity ^0.5.10;\npragma experimental ABIEncoderV2;\n\ncontract GTCRMock {\n\n    bytes[] public items;\n    mapping(bytes32 => bool) keys;\n\n    event MetaEvidence(uint indexed _metaEvidenceID, string _evidence);\n\n    constructor(string memory _registrationMetaEvidence, string memory _clearingMetaEvidence) public {\n        emit MetaEvidence(0, _registrationMetaEvidence);\n        emit MetaEvidence(1, _clearingMetaEvidence);\n    }\n\n    function addItem(bytes calldata _item) external {\n        bytes32 key = keccak256(_item);\n        require(!keys[key], \"Item already added\");\n        items.push(_item);\n        keys[key] = true;\n    }\n\n    function itemCount() external view returns (uint) {\n        return items.length;\n    }\n\n    function getItems( uint _index) external view returns (bytes[100] memory results, bool hasMore){\n        uint i = 0;\n        for (; i < items.length && i < 100; i++) {\n            results[i] = items[i+_index];\n        }\n        hasMore = items.length > i;\n    }\n\n}\n",
  "sourcePath": "/home/betelgiuse/Documents/visus/kleros/repositories/gtcr/contracts/GTCRMock.sol",
  "compiler": {
    "name": "solc",
    "version": "0.5.10+commit.5a6ea5b1.Emscripten.clang"
  },
  "schemaVersion": "3.0.11",
  "updatedAt": "2019-08-05T02:23:29.440Z",
  "devdoc": {
    "methods": {}
  },
  "userdoc": {
    "methods": {}
  }
}