{
  "contractName": "GTCRMock",
  "abi": [
    {
      "constant": true,
      "inputs": [],
      "name": "challengePeriodDuration",
      "outputs": [
        {
          "internalType": "uint256",
          "name": "",
          "type": "uint256"
        }
      ],
      "payable": false,
      "stateMutability": "view",
      "type": "function"
    },
    {
      "constant": true,
      "inputs": [],
      "name": "governor",
      "outputs": [
        {
          "internalType": "address",
          "name": "",
          "type": "address"
        }
      ],
      "payable": false,
      "stateMutability": "view",
      "type": "function"
    },
    {
      "constant": true,
      "inputs": [],
      "name": "arbitratorExtraData",
      "outputs": [
        {
          "internalType": "bytes",
          "name": "",
          "type": "bytes"
        }
      ],
      "payable": false,
      "stateMutability": "view",
      "type": "function"
    },
    {
      "constant": true,
      "inputs": [],
      "name": "loserStakeMultiplier",
      "outputs": [
        {
          "internalType": "uint256",
          "name": "",
          "type": "uint256"
        }
      ],
      "payable": false,
      "stateMutability": "view",
      "type": "function"
    },
    {
      "constant": true,
      "inputs": [],
      "name": "challengerBaseDeposit",
      "outputs": [
        {
          "internalType": "uint256",
          "name": "",
          "type": "uint256"
        }
      ],
      "payable": false,
      "stateMutability": "view",
      "type": "function"
    },
    {
      "constant": true,
      "inputs": [],
      "name": "sharedStakeMultiplier",
      "outputs": [
        {
          "internalType": "uint256",
          "name": "",
          "type": "uint256"
        }
      ],
      "payable": false,
      "stateMutability": "view",
      "type": "function"
    },
    {
      "constant": true,
      "inputs": [
        {
          "internalType": "bytes32",
          "name": "",
          "type": "bytes32"
        }
      ],
      "name": "items",
      "outputs": [
        {
          "internalType": "bytes",
          "name": "data",
          "type": "bytes"
        },
        {
          "internalType": "enum GTCRMock.ItemStatus",
          "name": "status",
          "type": "uint8"
        }
      ],
      "payable": false,
      "stateMutability": "view",
      "type": "function"
    },
    {
      "constant": true,
      "inputs": [],
      "name": "relatedTCR",
      "outputs": [
        {
          "internalType": "address",
          "name": "",
          "type": "address"
        }
      ],
      "payable": false,
      "stateMutability": "view",
      "type": "function"
    },
    {
      "constant": true,
      "inputs": [],
      "name": "arbitrator",
      "outputs": [
        {
          "internalType": "contract Arbitrator",
          "name": "",
          "type": "address"
        }
      ],
      "payable": false,
      "stateMutability": "view",
      "type": "function"
    },
    {
      "constant": true,
      "inputs": [],
      "name": "metaEvidenceUpdates",
      "outputs": [
        {
          "internalType": "uint256",
          "name": "",
          "type": "uint256"
        }
      ],
      "payable": false,
      "stateMutability": "view",
      "type": "function"
    },
    {
      "constant": true,
      "inputs": [],
      "name": "winnerStakeMultiplier",
      "outputs": [
        {
          "internalType": "uint256",
          "name": "",
          "type": "uint256"
        }
      ],
      "payable": false,
      "stateMutability": "view",
      "type": "function"
    },
    {
      "constant": true,
      "inputs": [],
      "name": "requesterBaseDeposit",
      "outputs": [
        {
          "internalType": "uint256",
          "name": "",
          "type": "uint256"
        }
      ],
      "payable": false,
      "stateMutability": "view",
      "type": "function"
    },
    {
      "constant": true,
      "inputs": [
        {
          "internalType": "address",
          "name": "",
          "type": "address"
        },
        {
          "internalType": "uint256",
          "name": "",
          "type": "uint256"
        }
      ],
      "name": "arbitratorDisputeIDToItemID",
      "outputs": [
        {
          "internalType": "bytes32",
          "name": "",
          "type": "bytes32"
        }
      ],
      "payable": false,
      "stateMutability": "view",
      "type": "function"
    },
    {
      "constant": true,
      "inputs": [
        {
          "internalType": "uint256",
          "name": "",
          "type": "uint256"
        }
      ],
      "name": "itemIDs",
      "outputs": [
        {
          "internalType": "bytes32",
          "name": "",
          "type": "bytes32"
        }
      ],
      "payable": false,
      "stateMutability": "view",
      "type": "function"
    },
    {
      "constant": true,
      "inputs": [],
      "name": "MULTIPLIER_DIVISOR",
      "outputs": [
        {
          "internalType": "uint256",
          "name": "",
          "type": "uint256"
        }
      ],
      "payable": false,
      "stateMutability": "view",
      "type": "function"
    },
    {
      "inputs": [
        {
          "internalType": "contract Arbitrator",
          "name": "_arbitrator",
          "type": "address"
        },
        {
          "internalType": "bytes",
          "name": "_arbitratorExtraData",
          "type": "bytes"
        },
        {
          "internalType": "string",
          "name": "_registrationMetaEvidence",
          "type": "string"
        },
        {
          "internalType": "string",
          "name": "_clearingMetaEvidence",
          "type": "string"
        },
        {
          "internalType": "address",
          "name": "_governor",
          "type": "address"
        },
        {
          "internalType": "uint256",
          "name": "_requesterBaseDeposit",
          "type": "uint256"
        },
        {
          "internalType": "uint256",
          "name": "_challengerBaseDeposit",
          "type": "uint256"
        },
        {
          "internalType": "uint256",
          "name": "_challengePeriodDuration",
          "type": "uint256"
        },
        {
          "internalType": "uint256",
          "name": "_sharedStakeMultiplier",
          "type": "uint256"
        },
        {
          "internalType": "uint256",
          "name": "_winnerStakeMultiplier",
          "type": "uint256"
        },
        {
          "internalType": "uint256",
          "name": "_loserStakeMultiplier",
          "type": "uint256"
        }
      ],
      "payable": false,
      "stateMutability": "nonpayable",
      "type": "constructor"
    },
    {
      "anonymous": false,
      "inputs": [
        {
          "indexed": true,
          "internalType": "uint256",
          "name": "_metaEvidenceID",
          "type": "uint256"
        },
        {
          "indexed": false,
          "internalType": "string",
          "name": "_evidence",
          "type": "string"
        }
      ],
      "name": "MetaEvidence",
      "type": "event"
    },
    {
      "anonymous": false,
      "inputs": [
        {
          "indexed": true,
          "internalType": "contract Arbitrator",
          "name": "_arbitrator",
          "type": "address"
        },
        {
          "indexed": true,
          "internalType": "uint256",
          "name": "_evidenceGroupID",
          "type": "uint256"
        },
        {
          "indexed": true,
          "internalType": "address",
          "name": "_party",
          "type": "address"
        },
        {
          "indexed": false,
          "internalType": "string",
          "name": "_evidence",
          "type": "string"
        }
      ],
      "name": "Evidence",
      "type": "event"
    },
    {
      "anonymous": false,
      "inputs": [
        {
          "indexed": true,
          "internalType": "contract Arbitrator",
          "name": "_arbitrator",
          "type": "address"
        },
        {
          "indexed": true,
          "internalType": "uint256",
          "name": "_disputeID",
          "type": "uint256"
        },
        {
          "indexed": false,
          "internalType": "uint256",
          "name": "_metaEvidenceID",
          "type": "uint256"
        },
        {
          "indexed": false,
          "internalType": "uint256",
          "name": "_evidenceGroupID",
          "type": "uint256"
        }
      ],
      "name": "Dispute",
      "type": "event"
    },
    {
      "anonymous": false,
      "inputs": [
        {
          "indexed": true,
          "internalType": "contract Arbitrator",
          "name": "_arbitrator",
          "type": "address"
        },
        {
          "indexed": true,
          "internalType": "uint256",
          "name": "_disputeID",
          "type": "uint256"
        },
        {
          "indexed": false,
          "internalType": "uint256",
          "name": "_ruling",
          "type": "uint256"
        }
      ],
      "name": "Ruling",
      "type": "event"
    },
    {
      "constant": false,
      "inputs": [
        {
          "internalType": "bytes",
          "name": "_item",
          "type": "bytes"
        }
      ],
      "name": "requestStatusChange",
      "outputs": [],
      "payable": true,
      "stateMutability": "payable",
      "type": "function"
    },
    {
      "constant": false,
      "inputs": [
        {
          "internalType": "bytes32",
          "name": "_item",
          "type": "bytes32"
        }
      ],
      "name": "executeRequest",
      "outputs": [],
      "payable": false,
      "stateMutability": "nonpayable",
      "type": "function"
    },
    {
      "constant": false,
      "inputs": [
        {
          "internalType": "bytes32",
          "name": "_itemID",
          "type": "bytes32"
        },
        {
          "internalType": "string",
          "name": "_evidence",
          "type": "string"
        }
      ],
      "name": "challengeRequest",
      "outputs": [],
      "payable": true,
      "stateMutability": "payable",
      "type": "function"
    },
    {
      "constant": false,
      "inputs": [
        {
          "internalType": "uint256",
          "name": "_disputeID",
          "type": "uint256"
        },
        {
          "internalType": "uint256",
          "name": "_ruling",
          "type": "uint256"
        }
      ],
      "name": "rule",
      "outputs": [],
      "payable": false,
      "stateMutability": "nonpayable",
      "type": "function"
    },
    {
      "constant": false,
      "inputs": [
        {
          "internalType": "address payable",
          "name": "_beneficiary",
          "type": "address"
        },
        {
          "internalType": "bytes32",
          "name": "_itemID",
          "type": "bytes32"
        },
        {
          "internalType": "uint256",
          "name": "_request",
          "type": "uint256"
        },
        {
          "internalType": "uint256",
          "name": "_round",
          "type": "uint256"
        }
      ],
      "name": "withdrawFeesAndRewards",
      "outputs": [],
      "payable": false,
      "stateMutability": "nonpayable",
      "type": "function"
    },
    {
      "constant": true,
      "inputs": [
        {
          "internalType": "bytes32",
          "name": "_itemID",
          "type": "bytes32"
        }
      ],
      "name": "isPermitted",
      "outputs": [
        {
          "internalType": "bool",
          "name": "allowed",
          "type": "bool"
        }
      ],
      "payable": false,
      "stateMutability": "view",
      "type": "function"
    },
    {
      "constant": true,
      "inputs": [],
      "name": "itemCount",
      "outputs": [
        {
          "internalType": "uint256",
          "name": "",
          "type": "uint256"
        }
      ],
      "payable": false,
      "stateMutability": "view",
      "type": "function"
    },
    {
      "constant": true,
      "inputs": [
        {
          "internalType": "bytes32",
          "name": "_itemID",
          "type": "bytes32"
        }
      ],
      "name": "getItem",
      "outputs": [
        {
          "components": [
            {
              "internalType": "bytes32",
              "name": "ID",
              "type": "bytes32"
            },
            {
              "internalType": "bytes",
              "name": "data",
              "type": "bytes"
            },
            {
              "internalType": "enum GTCRMock.ItemStatus",
              "name": "status",
              "type": "uint8"
            },
            {
              "internalType": "bool",
              "name": "disputed",
              "type": "bool"
            },
            {
              "internalType": "bool",
              "name": "resolved",
              "type": "bool"
            },
            {
              "internalType": "uint256",
              "name": "disputeID",
              "type": "uint256"
            },
            {
              "internalType": "uint256",
              "name": "appealStart",
              "type": "uint256"
            },
            {
              "internalType": "uint256",
              "name": "appealEnd",
              "type": "uint256"
            },
            {
              "internalType": "address",
              "name": "requester",
              "type": "address"
            },
            {
              "internalType": "address",
              "name": "challenger",
              "type": "address"
            },
            {
              "internalType": "address",
              "name": "arbitrator",
              "type": "address"
            },
            {
              "internalType": "bytes",
              "name": "arbitratorExtraData",
              "type": "bytes"
            },
            {
              "internalType": "uint256",
              "name": "currentRuling",
              "type": "uint256"
            },
            {
              "internalType": "bool[3]",
              "name": "hasPaid",
              "type": "bool[3]"
            },
            {
              "internalType": "uint256",
              "name": "feeRewards",
              "type": "uint256"
            },
            {
              "internalType": "uint256",
              "name": "submissionTime",
              "type": "uint256"
            },
            {
              "internalType": "uint256[3]",
              "name": "paidFees",
              "type": "uint256[3]"
            },
            {
              "internalType": "enum Arbitrator.DisputeStatus",
              "name": "disputeStatus",
              "type": "uint8"
            }
          ],
          "internalType": "struct GTCRMock.QueryResult",
          "name": "result",
          "type": "tuple"
        }
      ],
      "payable": false,
      "stateMutability": "view",
      "type": "function"
    },
    {
      "constant": true,
      "inputs": [
        {
          "internalType": "bytes",
          "name": "_rlpEncodedMatch",
          "type": "bytes"
        },
        {
          "internalType": "uint256",
          "name": "_cursor",
          "type": "uint256"
        },
        {
          "internalType": "uint256",
          "name": "_returnCount",
          "type": "uint256"
        },
        {
          "internalType": "uint256",
          "name": "_count",
          "type": "uint256"
        }
      ],
      "name": "findItem",
      "outputs": [
        {
          "internalType": "bytes[]",
          "name": "",
          "type": "bytes[]"
        }
      ],
      "payable": false,
      "stateMutability": "view",
      "type": "function"
    },
    {
      "constant": true,
      "inputs": [
        {
          "internalType": "bytes32",
          "name": "_cursor",
          "type": "bytes32"
        },
        {
          "internalType": "uint256",
          "name": "_count",
          "type": "uint256"
        },
        {
          "internalType": "bool[8]",
          "name": "_filter",
          "type": "bool[8]"
        },
        {
          "internalType": "bool",
          "name": "_oldestFirst",
          "type": "bool"
        },
        {
          "internalType": "address",
          "name": "_party",
          "type": "address"
        }
      ],
      "name": "queryItems",
      "outputs": [
        {
          "components": [
            {
              "internalType": "bytes32",
              "name": "ID",
              "type": "bytes32"
            },
            {
              "internalType": "bytes",
              "name": "data",
              "type": "bytes"
            },
            {
              "internalType": "enum GTCRMock.ItemStatus",
              "name": "status",
              "type": "uint8"
            },
            {
              "internalType": "bool",
              "name": "disputed",
              "type": "bool"
            },
            {
              "internalType": "bool",
              "name": "resolved",
              "type": "bool"
            },
            {
              "internalType": "uint256",
              "name": "disputeID",
              "type": "uint256"
            },
            {
              "internalType": "uint256",
              "name": "appealStart",
              "type": "uint256"
            },
            {
              "internalType": "uint256",
              "name": "appealEnd",
              "type": "uint256"
            },
            {
              "internalType": "address",
              "name": "requester",
              "type": "address"
            },
            {
              "internalType": "address",
              "name": "challenger",
              "type": "address"
            },
            {
              "internalType": "address",
              "name": "arbitrator",
              "type": "address"
            },
            {
              "internalType": "bytes",
              "name": "arbitratorExtraData",
              "type": "bytes"
            },
            {
              "internalType": "uint256",
              "name": "currentRuling",
              "type": "uint256"
            },
            {
              "internalType": "bool[3]",
              "name": "hasPaid",
              "type": "bool[3]"
            },
            {
              "internalType": "uint256",
              "name": "feeRewards",
              "type": "uint256"
            },
            {
              "internalType": "uint256",
              "name": "submissionTime",
              "type": "uint256"
            },
            {
              "internalType": "uint256[3]",
              "name": "paidFees",
              "type": "uint256[3]"
            },
            {
              "internalType": "enum Arbitrator.DisputeStatus",
              "name": "disputeStatus",
              "type": "uint8"
            }
          ],
          "internalType": "struct GTCRMock.QueryResult[]",
          "name": "results",
          "type": "tuple[]"
        },
        {
          "internalType": "bool",
          "name": "hasMore",
          "type": "bool"
        }
      ],
      "payable": false,
      "stateMutability": "view",
      "type": "function"
    }
  ],
  "bytecode": "0x608060405260026000553480156200001657600080fd5b506040516200415738038062004157833981016040819052620000399162000230565b6000600080516020620041378339815191528a6040516200005b9190620003bd565b60405180910390a260016000805160206200413783398151915289604051620000859190620003bd565b60405180910390a260038054600160a060020a031916600160a060020a038d161790558951620000bd9060049060208d019062000102565b5060018054600160a060020a031916600160a060020a039890981697909717909655600594909455600692909255600755600b55600955600a5550620004c692505050565b828054600181600116156101000203166002900490600052602060002090601f016020900481019282601f106200014557805160ff191683800117855562000175565b8280016001018555821562000175579182015b828111156200017557825182559160200191906001019062000158565b506200018392915062000187565b5090565b620001a491905b808211156200018357600081556001016200018e565b90565b8051620001b48162000496565b92915050565b600082601f830112620001cc57600080fd5b8151620001e3620001dd82620003fe565b620003d7565b915080825260208301602083018583830111156200020057600080fd5b6200020d83828462000459565b50505092915050565b8051620001b481620004b0565b8051620001b481620004bb565b60008060008060008060008060008060006101608c8e0312156200025357600080fd5b6000620002618e8e62000216565b9b505060208c01516001604060020a038111156200027e57600080fd5b6200028c8e828f01620001ba565b9a505060408c01516001604060020a03811115620002a957600080fd5b620002b78e828f01620001ba565b99505060608c01516001604060020a03811115620002d457600080fd5b620002e28e828f01620001ba565b9850506080620002f58e828f01620001a7565b97505060a0620003088e828f0162000223565b96505060c06200031b8e828f0162000223565b95505060e06200032e8e828f0162000223565b945050610100620003428e828f0162000223565b935050610120620003568e828f0162000223565b9250506101406200036a8e828f0162000223565b9150509295989b509295989b9093969950565b60006200038a8262000426565b6200039681856200042a565b9350620003a881856020860162000459565b620003b3816200048c565b9093019392505050565b60208082528101620003d081846200037d565b9392505050565b6040518181016001604060020a0381118282101715620003f657600080fd5b604052919050565b60006001604060020a038211156200041557600080fd5b506020601f91909101601f19160190565b5190565b90815260200190565b6000620001b4826200044d565b6000620001b48262000433565b600160a060020a031690565b60005b83811015620004765781810151838201526020016200045c565b8381111562000486576000848401525b50505050565b601f01601f191690565b620004a18162000433565b8114620004ad57600080fd5b50565b620004a18162000440565b620004a181620001a4565b613c6180620004d66000396000f3fe608060405260043610610182576000357c0100000000000000000000000000000000000000000000000000000000900480636cc6cde1116100ee578063a1c2bf4d116100a7578063b70e6a0f11610081578063b70e6a0f146103f0578063beabdb7b1461041e578063d661dd311461044b578063e9c241661461046057610182565b8063a1c2bf4d14610383578063a836f307146103a3578063aa0372e7146103c357610182565b80636cc6cde1146102ef5780636cdc090f146103115780637b94338314610326578063873db1a71461033b5780638c10fef31461034e5780639c81a8271461036357610182565b8063329cedb411610140578063329cedb414610240578063416583411461025557806348f343f31461026a578063571e053d146102985780635cfb0924146102ad5780636bfb0d01146102da57610182565b806282a36d146101875780630c340a24146101b25780630c7ac7b6146101d45780631d512085146101f6578063246d0f3e1461020b578063311a6c5614610220575b600080fd5b34801561019357600080fd5b5061019c610480565b6040516101a9919061399b565b60405180910390f35b3480156101be57600080fd5b506101c7610486565b6040516101a9919061394e565b3480156101e057600080fd5b506101e9610495565b6040516101a991906139a9565b34801561020257600080fd5b5061019c610523565b61021e6102193660046130a8565b610529565b005b34801561022c57600080fd5b5061021e61023b36600461315f565b610853565b34801561024c57600080fd5b5061019c610b03565b34801561026157600080fd5b5061019c610b09565b34801561027657600080fd5b5061028a610285366004612fbc565b610b0f565b6040516101a99291906139ba565b3480156102a457600080fd5b506101c7610bb9565b3480156102b957600080fd5b506102cd6102c83660046130ea565b610bc8565b6040516101a9919061395c565b3480156102e657600080fd5b5061019c610e24565b3480156102fb57600080fd5b50610304610e2b565b6040516101a991906139eb565b34801561031d57600080fd5b5061019c610e3a565b34801561033257600080fd5b5061019c610e40565b61021e610349366004612fda565b610e46565b34801561035a57600080fd5b5061019c61123a565b34801561036f57600080fd5b5061019c61037e366004612f64565b611240565b34801561038f57600080fd5b5061021e61039e366004612f03565b61125d565b3480156103af57600080fd5b5061019c6103be366004612fbc565b6114c8565b3480156103cf57600080fd5b506103e36103de366004612fbc565b6114e6565b6040516101a99190613a9b565b3480156103fc57600080fd5b5061041061040b366004613030565b611abe565b6040516101a992919061396d565b34801561042a57600080fd5b5061043e610439366004612fbc565b612420565b6040516101a9919061398d565b34801561045757600080fd5b5061019c612469565b34801561046c57600080fd5b5061021e61047b366004612fbc565b61246f565b60075481565b600154600160a060020a031681565b6004805460408051602060026001851615610100026000190190941693909304601f8101849004840282018401909252818152929183018282801561051b5780601f106104f05761010080835404028352916020019161051b565b820191906000526020600020905b8154815290600101906020018083116104fe57829003601f168201915b505050505081565b600a5481565b6000828260405161053b929190613939565b60408051918290039091206000818152600d602052919091206002810154919250906105a357600c80546001810182556000919091527fdf6966c971051c3d54ec59162606531493a51404a002842f56009d7e5cf4a8c7018290556105a1818585612aac565b505b6000600182015460ff1660038111156105b857fe5b14156105db576001808201805460029260ff1990911690835b0217905550610630565b60018082015460ff1660038111156105ef57fe5b141561060c576001808201805460039260ff1990911690836105d1565b60405160e560020a62461bcd02815260040161062790613a7b565b60405180910390fd5b600281018054600091906106478260018301612b2a565b8154811061065157fe5b60009182526020909120600a909102016005810180543373ffffffffffffffffffffffffffffffffffffffff199091161790554260028083019190915560035460088301805474ffffffffffffffffffffffffffffffffffffffff001916610100600160a060020a039093168302179055600480549394506106e59360098601939192600182161502600019011604612b56565b50600781018054600091906106fd8260018301612bcb565b8154811061070757fe5b60009182526020822060088501546040517ff7434ea900000000000000000000000000000000000000000000000000000000815260069093029091019350600160a060020a03610100909104169063f7434ea99061076c9060098701906004016139da565b60206040518083038186803b15801561078457600080fd5b505afa158015610798573d6000803e3d6000fd5b505050506040513d601f19601f820116820180604052506107bc9190810190613141565b905060006108036005546107f76127106107e1600b54876125ac90919063ffffffff16565b816107e857fe5b8691900463ffffffff6125e216565b9063ffffffff6125e216565b90506108138360013334856125f7565b808360010154101561083a5760405160e560020a62461bcd02815260040161062790613a0b565b5050600301805461ff0019166101001790555050505050565b600081600281111561086157fe5b336000908152600e60209081526040808320878452825280832054808452600d909252822060028101805494955091939092919060001981019081106108a357fe5b6000918252602082206007600a9092020190810180549193509060001981019081106108cb57fe5b906000526020600020906006020190506000548611156108ea57600080fd5b60088201546101009004600160a060020a0316331461090857600080fd5b600382015460ff161561091a57600080fd5b600381015460ff6101009091041615156001141561093b5760019450610958565b600381015462010000900460ff1615156001141561095857600294505b86337f394027a5fa6e098a1191094d1719d6929b9abc535fcc0c8f448d6a4e7562227687600281111561098757fe5b604051610994919061399b565b60405180910390a360018560028111156109aa57fe5b14156109fe576002600184015460ff1660038111156109c557fe5b14156109e0576001838101805460ff191690911790556109f9565b6001808401805460009260ff1990911690835b02179055505b610a5c565b6002600184015460ff166003811115610a1357fe5b1415610a30576001808401805460009260ff1990911690836109f3565b6003600184015460ff166003811115610a4557fe5b1415610a5c576001838101805460ff191690911790555b600382018054600160ff199182168117909255600884018054889391921690836002811115610a8757fe5b02179055506000856002811115610a9a57fe5b1415610ae757610ad46004830160015b60038110610ab457fe5b01546002850154600160a060020a0390911690869060001901600061125d565b610ae2600483016002610aaa565b610afa565b610afa82600401866002811115610aaa57fe5b50505050505050565b60065481565b600b5481565b600d6020908152600091825260409182902080548351601f60026000196101006001861615020190931692909204918201849004840281018401909452808452909291839190830182828015610ba65780601f10610b7b57610100808354040283529160200191610ba6565b820191906000526020600020905b815481529060010190602001808311610b8957829003601f168201915b5050506001909301549192505060ff1682565b600254600160a060020a031681565b606080610bdc610bd7876126c3565b6126e8565b9050606083604051908082528060200260200182016040528015610c1457816020015b6060815260200190600190039081610bff5790505b5090506000865b8515610c275785610c2b565b600c545b811015610e17576000600d6000600c8481548110610c4557fe5b9060005260206000200154815260200190815260200160002060000190506060610d0a610bd7838054600181600116156101000203166002900480601f016020809104026020016040519081016040528092919081815260200182805460018160011615610100020316600290048015610d005780601f10610cd557610100808354040283529160200191610d00565b820191906000526020600020905b815481529060010190602001808311610ce357829003601f168201915b50505050506126c3565b905060005b8651811015610e0c57610d52610d37888381518110610d2a57fe5b60200260200101516127b5565b610d46848481518110610d2a57fe5b9063ffffffff61282e16565b15610e04578254604080516020601f60026000196101006001881615020190951694909404938401819004810282018101909252828152918591830182828015610ddd5780601f10610db257610100808354040283529160200191610ddd565b820191906000526020600020905b815481529060010190602001808311610dc057829003601f168201915b5050505050868681518110610dee57fe5b6020908102919091010152600190940193610e0c565b600101610d0f565b505050600101610c1b565b5090979650505050505050565b600c545b90565b600354600160a060020a031681565b60085481565b60095481565b6000838152600d602052604090206002600182015460ff166003811115610e6957fe5b1480610e8757506003600182015460ff166003811115610e8557fe5b145b610ea65760405160e560020a62461bcd02815260040161062790613a8b565b600281018054600091906000198101908110610ebe57fe5b90600052602060002090600a02019050600754816002015442031115610ef95760405160e560020a62461bcd02815260040161062790613a4b565b805460ff1615610f1e5760405160e560020a62461bcd02815260040161062790613a2b565b60068101805473ffffffffffffffffffffffffffffffffffffffff191633179055600781018054600091906000198101908110610f5757fe5b60009182526020822060088501546040517ff7434ea900000000000000000000000000000000000000000000000000000000815260069093029091019350600160a060020a03610100909104169063f7434ea990610fbc9060098701906004016139da565b60206040518083038186803b158015610fd457600080fd5b505afa158015610fe8573d6000803e3d6000fd5b505050506040513d601f19601f8201168201806040525061100c9190810190613141565b905060006110316006546107f76127106107e1600b54876125ac90919063ffffffff16565b90506110418360023334856125f7565b80836002015410156110685760405160e560020a62461bcd02815260040161062790613a0b565b6003830180546201000062ff00001990911617905560088401546000546040517fc13517e1000000000000000000000000000000000000000000000000000000008152610100909204600160a060020a03169163c13517e19185916110d5919060098a0190600401613aac565b6020604051808303818588803b1580156110ee57600080fd5b505af1158015611102573d6000803e3d6000fd5b50505050506040513d601f19601f820116820180604052506111279190810190613141565b600185810182905560088601546101009004600160a060020a03166000908152600e6020908152604080832094835293905291909120899055845460ff1916811785556007850180549161117d91908301612bcb565b506004830154611193908363ffffffff61289216565b6004840155851561123057600285015460405133916111bb918b916000190190602001613913565b60405160208183030381529060405280519060200120600190048560080160019054906101000a9004600160a060020a0316600160a060020a03167fdccf2f8b2cc26eafcd61905cba744cff4b81d14740725f6376390dc6298a6a3c8a8a6040516112279291906139f9565b60405180910390a45b5050505050505050565b60055481565b600e60209081526000928352604080842090915290825290205481565b6000838152600d602052604081206002810180549192918590811061127e57fe5b90600052602060002090600a02019050600081600701848154811061129f57fe5b600091825260209091206003840154600690920201915060ff166112c257600080fd5b815460009060ff1615806112e857506000600884015460ff1660028111156112e657fe5b145b156113c15760008083600101541161130157600061133d565b826001015483600201546004850154600160a060020a038c1660009081526005870160205260409020929091019160010154028161133b57fe5b045b905060008084600201541161135357600061138f565b836001015484600201546004860154600160a060020a038d1660009081526005880160205260409020929091019160020154028161138d57fe5b045b600160a060020a038b166000908152600586016020526040812060018101829055600201559190910191506114999050565b6008830154600090839060ff1660028111156113d957fe5b600381106113e357fe5b0154116113f157600061145a565b6008830154829060ff16600281111561140657fe5b6003811061141057fe5b01546004830154600160a060020a038a1660009081526005850160205260409020600886015460ff16600281111561144457fe5b6003811061144e57fe5b0154028161145857fe5b045b600160a060020a038916600090815260058401602052604081206008860154929350909160ff16600281111561148c57fe5b6003811061149657fe5b01555b604051600160a060020a0389169082156108fc029083906000818181858888f150505050505050505050505050565b600c81815481106114d557fe5b600091825260209091200154905081565b6114ee612bf7565b6000828152600d60205260408120600281018054919291600019810190811061151357fe5b6000918252602082206007600a90920201908101805491935090600019810190811061153b57fe5b6000918252602091829020604080516102408101825289815287548251601f600260001961010060018616150201909316929092049182018790048702810187019093528083526006909402909201945090928381019287918301828280156115e55780601f106115ba576101008083540402835291602001916115e5565b820191906000526020600020905b8154815290600101906020018083116115c857829003601f168201915b5050509183525050600185015460209091019060ff16600381111561160657fe5b8152835460ff9081161515602083015260038501541615156040820152600180850154606083015260006080830181905260a083015260c090910190600485010154600160a060020a031681526020016004840160020154600160a060020a03908116825260088501546101009081900490911660208084019190915260098601805460408051600260018416159096026000190190921694909404601f81018490048402820184018552808252939094019392909183018282801561170d5780601f106116e25761010080835404028352916020019161170d565b820191906000526020600020905b8154815290600101906020018083116116f057829003601f168201915b5050509183525050600060208083018290526040805160608082018352848252818401859052818301859052828601919091528085018490526002880154608086015281519081018252838152918201839052810182905260a083015260c090910152825490945060ff16801561181a575060016008830154600184015460405160e360020a63021e2d3d028152610100909204600160a060020a0316916310f169e8916117bd9160040161399b565b60206040518083038186803b1580156117d557600080fd5b505afa1580156117e9573d6000803e3d6000fd5b505050506040513d601f19601f8201168201806040525061180d9190810190613123565b600281111561181857fe5b145b15611ab657600882015460018301546040517f1c3db16d000000000000000000000000000000000000000000000000000000008152610100909204600160a060020a031691631c3db16d916118719160040161399b565b60206040518083038186803b15801561188957600080fd5b505afa15801561189d573d6000803e3d6000fd5b505050506040513d601f19601f820116820180604052506118c19190810190613141565b6101808501526008820154600183015460405160e360020a63021e2d3d028152610100909204600160a060020a0316916310f169e8916119039160040161399b565b60206040518083038186803b15801561191b57600080fd5b505afa15801561192f573d6000803e3d6000fd5b505050506040513d601f19601f820116820180604052506119539190810190613123565b846102200190600281111561196457fe5b9081600281111561197157fe5b905250600882015460018301546040517fafe15cfb000000000000000000000000000000000000000000000000000000008152610100909204600160a060020a03169163afe15cfb916119c69160040161399b565b604080518083038186803b1580156119dd57600080fd5b505afa1580156119f1573d6000803e3d6000fd5b505050506040513d601f19601f82011682018060405250611a15919081019061317e565b60e086015260c085015260048101546101c085015260408051606081019182905290600380840191826000855b825461010083900a900460ff161515815260206001928301818104948501949093039092029101808411611a425750505050506101a08601919091525060408051606081019182905290829060039082845b815481526020019060010190808311611a945750505050508461020001819052505b505050919050565b606060008086604051908082528060200260200182016040528015611afd57816020015b611aea612bf7565b815260200190600190039081611ae25790505b509250600088611b105760009150611b6d565b60005b600c54811015611b4c5789600c8281548110611b2b57fe5b90600052602060002001541415611b4457809250611b4c565b600101611b13565b5081611b6d5760405160e560020a62461bcd02815260040161062790613a6b565b60008215611b925786611b8857600c54839003600101611b8d565b826001015b611ba5565b86611b9e576001611ba1565b60005b60ff165b90505b86611bb857600c54811115611bbe565b600c5481105b15612413576000600c88611bd757600c54839003611bd9565b825b81548110611be357fe5b6000918252602080832090910154808352600d909152604082206002810180549294509092916000198101908110611c1757fe5b6000918252602091829020600a91909102019150611c37908c018c612f9e565b8015611c5557506000600183015460ff166003811115611c5357fe5b145b80611c885750611c6b60408c0160208d01612f9e565b8015611c88575060018083015460ff166003811115611c8657fe5b145b80611cca5750611c9e60608c0160408d01612f9e565b8015611cbc57506002600183015460ff166003811115611cba57fe5b145b8015611cca5750805460ff16155b80611d0c5750611ce060808c0160608d01612f9e565b8015611cfe57506003600183015460ff166003811115611cfc57fe5b145b8015611d0c5750805460ff16155b80611d4d5750611d2260a08c0160808d01612f9e565b8015611d4057506002600183015460ff166003811115611d3e57fe5b145b8015611d4d5750805460ff165b80611d8e5750611d6360c08c0160a08d01612f9e565b8015611d8157506003600183015460ff166003811115611d7f57fe5b145b8015611d8e5750805460ff165b80611dc85750611da460e08c0160c08d01612f9e565b8015611dc85750600160a060020a0389166004820160010154600160a060020a0316145b80611e035750611ddf6101008c0160e08d01612f9e565b8015611e035750600160a060020a0389166004820160020154600160a060020a0316145b15612408578b8510156123fc57611e18612bf7565b604051806102400160405280600c8d611e3657600c54889003611e38565b875b81548110611e4257fe5b600091825260209182902001548252855460408051601f600260001961010060018716150201909416939093049283018490048402810184019091528181529282019291879190830182828015611eda5780601f10611eaf57610100808354040283529160200191611eda565b820191906000526020600020905b815481529060010190602001808311611ebd57829003601f168201915b5050509183525050600185015460209091019060ff166003811115611efb57fe5b8152835460ff9081161515602083015260038501541615156040820152600180850154606083015260006080830181905260a083015260c090910190600485010154600160a060020a031681526020016004840160020154600160a060020a03908116825260088501546101009081900490911660208084019190915260098601805460408051600260018416159096026000190190921694909404601f8101849004840282018401855280825293909401939290918301828280156120025780601f10611fd757610100808354040283529160200191612002565b820191906000526020600020905b815481529060010190602001808311611fe557829003601f168201915b5050509183525050600060208083018290526040805160608082018352848252818401859052818301859052828601919091528085018490526002880154608086015281519081018252838152918201839052810182905260a083015260c090910152825490915060ff16801561210f575060016008830154600184015460405160e360020a63021e2d3d028152610100909204600160a060020a0316916310f169e8916120b29160040161399b565b60206040518083038186803b1580156120ca57600080fd5b505afa1580156120de573d6000803e3d6000fd5b505050506040513d601f19601f820116820180604052506121029190810190613123565b600281111561210d57fe5b145b156123d857600882015460018301546040517f1c3db16d000000000000000000000000000000000000000000000000000000008152610100909204600160a060020a031691631c3db16d916121669160040161399b565b60206040518083038186803b15801561217e57600080fd5b505afa158015612192573d6000803e3d6000fd5b505050506040513d601f19601f820116820180604052506121b69190810190613141565b6101808201526008820154600183015460405160e360020a63021e2d3d028152610100909204600160a060020a0316916310f169e8916121f89160040161399b565b60206040518083038186803b15801561221057600080fd5b505afa158015612224573d6000803e3d6000fd5b505050506040513d601f19601f820116820180604052506122489190810190613123565b816102200190600281111561225957fe5b9081600281111561226657fe5b905250600882015460018301546040517fafe15cfb000000000000000000000000000000000000000000000000000000008152610100909204600160a060020a03169163afe15cfb916122bb9160040161399b565b604080518083038186803b1580156122d257600080fd5b505afa1580156122e6573d6000803e3d6000fd5b505050506040513d601f19601f8201168201806040525061230a919081019061317e565b60e083015260c082015260078201805460009190600019810190811061232c57fe5b60009182526020822060069091020160048101546101c0850152604080516060810191829052919350909160038085019290918390855b825461010083900a900460ff1615158152602060019283018181049485019490930390920291018084116123635750505050506101a08401919091525060408051606081019182905290829060039082845b8154815260200190600101908083116123b5575050505050826102000181905250505b808987815181106123e557fe5b602090810291909101015250600190940193612408565b60019650505050612413565b505050600101611ba8565b5050509550959350505050565b6000818152600d6020526040812060018082015460ff16600381111561244257fe5b148061246057506003600182015460ff16600381111561245e57fe5b145b9150505b919050565b61271081565b6000818152600d60205260408120600281018054919291600019810190811061249457fe5b90600052602060002090600a0201905060075481600201544203116124ce5760405160e560020a62461bcd02815260040161062790613a3b565b805460ff16156124f35760405160e560020a62461bcd02815260040161062790613a1b565b6002600183015460ff16600381111561250857fe5b1415612526576001828101805460ff191682805b0217905550612573565b6003600183015460ff16600381111561253b57fe5b1415612558576001808301805460009260ff19909116908361251c565b60405160e560020a62461bcd02815260040161062790613a5b565b60038101805460ff19166001179055600581015460028301546125a791600160a060020a031690859060001901600061125d565b505050565b6000826125bb575060006125dc565b828202828482816125c857fe5b04146125d6576000196125d8565b805b9150505b92915050565b6000828201838110156125d6576000196125d8565b60008061262c846126278989600281111561260e57fe5b6003811061261857fe5b0154869063ffffffff61289216565b6128ad565b600160a060020a038716600090815260058a01602052604090209193509150829087600281111561265957fe5b6003811061266357fe5b0180549091019055818787600281111561267957fe5b6003811061268357fe5b018054909101905560048701805483019055604051600160a060020a0386169082156108fc029083906000818181858888f1505050505050505050505050565b6126cb612c90565b506040805180820190915281518152602082810190820152919050565b60606126f3826128d2565b6126fc57600080fd5b60006127078361290c565b90508060405190808252806020026020018201604052801561274357816020015b612730612c90565b8152602001906001900390816127285790505b50915060006127558460200151612968565b60208501510190506000805b838110156127ac57612772836129d1565b915060405180604001604052808381526020018481525085828151811061279557fe5b602090810291909101015291810191600101612761565b50505050919050565b80516060906127c357600080fd5b60006127d28360200151612968565b83516040805191839003808352601f19601f8201168301602001909152919250606090828015612809576020820181803883390190505b5090506000816020019050612825848760200151018285612a61565b50949350505050565b81518151600091600191811480831461284a5760009250612888565b600160208701838101602088015b6002848385100114156128835780518351146128775760009650600093505b60209283019201612858565b505050505b5090949350505050565b6000828211156128a4575060006125dc565b508082036125dc565b600080838311156128c3575082905060006128cb565b508190508083035b9250929050565b80516000906128e357506000612464565b6020820151805160001a9060c082101561290257600092505050612464565b5060019392505050565b805160009061291d57506000612464565b600080905060006129318460200151612968565b602085015185519181019250015b8082101561295f57612950826129d1565b6001909301929091019061293f565b50909392505050565b8051600090811a6080811015612982576000915050612464565b60b881108061299d575060c0811080159061299d575060f881105b156129ac576001915050612464565b60c08110156129c05760b519019050612464565b60f519019050612464565b50919050565b8051600090811a60808110156129eb576001915050612464565b60b88110156129ff57607e19019050612464565b60c0811015612a2c5760b78103600184019350806020036101000a845104600182018101935050506129cb565b60f8811015612a405760be19019050612464565b60019290920151602083900360f7016101000a900490910160f51901919050565b80612a6b576125a7565b5b60208110612a8b578251825260209283019290910190601f1901612a6c565b915181516020939093036101000a6000190180199091169216919091179052565b828054600181600116156101000203166002900490600052602060002090601f016020900481019282601f10612aed5782800160ff19823516178555612b1a565b82800160010185558215612b1a579182015b82811115612b1a578235825591602001919060010190612aff565b50612b26929150612caa565b5090565b8154818355818111156125a757600a0281600a0283600052602060002091820191016125a79190612cc4565b828054600181600116156101000203166002900490600052602060002090601f016020900481019282601f10612b8f5780548555612b1a565b82800160010185558215612b1a57600052602060002091601f016020900482015b82811115612b1a578254825591600101919060010190612bb0565b8154818355818111156125a7576006028160060283600052602060002091820191016125a79190612d4a565b6040805161024081018252600080825260606020830152909182019081526000602082018190526040820181905260608083018290526080830182905260a0830182905260c0830182905260e08301829052610100830182905261012083015261014082015261016001612c69612d82565b81526020016000815260200160008152602001612c84612d82565b81526020016000905290565b604051806040016040528060008152602001600081525090565b610e2891905b80821115612b265760008155600101612cb0565b610e2891905b80821115612b2657805460ff19908116825560006001830181905560028301819055600383018054909216909155612d056004830182612da0565b612d13600783016000612db5565b60088201805474ffffffffffffffffffffffffffffffffffffffffff19169055612d41600983016000612dd9565b50600a01612cca565b610e2891905b80821115612b26576000612d648282612da0565b612d72600383016000612e1d565b5060006004820155600601612d50565b60405180606001604052806003906020820280388339509192915050565b50600081556001016000815560010160009055565b5080546000825560060290600052602060002090810190612dd69190612d4a565b50565b50805460018160011615610100020316600290046000825580601f10612dff5750612dd6565b601f016020900490600052602060002090810190612dd69190612caa565b5060009055565b80356125dc81613beb565b8061010081018310156125dc57600080fd5b80356125dc81613bff565b80356125dc81613c08565b60008083601f840112612e6957600080fd5b50813567ffffffffffffffff811115612e8157600080fd5b6020830191508360018202830111156128cb57600080fd5b600082601f830112612eaa57600080fd5b8135612ebd612eb882613af3565b613acc565b91508082526020830160208301858383011115612ed957600080fd5b612ee4838284613b91565b50505092915050565b80516125dc81613c11565b80516125dc81613c08565b60008060008060808587031215612f1957600080fd5b6000612f258787612e24565b9450506020612f3687828801612e4c565b9350506040612f4787828801612e4c565b9250506060612f5887828801612e4c565b91505092959194509250565b60008060408385031215612f7757600080fd5b6000612f838585612e24565b9250506020612f9485828601612e4c565b9150509250929050565b600060208284031215612fb057600080fd5b60006125d88484612e41565b600060208284031215612fce57600080fd5b60006125d88484612e4c565b600080600060408486031215612fef57600080fd5b6000612ffb8686612e4c565b935050602084013567ffffffffffffffff81111561301857600080fd5b61302486828701612e57565b92509250509250925092565b6000806000806000610180868803121561304957600080fd5b60006130558888612e4c565b955050602061306688828901612e4c565b945050604061307788828901612e2f565b93505061014061308988828901612e41565b92505061016061309b88828901612e24565b9150509295509295909350565b600080602083850312156130bb57600080fd5b823567ffffffffffffffff8111156130d257600080fd5b6130de85828601612e57565b92509250509250929050565b6000806000806080858703121561310057600080fd5b843567ffffffffffffffff81111561311757600080fd5b612f2587828801612e99565b60006020828403121561313557600080fd5b60006125d88484612eed565b60006020828403121561315357600080fd5b60006125d88484612ef8565b6000806040838503121561317257600080fd5b6000612f838585612e4c565b6000806040838503121561319157600080fd5b600061319d8585612ef8565b9250506020612f9485828601612ef8565b60006131ba838361336b565b505060200190565b60006131ce83836133ad565b9392505050565b60006131ce8383613791565b60006131ba8383613374565b6131f681613b40565b82525050565b61320581613b2d565b61320f8184612464565b925061321a82610e28565b8060005b8381101561324857815161323287826131ae565b965061323d83613b1b565b92505060010161321e565b505050505050565b600061325b82613b33565b6132658185613b37565b93508360208202850161327785613b1b565b8060005b858110156132b1578484038952815161329485826131c2565b945061329f83613b1b565b60209a909a019992505060010161327b565b5091979650505050505050565b60006132c982613b33565b6132d38185613b37565b9350836020820285016132e585613b1b565b8060005b858110156132b1578484038952815161330285826131d5565b945061330d83613b1b565b60209a909a01999250506001016132e9565b61332881613b2d565b6133328184612464565b925061333d82610e28565b8060005b8381101561324857815161335587826131e1565b965061336083613b1b565b925050600101613341565b6131f681613b4b565b6131f681610e28565b6131f661338982610e28565b610e28565b600061339a8385612464565b93506133a7838584613b91565b50500190565b60006133b882613b33565b6133c28185613b37565b93506133d2818560208601613b9d565b6133db81613bcd565b9093019392505050565b600081546001811660008114613402576001811461342857613467565b607f60028304166134138187613b37565b60ff1984168152955050602085019250613467565b600282046134368187613b37565b955061344185613b21565b60005b8281101561346057815488820152600190910190602001613444565b8701945050505b505092915050565b6131f681613b70565b6131f681613b7b565b6131f681613b86565b60006134968385613b37565b93506134a3838584613b91565b6133db83613bcd565b60006134b9601e83613b37565b7f596f75206d7573742066756c6c792066756e6420796f757220736964652e0000815260200192915050565b60006134f2602383613b37565b7f54686520726571756573742073686f756c64206e6f742062652064697370757481527f65642e0000000000000000000000000000000000000000000000000000000000602082015260400192915050565b6000613551603283613b37565b7f54686520726571756573742073686f756c64206e6f74206861766520616c726581527f616479206265656e2064697370757465642e0000000000000000000000000000602082015260400192915050565b60006135b0602f83613b37565b7f54696d6520746f206368616c6c656e6765207468652072657175657374206d7581527f73742068617665207061737365642e0000000000000000000000000000000000602082015260400192915050565b600061360f603283613b37565b7f4368616c6c656e676573206d757374206f6363757220647572696e672074686581527f206368616c6c656e676520706572696f642e0000000000000000000000000000602082015260400192915050565b600061366e601883613b37565b7f5468657265206d757374206265206120726571756573742e0000000000000000815260200192915050565b60006136a7601683613b37565b7f54686520637572736f7220697320696e76616c69642e00000000000000000000815260200192915050565b60006136e0602383613b37565b7f4974656d20616c72656164792068617320612070656e64696e6720726571756581527f73742e0000000000000000000000000000000000000000000000000000000000602082015260400192915050565b600061373f602583613b37565b7f546865206974656d206d757374206861766520612070656e64696e672072657181527f756573742e000000000000000000000000000000000000000000000000000000602082015260400192915050565b80516000906102c08401906137a68582613374565b50602083015184820360208601526137be82826133ad565b91505060408301516137d36040860182613481565b5060608301516137e6606086018261336b565b5060808301516137f9608086018261336b565b5060a083015161380c60a0860182613374565b5060c083015161381f60c0860182613374565b5060e083015161383260e0860182613374565b506101008301516138476101008601826131ed565b5061012083015161385c6101208601826131ed565b506101408301516138716101408601826131ed565b5061016083015184820361016086015261388b82826133ad565b9150506101808301516138a2610180860182613374565b506101a08301516138b76101a08601826131fc565b506101c08301516138cc610200860182613374565b506101e08301516138e1610220860182613374565b506102008301516138f661024086018261331f565b5061022083015161390b6102a0860182613478565b509392505050565b600061391f828561337d565b60208201915061392f828461337d565b5060200192915050565b600061394682848661338e565b949350505050565b602081016125dc82846131ed565b602080825281016131ce8184613250565b6040808252810161397e81856132be565b90506131ce602083018461336b565b602081016125dc828461336b565b602081016125dc8284613374565b602080825281016131ce81846133ad565b604080825281016139cb81856133ad565b90506131ce6020830184613481565b602080825281016131ce81846133e5565b602081016125dc828461346f565b6020808252810161394681848661348a565b602080825281016125dc816134ac565b602080825281016125dc816134e5565b602080825281016125dc81613544565b602080825281016125dc816135a3565b602080825281016125dc81613602565b602080825281016125dc81613661565b602080825281016125dc8161369a565b602080825281016125dc816136d3565b602080825281016125dc81613732565b602080825281016131ce8184613791565b60408101613aba8285613374565b818103602083015261394681846133e5565b60405181810167ffffffffffffffff81118282101715613aeb57600080fd5b604052919050565b600067ffffffffffffffff821115613b0a57600080fd5b506020601f91909101601f19160190565b60200190565b60009081526020902090565b50600390565b5190565b90815260200190565b60006125dc82613b64565b151590565b8061246481613bd7565b8061246481613be1565b600160a060020a031690565b60006125dc82613b40565b60006125dc82613b50565b60006125dc82613b5a565b82818337506000910152565b60005b83811015613bb8578181015183820152602001613ba0565b83811115613bc7576000848401525b50505050565b601f01601f191690565b60038110612dd657fe5b60048110612dd657fe5b613bf481613b40565b8114612dd657600080fd5b613bf481613b4b565b613bf481610e28565b60038110612dd657600080fdfea365627a7a72315820a45552e5ea1ec20d2a87ec666cd590920fb7a4fe33403044882195e559a713036c6578706572696d656e74616cf564736f6c634300050b004061606860eb6c87306811e2695215385101daab53bd6ab4e9f9049aead9363c7d",
  "source": "/**\n *  @authors: [@mtsalenc]\n *  @reviewers: []\n *  @auditors: []\n *  @bounties: []\n *  @deployments: []\n */\n\npragma solidity ^0.5.11;\npragma experimental ABIEncoderV2;\n\nimport { IArbitrable, Arbitrator } from \"@kleros/erc-792/contracts/Arbitrator.sol\";\nimport { IEvidence } from \"@kleros/erc-792/contracts/erc-1497/IEvidence.sol\";\n\nimport \"solidity-bytes-utils/contracts/BytesLib.sol\";\nimport \"solidity-rlp/contracts/RLPReader.sol\";\nimport \"./libraries/CappedMath.sol\";\n\ncontract GTCRMock is IArbitrable, IEvidence{\n    using CappedMath for uint; // Operations bounded between 0 and 2**256 - 1.\n    using RLPReader for RLPReader.RLPItem;\n    using RLPReader for bytes;\n    using BytesLib for bytes;\n\n    /* Enums */\n\n    enum ItemStatus {\n        Absent,\n        Registered,\n        RegistrationRequested,\n        ClearingRequested\n    }\n\n    enum Party {\n        None,      // Party per default when there is no challenger or requester. Also used for unconclusive ruling.\n        Requester, // Party that made the request to change an address status.\n        Challenger // Party that challenges the request to change an address status.\n    }\n\n    /* Structs */\n\n    struct Item {\n        bytes data;\n        ItemStatus status; // The status of the item.\n        Request[] requests; // List of status change requests made for the item.\n    }\n\n    struct Request {\n        bool disputed; // True if a dispute was raised.\n        uint disputeID; // ID of the dispute, if any.\n        uint submissionTime; // Time when the request was made. Used to track when the challenge period ends.\n        bool resolved; // True if the request was executed and/or any disputes raised were resolved.\n        address payable[3] parties; // Address of requester and challenger, if any.\n        Round[] rounds; // Tracks each round of a dispute.\n        Party ruling; // The final ruling given, if any.\n        Arbitrator arbitrator; // The arbitrator trusted to solve disputes for this request.\n        bytes arbitratorExtraData; // The extra data for the trusted arbitrator of this request.\n    }\n\n    struct Round {\n        uint[3] paidFees; // Tracks the fees paid by each side on this round.\n        bool[3] hasPaid; // True when the side has fully paid its fee. False otherwise.\n        uint feeRewards; // Sum of reimbursable fees and stake rewards available to the parties that made contributions to the side that ultimately wins a dispute.\n        mapping(address => uint[3]) contributions; // Maps contributors to their contributions for each side.\n    }\n\n    struct QueryResult {\n        bytes32 ID;\n        bytes data;\n        ItemStatus status;\n        bool disputed;\n        bool resolved;\n        uint disputeID;\n        uint appealStart;\n        uint appealEnd;\n        address requester;\n        address challenger;\n        address arbitrator;\n        bytes arbitratorExtraData;\n        uint currentRuling;\n        bool[3] hasPaid;\n        uint feeRewards;\n        uint submissionTime;\n        uint[3] paidFees;\n        Arbitrator.DisputeStatus disputeStatus;\n    }\n\n    /* Storage */\n\n    // Constants\n\n    uint RULING_OPTIONS = 2; // The amount of non 0 choices the arbitrator can give.\n\n    // Settings\n    address public governor; // The address that can make governance changes to the parameters of the TCR.\n    address public relatedTCR; // The address of the TCR of TCRs related to this one.\n    Arbitrator public arbitrator; // The arbitrator that will be used to resolve disputes on the next requests.\n    bytes public arbitratorExtraData; // The arbitrator extra data used for the next requests.\n    uint public requesterBaseDeposit; // The base deposit to make a request.\n    uint public challengerBaseDeposit; // The base deposit to challenge a request.\n    uint public challengePeriodDuration; // The time before a request becomes executable if not challenged.\n    uint public metaEvidenceUpdates; // The number of times the meta evidence has been updated. Used to track the latest meta evidence ID.\n\n    // The required fee stake that a party must pay depends on who won the previous round and is proportional to the arbitration cost such that the fee stake for a round is stake multiplier * arbitration cost for that round.\n    // Multipliers are in basis points.\n    uint public winnerStakeMultiplier; // Multiplier for calculating the fee stake paid by the party that won the previous round.\n    uint public loserStakeMultiplier; // Multiplier for calculating the fee stake paid by the party that lost the previous round.\n    uint public sharedStakeMultiplier; // Multiplier for calculating the fee stake that must be paid in the case where there isn't a winner and loser (e.g. when it's the first round or the arbitrator ruled \"refused to rule\"/\"could not rule\").\n    uint public constant MULTIPLIER_DIVISOR = 10000; // Divisor parameter for multipliers.\n\n    // Registry data.\n    bytes32[] public itemIDs; // List of IDs of submitted items.\n    mapping(bytes32 => Item) public items; // Maps the item ID to the item.\n    mapping(address => mapping(uint => bytes32)) public arbitratorDisputeIDToItemID; // Maps a dispute ID to the ID of the item with the disputed request. On the form arbitratorDisputeIDToItemID[arbitrator][disputeID].\n\n    constructor(\n        Arbitrator _arbitrator,\n        bytes memory _arbitratorExtraData,\n        string memory _registrationMetaEvidence,\n        string memory _clearingMetaEvidence,\n        address _governor,\n        uint _requesterBaseDeposit,\n        uint _challengerBaseDeposit,\n        uint _challengePeriodDuration,\n        uint _sharedStakeMultiplier,\n        uint _winnerStakeMultiplier,\n        uint _loserStakeMultiplier\n    ) public {\n        emit MetaEvidence(0, _registrationMetaEvidence);\n        emit MetaEvidence(1, _clearingMetaEvidence);\n\n        arbitrator = _arbitrator;\n        arbitratorExtraData = _arbitratorExtraData;\n        governor = _governor;\n        requesterBaseDeposit = _requesterBaseDeposit;\n        challengerBaseDeposit = _challengerBaseDeposit;\n        challengePeriodDuration = _challengePeriodDuration;\n        sharedStakeMultiplier = _sharedStakeMultiplier;\n        winnerStakeMultiplier = _winnerStakeMultiplier;\n        loserStakeMultiplier = _loserStakeMultiplier;\n    }\n\n    function requestStatusChange(bytes calldata _item)\n        external\n        payable\n    {\n        bytes32 itemID = keccak256(_item);\n\n        Item storage item = items[itemID];\n        if (item.requests.length == 0) { // Initial item registration.\n            itemIDs.push(itemID);\n            item.data = _item;\n        }\n\n        // Update item status.\n        if (item.status == ItemStatus.Absent)\n            item.status = ItemStatus.RegistrationRequested;\n        else if (item.status == ItemStatus.Registered)\n            item.status = ItemStatus.ClearingRequested;\n        else\n            revert(\"Item already has a pending request.\");\n\n        // Setup request.\n        Request storage request = item.requests[item.requests.length++];\n        request.parties[uint(Party.Requester)] = msg.sender;\n        request.submissionTime = now;\n        request.arbitrator = arbitrator;\n        request.arbitratorExtraData = arbitratorExtraData;\n        Round storage round = request.rounds[request.rounds.length++];\n\n\n        // Amount required to fully fund each side: requesterBaseDeposit + arbitration cost + (arbitration cost * multiplier).\n        uint arbitrationCost = request.arbitrator.arbitrationCost(request.arbitratorExtraData);\n        uint totalCost = arbitrationCost.addCap((arbitrationCost.mulCap(sharedStakeMultiplier)) / MULTIPLIER_DIVISOR).addCap(requesterBaseDeposit);\n        contribute(round, Party.Requester, msg.sender, msg.value, totalCost);\n        require(round.paidFees[uint(Party.Requester)] >= totalCost, \"You must fully fund your side.\");\n        round.hasPaid[uint(Party.Requester)] = true;\n    }\n\n    /** @dev Executes a request if the challenge period passed and no one challenged the request.\n     *  @param _item The item with the request to execute.\n     */\n    function executeRequest(bytes32 _item) external {\n        Item storage addr = items[_item];\n        Request storage request = addr.requests[addr.requests.length - 1];\n        require(\n            now - request.submissionTime > challengePeriodDuration,\n            \"Time to challenge the request must have passed.\"\n        );\n        require(!request.disputed, \"The request should not be disputed.\");\n\n        if (addr.status == ItemStatus.RegistrationRequested)\n            addr.status = ItemStatus.Registered;\n        else if (addr.status == ItemStatus.ClearingRequested)\n            addr.status = ItemStatus.Absent;\n        else\n            revert(\"There must be a request.\");\n\n        request.resolved = true;\n        withdrawFeesAndRewards(request.parties[uint(Party.Requester)], _item, addr.requests.length - 1, 0); // Automatically withdraw for the requester.\n    }\n\n    /** @dev Challenges the latest request of a item. Accepts enough ETH to fund a potential dispute considering the current required amount. Reimburses unused ETH. TRUSTED.\n     *  @param _itemID The ID of the item with the request to challenge.\n     *  @param _evidence A link to an evidence using its URI. Ignored if not provided or if not enough funds were provided to create a dispute.\n     */\n    function challengeRequest(bytes32 _itemID, string calldata _evidence) external payable {\n        Item storage item = items[_itemID];\n        require(\n            item.status == ItemStatus.RegistrationRequested || item.status == ItemStatus.ClearingRequested,\n            \"The item must have a pending request.\"\n        );\n        Request storage request = item.requests[item.requests.length - 1];\n        require(now - request.submissionTime <= challengePeriodDuration, \"Challenges must occur during the challenge period.\");\n        require(!request.disputed, \"The request should not have already been disputed.\");\n\n        // Take the deposit and save the challenger's address.\n        request.parties[uint(Party.Challenger)] = msg.sender;\n\n        Round storage round = request.rounds[request.rounds.length - 1];\n        uint arbitrationCost = request.arbitrator.arbitrationCost(request.arbitratorExtraData);\n        uint totalCost = arbitrationCost.addCap((arbitrationCost.mulCap(sharedStakeMultiplier)) / MULTIPLIER_DIVISOR).addCap(challengerBaseDeposit);\n        contribute(round, Party.Challenger, msg.sender, msg.value, totalCost);\n        require(round.paidFees[uint(Party.Challenger)] >= totalCost, \"You must fully fund your side.\");\n        round.hasPaid[uint(Party.Challenger)] = true;\n\n        // Raise a dispute.\n        request.disputeID = request.arbitrator.createDispute.value(arbitrationCost)(RULING_OPTIONS, request.arbitratorExtraData);\n        arbitratorDisputeIDToItemID[address(request.arbitrator)][request.disputeID] = _itemID;\n        request.disputed = true;\n        request.rounds.length++;\n        round.feeRewards = round.feeRewards.subCap(arbitrationCost);\n\n        if (bytes(_evidence).length > 0)\n            emit Evidence(request.arbitrator, uint(keccak256(abi.encodePacked(_itemID,item.requests.length - 1))), msg.sender, _evidence);\n    }\n\n\n    /** @dev Give a ruling for a dispute. Can only be called by the arbitrator. TRUSTED.\n     *  Overrides parent function to account for the situation where the winner loses a case due to paying less appeal fees than expected.\n     *  @param _disputeID ID of the dispute in the arbitrator contract.\n     *  @param _ruling Ruling given by the arbitrator. Note that 0 is reserved for \"Not able/wanting to make a decision\".\n     */\n    function rule(uint _disputeID, uint _ruling) public {\n        Party winner = Party(_ruling);\n        bytes32 itemID = arbitratorDisputeIDToItemID[msg.sender][_disputeID];\n        Item storage item = items[itemID];\n        Request storage request = item.requests[item.requests.length - 1];\n        Round storage round = request.rounds[request.rounds.length - 1];\n        require(_ruling <= RULING_OPTIONS); // solium-disable-line error-reason\n        require(address(request.arbitrator) == msg.sender); // solium-disable-line error-reason\n        require(!request.resolved); // solium-disable-line error-reason\n\n        // The ruling is inverted if the loser paid its fees.\n        if (round.hasPaid[uint(Party.Requester)] == true) // If one side paid its fees, the ruling is in its favor. Note that if the other side had also paid, an appeal would have been created.\n            winner = Party.Requester;\n        else if (round.hasPaid[uint(Party.Challenger)] == true)\n            winner = Party.Challenger;\n\n        emit Ruling(Arbitrator(msg.sender), _disputeID, uint(winner));\n\n        // Update the item's state\n        if (winner == Party.Requester) { // Execute Request\n            if (item.status == ItemStatus.RegistrationRequested)\n                item.status = ItemStatus.Registered;\n            else\n                item.status = ItemStatus.Absent;\n        } else { // Revert to previous state.\n            if (item.status == ItemStatus.RegistrationRequested)\n                item.status = ItemStatus.Absent;\n            else if (item.status == ItemStatus.ClearingRequested)\n                item.status = ItemStatus.Registered;\n        }\n\n        request.resolved = true;\n        request.ruling = Party(winner);\n        // Automatically withdraw.\n        if (winner == Party.None) {\n            withdrawFeesAndRewards(request.parties[uint(Party.Requester)], itemID, item.requests.length-1, 0);\n            withdrawFeesAndRewards(request.parties[uint(Party.Challenger)], itemID, item.requests.length-1, 0);\n        } else {\n            withdrawFeesAndRewards(request.parties[uint(winner)], itemID, item.requests.length-1, 0);\n        }\n    }\n\n    /** @dev Reimburses contributions if no disputes were raised. If a dispute was raised, sends the fee stake rewards and reimbursements proportional to the contributions made to the winner of a dispute.\n     *  @param _beneficiary The address that made contributions to a request.\n     *  @param _itemID The ID of the item with the request from which to withdraw.\n     *  @param _request The request from which to withdraw.\n     *  @param _round The round from which to withdraw.\n     */\n    function withdrawFeesAndRewards(address payable _beneficiary, bytes32 _itemID, uint _request, uint _round) public {\n        Item storage item = items[_itemID];\n        Request storage request = item.requests[_request];\n        Round storage round = request.rounds[_round];\n        // The request must be executed and there can be no disputes pending resolution.\n        require(request.resolved); // solium-disable-line error-reason\n\n        uint reward;\n        if (!request.disputed || request.ruling == Party.None) {\n            // No disputes were raised, or there isn't a winner and loser. Reimburse unspent fees proportionally.\n            uint rewardRequester = round.paidFees[uint(Party.Requester)] > 0\n                ? (round.contributions[_beneficiary][uint(Party.Requester)] * round.feeRewards) / (round.paidFees[uint(Party.Challenger)] + round.paidFees[uint(Party.Requester)])\n                : 0;\n            uint rewardChallenger = round.paidFees[uint(Party.Challenger)] > 0\n                ? (round.contributions[_beneficiary][uint(Party.Challenger)] * round.feeRewards) / (round.paidFees[uint(Party.Challenger)] + round.paidFees[uint(Party.Requester)])\n                : 0;\n\n            reward = rewardRequester + rewardChallenger;\n            round.contributions[_beneficiary][uint(Party.Requester)] = 0;\n            round.contributions[_beneficiary][uint(Party.Challenger)] = 0;\n        } else {\n            // Reward the winner.\n            reward = round.paidFees[uint(request.ruling)] > 0\n                ? (round.contributions[_beneficiary][uint(request.ruling)] * round.feeRewards) / round.paidFees[uint(request.ruling)]\n                : 0;\n\n            round.contributions[_beneficiary][uint(request.ruling)] = 0;\n        }\n\n        _beneficiary.send(reward); // It is the user responsibility to accept ETH.\n    }\n\n\n    /* Internal */\n\n    /** @dev Returns the contribution value and remainder from available ETH and required amount.\n     *  @param _available The amount of ETH available for the contribution.\n     *  @param _requiredAmount The amount of ETH required for the contribution.\n     *  @return taken The amount of ETH taken.\n     *  @return remainder The amount of ETH left from the contribution.\n     */\n    function calculateContribution(uint _available, uint _requiredAmount)\n        internal\n        pure\n        returns(uint taken, uint remainder)\n    {\n        if (_requiredAmount > _available)\n            return (_available, 0); // Take whatever is available, return 0 as leftover ETH.\n\n        remainder = _available - _requiredAmount;\n        return (_requiredAmount, remainder);\n    }\n\n    /** @dev Make a fee contribution.\n     *  @param _round The round to contribute.\n     *  @param _side The side for which to contribute.\n     *  @param _contributor The contributor.\n     *  @param _amount The amount contributed.\n     *  @param _totalRequired The total amount required for this side.\n     */\n    function contribute(Round storage _round, Party _side, address payable _contributor, uint _amount, uint _totalRequired) internal {\n        // Take up to the amount necessary to fund the current round at the current costs.\n        uint contribution; // Amount contributed.\n        uint remainingETH; // Remaining ETH to send back.\n        (contribution, remainingETH) = calculateContribution(_amount, _totalRequired.subCap(_round.paidFees[uint(_side)]));\n        _round.contributions[_contributor][uint(_side)] += contribution;\n        _round.paidFees[uint(_side)] += contribution;\n        _round.feeRewards += contribution;\n\n        // Reimburse leftover ETH.\n        _contributor.send(remainingETH); // Deliberate use of send in order to not block the contract in case of reverting fallback.\n    }\n\n    /* Views */\n\n    /** @dev Return true if the item is on the list.\n     *  @param _itemID The ID of the item to be queried.\n     *  @return allowed True if the item is allowed, false otherwise.\n     */\n    function isPermitted(bytes32 _itemID) external view returns (bool allowed) {\n        Item storage item = items[_itemID];\n        return item.status == ItemStatus.Registered || item.status == ItemStatus.ClearingRequested;\n    }\n\n    function itemCount() external view returns (uint) {\n        return itemIDs.length;\n    }\n\n    function getItem(bytes32 _itemID) external view returns (QueryResult memory result) {\n        Item storage item = items[_itemID];\n        Request storage request = item.requests[item.requests.length - 1];\n        Round storage round = request.rounds[request.rounds.length - 1];\n\n        result = QueryResult({\n            ID: _itemID,\n            data: item.data,\n            status: item.status,\n            disputed: request.disputed,\n            resolved: request.resolved,\n            disputeID: request.disputeID,\n            requester: request.parties[uint(Party.Requester)],\n            challenger: request.parties[uint(Party.Challenger)],\n            appealStart: 0,\n            appealEnd: 0,\n            arbitrator: address(request.arbitrator),\n            arbitratorExtraData: request.arbitratorExtraData,\n            submissionTime: request.submissionTime,\n            hasPaid: [false,false,false],\n            paidFees: [uint(0), uint(0), uint(0)],\n            currentRuling: 0,\n            feeRewards: 0,\n            disputeStatus: Arbitrator.DisputeStatus.Waiting\n        });\n        if (request.disputed && request.arbitrator.disputeStatus(request.disputeID) == Arbitrator.DisputeStatus.Appealable) {\n            result.currentRuling = request.arbitrator.currentRuling(request.disputeID);\n            result.disputeStatus = request.arbitrator.disputeStatus(request.disputeID);\n            (result.appealStart, result.appealEnd) = request.arbitrator.appealPeriod(request.disputeID);\n\n            result.feeRewards = round.feeRewards;\n            result.hasPaid = round.hasPaid;\n            result.paidFees = round.paidFees;\n        }\n    }\n\n    /** @dev Find an item by matching column values.\n     *  @param _rlpEncodedMatch The RLP encoded item to match against the items on the list.\n     *  @param _cursor The index from where to start looking for matches.\n     *  @param _returnCount The size of the array to return with matching values.\n     *  @param _count The number of items to iterate while searching.\n     *  @return An array with items that match the query.\n     */\n    function findItem(bytes memory _rlpEncodedMatch, uint _cursor, uint _returnCount, uint _count) public view returns (bytes[] memory) {\n        RLPReader.RLPItem[] memory matchItem = _rlpEncodedMatch.toRlpItem().toList();\n        bytes[] memory results = new bytes[](_count);\n        uint itemsFound;\n\n        for(uint i = _cursor; i < (_count == 0 ? itemIDs.length : _count); i++) { // Iterate over every item in storage.\n            bytes storage itemBytes = items[itemIDs[i]].data;\n            RLPReader.RLPItem[] memory item = itemBytes.toRlpItem().toList();\n            for (uint j = 0; j < matchItem.length; j++) { // Iterate over every column.\n                if (item[j].toBytes().equal(matchItem[j].toBytes())) {\n                    results[itemsFound] = itemBytes;\n                    itemsFound++;\n                    break;\n                }\n            }\n        }\n        return results;\n    }\n\n    /** @dev Return the values of the items the query finds. This function is O(n), where n is the number of items. This could exceed the gas limit, therefore this function should only be used for interface display and not by other contracts.\n     *  @param _cursor The ID of the items from which to start iterating. To start from either the oldest or newest item.\n     *  @param _count The number of items to return.\n     *  @param _filter The filter to use. Each element of the array in sequence means:\n     *  - Include absent items in result.\n     *  - Include registered items in result.\n     *  - Include items with registration requests that are not disputed in result.\n     *  - Include items with clearing requests that are not disputed in result.\n     *  - Include disputed items with registration requests in result.\n     *  - Include disputed items with clearing requests in result.\n     *  - Include items submitted by _party.\n     *  - Include items challenged by _party.\n     *  @param _oldestFirst Whether to sort from oldest to the newest item.\n     *  @param _party The address to use if checking for items submitted or challenged by a specific party.\n     *  @return The values of the tokens found and whether there are more tokens for the current filter and sort.\n     */\n    function queryItems(bytes32 _cursor, uint _count, bool[8] calldata _filter, bool _oldestFirst, address _party)\n        external\n        view\n        returns (QueryResult[] memory results, bool hasMore)\n    {\n        uint cursorIndex;\n        results = new QueryResult[](_count);\n\n        uint index = 0;\n\n        if (_cursor == 0)\n            cursorIndex = 0;\n        else {\n            for (uint j = 0; j < itemIDs.length; j++) {\n                if (itemIDs[j] == _cursor) {\n                    cursorIndex = j;\n                    break;\n                }\n            }\n            require(cursorIndex != 0, \"The cursor is invalid.\");\n        }\n\n        for (\n                uint i = cursorIndex == 0 ? (_oldestFirst ? 0 : 1) : (_oldestFirst ? cursorIndex + 1 : itemIDs.length - cursorIndex + 1);\n                _oldestFirst ? i < itemIDs.length : i <= itemIDs.length;\n                i++\n            ) { // Oldest or newest first.\n            bytes32 itemID = itemIDs[_oldestFirst ? i : itemIDs.length - i];\n            Item storage item = items[itemID];\n            Request storage request = item.requests[item.requests.length - 1];\n            if (\n                /* solium-disable operator-whitespace */\n                (_filter[0] && item.status == ItemStatus.Absent) ||\n                (_filter[1] && item.status == ItemStatus.Registered) ||\n                (_filter[2] && item.status == ItemStatus.RegistrationRequested && !request.disputed) ||\n                (_filter[3] && item.status == ItemStatus.ClearingRequested && !request.disputed) ||\n                (_filter[4] && item.status == ItemStatus.RegistrationRequested && request.disputed) ||\n                (_filter[5] && item.status == ItemStatus.ClearingRequested && request.disputed) ||\n                (_filter[6] && request.parties[uint(Party.Requester)] == _party) ||\n                (_filter[7] && request.parties[uint(Party.Challenger)] == _party)\n                /* solium-enable operator-whitespace */\n            ) {\n                if (index < _count) {\n                    QueryResult memory result = QueryResult({\n                        ID: itemIDs[_oldestFirst ? i : itemIDs.length - i],\n                        data: item.data,\n                        status: item.status,\n                        disputed: request.disputed,\n                        resolved: request.resolved,\n                        disputeID: request.disputeID,\n                        requester: request.parties[uint(Party.Requester)],\n                        challenger: request.parties[uint(Party.Challenger)],\n                        appealStart: 0,\n                        appealEnd: 0,\n                        arbitrator: address(request.arbitrator),\n                        arbitratorExtraData: request.arbitratorExtraData,\n                        submissionTime: request.submissionTime,\n                        hasPaid: [false,false,false],\n                        paidFees: [uint(0), uint(0), uint(0)],\n                        currentRuling: 0,\n                        feeRewards: 0,\n                        disputeStatus: Arbitrator.DisputeStatus.Waiting\n                    });\n                    if (request.disputed && request.arbitrator.disputeStatus(request.disputeID) == Arbitrator.DisputeStatus.Appealable) {\n                        result.currentRuling = request.arbitrator.currentRuling(request.disputeID);\n                        result.disputeStatus = request.arbitrator.disputeStatus(request.disputeID);\n                        (result.appealStart, result.appealEnd) = request.arbitrator.appealPeriod(request.disputeID);\n\n                        Round storage round = request.rounds[request.rounds.length - 1];\n                        result.feeRewards = round.feeRewards;\n                        result.hasPaid = round.hasPaid;\n                        result.paidFees = round.paidFees;\n                    }\n                    results[index] = result;\n                    index++;\n                } else {\n                    hasMore = true;\n                    break;\n                }\n            }\n        }\n    }\n\n}\n",
  "sourcePath": "/home/betelgiuse/Documents/visus/kleros/repos/gtcr/contracts/GTCRMock.sol",
  "compiler": {
    "name": "solc",
    "version": "0.5.11+commit.c082d0b4.Emscripten.clang"
  },
  "schemaVersion": "3.0.11",
  "updatedAt": "2019-08-16T21:31:24.086Z",
  "devdoc": {
    "methods": {
      "challengeRequest(bytes32,string)": {
        "details": "Challenges the latest request of a item. Accepts enough ETH to fund a potential dispute considering the current required amount. Reimburses unused ETH. TRUSTED.",
        "params": {
          "_evidence": "A link to an evidence using its URI. Ignored if not provided or if not enough funds were provided to create a dispute.",
          "_itemID": "The ID of the item with the request to challenge."
        }
      },
      "executeRequest(bytes32)": {
        "details": "Executes a request if the challenge period passed and no one challenged the request.",
        "params": {
          "_item": "The item with the request to execute."
        }
      },
      "findItem(bytes,uint256,uint256,uint256)": {
        "details": "Find an item by matching column values.",
        "params": {
          "_count": "The number of items to iterate while searching.",
          "_cursor": "The index from where to start looking for matches.",
          "_returnCount": "The size of the array to return with matching values.",
          "_rlpEncodedMatch": "The RLP encoded item to match against the items on the list."
        },
        "return": "An array with items that match the query."
      },
      "isPermitted(bytes32)": {
        "details": "Return true if the item is on the list.",
        "params": {
          "_itemID": "The ID of the item to be queried."
        },
        "return": "allowed True if the item is allowed, false otherwise."
      },
      "queryItems(bytes32,uint256,bool[8],bool,address)": {
        "details": "Return the values of the items the query finds. This function is O(n), where n is the number of items. This could exceed the gas limit, therefore this function should only be used for interface display and not by other contracts.",
        "params": {
          "_count": "The number of items to return.",
          "_cursor": "The ID of the items from which to start iterating. To start from either the oldest or newest item.",
          "_filter": "The filter to use. Each element of the array in sequence means: - Include absent items in result. - Include registered items in result. - Include items with registration requests that are not disputed in result. - Include items with clearing requests that are not disputed in result. - Include disputed items with registration requests in result. - Include disputed items with clearing requests in result. - Include items submitted by _party. - Include items challenged by _party.",
          "_oldestFirst": "Whether to sort from oldest to the newest item.",
          "_party": "The address to use if checking for items submitted or challenged by a specific party."
        },
        "return": "The values of the tokens found and whether there are more tokens for the current filter and sort."
      },
      "rule(uint256,uint256)": {
        "details": "Give a ruling for a dispute. Can only be called by the arbitrator. TRUSTED. Overrides parent function to account for the situation where the winner loses a case due to paying less appeal fees than expected.",
        "params": {
          "_disputeID": "ID of the dispute in the arbitrator contract.",
          "_ruling": "Ruling given by the arbitrator. Note that 0 is reserved for \"Not able/wanting to make a decision\"."
        }
      },
      "withdrawFeesAndRewards(address,bytes32,uint256,uint256)": {
        "details": "Reimburses contributions if no disputes were raised. If a dispute was raised, sends the fee stake rewards and reimbursements proportional to the contributions made to the winner of a dispute.",
        "params": {
          "_beneficiary": "The address that made contributions to a request.",
          "_itemID": "The ID of the item with the request from which to withdraw.",
          "_request": "The request from which to withdraw.",
          "_round": "The round from which to withdraw."
        }
      }
    }
  },
  "userdoc": {
    "methods": {}
  }
}