{
  "contractName": "GTCRMock",
  "abi": [
    {
      "constant": true,
      "inputs": [],
      "name": "challengePeriodDuration",
      "outputs": [
        {
          "name": "",
          "type": "uint256"
        }
      ],
      "payable": false,
      "stateMutability": "view",
      "type": "function"
    },
    {
      "constant": true,
      "inputs": [],
      "name": "governor",
      "outputs": [
        {
          "name": "",
          "type": "address"
        }
      ],
      "payable": false,
      "stateMutability": "view",
      "type": "function"
    },
    {
      "constant": true,
      "inputs": [],
      "name": "arbitratorExtraData",
      "outputs": [
        {
          "name": "",
          "type": "bytes"
        }
      ],
      "payable": false,
      "stateMutability": "view",
      "type": "function"
    },
    {
      "constant": true,
      "inputs": [],
      "name": "loserStakeMultiplier",
      "outputs": [
        {
          "name": "",
          "type": "uint256"
        }
      ],
      "payable": false,
      "stateMutability": "view",
      "type": "function"
    },
    {
      "constant": true,
      "inputs": [],
      "name": "challengerBaseDeposit",
      "outputs": [
        {
          "name": "",
          "type": "uint256"
        }
      ],
      "payable": false,
      "stateMutability": "view",
      "type": "function"
    },
    {
      "constant": true,
      "inputs": [],
      "name": "sharedStakeMultiplier",
      "outputs": [
        {
          "name": "",
          "type": "uint256"
        }
      ],
      "payable": false,
      "stateMutability": "view",
      "type": "function"
    },
    {
      "constant": true,
      "inputs": [
        {
          "name": "",
          "type": "bytes32"
        }
      ],
      "name": "items",
      "outputs": [
        {
          "name": "data",
          "type": "bytes"
        },
        {
          "name": "status",
          "type": "uint8"
        }
      ],
      "payable": false,
      "stateMutability": "view",
      "type": "function"
    },
    {
      "constant": true,
      "inputs": [],
      "name": "arbitrator",
      "outputs": [
        {
          "name": "",
          "type": "address"
        }
      ],
      "payable": false,
      "stateMutability": "view",
      "type": "function"
    },
    {
      "constant": true,
      "inputs": [],
      "name": "metaEvidenceUpdates",
      "outputs": [
        {
          "name": "",
          "type": "uint256"
        }
      ],
      "payable": false,
      "stateMutability": "view",
      "type": "function"
    },
    {
      "constant": true,
      "inputs": [],
      "name": "winnerStakeMultiplier",
      "outputs": [
        {
          "name": "",
          "type": "uint256"
        }
      ],
      "payable": false,
      "stateMutability": "view",
      "type": "function"
    },
    {
      "constant": true,
      "inputs": [],
      "name": "requesterBaseDeposit",
      "outputs": [
        {
          "name": "",
          "type": "uint256"
        }
      ],
      "payable": false,
      "stateMutability": "view",
      "type": "function"
    },
    {
      "constant": true,
      "inputs": [
        {
          "name": "",
          "type": "address"
        },
        {
          "name": "",
          "type": "uint256"
        }
      ],
      "name": "arbitratorDisputeIDToItemID",
      "outputs": [
        {
          "name": "",
          "type": "bytes32"
        }
      ],
      "payable": false,
      "stateMutability": "view",
      "type": "function"
    },
    {
      "constant": true,
      "inputs": [
        {
          "name": "",
          "type": "uint256"
        }
      ],
      "name": "itemIDs",
      "outputs": [
        {
          "name": "",
          "type": "bytes32"
        }
      ],
      "payable": false,
      "stateMutability": "view",
      "type": "function"
    },
    {
      "constant": true,
      "inputs": [],
      "name": "MULTIPLIER_DIVISOR",
      "outputs": [
        {
          "name": "",
          "type": "uint256"
        }
      ],
      "payable": false,
      "stateMutability": "view",
      "type": "function"
    },
    {
      "inputs": [
        {
          "name": "_arbitrator",
          "type": "address"
        },
        {
          "name": "_arbitratorExtraData",
          "type": "bytes"
        },
        {
          "name": "_registrationMetaEvidence",
          "type": "string"
        },
        {
          "name": "_clearingMetaEvidence",
          "type": "string"
        },
        {
          "name": "_governor",
          "type": "address"
        },
        {
          "name": "_requesterBaseDeposit",
          "type": "uint256"
        },
        {
          "name": "_challengerBaseDeposit",
          "type": "uint256"
        },
        {
          "name": "_challengePeriodDuration",
          "type": "uint256"
        },
        {
          "name": "_sharedStakeMultiplier",
          "type": "uint256"
        },
        {
          "name": "_winnerStakeMultiplier",
          "type": "uint256"
        },
        {
          "name": "_loserStakeMultiplier",
          "type": "uint256"
        }
      ],
      "payable": false,
      "stateMutability": "nonpayable",
      "type": "constructor"
    },
    {
      "anonymous": false,
      "inputs": [
        {
          "indexed": true,
          "name": "_metaEvidenceID",
          "type": "uint256"
        },
        {
          "indexed": false,
          "name": "_evidence",
          "type": "string"
        }
      ],
      "name": "MetaEvidence",
      "type": "event"
    },
    {
      "anonymous": false,
      "inputs": [
        {
          "indexed": true,
          "name": "_arbitrator",
          "type": "address"
        },
        {
          "indexed": true,
          "name": "_evidenceGroupID",
          "type": "uint256"
        },
        {
          "indexed": true,
          "name": "_party",
          "type": "address"
        },
        {
          "indexed": false,
          "name": "_evidence",
          "type": "string"
        }
      ],
      "name": "Evidence",
      "type": "event"
    },
    {
      "anonymous": false,
      "inputs": [
        {
          "indexed": true,
          "name": "_arbitrator",
          "type": "address"
        },
        {
          "indexed": true,
          "name": "_disputeID",
          "type": "uint256"
        },
        {
          "indexed": false,
          "name": "_ruling",
          "type": "uint256"
        }
      ],
      "name": "Ruling",
      "type": "event"
    },
    {
      "constant": false,
      "inputs": [
        {
          "name": "_item",
          "type": "bytes"
        }
      ],
      "name": "requestStatusChange",
      "outputs": [],
      "payable": true,
      "stateMutability": "payable",
      "type": "function"
    },
    {
      "constant": false,
      "inputs": [
        {
          "name": "_item",
          "type": "bytes32"
        }
      ],
      "name": "executeRequest",
      "outputs": [],
      "payable": false,
      "stateMutability": "nonpayable",
      "type": "function"
    },
    {
      "constant": false,
      "inputs": [
        {
          "name": "_itemID",
          "type": "bytes32"
        },
        {
          "name": "_evidence",
          "type": "string"
        }
      ],
      "name": "challengeRequest",
      "outputs": [],
      "payable": true,
      "stateMutability": "payable",
      "type": "function"
    },
    {
      "constant": false,
      "inputs": [
        {
          "name": "_disputeID",
          "type": "uint256"
        },
        {
          "name": "_ruling",
          "type": "uint256"
        }
      ],
      "name": "rule",
      "outputs": [],
      "payable": false,
      "stateMutability": "nonpayable",
      "type": "function"
    },
    {
      "constant": false,
      "inputs": [
        {
          "name": "_beneficiary",
          "type": "address"
        },
        {
          "name": "_itemID",
          "type": "bytes32"
        },
        {
          "name": "_request",
          "type": "uint256"
        },
        {
          "name": "_round",
          "type": "uint256"
        }
      ],
      "name": "withdrawFeesAndRewards",
      "outputs": [],
      "payable": false,
      "stateMutability": "nonpayable",
      "type": "function"
    },
    {
      "constant": true,
      "inputs": [
        {
          "name": "_itemID",
          "type": "bytes32"
        }
      ],
      "name": "isPermitted",
      "outputs": [
        {
          "name": "allowed",
          "type": "bool"
        }
      ],
      "payable": false,
      "stateMutability": "view",
      "type": "function"
    },
    {
      "constant": true,
      "inputs": [],
      "name": "itemCount",
      "outputs": [
        {
          "name": "",
          "type": "uint256"
        }
      ],
      "payable": false,
      "stateMutability": "view",
      "type": "function"
    },
    {
      "constant": true,
      "inputs": [
        {
          "name": "_itemID",
          "type": "bytes32"
        }
      ],
      "name": "getItem",
      "outputs": [
        {
          "components": [
            {
              "name": "ID",
              "type": "bytes32"
            },
            {
              "name": "data",
              "type": "bytes"
            },
            {
              "name": "status",
              "type": "uint8"
            },
            {
              "name": "disputed",
              "type": "bool"
            },
            {
              "name": "resolved",
              "type": "bool"
            },
            {
              "name": "disputeID",
              "type": "uint256"
            },
            {
              "name": "appealStart",
              "type": "uint256"
            },
            {
              "name": "appealEnd",
              "type": "uint256"
            },
            {
              "name": "requester",
              "type": "address"
            },
            {
              "name": "challenger",
              "type": "address"
            },
            {
              "name": "arbitrator",
              "type": "address"
            },
            {
              "name": "arbitratorExtraData",
              "type": "bytes"
            },
            {
              "name": "currentRuling",
              "type": "uint256"
            },
            {
              "name": "hasPaid",
              "type": "bool[3]"
            },
            {
              "name": "feeRewards",
              "type": "uint256"
            },
            {
              "name": "submissionTime",
              "type": "uint256"
            },
            {
              "name": "paidFees",
              "type": "uint256[3]"
            },
            {
              "name": "disputeStatus",
              "type": "uint8"
            }
          ],
          "name": "result",
          "type": "tuple"
        }
      ],
      "payable": false,
      "stateMutability": "view",
      "type": "function"
    },
    {
      "constant": true,
      "inputs": [
        {
          "name": "_cursor",
          "type": "bytes32"
        },
        {
          "name": "_count",
          "type": "uint256"
        },
        {
          "name": "_filter",
          "type": "bool[8]"
        },
        {
          "name": "_oldestFirst",
          "type": "bool"
        },
        {
          "name": "_party",
          "type": "address"
        }
      ],
      "name": "queryItems",
      "outputs": [
        {
          "components": [
            {
              "name": "ID",
              "type": "bytes32"
            },
            {
              "name": "data",
              "type": "bytes"
            },
            {
              "name": "status",
              "type": "uint8"
            },
            {
              "name": "disputed",
              "type": "bool"
            },
            {
              "name": "resolved",
              "type": "bool"
            },
            {
              "name": "disputeID",
              "type": "uint256"
            },
            {
              "name": "appealStart",
              "type": "uint256"
            },
            {
              "name": "appealEnd",
              "type": "uint256"
            },
            {
              "name": "requester",
              "type": "address"
            },
            {
              "name": "challenger",
              "type": "address"
            },
            {
              "name": "arbitrator",
              "type": "address"
            },
            {
              "name": "arbitratorExtraData",
              "type": "bytes"
            },
            {
              "name": "currentRuling",
              "type": "uint256"
            },
            {
              "name": "hasPaid",
              "type": "bool[3]"
            },
            {
              "name": "feeRewards",
              "type": "uint256"
            },
            {
              "name": "submissionTime",
              "type": "uint256"
            },
            {
              "name": "paidFees",
              "type": "uint256[3]"
            },
            {
              "name": "disputeStatus",
              "type": "uint8"
            }
          ],
          "name": "results",
          "type": "tuple[]"
        },
        {
          "name": "hasMore",
          "type": "bool"
        }
      ],
      "payable": false,
      "stateMutability": "view",
      "type": "function"
    }
  ],
  "bytecode": "0x608060405260026000553480156200001657600080fd5b506040516200396638038062003966833981016040819052620000399162000230565b6000600080516020620039468339815191528a6040516200005b9190620003bd565b60405180910390a260016000805160206200394683398151915289604051620000859190620003bd565b60405180910390a260028054600160a060020a031916600160a060020a038d161790558951620000bd9060039060208d019062000102565b5060018054600160a060020a031916600160a060020a039890981697909717909655600494909455600592909255600655600a5560085560095550620004c692505050565b828054600181600116156101000203166002900490600052602060002090601f016020900481019282601f106200014557805160ff191683800117855562000175565b8280016001018555821562000175579182015b828111156200017557825182559160200191906001019062000158565b506200018392915062000187565b5090565b620001a491905b808211156200018357600081556001016200018e565b90565b8051620001b48162000496565b92915050565b600082601f830112620001cc57600080fd5b8151620001e3620001dd82620003fe565b620003d7565b915080825260208301602083018583830111156200020057600080fd5b6200020d83828462000459565b50505092915050565b8051620001b481620004b0565b8051620001b481620004bb565b60008060008060008060008060008060006101608c8e0312156200025357600080fd5b6000620002618e8e62000216565b9b505060208c01516001604060020a038111156200027e57600080fd5b6200028c8e828f01620001ba565b9a505060408c01516001604060020a03811115620002a957600080fd5b620002b78e828f01620001ba565b99505060608c01516001604060020a03811115620002d457600080fd5b620002e28e828f01620001ba565b9850506080620002f58e828f01620001a7565b97505060a0620003088e828f0162000223565b96505060c06200031b8e828f0162000223565b95505060e06200032e8e828f0162000223565b945050610100620003428e828f0162000223565b935050610120620003568e828f0162000223565b9250506101406200036a8e828f0162000223565b9150509295989b509295989b9093969950565b60006200038a8262000426565b6200039681856200042a565b9350620003a881856020860162000459565b620003b3816200048c565b9093019392505050565b60208082528101620003d081846200037d565b9392505050565b6040518181016001604060020a0381118282101715620003f657600080fd5b604052919050565b60006001604060020a038211156200041557600080fd5b506020601f91909101601f19160190565b5190565b90815260200190565b6000620001b4826200044d565b6000620001b48262000433565b600160a060020a031690565b60005b83811015620004765781810151838201526020016200045c565b8381111562000486576000848401525b50505050565b601f01601f191690565b620004a18162000433565b8114620004ad57600080fd5b50565b620004a18162000440565b620004a181620001a4565b61347080620004d66000396000f3fe60806040526004361061015c576000357c0100000000000000000000000000000000000000000000000000000000900480636cdc090f116100d3578063a836f3071161008c578063a836f3071461033b578063aa0372e71461035b578063b70e6a0f14610388578063beabdb7b146103b6578063d661dd31146103e3578063e9c24166146103f85761015c565b80636cdc090f146102a95780637b943383146102be578063873db1a7146102d35780638c10fef3146102e65780639c81a827146102fb578063a1c2bf4d1461031b5761015c565b8063311a6c5611610125578063311a6c56146101fa578063329cedb41461021a578063416583411461022f57806348f343f3146102445780636bfb0d01146102725780636cc6cde1146102875761015c565b806282a36d146101615780630c340a241461018c5780630c7ac7b6146101ae5780631d512085146101d0578063246d0f3e146101e5575b600080fd5b34801561016d57600080fd5b50610176610418565b60405161018391906131f9565b60405180910390f35b34801561019857600080fd5b506101a161041e565b60405161018391906131bd565b3480156101ba57600080fd5b506101c361042d565b6040516101839190613207565b3480156101dc57600080fd5b506101766104bb565b6101f86101f33660046129bd565b6104c1565b005b34801561020657600080fd5b506101f8610215366004612a3b565b6107ea565b34801561022657600080fd5b50610176610a9a565b34801561023b57600080fd5b50610176610aa0565b34801561025057600080fd5b5061026461025f3660046128d1565b610aa6565b604051610183929190613218565b34801561027e57600080fd5b50610176610b50565b34801561029357600080fd5b5061029c610b57565b6040516101839190613249565b3480156102b557600080fd5b50610176610b66565b3480156102ca57600080fd5b50610176610b6c565b6101f86102e13660046128ef565b610b72565b3480156102f257600080fd5b50610176610f66565b34801561030757600080fd5b50610176610316366004612879565b610f6c565b34801561032757600080fd5b506101f8610336366004612818565b610f89565b34801561034757600080fd5b506101766103563660046128d1565b6111f4565b34801561036757600080fd5b5061037b6103763660046128d1565b611212565b60405161018391906132f9565b34801561039457600080fd5b506103a86103a3366004612945565b6117ea565b6040516101839291906131cb565b3480156103c257600080fd5b506103d66103d13660046128d1565b61214c565b60405161018391906131eb565b3480156103ef57600080fd5b50610176612195565b34801561040457600080fd5b506101f86104133660046128d1565b61219b565b60065481565b600154600160a060020a031681565b6003805460408051602060026001851615610100026000190190941693909304601f810184900484028201840190925281815292918301828280156104b35780601f10610488576101008083540402835291602001916104b3565b820191906000526020600020905b81548152906001019060200180831161049657829003601f168201915b505050505081565b60095481565b600082826040516104d39291906131a8565b60408051918290039091206000818152600c6020529190912060028101549192509061053b57600b80546001810182556000919091527f0175b7a638427703f0dbe7bb9bbf987a2551717b34e79f33b5b1008d1fa01db90182905561053981858561242f565b505b6000600182015460ff16600381111561055057fe5b1415610573576001808201805460029260ff1990911690835b02179055506105c8565b60018082015460ff16600381111561058757fe5b14156105a4576001808201805460039260ff199091169083610569565b60405160e560020a62461bcd0281526004016105bf906132d9565b60405180910390fd5b600281018054600091906105df82600183016124ad565b815481106105e957fe5b60009182526020909120600a909102016005810180543373ffffffffffffffffffffffffffffffffffffffff1990911617905542600280830191909155805460088301805474ffffffffffffffffffffffffffffffffffffffff001916610100600160a060020a0390931683021790556003805493945061067c93600986019391926001821615026000190116046124d9565b5060078101805460009190610694826001830161254e565b8154811061069e57fe5b60009182526020822060088501546040517ff7434ea900000000000000000000000000000000000000000000000000000000815260069093029091019350600160a060020a03610100909104169063f7434ea990610703906009870190600401613238565b60206040518083038186803b15801561071b57600080fd5b505afa15801561072f573d6000803e3d6000fd5b505050506040513d601f19601f820116820180604052506107539190810190612a1d565b9050600061079a60045461078e612710610778600a54876122d890919063ffffffff16565b8161077f57fe5b8691900463ffffffff61230e16565b9063ffffffff61230e16565b90506107aa836001333485612323565b80836001015410156107d15760405160e560020a62461bcd0281526004016105bf90613269565b5050600301805461ff0019166101001790555050505050565b60008160028111156107f857fe5b336000908152600d60209081526040808320878452825280832054808452600c9092528220600281018054949550919390929190600019810190811061083a57fe5b6000918252602082206007600a90920201908101805491935090600019810190811061086257fe5b9060005260206000209060060201905060005486111561088157600080fd5b60088201546101009004600160a060020a0316331461089f57600080fd5b600382015460ff16156108b157600080fd5b600381015460ff610100909104161515600114156108d257600194506108ef565b600381015462010000900460ff161515600114156108ef57600294505b86337f394027a5fa6e098a1191094d1719d6929b9abc535fcc0c8f448d6a4e7562227687600281111561091e57fe5b60405161092b91906131f9565b60405180910390a3600185600281111561094157fe5b1415610995576002600184015460ff16600381111561095c57fe5b1415610977576001838101805460ff19169091179055610990565b6001808401805460009260ff1990911690835b02179055505b6109f3565b6002600184015460ff1660038111156109aa57fe5b14156109c7576001808401805460009260ff19909116908361098a565b6003600184015460ff1660038111156109dc57fe5b14156109f3576001838101805460ff191690911790555b600382018054600160ff199182168117909255600884018054889391921690836002811115610a1e57fe5b02179055506000856002811115610a3157fe5b1415610a7e57610a6b6004830160015b60038110610a4b57fe5b01546002850154600160a060020a03909116908690600019016000610f89565b610a79600483016002610a41565b610a91565b610a9182600401866002811115610a4157fe5b50505050505050565b60055481565b600a5481565b600c6020908152600091825260409182902080548351601f60026000196101006001861615020190931692909204918201849004840281018401909452808452909291839190830182828015610b3d5780601f10610b1257610100808354040283529160200191610b3d565b820191906000526020600020905b815481529060010190602001808311610b2057829003601f168201915b5050506001909301549192505060ff1682565b600b545b90565b600254600160a060020a031681565b60075481565b60085481565b6000838152600c602052604090206002600182015460ff166003811115610b9557fe5b1480610bb357506003600182015460ff166003811115610bb157fe5b145b610bd25760405160e560020a62461bcd0281526004016105bf906132e9565b600281018054600091906000198101908110610bea57fe5b90600052602060002090600a02019050600654816002015442031115610c255760405160e560020a62461bcd0281526004016105bf906132a9565b805460ff1615610c4a5760405160e560020a62461bcd0281526004016105bf90613289565b60068101805473ffffffffffffffffffffffffffffffffffffffff191633179055600781018054600091906000198101908110610c8357fe5b60009182526020822060088501546040517ff7434ea900000000000000000000000000000000000000000000000000000000815260069093029091019350600160a060020a03610100909104169063f7434ea990610ce8906009870190600401613238565b60206040518083038186803b158015610d0057600080fd5b505afa158015610d14573d6000803e3d6000fd5b505050506040513d601f19601f82011682018060405250610d389190810190612a1d565b90506000610d5d60055461078e612710610778600a54876122d890919063ffffffff16565b9050610d6d836002333485612323565b8083600201541015610d945760405160e560020a62461bcd0281526004016105bf90613269565b6003830180546201000062ff00001990911617905560088401546000546040517fc13517e1000000000000000000000000000000000000000000000000000000008152610100909204600160a060020a03169163c13517e1918591610e01919060098a019060040161330a565b6020604051808303818588803b158015610e1a57600080fd5b505af1158015610e2e573d6000803e3d6000fd5b50505050506040513d601f19601f82011682018060405250610e539190810190612a1d565b600185810182905560088601546101009004600160a060020a03166000908152600d6020908152604080832094835293905291909120899055845460ff19168117855560078501805491610ea99190830161254e565b506004830154610ebf908363ffffffff6123ef16565b60048401558515610f5c5760028501546040513391610ee7918b916000190190602001613182565b60405160208183030381529060405280519060200120600190048560080160019054906101000a9004600160a060020a0316600160a060020a03167fdccf2f8b2cc26eafcd61905cba744cff4b81d14740725f6376390dc6298a6a3c8a8a604051610f53929190613257565b60405180910390a45b5050505050505050565b60045481565b600d60209081526000928352604080842090915290825290205481565b6000838152600c6020526040812060028101805491929185908110610faa57fe5b90600052602060002090600a020190506000816007018481548110610fcb57fe5b600091825260209091206003840154600690920201915060ff16610fee57600080fd5b815460009060ff16158061101457506000600884015460ff16600281111561101257fe5b145b156110ed5760008083600101541161102d576000611069565b826001015483600201546004850154600160a060020a038c1660009081526005870160205260409020929091019160010154028161106757fe5b045b905060008084600201541161107f5760006110bb565b836001015484600201546004860154600160a060020a038d166000908152600588016020526040902092909101916002015402816110b957fe5b045b600160a060020a038b166000908152600586016020526040812060018101829055600201559190910191506111c59050565b6008830154600090839060ff16600281111561110557fe5b6003811061110f57fe5b01541161111d576000611186565b6008830154829060ff16600281111561113257fe5b6003811061113c57fe5b01546004830154600160a060020a038a1660009081526005850160205260409020600886015460ff16600281111561117057fe5b6003811061117a57fe5b0154028161118457fe5b045b600160a060020a038916600090815260058401602052604081206008860154929350909160ff1660028111156111b857fe5b600381106111c257fe5b01555b604051600160a060020a0389169082156108fc029083906000818181858888f150505050505050505050505050565b600b818154811061120157fe5b600091825260209091200154905081565b61121a61257a565b6000828152600c60205260408120600281018054919291600019810190811061123f57fe5b6000918252602082206007600a90920201908101805491935090600019810190811061126757fe5b6000918252602091829020604080516102408101825289815287548251601f600260001961010060018616150201909316929092049182018790048702810187019093528083526006909402909201945090928381019287918301828280156113115780601f106112e657610100808354040283529160200191611311565b820191906000526020600020905b8154815290600101906020018083116112f457829003601f168201915b5050509183525050600185015460209091019060ff16600381111561133257fe5b8152835460ff9081161515602083015260038501541615156040820152600180850154606083015260006080830181905260a083015260c090910190600485010154600160a060020a031681526020016004840160020154600160a060020a03908116825260088501546101009081900490911660208084019190915260098601805460408051600260018416159096026000190190921694909404601f8101849004840282018401855280825293909401939290918301828280156114395780601f1061140e57610100808354040283529160200191611439565b820191906000526020600020905b81548152906001019060200180831161141c57829003601f168201915b5050509183525050600060208083018290526040805160608082018352848252818401859052818301859052828601919091528085018490526002880154608086015281519081018252838152918201839052810182905260a083015260c090910152825490945060ff168015611546575060016008830154600184015460405160e360020a63021e2d3d028152610100909204600160a060020a0316916310f169e8916114e9916004016131f9565b60206040518083038186803b15801561150157600080fd5b505afa158015611515573d6000803e3d6000fd5b505050506040513d601f19601f8201168201806040525061153991908101906129ff565b600281111561154457fe5b145b156117e257600882015460018301546040517f1c3db16d000000000000000000000000000000000000000000000000000000008152610100909204600160a060020a031691631c3db16d9161159d916004016131f9565b60206040518083038186803b1580156115b557600080fd5b505afa1580156115c9573d6000803e3d6000fd5b505050506040513d601f19601f820116820180604052506115ed9190810190612a1d565b6101808501526008820154600183015460405160e360020a63021e2d3d028152610100909204600160a060020a0316916310f169e89161162f916004016131f9565b60206040518083038186803b15801561164757600080fd5b505afa15801561165b573d6000803e3d6000fd5b505050506040513d601f19601f8201168201806040525061167f91908101906129ff565b846102200190600281111561169057fe5b9081600281111561169d57fe5b905250600882015460018301546040517fafe15cfb000000000000000000000000000000000000000000000000000000008152610100909204600160a060020a03169163afe15cfb916116f2916004016131f9565b604080518083038186803b15801561170957600080fd5b505afa15801561171d573d6000803e3d6000fd5b505050506040513d601f19601f820116820180604052506117419190810190612a5a565b60e086015260c085015260048101546101c085015260408051606081019182905290600380840191826000855b825461010083900a900460ff16151581526020600192830181810494850194909303909202910180841161176e5750505050506101a08601919091525060408051606081019182905290829060039082845b8154815260200190600101908083116117c05750505050508461020001819052505b505050919050565b60606000808660405190808252806020026020018201604052801561182957816020015b61181661257a565b81526020019060019003908161180e5790505b50925060008861183c5760009150611899565b60005b600b548110156118785789600b828154811061185757fe5b9060005260206000200154141561187057809250611878565b60010161183f565b50816118995760405160e560020a62461bcd0281526004016105bf906132c9565b600082156118be57866118b457600b548390036001016118b9565b826001015b6118d1565b866118ca5760016118cd565b60005b60ff165b90505b866118e457600b548111156118ea565b600b5481105b1561213f576000600b8861190357600b54839003611905565b825b8154811061190f57fe5b6000918252602080832090910154808352600c90915260408220600281018054929450909291600019810190811061194357fe5b6000918252602091829020600a91909102019150611963908c018c6128b3565b801561198157506000600183015460ff16600381111561197f57fe5b145b806119b4575061199760408c0160208d016128b3565b80156119b4575060018083015460ff1660038111156119b257fe5b145b806119f657506119ca60608c0160408d016128b3565b80156119e857506002600183015460ff1660038111156119e657fe5b145b80156119f65750805460ff16155b80611a385750611a0c60808c0160608d016128b3565b8015611a2a57506003600183015460ff166003811115611a2857fe5b145b8015611a385750805460ff16155b80611a795750611a4e60a08c0160808d016128b3565b8015611a6c57506002600183015460ff166003811115611a6a57fe5b145b8015611a795750805460ff165b80611aba5750611a8f60c08c0160a08d016128b3565b8015611aad57506003600183015460ff166003811115611aab57fe5b145b8015611aba5750805460ff165b80611af45750611ad060e08c0160c08d016128b3565b8015611af45750600160a060020a0389166004820160010154600160a060020a0316145b80611b2f5750611b0b6101008c0160e08d016128b3565b8015611b2f5750600160a060020a0389166004820160020154600160a060020a0316145b15612134578b85101561212857611b4461257a565b604051806102400160405280600b8d611b6257600b54889003611b64565b875b81548110611b6e57fe5b600091825260209182902001548252855460408051601f600260001961010060018716150201909416939093049283018490048402810184019091528181529282019291879190830182828015611c065780601f10611bdb57610100808354040283529160200191611c06565b820191906000526020600020905b815481529060010190602001808311611be957829003601f168201915b5050509183525050600185015460209091019060ff166003811115611c2757fe5b8152835460ff9081161515602083015260038501541615156040820152600180850154606083015260006080830181905260a083015260c090910190600485010154600160a060020a031681526020016004840160020154600160a060020a03908116825260088501546101009081900490911660208084019190915260098601805460408051600260018416159096026000190190921694909404601f810184900484028201840185528082529390940193929091830182828015611d2e5780601f10611d0357610100808354040283529160200191611d2e565b820191906000526020600020905b815481529060010190602001808311611d1157829003601f168201915b5050509183525050600060208083018290526040805160608082018352848252818401859052818301859052828601919091528085018490526002880154608086015281519081018252838152918201839052810182905260a083015260c090910152825490915060ff168015611e3b575060016008830154600184015460405160e360020a63021e2d3d028152610100909204600160a060020a0316916310f169e891611dde916004016131f9565b60206040518083038186803b158015611df657600080fd5b505afa158015611e0a573d6000803e3d6000fd5b505050506040513d601f19601f82011682018060405250611e2e91908101906129ff565b6002811115611e3957fe5b145b1561210457600882015460018301546040517f1c3db16d000000000000000000000000000000000000000000000000000000008152610100909204600160a060020a031691631c3db16d91611e92916004016131f9565b60206040518083038186803b158015611eaa57600080fd5b505afa158015611ebe573d6000803e3d6000fd5b505050506040513d601f19601f82011682018060405250611ee29190810190612a1d565b6101808201526008820154600183015460405160e360020a63021e2d3d028152610100909204600160a060020a0316916310f169e891611f24916004016131f9565b60206040518083038186803b158015611f3c57600080fd5b505afa158015611f50573d6000803e3d6000fd5b505050506040513d601f19601f82011682018060405250611f7491908101906129ff565b8161022001906002811115611f8557fe5b90816002811115611f9257fe5b905250600882015460018301546040517fafe15cfb000000000000000000000000000000000000000000000000000000008152610100909204600160a060020a03169163afe15cfb91611fe7916004016131f9565b604080518083038186803b158015611ffe57600080fd5b505afa158015612012573d6000803e3d6000fd5b505050506040513d601f19601f820116820180604052506120369190810190612a5a565b60e083015260c082015260078201805460009190600019810190811061205857fe5b60009182526020822060069091020160048101546101c0850152604080516060810191829052919350909160038085019290918390855b825461010083900a900460ff16151581526020600192830181810494850194909303909202910180841161208f5750505050506101a08401919091525060408051606081019182905290829060039082845b8154815260200190600101908083116120e1575050505050826102000181905250505b8089878151811061211157fe5b602090810291909101015250600190940193612134565b6001965050505061213f565b5050506001016118d4565b5050509550959350505050565b6000818152600c6020526040812060018082015460ff16600381111561216e57fe5b148061218c57506003600182015460ff16600381111561218a57fe5b145b9150505b919050565b61271081565b6000818152600c6020526040812060028101805491929160001981019081106121c057fe5b90600052602060002090600a0201905060065481600201544203116121fa5760405160e560020a62461bcd0281526004016105bf90613299565b805460ff161561221f5760405160e560020a62461bcd0281526004016105bf90613279565b6002600183015460ff16600381111561223457fe5b1415612252576001828101805460ff191682805b021790555061229f565b6003600183015460ff16600381111561226757fe5b1415612284576001808301805460009260ff199091169083612248565b60405160e560020a62461bcd0281526004016105bf906132b9565b60038101805460ff19166001179055600581015460028301546122d391600160a060020a0316908590600019016000610f89565b505050565b6000826122e757506000612308565b828202828482816122f457fe5b041461230257600019612304565b805b9150505b92915050565b60008282018381101561230257600019612304565b600080612358846123538989600281111561233a57fe5b6003811061234457fe5b0154869063ffffffff6123ef16565b61240a565b600160a060020a038716600090815260058a01602052604090209193509150829087600281111561238557fe5b6003811061238f57fe5b018054909101905581878760028111156123a557fe5b600381106123af57fe5b018054909101905560048701805483019055604051600160a060020a0386169082156108fc029083906000818181858888f1505050505050505050505050565b60008282111561240157506000612308565b50808203612308565b6000808383111561242057508290506000612428565b508190508083035b9250929050565b828054600181600116156101000203166002900490600052602060002090601f016020900481019282601f106124705782800160ff1982351617855561249d565b8280016001018555821561249d579182015b8281111561249d578235825591602001919060010190612482565b506124a9929150612613565b5090565b8154818355818111156122d357600a0281600a0283600052602060002091820191016122d3919061262d565b828054600181600116156101000203166002900490600052602060002090601f016020900481019282601f10612512578054855561249d565b8280016001018555821561249d57600052602060002091601f016020900482015b8281111561249d578254825591600101919060010190612533565b8154818355818111156122d3576006028160060283600052602060002091820191016122d391906126b3565b604080516102c081018252600080825260606020830152909182019081526000602082018190526040820181905260608083018290526080830182905260a0830182905260c0830182905260e083018290526101008301829052610120830152610140820152610160016125ec6126eb565b815260200160008152602001600081526020016126076126eb565b81526020016000905290565b610b5491905b808211156124a95760008155600101612619565b610b5491905b808211156124a957805460ff1990811682556000600183018190556002830181905560038301805490921690915561266e6004830182612709565b61267c60078301600061271e565b60088201805474ffffffffffffffffffffffffffffffffffffffffff191690556126aa600983016000612742565b50600a01612633565b610b5491905b808211156124a95760006126cd8282612709565b6126db600383016000612786565b50600060048201556006016126b9565b60405180606001604052806003906020820280388339509192915050565b50600081556001016000815560010160009055565b508054600082556006029060005260206000209081019061273f91906126b3565b50565b50805460018160011615610100020316600290046000825580601f10612768575061273f565b601f01602090049060005260206000209081019061273f9190612613565b5060009055565b8035612308816133fa565b80610100810183101561230857600080fd5b80356123088161340e565b803561230881613417565b60008083601f8401126127d257600080fd5b50813567ffffffffffffffff8111156127ea57600080fd5b60208301915083600182028301111561242857600080fd5b805161230881613420565b805161230881613417565b6000806000806080858703121561282e57600080fd5b600061283a878761278d565b945050602061284b878288016127b5565b935050604061285c878288016127b5565b925050606061286d878288016127b5565b91505092959194509250565b6000806040838503121561288c57600080fd5b6000612898858561278d565b92505060206128a9858286016127b5565b9150509250929050565b6000602082840312156128c557600080fd5b600061230484846127aa565b6000602082840312156128e357600080fd5b600061230484846127b5565b60008060006040848603121561290457600080fd5b600061291086866127b5565b935050602084013567ffffffffffffffff81111561292d57600080fd5b612939868287016127c0565b92509250509250925092565b6000806000806000610180868803121561295e57600080fd5b600061296a88886127b5565b955050602061297b888289016127b5565b945050604061298c88828901612798565b93505061014061299e888289016127aa565b9250506101606129b08882890161278d565b9150509295509295909350565b600080602083850312156129d057600080fd5b823567ffffffffffffffff8111156129e757600080fd5b6129f3858286016127c0565b92509250509250929050565b600060208284031215612a1157600080fd5b60006123048484612802565b600060208284031215612a2f57600080fd5b6000612304848461280d565b60008060408385031215612a4e57600080fd5b600061289885856127b5565b60008060408385031215612a6d57600080fd5b6000612a79858561280d565b92505060206128a98582860161280d565b6000612a968383612bda565b505060200190565b6000612aaa8383613000565b9392505050565b6000612a968383612be3565b612ac68161334f565b82525050565b612ad58161333c565b612adf8184612190565b9250612aea82610b54565b8060005b83811015612b18578151612b028782612a8a565b9650612b0d8361332a565b925050600101612aee565b505050505050565b6000612b2b82613342565b612b358185613346565b935083602082028501612b478561332a565b8060005b85811015612b815784840389528151612b648582612a9e565b9450612b6f8361332a565b60209a909a0199925050600101612b4b565b5091979650505050505050565b612b978161333c565b612ba18184612190565b9250612bac82610b54565b8060005b83811015612b18578151612bc48782612ab1565b9650612bcf8361332a565b925050600101612bb0565b612ac68161335a565b612ac681610b54565b612ac6612bf882610b54565b610b54565b6000612c098385612190565b9350612c168385846133a0565b50500190565b6000612c2782613342565b612c318185613346565b9350612c418185602086016133ac565b612c4a816133dc565b9093019392505050565b600081546001811660008114612c715760018114612c9757612cd6565b607f6002830416612c828187613346565b60ff1984168152955050602085019250612cd6565b60028204612ca58187613346565b9550612cb085613330565b60005b82811015612ccf57815488820152600190910190602001612cb3565b8701945050505b505092915050565b612ac68161337f565b612ac68161338a565b612ac681613395565b6000612d058385613346565b9350612d128385846133a0565b612c4a836133dc565b6000612d28601e83613346565b7f596f75206d7573742066756c6c792066756e6420796f757220736964652e0000815260200192915050565b6000612d61602383613346565b7f54686520726571756573742073686f756c64206e6f742062652064697370757481527f65642e0000000000000000000000000000000000000000000000000000000000602082015260400192915050565b6000612dc0603283613346565b7f54686520726571756573742073686f756c64206e6f74206861766520616c726581527f616479206265656e2064697370757465642e0000000000000000000000000000602082015260400192915050565b6000612e1f602f83613346565b7f54696d6520746f206368616c6c656e6765207468652072657175657374206d7581527f73742068617665207061737365642e0000000000000000000000000000000000602082015260400192915050565b6000612e7e603283613346565b7f4368616c6c656e676573206d757374206f6363757220647572696e672074686581527f206368616c6c656e676520706572696f642e0000000000000000000000000000602082015260400192915050565b6000612edd601883613346565b7f5468657265206d757374206265206120726571756573742e0000000000000000815260200192915050565b6000612f16601683613346565b7f54686520637572736f7220697320696e76616c69642e00000000000000000000815260200192915050565b6000612f4f602383613346565b7f4974656d20616c72656164792068617320612070656e64696e6720726571756581527f73742e0000000000000000000000000000000000000000000000000000000000602082015260400192915050565b6000612fae602583613346565b7f546865206974656d206d757374206861766520612070656e64696e672072657181527f756573742e000000000000000000000000000000000000000000000000000000602082015260400192915050565b80516000906102c08401906130158582612be3565b506020830151848203602086015261302d8282612c1c565b91505060408301516130426040860182612cf0565b5060608301516130556060860182612bda565b5060808301516130686080860182612bda565b5060a083015161307b60a0860182612be3565b5060c083015161308e60c0860182612be3565b5060e08301516130a160e0860182612be3565b506101008301516130b6610100860182612abd565b506101208301516130cb610120860182612abd565b506101408301516130e0610140860182612abd565b506101608301518482036101608601526130fa8282612c1c565b915050610180830151613111610180860182612be3565b506101a08301516131266101a0860182612acc565b506101c083015161313b610200860182612be3565b506101e0830151613150610220860182612be3565b50610200830151613165610240860182612b8e565b5061022083015161317a6102a0860182612ce7565b509392505050565b600061318e8285612bec565b60208201915061319e8284612bec565b5060200192915050565b60006131b5828486612bfd565b949350505050565b602081016123088284612abd565b604080825281016131dc8185612b20565b9050612aaa6020830184612bda565b602081016123088284612bda565b602081016123088284612be3565b60208082528101612aaa8184612c1c565b604080825281016132298185612c1c565b9050612aaa6020830184612cf0565b60208082528101612aaa8184612c54565b602081016123088284612cde565b602080825281016131b5818486612cf9565b6020808252810161230881612d1b565b6020808252810161230881612d54565b6020808252810161230881612db3565b6020808252810161230881612e12565b6020808252810161230881612e71565b6020808252810161230881612ed0565b6020808252810161230881612f09565b6020808252810161230881612f42565b6020808252810161230881612fa1565b60208082528101612aaa8184613000565b604081016133188285612be3565b81810360208301526131b58184612c54565b60200190565b60009081526020902090565b50600390565b5190565b90815260200190565b600061230882613373565b151590565b80612190816133e6565b80612190816133f0565b600160a060020a031690565b60006123088261334f565b60006123088261335f565b600061230882613369565b82818337506000910152565b60005b838110156133c75781810151838201526020016133af565b838111156133d6576000848401525b50505050565b601f01601f191690565b6003811061273f57fe5b6004811061273f57fe5b6134038161334f565b811461273f57600080fd5b6134038161335a565b61340381610b54565b6003811061273f57600080fdfea365627a7a72305820fbe55b9671db718541ed899418d92aca93c08314d234ae6d64088c53dfb022336c6578706572696d656e74616cf564736f6c634300050a004061606860eb6c87306811e2695215385101daab53bd6ab4e9f9049aead9363c7d",
  "source": "/**\n *  @authors: [@mtsalenc]\n *  @reviewers: []\n *  @auditors: []\n *  @bounties: []\n *  @deployments: []\n */\n\npragma solidity ^0.5.10;\npragma experimental ABIEncoderV2;\n\nimport { IArbitrable, Arbitrator } from \"@kleros/erc-792/contracts/Arbitrator.sol\";\n\n/**\n * @title CappedMath\n * @dev Math operations with caps for under and overflow.\n */\nlibrary CappedMath {\n    uint constant private UINT_MAX = 2**256 - 1;\n\n    /**\n     * @dev Adds two unsigned integers, returns 2^256 - 1 on overflow.\n     */\n    function addCap(uint _a, uint _b) internal pure returns (uint) {\n        uint c = _a + _b;\n        return c >= _a ? c : UINT_MAX;\n    }\n\n    /**\n     * @dev Subtracts two integers, returns 0 on underflow.\n     */\n    function subCap(uint _a, uint _b) internal pure returns (uint) {\n        if (_b > _a)\n            return 0;\n        else\n            return _a - _b;\n    }\n\n    /**\n     * @dev Multiplies two unsigned integers, returns 2^256 - 1 on overflow.\n     */\n    function mulCap(uint _a, uint _b) internal pure returns (uint) {\n        // Gas optimization: this is cheaper than requiring '_a' not being zero, but the\n        // benefit is lost if '_b' is also tested.\n        // See: https://github.com/OpenZeppelin/openzeppelin-solidity/pull/522\n        if (_a == 0)\n            return 0;\n\n        uint c = _a * _b;\n        return c / _a == _b ? c : UINT_MAX;\n    }\n}\n\n\n/**\n *  @title Permission Interface\n *  This is a permission interface for arbitrary values. The values can be cast to the required types.\n */\ninterface PermissionInterface{\n    /* External */\n\n    /**\n     *  @dev Return true if the value is allowed.\n     *  @param _value The value we want to check.\n     *  @return allowed True if the value is allowed, false otherwise.\n     */\n    function isPermitted(bytes32 _value) external view returns (bool allowed);\n}\n\n\ncontract GTCRMock is IArbitrable{\n    using CappedMath for uint; // Operations bounded between 0 and 2**256 - 1.\n\n    /* Enums */\n\n    enum ItemStatus {\n        Absent,\n        Registered,\n        RegistrationRequested,\n        ClearingRequested\n    }\n\n    enum Party {\n        None,      // Party per default when there is no challenger or requester. Also used for unconclusive ruling.\n        Requester, // Party that made the request to change an address status.\n        Challenger // Party that challenges the request to change an address status.\n    }\n\n    /* Structs */\n\n    struct Item {\n        bytes data;\n        ItemStatus status; // The status of the item.\n        Request[] requests; // List of status change requests made for the item.\n    }\n\n    struct Request {\n        bool disputed; // True if a dispute was raised.\n        uint disputeID; // ID of the dispute, if any.\n        uint submissionTime; // Time when the request was made. Used to track when the challenge period ends.\n        bool resolved; // True if the request was executed and/or any disputes raised were resolved.\n        address payable[3] parties; // Address of requester and challenger, if any.\n        Round[] rounds; // Tracks each round of a dispute.\n        Party ruling; // The final ruling given, if any.\n        Arbitrator arbitrator; // The arbitrator trusted to solve disputes for this request.\n        bytes arbitratorExtraData; // The extra data for the trusted arbitrator of this request.\n    }\n\n    struct Round {\n        uint[3] paidFees; // Tracks the fees paid by each side on this round.\n        bool[3] hasPaid; // True when the side has fully paid its fee. False otherwise.\n        uint feeRewards; // Sum of reimbursable fees and stake rewards available to the parties that made contributions to the side that ultimately wins a dispute.\n        mapping(address => uint[3]) contributions; // Maps contributors to their contributions for each side.\n    }\n\n    struct QueryResult {\n        bytes32 ID;\n        bytes data;\n        ItemStatus status;\n        bool disputed;\n        bool resolved;\n        uint disputeID;\n        uint appealStart;\n        uint appealEnd;\n        address requester;\n        address challenger;\n        address arbitrator;\n        bytes arbitratorExtraData;\n        uint currentRuling;\n        bool[3] hasPaid;\n        uint feeRewards;\n        uint submissionTime;\n        uint[3] paidFees;\n        Arbitrator.DisputeStatus disputeStatus;\n    }\n\n    /* Storage */\n\n    // Constants\n\n    uint RULING_OPTIONS = 2; // The amount of non 0 choices the arbitrator can give.\n\n    // Settings\n    address public governor; // The address that can make governance changes to the parameters of the TCR.\n    Arbitrator public arbitrator; // The arbitrator that will be used to resolve disputes on the next requests.\n    bytes public arbitratorExtraData; // The arbitrator extra data used for the next requests.\n    uint public requesterBaseDeposit; // The base deposit to make a request.\n    uint public challengerBaseDeposit; // The base deposit to challenge a request.\n    uint public challengePeriodDuration; // The time before a request becomes executable if not challenged.\n    uint public metaEvidenceUpdates; // The number of times the meta evidence has been updated. Used to track the latest meta evidence ID.\n\n    // The required fee stake that a party must pay depends on who won the previous round and is proportional to the arbitration cost such that the fee stake for a round is stake multiplier * arbitration cost for that round.\n    // Multipliers are in basis points.\n    uint public winnerStakeMultiplier; // Multiplier for calculating the fee stake paid by the party that won the previous round.\n    uint public loserStakeMultiplier; // Multiplier for calculating the fee stake paid by the party that lost the previous round.\n    uint public sharedStakeMultiplier; // Multiplier for calculating the fee stake that must be paid in the case where there isn't a winner and loser (e.g. when it's the first round or the arbitrator ruled \"refused to rule\"/\"could not rule\").\n    uint public constant MULTIPLIER_DIVISOR = 10000; // Divisor parameter for multipliers.\n\n    // Registry data.\n    bytes32[] public itemIDs; // List of IDs of submitted items.\n    mapping(bytes32 => Item) public items; // Maps the item ID to the item.\n    mapping(address => mapping(uint => bytes32)) public arbitratorDisputeIDToItemID; // Maps a dispute ID to the ID of the item with the disputed request. On the form arbitratorDisputeIDToItemID[arbitrator][disputeID].\n\n    /* Events */\n\n    /** @dev To be emmited when meta-evidence is submitted.\n     *  @param _metaEvidenceID Unique identifier of meta-evidence.\n     *  @param _evidence A link to the meta-evidence JSON.\n     */\n    event MetaEvidence(uint indexed _metaEvidenceID, string _evidence);\n\n    /** @dev To be raised when evidence are submitted. Should point to the ressource (evidences are not to be stored on chain due to gas considerations).\n     *  @param _arbitrator The arbitrator of the contract.\n     *  @param _evidenceGroupID Unique identifier of the evidence group the evidence belongs to.\n     *  @param _party The address of the party submiting the evidence. Note that 0x0 refers to evidence not submitted by any party.\n     *  @param _evidence A URI to the evidence JSON file whose name should be its keccak256 hash followed by .json.\n     */\n    event Evidence(Arbitrator indexed _arbitrator, uint indexed _evidenceGroupID, address indexed _party, string _evidence);\n\n    constructor(\n        Arbitrator _arbitrator,\n        bytes memory _arbitratorExtraData,\n        string memory _registrationMetaEvidence,\n        string memory _clearingMetaEvidence,\n        address _governor,\n        uint _requesterBaseDeposit,\n        uint _challengerBaseDeposit,\n        uint _challengePeriodDuration,\n        uint _sharedStakeMultiplier,\n        uint _winnerStakeMultiplier,\n        uint _loserStakeMultiplier\n    ) public {\n        emit MetaEvidence(0, _registrationMetaEvidence);\n        emit MetaEvidence(1, _clearingMetaEvidence);\n\n        arbitrator = _arbitrator;\n        arbitratorExtraData = _arbitratorExtraData;\n        governor = _governor;\n        requesterBaseDeposit = _requesterBaseDeposit;\n        challengerBaseDeposit = _challengerBaseDeposit;\n        challengePeriodDuration = _challengePeriodDuration;\n        sharedStakeMultiplier = _sharedStakeMultiplier;\n        winnerStakeMultiplier = _winnerStakeMultiplier;\n        loserStakeMultiplier = _loserStakeMultiplier;\n    }\n\n    function requestStatusChange(bytes calldata _item)\n        external\n        payable\n    {\n        bytes32 itemID = keccak256(_item);\n\n        Item storage item = items[itemID];\n        if (item.requests.length == 0) { // Initial item registration.\n            itemIDs.push(itemID);\n            item.data = _item;\n        }\n\n        // Update item status.\n        if (item.status == ItemStatus.Absent)\n            item.status = ItemStatus.RegistrationRequested;\n        else if (item.status == ItemStatus.Registered)\n            item.status = ItemStatus.ClearingRequested;\n        else\n            revert(\"Item already has a pending request.\");\n\n        // Setup request.\n        Request storage request = item.requests[item.requests.length++];\n        request.parties[uint(Party.Requester)] = msg.sender;\n        request.submissionTime = now;\n        request.arbitrator = arbitrator;\n        request.arbitratorExtraData = arbitratorExtraData;\n        Round storage round = request.rounds[request.rounds.length++];\n\n\n        // Amount required to fully fund each side: requesterBaseDeposit + arbitration cost + (arbitration cost * multiplier).\n        uint arbitrationCost = request.arbitrator.arbitrationCost(request.arbitratorExtraData);\n        uint totalCost = arbitrationCost.addCap((arbitrationCost.mulCap(sharedStakeMultiplier)) / MULTIPLIER_DIVISOR).addCap(requesterBaseDeposit);\n        contribute(round, Party.Requester, msg.sender, msg.value, totalCost);\n        require(round.paidFees[uint(Party.Requester)] >= totalCost, \"You must fully fund your side.\");\n        round.hasPaid[uint(Party.Requester)] = true;\n    }\n\n    /** @dev Executes a request if the challenge period passed and no one challenged the request.\n     *  @param _item The item with the request to execute.\n     */\n    function executeRequest(bytes32 _item) external {\n        Item storage addr = items[_item];\n        Request storage request = addr.requests[addr.requests.length - 1];\n        require(\n            now - request.submissionTime > challengePeriodDuration,\n            \"Time to challenge the request must have passed.\"\n        );\n        require(!request.disputed, \"The request should not be disputed.\");\n\n        if (addr.status == ItemStatus.RegistrationRequested)\n            addr.status = ItemStatus.Registered;\n        else if (addr.status == ItemStatus.ClearingRequested)\n            addr.status = ItemStatus.Absent;\n        else\n            revert(\"There must be a request.\");\n\n        request.resolved = true;\n        withdrawFeesAndRewards(request.parties[uint(Party.Requester)], _item, addr.requests.length - 1, 0); // Automatically withdraw for the requester.\n    }\n\n    /** @dev Challenges the latest request of a item. Accepts enough ETH to fund a potential dispute considering the current required amount. Reimburses unused ETH. TRUSTED.\n     *  @param _itemID The ID of the item with the request to challenge.\n     *  @param _evidence A link to an evidence using its URI. Ignored if not provided or if not enough funds were provided to create a dispute.\n     */\n    function challengeRequest(bytes32 _itemID, string calldata _evidence) external payable {\n        Item storage item = items[_itemID];\n        require(\n            item.status == ItemStatus.RegistrationRequested || item.status == ItemStatus.ClearingRequested,\n            \"The item must have a pending request.\"\n        );\n        Request storage request = item.requests[item.requests.length - 1];\n        require(now - request.submissionTime <= challengePeriodDuration, \"Challenges must occur during the challenge period.\");\n        require(!request.disputed, \"The request should not have already been disputed.\");\n\n        // Take the deposit and save the challenger's address.\n        request.parties[uint(Party.Challenger)] = msg.sender;\n\n        Round storage round = request.rounds[request.rounds.length - 1];\n        uint arbitrationCost = request.arbitrator.arbitrationCost(request.arbitratorExtraData);\n        uint totalCost = arbitrationCost.addCap((arbitrationCost.mulCap(sharedStakeMultiplier)) / MULTIPLIER_DIVISOR).addCap(challengerBaseDeposit);\n        contribute(round, Party.Challenger, msg.sender, msg.value, totalCost);\n        require(round.paidFees[uint(Party.Challenger)] >= totalCost, \"You must fully fund your side.\");\n        round.hasPaid[uint(Party.Challenger)] = true;\n\n        // Raise a dispute.\n        request.disputeID = request.arbitrator.createDispute.value(arbitrationCost)(RULING_OPTIONS, request.arbitratorExtraData);\n        arbitratorDisputeIDToItemID[address(request.arbitrator)][request.disputeID] = _itemID;\n        request.disputed = true;\n        request.rounds.length++;\n        round.feeRewards = round.feeRewards.subCap(arbitrationCost);\n\n        if (bytes(_evidence).length > 0)\n            emit Evidence(request.arbitrator, uint(keccak256(abi.encodePacked(_itemID,item.requests.length - 1))), msg.sender, _evidence);\n    }\n\n\n    /** @dev Give a ruling for a dispute. Can only be called by the arbitrator. TRUSTED.\n     *  Overrides parent function to account for the situation where the winner loses a case due to paying less appeal fees than expected.\n     *  @param _disputeID ID of the dispute in the arbitrator contract.\n     *  @param _ruling Ruling given by the arbitrator. Note that 0 is reserved for \"Not able/wanting to make a decision\".\n     */\n    function rule(uint _disputeID, uint _ruling) public {\n        Party winner = Party(_ruling);\n        bytes32 itemID = arbitratorDisputeIDToItemID[msg.sender][_disputeID];\n        Item storage item = items[itemID];\n        Request storage request = item.requests[item.requests.length - 1];\n        Round storage round = request.rounds[request.rounds.length - 1];\n        require(_ruling <= RULING_OPTIONS); // solium-disable-line error-reason\n        require(address(request.arbitrator) == msg.sender); // solium-disable-line error-reason\n        require(!request.resolved); // solium-disable-line error-reason\n\n        // The ruling is inverted if the loser paid its fees.\n        if (round.hasPaid[uint(Party.Requester)] == true) // If one side paid its fees, the ruling is in its favor. Note that if the other side had also paid, an appeal would have been created.\n            winner = Party.Requester;\n        else if (round.hasPaid[uint(Party.Challenger)] == true)\n            winner = Party.Challenger;\n\n        emit Ruling(Arbitrator(msg.sender), _disputeID, uint(winner));\n\n        // Update the item's state\n        if (winner == Party.Requester) { // Execute Request\n            if (item.status == ItemStatus.RegistrationRequested)\n                item.status = ItemStatus.Registered;\n            else\n                item.status = ItemStatus.Absent;\n        } else { // Revert to previous state.\n            if (item.status == ItemStatus.RegistrationRequested)\n                item.status = ItemStatus.Absent;\n            else if (item.status == ItemStatus.ClearingRequested)\n                item.status = ItemStatus.Registered;\n        }\n\n        request.resolved = true;\n        request.ruling = Party(winner);\n        // Automatically withdraw.\n        if (winner == Party.None) {\n            withdrawFeesAndRewards(request.parties[uint(Party.Requester)], itemID, item.requests.length-1, 0);\n            withdrawFeesAndRewards(request.parties[uint(Party.Challenger)], itemID, item.requests.length-1, 0);\n        } else {\n            withdrawFeesAndRewards(request.parties[uint(winner)], itemID, item.requests.length-1, 0);\n        }\n    }\n\n    /** @dev Reimburses contributions if no disputes were raised. If a dispute was raised, sends the fee stake rewards and reimbursements proportional to the contributions made to the winner of a dispute.\n     *  @param _beneficiary The address that made contributions to a request.\n     *  @param _itemID The ID of the item with the request from which to withdraw.\n     *  @param _request The request from which to withdraw.\n     *  @param _round The round from which to withdraw.\n     */\n    function withdrawFeesAndRewards(address payable _beneficiary, bytes32 _itemID, uint _request, uint _round) public {\n        Item storage item = items[_itemID];\n        Request storage request = item.requests[_request];\n        Round storage round = request.rounds[_round];\n        // The request must be executed and there can be no disputes pending resolution.\n        require(request.resolved); // solium-disable-line error-reason\n\n        uint reward;\n        if (!request.disputed || request.ruling == Party.None) {\n            // No disputes were raised, or there isn't a winner and loser. Reimburse unspent fees proportionally.\n            uint rewardRequester = round.paidFees[uint(Party.Requester)] > 0\n                ? (round.contributions[_beneficiary][uint(Party.Requester)] * round.feeRewards) / (round.paidFees[uint(Party.Challenger)] + round.paidFees[uint(Party.Requester)])\n                : 0;\n            uint rewardChallenger = round.paidFees[uint(Party.Challenger)] > 0\n                ? (round.contributions[_beneficiary][uint(Party.Challenger)] * round.feeRewards) / (round.paidFees[uint(Party.Challenger)] + round.paidFees[uint(Party.Requester)])\n                : 0;\n\n            reward = rewardRequester + rewardChallenger;\n            round.contributions[_beneficiary][uint(Party.Requester)] = 0;\n            round.contributions[_beneficiary][uint(Party.Challenger)] = 0;\n        } else {\n            // Reward the winner.\n            reward = round.paidFees[uint(request.ruling)] > 0\n                ? (round.contributions[_beneficiary][uint(request.ruling)] * round.feeRewards) / round.paidFees[uint(request.ruling)]\n                : 0;\n\n            round.contributions[_beneficiary][uint(request.ruling)] = 0;\n        }\n\n        _beneficiary.send(reward); // It is the user responsibility to accept ETH.\n    }\n\n\n    /* Internal */\n\n    /** @dev Returns the contribution value and remainder from available ETH and required amount.\n     *  @param _available The amount of ETH available for the contribution.\n     *  @param _requiredAmount The amount of ETH required for the contribution.\n     *  @return taken The amount of ETH taken.\n     *  @return remainder The amount of ETH left from the contribution.\n     */\n    function calculateContribution(uint _available, uint _requiredAmount)\n        internal\n        pure\n        returns(uint taken, uint remainder)\n    {\n        if (_requiredAmount > _available)\n            return (_available, 0); // Take whatever is available, return 0 as leftover ETH.\n\n        remainder = _available - _requiredAmount;\n        return (_requiredAmount, remainder);\n    }\n\n    /** @dev Make a fee contribution.\n     *  @param _round The round to contribute.\n     *  @param _side The side for which to contribute.\n     *  @param _contributor The contributor.\n     *  @param _amount The amount contributed.\n     *  @param _totalRequired The total amount required for this side.\n     */\n    function contribute(Round storage _round, Party _side, address payable _contributor, uint _amount, uint _totalRequired) internal {\n        // Take up to the amount necessary to fund the current round at the current costs.\n        uint contribution; // Amount contributed.\n        uint remainingETH; // Remaining ETH to send back.\n        (contribution, remainingETH) = calculateContribution(_amount, _totalRequired.subCap(_round.paidFees[uint(_side)]));\n        _round.contributions[_contributor][uint(_side)] += contribution;\n        _round.paidFees[uint(_side)] += contribution;\n        _round.feeRewards += contribution;\n\n        // Reimburse leftover ETH.\n        _contributor.send(remainingETH); // Deliberate use of send in order to not block the contract in case of reverting fallback.\n    }\n\n    /* Views */\n\n    /** @dev Return true if the item is on the list.\n     *  @param _itemID The ID of the item to be queried.\n     *  @return allowed True if the item is allowed, false otherwise.\n     */\n    function isPermitted(bytes32 _itemID) external view returns (bool allowed) {\n        Item storage item = items[_itemID];\n        return item.status == ItemStatus.Registered || item.status == ItemStatus.ClearingRequested;\n    }\n\n    function itemCount() external view returns (uint) {\n        return itemIDs.length;\n    }\n\n    function getItem(bytes32 _itemID) external view returns (QueryResult memory result) {\n        Item storage item = items[_itemID];\n        Request storage request = item.requests[item.requests.length - 1];\n        Round storage round = request.rounds[request.rounds.length - 1];\n\n        result = QueryResult({\n            ID: _itemID,\n            data: item.data,\n            status: item.status,\n            disputed: request.disputed,\n            resolved: request.resolved,\n            disputeID: request.disputeID,\n            requester: request.parties[uint(Party.Requester)],\n            challenger: request.parties[uint(Party.Challenger)],\n            appealStart: 0,\n            appealEnd: 0,\n            arbitrator: address(request.arbitrator),\n            arbitratorExtraData: request.arbitratorExtraData,\n            submissionTime: request.submissionTime,\n            hasPaid: [false,false,false],\n            paidFees: [uint(0), uint(0), uint(0)],\n            currentRuling: 0,\n            feeRewards: 0,\n            disputeStatus: Arbitrator.DisputeStatus.Waiting\n        });\n        if (request.disputed && request.arbitrator.disputeStatus(request.disputeID) == Arbitrator.DisputeStatus.Appealable) {\n            result.currentRuling = request.arbitrator.currentRuling(request.disputeID);\n            result.disputeStatus = request.arbitrator.disputeStatus(request.disputeID);\n            (result.appealStart, result.appealEnd) = request.arbitrator.appealPeriod(request.disputeID);\n\n            result.feeRewards = round.feeRewards;\n            result.hasPaid = round.hasPaid;\n            result.paidFees = round.paidFees;\n        }\n    }\n\n    /** @dev Return the values of the items the query finds. This function is O(n), where n is the number of items. This could exceed the gas limit, therefore this function should only be used for interface display and not by other contracts.\n     *  @param _cursor The ID of the items from which to start iterating. To start from either the oldest or newest item.\n     *  @param _count The number of items to return.\n     *  @param _filter The filter to use. Each element of the array in sequence means:\n     *  - Include absent items in result.\n     *  - Include registered items in result.\n     *  - Include items with registration requests that are not disputed in result.\n     *  - Include items with clearing requests that are not disputed in result.\n     *  - Include disputed items with registration requests in result.\n     *  - Include disputed items with clearing requests in result.\n     *  - Include items submitted by _party.\n     *  - Include items challenged by _party.\n     *  @param _oldestFirst Whether to sort from oldest to the newest item.\n     *  @param _party The address to use if checking for items submitted or challenged by a specific party.\n     *  @return The values of the tokens found and whether there are more tokens for the current filter and sort.\n     */\n    function queryItems(bytes32 _cursor, uint _count, bool[8] calldata _filter, bool _oldestFirst, address _party)\n        external\n        view\n        returns (QueryResult[] memory results, bool hasMore)\n    {\n        uint cursorIndex;\n        results = new QueryResult[](_count);\n\n        uint index = 0;\n\n        if (_cursor == 0)\n            cursorIndex = 0;\n        else {\n            for (uint j = 0; j < itemIDs.length; j++) {\n                if (itemIDs[j] == _cursor) {\n                    cursorIndex = j;\n                    break;\n                }\n            }\n            require(cursorIndex != 0, \"The cursor is invalid.\");\n        }\n\n        for (\n                uint i = cursorIndex == 0 ? (_oldestFirst ? 0 : 1) : (_oldestFirst ? cursorIndex + 1 : itemIDs.length - cursorIndex + 1);\n                _oldestFirst ? i < itemIDs.length : i <= itemIDs.length;\n                i++\n            ) { // Oldest or newest first.\n            bytes32 itemID = itemIDs[_oldestFirst ? i : itemIDs.length - i];\n            Item storage item = items[itemID];\n            Request storage request = item.requests[item.requests.length - 1];\n            if (\n                /* solium-disable operator-whitespace */\n                (_filter[0] && item.status == ItemStatus.Absent) ||\n                (_filter[1] && item.status == ItemStatus.Registered) ||\n                (_filter[2] && item.status == ItemStatus.RegistrationRequested && !request.disputed) ||\n                (_filter[3] && item.status == ItemStatus.ClearingRequested && !request.disputed) ||\n                (_filter[4] && item.status == ItemStatus.RegistrationRequested && request.disputed) ||\n                (_filter[5] && item.status == ItemStatus.ClearingRequested && request.disputed) ||\n                (_filter[6] && request.parties[uint(Party.Requester)] == _party) ||\n                (_filter[7] && request.parties[uint(Party.Challenger)] == _party)\n                /* solium-enable operator-whitespace */\n            ) {\n                if (index < _count) {\n                    QueryResult memory result = QueryResult({\n                        ID: itemIDs[_oldestFirst ? i : itemIDs.length - i],\n                        data: item.data,\n                        status: item.status,\n                        disputed: request.disputed,\n                        resolved: request.resolved,\n                        disputeID: request.disputeID,\n                        requester: request.parties[uint(Party.Requester)],\n                        challenger: request.parties[uint(Party.Challenger)],\n                        appealStart: 0,\n                        appealEnd: 0,\n                        arbitrator: address(request.arbitrator),\n                        arbitratorExtraData: request.arbitratorExtraData,\n                        submissionTime: request.submissionTime,\n                        hasPaid: [false,false,false],\n                        paidFees: [uint(0), uint(0), uint(0)],\n                        currentRuling: 0,\n                        feeRewards: 0,\n                        disputeStatus: Arbitrator.DisputeStatus.Waiting\n                    });\n                    if (request.disputed && request.arbitrator.disputeStatus(request.disputeID) == Arbitrator.DisputeStatus.Appealable) {\n                        result.currentRuling = request.arbitrator.currentRuling(request.disputeID);\n                        result.disputeStatus = request.arbitrator.disputeStatus(request.disputeID);\n                        (result.appealStart, result.appealEnd) = request.arbitrator.appealPeriod(request.disputeID);\n\n                        Round storage round = request.rounds[request.rounds.length - 1];\n                        result.feeRewards = round.feeRewards;\n                        result.hasPaid = round.hasPaid;\n                        result.paidFees = round.paidFees;\n                    }\n                    results[index] = result;\n                    index++;\n                } else {\n                    hasMore = true;\n                    break;\n                }\n            }\n        }\n    }\n\n}\n",
  "sourcePath": "/home/betelgiuse/Documents/visus/kleros/repositories/gtcr/contracts/GTCRMock.sol",
  "compiler": {
    "name": "solc",
    "version": "0.5.10+commit.5a6ea5b1.Emscripten.clang"
  },
  "schemaVersion": "3.0.11",
  "updatedAt": "2019-08-08T19:38:49.603Z",
  "devdoc": {
    "methods": {
      "challengeRequest(bytes32,string)": {
        "details": "Challenges the latest request of a item. Accepts enough ETH to fund a potential dispute considering the current required amount. Reimburses unused ETH. TRUSTED.",
        "params": {
          "_evidence": "A link to an evidence using its URI. Ignored if not provided or if not enough funds were provided to create a dispute.",
          "_itemID": "The ID of the item with the request to challenge."
        }
      },
      "executeRequest(bytes32)": {
        "details": "Executes a request if the challenge period passed and no one challenged the request.",
        "params": {
          "_item": "The item with the request to execute."
        }
      },
      "isPermitted(bytes32)": {
        "details": "Return true if the item is on the list.",
        "params": {
          "_itemID": "The ID of the item to be queried."
        },
        "return": "allowed True if the item is allowed, false otherwise."
      },
      "queryItems(bytes32,uint256,bool[8],bool,address)": {
        "details": "Return the values of the items the query finds. This function is O(n), where n is the number of items. This could exceed the gas limit, therefore this function should only be used for interface display and not by other contracts.",
        "params": {
          "_count": "The number of items to return.",
          "_cursor": "The ID of the items from which to start iterating. To start from either the oldest or newest item.",
          "_filter": "The filter to use. Each element of the array in sequence means: - Include absent items in result. - Include registered items in result. - Include items with registration requests that are not disputed in result. - Include items with clearing requests that are not disputed in result. - Include disputed items with registration requests in result. - Include disputed items with clearing requests in result. - Include items submitted by _party. - Include items challenged by _party.",
          "_oldestFirst": "Whether to sort from oldest to the newest item.",
          "_party": "The address to use if checking for items submitted or challenged by a specific party."
        },
        "return": "The values of the tokens found and whether there are more tokens for the current filter and sort."
      },
      "rule(uint256,uint256)": {
        "details": "Give a ruling for a dispute. Can only be called by the arbitrator. TRUSTED. Overrides parent function to account for the situation where the winner loses a case due to paying less appeal fees than expected.",
        "params": {
          "_disputeID": "ID of the dispute in the arbitrator contract.",
          "_ruling": "Ruling given by the arbitrator. Note that 0 is reserved for \"Not able/wanting to make a decision\"."
        }
      },
      "withdrawFeesAndRewards(address,bytes32,uint256,uint256)": {
        "details": "Reimburses contributions if no disputes were raised. If a dispute was raised, sends the fee stake rewards and reimbursements proportional to the contributions made to the winner of a dispute.",
        "params": {
          "_beneficiary": "The address that made contributions to a request.",
          "_itemID": "The ID of the item with the request from which to withdraw.",
          "_request": "The request from which to withdraw.",
          "_round": "The round from which to withdraw."
        }
      }
    }
  },
  "userdoc": {
    "methods": {}
  }
}