{
  "contractName": "GTCRMock",
  "abi": [
    {
      "constant": true,
      "inputs": [],
      "name": "challengePeriodDuration",
      "outputs": [
        {
          "internalType": "uint256",
          "name": "",
          "type": "uint256"
        }
      ],
      "payable": false,
      "stateMutability": "view",
      "type": "function"
    },
    {
      "constant": true,
      "inputs": [],
      "name": "governor",
      "outputs": [
        {
          "internalType": "address",
          "name": "",
          "type": "address"
        }
      ],
      "payable": false,
      "stateMutability": "view",
      "type": "function"
    },
    {
      "constant": true,
      "inputs": [],
      "name": "arbitratorExtraData",
      "outputs": [
        {
          "internalType": "bytes",
          "name": "",
          "type": "bytes"
        }
      ],
      "payable": false,
      "stateMutability": "view",
      "type": "function"
    },
    {
      "constant": true,
      "inputs": [],
      "name": "loserStakeMultiplier",
      "outputs": [
        {
          "internalType": "uint256",
          "name": "",
          "type": "uint256"
        }
      ],
      "payable": false,
      "stateMutability": "view",
      "type": "function"
    },
    {
      "constant": true,
      "inputs": [],
      "name": "challengerBaseDeposit",
      "outputs": [
        {
          "internalType": "uint256",
          "name": "",
          "type": "uint256"
        }
      ],
      "payable": false,
      "stateMutability": "view",
      "type": "function"
    },
    {
      "constant": true,
      "inputs": [],
      "name": "sharedStakeMultiplier",
      "outputs": [
        {
          "internalType": "uint256",
          "name": "",
          "type": "uint256"
        }
      ],
      "payable": false,
      "stateMutability": "view",
      "type": "function"
    },
    {
      "constant": true,
      "inputs": [
        {
          "internalType": "bytes32",
          "name": "",
          "type": "bytes32"
        }
      ],
      "name": "items",
      "outputs": [
        {
          "internalType": "bytes",
          "name": "data",
          "type": "bytes"
        },
        {
          "internalType": "enum GTCRMock.ItemStatus",
          "name": "status",
          "type": "uint8"
        }
      ],
      "payable": false,
      "stateMutability": "view",
      "type": "function"
    },
    {
      "constant": true,
      "inputs": [],
      "name": "relatedTCR",
      "outputs": [
        {
          "internalType": "address",
          "name": "",
          "type": "address"
        }
      ],
      "payable": false,
      "stateMutability": "view",
      "type": "function"
    },
    {
      "constant": true,
      "inputs": [],
      "name": "arbitrator",
      "outputs": [
        {
          "internalType": "contract Arbitrator",
          "name": "",
          "type": "address"
        }
      ],
      "payable": false,
      "stateMutability": "view",
      "type": "function"
    },
    {
      "constant": true,
      "inputs": [],
      "name": "metaEvidenceUpdates",
      "outputs": [
        {
          "internalType": "uint256",
          "name": "",
          "type": "uint256"
        }
      ],
      "payable": false,
      "stateMutability": "view",
      "type": "function"
    },
    {
      "constant": true,
      "inputs": [],
      "name": "winnerStakeMultiplier",
      "outputs": [
        {
          "internalType": "uint256",
          "name": "",
          "type": "uint256"
        }
      ],
      "payable": false,
      "stateMutability": "view",
      "type": "function"
    },
    {
      "constant": true,
      "inputs": [],
      "name": "requesterBaseDeposit",
      "outputs": [
        {
          "internalType": "uint256",
          "name": "",
          "type": "uint256"
        }
      ],
      "payable": false,
      "stateMutability": "view",
      "type": "function"
    },
    {
      "constant": true,
      "inputs": [
        {
          "internalType": "address",
          "name": "",
          "type": "address"
        },
        {
          "internalType": "uint256",
          "name": "",
          "type": "uint256"
        }
      ],
      "name": "arbitratorDisputeIDToItemID",
      "outputs": [
        {
          "internalType": "bytes32",
          "name": "",
          "type": "bytes32"
        }
      ],
      "payable": false,
      "stateMutability": "view",
      "type": "function"
    },
    {
      "constant": true,
      "inputs": [
        {
          "internalType": "uint256",
          "name": "",
          "type": "uint256"
        }
      ],
      "name": "itemIDs",
      "outputs": [
        {
          "internalType": "bytes32",
          "name": "",
          "type": "bytes32"
        }
      ],
      "payable": false,
      "stateMutability": "view",
      "type": "function"
    },
    {
      "constant": true,
      "inputs": [],
      "name": "MULTIPLIER_DIVISOR",
      "outputs": [
        {
          "internalType": "uint256",
          "name": "",
          "type": "uint256"
        }
      ],
      "payable": false,
      "stateMutability": "view",
      "type": "function"
    },
    {
      "inputs": [
        {
          "internalType": "contract Arbitrator",
          "name": "_arbitrator",
          "type": "address"
        },
        {
          "internalType": "bytes",
          "name": "_arbitratorExtraData",
          "type": "bytes"
        },
        {
          "internalType": "string",
          "name": "_registrationMetaEvidence",
          "type": "string"
        },
        {
          "internalType": "string",
          "name": "_clearingMetaEvidence",
          "type": "string"
        },
        {
          "internalType": "address",
          "name": "_governor",
          "type": "address"
        },
        {
          "internalType": "uint256",
          "name": "_requesterBaseDeposit",
          "type": "uint256"
        },
        {
          "internalType": "uint256",
          "name": "_challengerBaseDeposit",
          "type": "uint256"
        },
        {
          "internalType": "uint256",
          "name": "_challengePeriodDuration",
          "type": "uint256"
        },
        {
          "internalType": "uint256",
          "name": "_sharedStakeMultiplier",
          "type": "uint256"
        },
        {
          "internalType": "uint256",
          "name": "_winnerStakeMultiplier",
          "type": "uint256"
        },
        {
          "internalType": "uint256",
          "name": "_loserStakeMultiplier",
          "type": "uint256"
        }
      ],
      "payable": false,
      "stateMutability": "nonpayable",
      "type": "constructor"
    },
    {
      "anonymous": false,
      "inputs": [
        {
          "indexed": true,
          "internalType": "uint256",
          "name": "_metaEvidenceID",
          "type": "uint256"
        },
        {
          "indexed": false,
          "internalType": "string",
          "name": "_evidence",
          "type": "string"
        }
      ],
      "name": "MetaEvidence",
      "type": "event"
    },
    {
      "anonymous": false,
      "inputs": [
        {
          "indexed": true,
          "internalType": "contract Arbitrator",
          "name": "_arbitrator",
          "type": "address"
        },
        {
          "indexed": true,
          "internalType": "uint256",
          "name": "_evidenceGroupID",
          "type": "uint256"
        },
        {
          "indexed": true,
          "internalType": "address",
          "name": "_party",
          "type": "address"
        },
        {
          "indexed": false,
          "internalType": "string",
          "name": "_evidence",
          "type": "string"
        }
      ],
      "name": "Evidence",
      "type": "event"
    },
    {
      "anonymous": false,
      "inputs": [
        {
          "indexed": true,
          "internalType": "contract Arbitrator",
          "name": "_arbitrator",
          "type": "address"
        },
        {
          "indexed": true,
          "internalType": "uint256",
          "name": "_disputeID",
          "type": "uint256"
        },
        {
          "indexed": false,
          "internalType": "uint256",
          "name": "_metaEvidenceID",
          "type": "uint256"
        },
        {
          "indexed": false,
          "internalType": "uint256",
          "name": "_evidenceGroupID",
          "type": "uint256"
        }
      ],
      "name": "Dispute",
      "type": "event"
    },
    {
      "anonymous": false,
      "inputs": [
        {
          "indexed": true,
          "internalType": "contract Arbitrator",
          "name": "_arbitrator",
          "type": "address"
        },
        {
          "indexed": true,
          "internalType": "uint256",
          "name": "_disputeID",
          "type": "uint256"
        },
        {
          "indexed": false,
          "internalType": "uint256",
          "name": "_ruling",
          "type": "uint256"
        }
      ],
      "name": "Ruling",
      "type": "event"
    },
    {
      "constant": false,
      "inputs": [
        {
          "internalType": "bytes",
          "name": "_item",
          "type": "bytes"
        }
      ],
      "name": "addItem",
      "outputs": [],
      "payable": true,
      "stateMutability": "payable",
      "type": "function"
    },
    {
      "constant": false,
      "inputs": [
        {
          "internalType": "bytes",
          "name": "_item",
          "type": "bytes"
        }
      ],
      "name": "removeItem",
      "outputs": [],
      "payable": true,
      "stateMutability": "payable",
      "type": "function"
    },
    {
      "constant": false,
      "inputs": [
        {
          "internalType": "bytes32",
          "name": "_item",
          "type": "bytes32"
        }
      ],
      "name": "executeRequest",
      "outputs": [],
      "payable": false,
      "stateMutability": "nonpayable",
      "type": "function"
    },
    {
      "constant": false,
      "inputs": [
        {
          "internalType": "bytes32",
          "name": "_itemID",
          "type": "bytes32"
        },
        {
          "internalType": "string",
          "name": "_evidence",
          "type": "string"
        }
      ],
      "name": "challengeRequest",
      "outputs": [],
      "payable": true,
      "stateMutability": "payable",
      "type": "function"
    },
    {
      "constant": false,
      "inputs": [
        {
          "internalType": "bytes32",
          "name": "_itemID",
          "type": "bytes32"
        },
        {
          "internalType": "enum GTCRMock.Party",
          "name": "_side",
          "type": "uint8"
        }
      ],
      "name": "fundAppeal",
      "outputs": [],
      "payable": true,
      "stateMutability": "payable",
      "type": "function"
    },
    {
      "constant": false,
      "inputs": [
        {
          "internalType": "uint256",
          "name": "_disputeID",
          "type": "uint256"
        },
        {
          "internalType": "uint256",
          "name": "_ruling",
          "type": "uint256"
        }
      ],
      "name": "rule",
      "outputs": [],
      "payable": false,
      "stateMutability": "nonpayable",
      "type": "function"
    },
    {
      "constant": false,
      "inputs": [
        {
          "internalType": "address payable",
          "name": "_beneficiary",
          "type": "address"
        },
        {
          "internalType": "bytes32",
          "name": "_itemID",
          "type": "bytes32"
        },
        {
          "internalType": "uint256",
          "name": "_request",
          "type": "uint256"
        },
        {
          "internalType": "uint256",
          "name": "_round",
          "type": "uint256"
        }
      ],
      "name": "withdrawFeesAndRewards",
      "outputs": [],
      "payable": false,
      "stateMutability": "nonpayable",
      "type": "function"
    },
    {
      "constant": false,
      "inputs": [
        {
          "internalType": "uint256",
          "name": "_challengePeriodDuration",
          "type": "uint256"
        }
      ],
      "name": "changeTimeToChallenge",
      "outputs": [],
      "payable": false,
      "stateMutability": "nonpayable",
      "type": "function"
    },
    {
      "constant": true,
      "inputs": [
        {
          "internalType": "bytes32",
          "name": "_itemID",
          "type": "bytes32"
        }
      ],
      "name": "isPermitted",
      "outputs": [
        {
          "internalType": "bool",
          "name": "allowed",
          "type": "bool"
        }
      ],
      "payable": false,
      "stateMutability": "view",
      "type": "function"
    },
    {
      "constant": true,
      "inputs": [],
      "name": "itemCount",
      "outputs": [
        {
          "internalType": "uint256",
          "name": "",
          "type": "uint256"
        }
      ],
      "payable": false,
      "stateMutability": "view",
      "type": "function"
    },
    {
      "constant": true,
      "inputs": [
        {
          "internalType": "bytes32",
          "name": "_itemID",
          "type": "bytes32"
        }
      ],
      "name": "getItem",
      "outputs": [
        {
          "components": [
            {
              "internalType": "bytes32",
              "name": "ID",
              "type": "bytes32"
            },
            {
              "internalType": "bytes",
              "name": "data",
              "type": "bytes"
            },
            {
              "internalType": "enum GTCRMock.ItemStatus",
              "name": "status",
              "type": "uint8"
            },
            {
              "internalType": "bool",
              "name": "disputed",
              "type": "bool"
            },
            {
              "internalType": "bool",
              "name": "resolved",
              "type": "bool"
            },
            {
              "internalType": "uint256",
              "name": "disputeID",
              "type": "uint256"
            },
            {
              "internalType": "uint256",
              "name": "appealStart",
              "type": "uint256"
            },
            {
              "internalType": "uint256",
              "name": "appealEnd",
              "type": "uint256"
            },
            {
              "internalType": "address",
              "name": "requester",
              "type": "address"
            },
            {
              "internalType": "address",
              "name": "challenger",
              "type": "address"
            },
            {
              "internalType": "address",
              "name": "arbitrator",
              "type": "address"
            },
            {
              "internalType": "bytes",
              "name": "arbitratorExtraData",
              "type": "bytes"
            },
            {
              "internalType": "uint256",
              "name": "currentRuling",
              "type": "uint256"
            },
            {
              "internalType": "bool[3]",
              "name": "hasPaid",
              "type": "bool[3]"
            },
            {
              "internalType": "uint256",
              "name": "feeRewards",
              "type": "uint256"
            },
            {
              "internalType": "uint256",
              "name": "submissionTime",
              "type": "uint256"
            },
            {
              "internalType": "uint256[3]",
              "name": "paidFees",
              "type": "uint256[3]"
            },
            {
              "internalType": "enum Arbitrator.DisputeStatus",
              "name": "disputeStatus",
              "type": "uint8"
            }
          ],
          "internalType": "struct GTCRMock.QueryResult",
          "name": "result",
          "type": "tuple"
        }
      ],
      "payable": false,
      "stateMutability": "view",
      "type": "function"
    },
    {
      "constant": true,
      "inputs": [
        {
          "internalType": "bytes",
          "name": "_rlpEncodedMatch",
          "type": "bytes"
        },
        {
          "internalType": "uint256",
          "name": "_cursor",
          "type": "uint256"
        },
        {
          "internalType": "uint256",
          "name": "_returnCount",
          "type": "uint256"
        },
        {
          "internalType": "uint256",
          "name": "_count",
          "type": "uint256"
        }
      ],
      "name": "findItem",
      "outputs": [
        {
          "internalType": "bytes[]",
          "name": "",
          "type": "bytes[]"
        }
      ],
      "payable": false,
      "stateMutability": "view",
      "type": "function"
    },
    {
      "constant": true,
      "inputs": [
        {
          "internalType": "bytes32",
          "name": "_cursor",
          "type": "bytes32"
        },
        {
          "internalType": "uint256",
          "name": "_count",
          "type": "uint256"
        },
        {
          "internalType": "bool[8]",
          "name": "_filter",
          "type": "bool[8]"
        },
        {
          "internalType": "bool",
          "name": "_oldestFirst",
          "type": "bool"
        },
        {
          "internalType": "address",
          "name": "_party",
          "type": "address"
        }
      ],
      "name": "queryItems",
      "outputs": [
        {
          "components": [
            {
              "internalType": "bytes32",
              "name": "ID",
              "type": "bytes32"
            },
            {
              "internalType": "bytes",
              "name": "data",
              "type": "bytes"
            },
            {
              "internalType": "enum GTCRMock.ItemStatus",
              "name": "status",
              "type": "uint8"
            },
            {
              "internalType": "bool",
              "name": "disputed",
              "type": "bool"
            },
            {
              "internalType": "bool",
              "name": "resolved",
              "type": "bool"
            },
            {
              "internalType": "uint256",
              "name": "disputeID",
              "type": "uint256"
            },
            {
              "internalType": "uint256",
              "name": "appealStart",
              "type": "uint256"
            },
            {
              "internalType": "uint256",
              "name": "appealEnd",
              "type": "uint256"
            },
            {
              "internalType": "address",
              "name": "requester",
              "type": "address"
            },
            {
              "internalType": "address",
              "name": "challenger",
              "type": "address"
            },
            {
              "internalType": "address",
              "name": "arbitrator",
              "type": "address"
            },
            {
              "internalType": "bytes",
              "name": "arbitratorExtraData",
              "type": "bytes"
            },
            {
              "internalType": "uint256",
              "name": "currentRuling",
              "type": "uint256"
            },
            {
              "internalType": "bool[3]",
              "name": "hasPaid",
              "type": "bool[3]"
            },
            {
              "internalType": "uint256",
              "name": "feeRewards",
              "type": "uint256"
            },
            {
              "internalType": "uint256",
              "name": "submissionTime",
              "type": "uint256"
            },
            {
              "internalType": "uint256[3]",
              "name": "paidFees",
              "type": "uint256[3]"
            },
            {
              "internalType": "enum Arbitrator.DisputeStatus",
              "name": "disputeStatus",
              "type": "uint8"
            }
          ],
          "internalType": "struct GTCRMock.QueryResult[]",
          "name": "results",
          "type": "tuple[]"
        },
        {
          "internalType": "bool",
          "name": "hasMore",
          "type": "bool"
        }
      ],
      "payable": false,
      "stateMutability": "view",
      "type": "function"
    }
  ],
  "bytecode": "0x608060405260026000553480156200001657600080fd5b5060405162004b5638038062004b56833981016040819052620000399162000230565b600060008051602062004b368339815191528a6040516200005b9190620003bd565b60405180910390a2600160008051602062004b3683398151915289604051620000859190620003bd565b60405180910390a260038054600160a060020a031916600160a060020a038d161790558951620000bd9060049060208d019062000102565b5060018054600160a060020a031916600160a060020a039890981697909717909655600594909455600692909255600755600b55600955600a5550620004c692505050565b828054600181600116156101000203166002900490600052602060002090601f016020900481019282601f106200014557805160ff191683800117855562000175565b8280016001018555821562000175579182015b828111156200017557825182559160200191906001019062000158565b506200018392915062000187565b5090565b620001a491905b808211156200018357600081556001016200018e565b90565b8051620001b48162000496565b92915050565b600082601f830112620001cc57600080fd5b8151620001e3620001dd82620003fe565b620003d7565b915080825260208301602083018583830111156200020057600080fd5b6200020d83828462000459565b50505092915050565b8051620001b481620004b0565b8051620001b481620004bb565b60008060008060008060008060008060006101608c8e0312156200025357600080fd5b6000620002618e8e62000216565b9b505060208c01516001604060020a038111156200027e57600080fd5b6200028c8e828f01620001ba565b9a505060408c01516001604060020a03811115620002a957600080fd5b620002b78e828f01620001ba565b99505060608c01516001604060020a03811115620002d457600080fd5b620002e28e828f01620001ba565b9850506080620002f58e828f01620001a7565b97505060a0620003088e828f0162000223565b96505060c06200031b8e828f0162000223565b95505060e06200032e8e828f0162000223565b945050610100620003428e828f0162000223565b935050610120620003568e828f0162000223565b9250506101406200036a8e828f0162000223565b9150509295989b509295989b9093969950565b60006200038a8262000426565b6200039681856200042a565b9350620003a881856020860162000459565b620003b3816200048c565b9093019392505050565b60208082528101620003d081846200037d565b9392505050565b6040518181016001604060020a0381118282101715620003f657600080fd5b604052919050565b60006001604060020a038211156200041557600080fd5b506020601f91909101601f19160190565b5190565b90815260200190565b6000620001b4826200044d565b6000620001b48262000433565b600160a060020a031690565b60005b83811015620004765781810151838201526020016200045c565b8381111562000486576000848401525b50505050565b601f01601f191690565b620004a18162000433565b8114620004ad57600080fd5b50565b620004a18162000440565b620004a181620001a4565b61466080620004d66000396000f3fe6080604052600436106101d3576000357c0100000000000000000000000000000000000000000000000000000000900480636cdc090f11610109578063aa0372e7116100a7578063d294ccef11610081578063d294ccef146104af578063d36fdb18146104c2578063d661dd31146104e2578063e9c24166146104f7576101d3565b8063aa0372e714610427578063b70e6a0f14610454578063beabdb7b14610482576101d3565b80638c10fef3116100e35780638c10fef3146103b25780639c81a827146103c7578063a1c2bf4d146103e7578063a836f30714610407576101d3565b80636cdc090f146103755780637b9433831461038a578063873db1a71461039f576101d3565b8063329cedb411610176578063571e053d11610150578063571e053d146102fc5780635cfb0924146103115780636bfb0d011461033e5780636cc6cde114610353576101d3565b8063329cedb4146102a457806341658341146102b957806348f343f3146102ce576101d3565b80631d512085116101b25780631d512085146102475780632baf80ee1461025c5780632c2decc114610271578063311a6c5614610284576101d3565b806282a36d146101d85780630c340a24146102035780630c7ac7b614610225575b600080fd5b3480156101e457600080fd5b506101ed610517565b6040516101fa919061433a565b60405180910390f35b34801561020f57600080fd5b5061021861051d565b6040516101fa91906142ed565b34801561023157600080fd5b5061023a61052c565b6040516101fa9190614348565b34801561025357600080fd5b506101ed6105ba565b61026f61026a366004613735565b6105c0565b005b61026f61027f366004613833565b610b63565b34801561029057600080fd5b5061026f61029f3660046138ea565b610c06565b3480156102b057600080fd5b506101ed610eb6565b3480156102c557600080fd5b506101ed610ebc565b3480156102da57600080fd5b506102ee6102e9366004613717565b610ec2565b6040516101fa929190614359565b34801561030857600080fd5b50610218610f6c565b34801561031d57600080fd5b5061033161032c366004613875565b610f7b565b6040516101fa91906142fb565b34801561034a57600080fd5b506101ed6111d7565b34801561035f57600080fd5b506103686111de565b6040516101fa919061438a565b34801561038157600080fd5b506101ed6111ed565b34801561039657600080fd5b506101ed6111f3565b61026f6103ad366004613765565b6111f9565b3480156103be57600080fd5b506101ed61160f565b3480156103d357600080fd5b506101ed6103e23660046136bf565b611615565b3480156103f357600080fd5b5061026f61040236600461365e565b611632565b34801561041357600080fd5b506101ed610422366004613717565b61189d565b34801561043357600080fd5b50610447610442366004613717565b6118bb565b6040516101fa919061449a565b34801561046057600080fd5b5061047461046f3660046137bb565b611e93565b6040516101fa92919061430c565b34801561048e57600080fd5b506104a261049d366004613717565b6127f5565b6040516101fa919061432c565b61026f6104bd366004613833565b61283e565b3480156104ce57600080fd5b5061026f6104dd366004613717565b61289c565b3480156104ee57600080fd5b506101ed6128ce565b34801561050357600080fd5b5061026f610512366004613717565b6128d4565b60075481565b600154600160a060020a031681565b6004805460408051602060026001851615610100026000190190941693909304601f810184900484028201840190925281815292918301828280156105b25780601f10610587576101008083540402835291602001916105b2565b820191906000526020600020905b81548152906001019060200180831161059557829003601f168201915b505050505081565b600a5481565b60018160028111156105ce57fe5b14806105e5575060028160028111156105e357fe5b145b6105ee57600080fd5b6000828152600d602052604090206002600182015460ff16600381111561061157fe5b148061062f57506003600182015460ff16600381111561062d57fe5b145b6106575760405160e560020a62461bcd02815260040161064e9061448a565b60405180910390fd5b60028101805460009190600019810190811061066f57fe5b60009182526020909120600a90910201805490915060ff166106a65760405160e560020a62461bcd02815260040161064e9061444a565b600881015460018201546040517fafe15cfb0000000000000000000000000000000000000000000000000000000081526000928392610100909104600160a060020a03169163afe15cfb916106fd9160040161433a565b604080518083038186803b15801561071457600080fd5b505afa158015610728573d6000803e3d6000fd5b505050506040513d601f19601f8201168201806040525061074c9190810190613909565b9150915081421015801561075f57508042105b61077e5760405160e560020a62461bcd02815260040161064e906143ca565b60078301805460009190600019810190811061079657fe5b600091825260208220600887015460018801546040517f1c3db16d00000000000000000000000000000000000000000000000000000000815260069094029092019450600160a060020a036101009091041691631c3db16d916107fb9160040161433a565b60206040518083038186803b15801561081357600080fd5b505afa158015610827573d6000803e3d6000fd5b505050506040513d601f19601f8201168201806040525061084b91908101906138cc565b600281111561085657fe5b90506000600182600281111561086857fe5b14156108765750600261088e565b600282600281111561088457fe5b141561088e575060015b80600281111561089a57fe5b8860028111156108a657fe5b1415806108b95750600285850304854203105b6108d85760405160e560020a62461bcd02815260040161064e906143fa565b60008260028111156108e657fe5b8960028111156108f257fe5b1415610901575060095461092d565b81600281111561090d57fe5b89600281111561091957fe5b14156109285750600a5461092d565b50600b545b600887015460018801546040517ff23f16e60000000000000000000000000000000000000000000000000000000081526000926101009004600160a060020a03169163f23f16e691610987919060098d01906004016144ab565b60206040518083038186803b15801561099f57600080fd5b505afa1580156109b3573d6000803e3d6000fd5b505050506040513d601f19601f820116820180604052506109d791908101906138cc565b90506000610a076127106109f1848663ffffffff612a0c16565b816109f857fe5b8491900463ffffffff612a4216565b9050610a16868c333485612a57565b80868c6002811115610a2457fe5b60038110610a2e57fe5b015410610a71576001866003018c6002811115610a4757fe5b60038110610a5157fe5b602091828204019190066101000a81548160ff0219169083151502179055505b600386015462010000900460ff168015610a9457506003860154610100900460ff165b15610b5557600889015460018a01546040517f49912f88000000000000000000000000000000000000000000000000000000008152610100909204600160a060020a0316916349912f88918591610af3919060098f01906004016144ab565b6000604051808303818588803b158015610b0c57600080fd5b505af1158015610b20573d6000803e3d6000fd5b50505060078b0180549250610b399150600183016131fc565b506004860154610b4f908363ffffffff612b2316565b60048701555b505050505050505050505050565b60008282604051610b759291906142d8565b604051908190039020905060016000828152600d602052604090206001015460ff166003811115610ba257fe5b14610bc25760405160e560020a62461bcd02815260040161064e9061443a565b610c0183838080601f016020809104026020016040519081016040528093929190818152602001838380828437600092019190915250612b3e92505050565b505050565b6000816002811115610c1457fe5b336000908152600e60209081526040808320878452825280832054808452600d90925282206002810180549495509193909291906000198101908110610c5657fe5b6000918252602082206007600a909202019081018054919350906000198101908110610c7e57fe5b90600052602060002090600602019050600054861115610c9d57600080fd5b60088201546101009004600160a060020a03163314610cbb57600080fd5b600382015460ff1615610ccd57600080fd5b600381015460ff61010090910416151560011415610cee5760019450610d0b565b600381015462010000900460ff16151560011415610d0b57600294505b86337f394027a5fa6e098a1191094d1719d6929b9abc535fcc0c8f448d6a4e75622276876002811115610d3a57fe5b604051610d47919061433a565b60405180910390a36001856002811115610d5d57fe5b1415610db1576002600184015460ff166003811115610d7857fe5b1415610d93576001838101805460ff19169091179055610dac565b6001808401805460009260ff1990911690835b02179055505b610e0f565b6002600184015460ff166003811115610dc657fe5b1415610de3576001808401805460009260ff199091169083610da6565b6003600184015460ff166003811115610df857fe5b1415610e0f576001838101805460ff191690911790555b600382018054600160ff199182168117909255600884018054889391921690836002811115610e3a57fe5b02179055506000856002811115610e4d57fe5b1415610e9a57610e876004830160015b60038110610e6757fe5b01546002850154600160a060020a03909116908690600019016000611632565b610e95600483016002610e5d565b610ead565b610ead82600401866002811115610e5d57fe5b50505050505050565b60065481565b600b5481565b600d6020908152600091825260409182902080548351601f60026000196101006001861615020190931692909204918201849004840281018401909452808452909291839190830182828015610f595780601f10610f2e57610100808354040283529160200191610f59565b820191906000526020600020905b815481529060010190602001808311610f3c57829003601f168201915b5050506001909301549192505060ff1682565b600254600160a060020a031681565b606080610f8f610f8a87612e2e565b612e53565b9050606083604051908082528060200260200182016040528015610fc757816020015b6060815260200190600190039081610fb25790505b5090506000865b8515610fda5785610fde565b600c545b8110156111ca576000600d6000600c8481548110610ff857fe5b90600052602060002001548152602001908152602001600020600001905060606110bd610f8a838054600181600116156101000203166002900480601f0160208091040260200160405190810160405280929190818152602001828054600181600116156101000203166002900480156110b35780601f10611088576101008083540402835291602001916110b3565b820191906000526020600020905b81548152906001019060200180831161109657829003601f168201915b5050505050612e2e565b905060005b86518110156111bf576111056110ea8883815181106110dd57fe5b6020026020010151612f20565b6110f98484815181106110dd57fe5b9063ffffffff612f9916565b156111b7578254604080516020601f600260001961010060018816150201909516949094049384018190048102820181019092528281529185918301828280156111905780601f1061116557610100808354040283529160200191611190565b820191906000526020600020905b81548152906001019060200180831161117357829003601f168201915b50505050508686815181106111a157fe5b60209081029190910101526001909401936111bf565b6001016110c2565b505050600101610fce565b5090979650505050505050565b600c545b90565b600354600160a060020a031681565b60085481565b60095481565b6000838152600d602052604090206002600182015460ff16600381111561121c57fe5b148061123a57506003600182015460ff16600381111561123857fe5b145b6112595760405160e560020a62461bcd02815260040161064e9061448a565b60028101805460009190600019810190811061127157fe5b90600052602060002090600a020190506007548160020154420311156112ac5760405160e560020a62461bcd02815260040161064e9061441a565b805460ff16156112d15760405160e560020a62461bcd02815260040161064e906143da565b60068101805473ffffffffffffffffffffffffffffffffffffffff19163317905560078101805460009190600019810190811061130a57fe5b60009182526020822060088501546040517ff7434ea900000000000000000000000000000000000000000000000000000000815260069093029091019350600160a060020a03610100909104169063f7434ea99061136f906009870190600401614379565b60206040518083038186803b15801561138757600080fd5b505afa15801561139b573d6000803e3d6000fd5b505050506040513d601f19601f820116820180604052506113bf91908101906138cc565b905060006114066006546113fa6127106113e4600b5487612a0c90919063ffffffff16565b816113eb57fe5b8691900463ffffffff612a4216565b9063ffffffff612a4216565b9050611416836002333485612a57565b808360020154101561143d5760405160e560020a62461bcd02815260040161064e906143aa565b6003830180546201000062ff00001990911617905560088401546000546040517fc13517e1000000000000000000000000000000000000000000000000000000008152610100909204600160a060020a03169163c13517e19185916114aa919060098a01906004016144ab565b6020604051808303818588803b1580156114c357600080fd5b505af11580156114d7573d6000803e3d6000fd5b50505050506040513d601f19601f820116820180604052506114fc91908101906138cc565b600185810182905560088601546101009004600160a060020a03166000908152600e6020908152604080832094835293905291909120899055845460ff19168117855560078501805491611552919083016131fc565b506004830154611568908363ffffffff612b2316565b600484015585156116055760028501546040513391611590918b9160001901906020016142b2565b60405160208183030381529060405280519060200120600190048560080160019054906101000a9004600160a060020a0316600160a060020a03167fdccf2f8b2cc26eafcd61905cba744cff4b81d14740725f6376390dc6298a6a3c8a8a6040516115fc929190614398565b60405180910390a45b5050505050505050565b60055481565b600e60209081526000928352604080842090915290825290205481565b6000838152600d602052604081206002810180549192918590811061165357fe5b90600052602060002090600a02019050600081600701848154811061167457fe5b600091825260209091206003840154600690920201915060ff1661169757600080fd5b815460009060ff1615806116bd57506000600884015460ff1660028111156116bb57fe5b145b15611796576000808360010154116116d6576000611712565b826001015483600201546004850154600160a060020a038c1660009081526005870160205260409020929091019160010154028161171057fe5b045b9050600080846002015411611728576000611764565b836001015484600201546004860154600160a060020a038d1660009081526005880160205260409020929091019160020154028161176257fe5b045b600160a060020a038b1660009081526005860160205260408120600181018290556002015591909101915061186e9050565b6008830154600090839060ff1660028111156117ae57fe5b600381106117b857fe5b0154116117c657600061182f565b6008830154829060ff1660028111156117db57fe5b600381106117e557fe5b01546004830154600160a060020a038a1660009081526005850160205260409020600886015460ff16600281111561181957fe5b6003811061182357fe5b0154028161182d57fe5b045b600160a060020a038916600090815260058401602052604081206008860154929350909160ff16600281111561186157fe5b6003811061186b57fe5b01555b604051600160a060020a0389169082156108fc029083906000818181858888f150505050505050505050505050565b600c81815481106118aa57fe5b600091825260209091200154905081565b6118c3613228565b6000828152600d6020526040812060028101805491929160001981019081106118e857fe5b6000918252602082206007600a90920201908101805491935090600019810190811061191057fe5b6000918252602091829020604080516102408101825289815287548251601f600260001961010060018616150201909316929092049182018790048702810187019093528083526006909402909201945090928381019287918301828280156119ba5780601f1061198f576101008083540402835291602001916119ba565b820191906000526020600020905b81548152906001019060200180831161199d57829003601f168201915b5050509183525050600185015460209091019060ff1660038111156119db57fe5b8152835460ff9081161515602083015260038501541615156040820152600180850154606083015260006080830181905260a083015260c090910190600485010154600160a060020a031681526020016004840160020154600160a060020a03908116825260088501546101009081900490911660208084019190915260098601805460408051600260018416159096026000190190921694909404601f810184900484028201840185528082529390940193929091830182828015611ae25780601f10611ab757610100808354040283529160200191611ae2565b820191906000526020600020905b815481529060010190602001808311611ac557829003601f168201915b5050509183525050600060208083018290526040805160608082018352848252818401859052818301859052828601919091528085018490526002880154608086015281519081018252838152918201839052810182905260a083015260c090910152825490945060ff168015611bef575060016008830154600184015460405160e360020a63021e2d3d028152610100909204600160a060020a0316916310f169e891611b929160040161433a565b60206040518083038186803b158015611baa57600080fd5b505afa158015611bbe573d6000803e3d6000fd5b505050506040513d601f19601f82011682018060405250611be291908101906138ae565b6002811115611bed57fe5b145b15611e8b57600882015460018301546040517f1c3db16d000000000000000000000000000000000000000000000000000000008152610100909204600160a060020a031691631c3db16d91611c469160040161433a565b60206040518083038186803b158015611c5e57600080fd5b505afa158015611c72573d6000803e3d6000fd5b505050506040513d601f19601f82011682018060405250611c9691908101906138cc565b6101808501526008820154600183015460405160e360020a63021e2d3d028152610100909204600160a060020a0316916310f169e891611cd89160040161433a565b60206040518083038186803b158015611cf057600080fd5b505afa158015611d04573d6000803e3d6000fd5b505050506040513d601f19601f82011682018060405250611d2891908101906138ae565b8461022001906002811115611d3957fe5b90816002811115611d4657fe5b905250600882015460018301546040517fafe15cfb000000000000000000000000000000000000000000000000000000008152610100909204600160a060020a03169163afe15cfb91611d9b9160040161433a565b604080518083038186803b158015611db257600080fd5b505afa158015611dc6573d6000803e3d6000fd5b505050506040513d601f19601f82011682018060405250611dea9190810190613909565b60e086015260c085015260048101546101c085015260408051606081019182905290600380840191826000855b825461010083900a900460ff161515815260206001928301818104948501949093039092029101808411611e175750505050506101a08601919091525060408051606081019182905290829060039082845b815481526020019060010190808311611e695750505050508461020001819052505b505050919050565b606060008086604051908082528060200260200182016040528015611ed257816020015b611ebf613228565b815260200190600190039081611eb75790505b509250600088611ee55760009150611f42565b60005b600c54811015611f215789600c8281548110611f0057fe5b90600052602060002001541415611f1957809250611f21565b600101611ee8565b5081611f425760405160e560020a62461bcd02815260040161064e9061446a565b60008215611f675786611f5d57600c54839003600101611f62565b826001015b611f7a565b86611f73576001611f76565b60005b60ff165b90505b86611f8d57600c54811115611f93565b600c5481105b156127e8576000600c88611fac57600c54839003611fae565b825b81548110611fb857fe5b6000918252602080832090910154808352600d909152604082206002810180549294509092916000198101908110611fec57fe5b6000918252602091829020600a9190910201915061200c908c018c6136f9565b801561202a57506000600183015460ff16600381111561202857fe5b145b8061205d575061204060408c0160208d016136f9565b801561205d575060018083015460ff16600381111561205b57fe5b145b8061209f575061207360608c0160408d016136f9565b801561209157506002600183015460ff16600381111561208f57fe5b145b801561209f5750805460ff16155b806120e157506120b560808c0160608d016136f9565b80156120d357506003600183015460ff1660038111156120d157fe5b145b80156120e15750805460ff16155b8061212257506120f760a08c0160808d016136f9565b801561211557506002600183015460ff16600381111561211357fe5b145b80156121225750805460ff165b80612163575061213860c08c0160a08d016136f9565b801561215657506003600183015460ff16600381111561215457fe5b145b80156121635750805460ff165b8061219d575061217960e08c0160c08d016136f9565b801561219d5750600160a060020a0389166004820160010154600160a060020a0316145b806121d857506121b46101008c0160e08d016136f9565b80156121d85750600160a060020a0389166004820160020154600160a060020a0316145b156127dd578b8510156127d1576121ed613228565b604051806102400160405280600c8d61220b57600c5488900361220d565b875b8154811061221757fe5b600091825260209182902001548252855460408051601f6002600019610100600187161502019094169390930492830184900484028101840190915281815292820192918791908301828280156122af5780601f10612284576101008083540402835291602001916122af565b820191906000526020600020905b81548152906001019060200180831161229257829003601f168201915b5050509183525050600185015460209091019060ff1660038111156122d057fe5b8152835460ff9081161515602083015260038501541615156040820152600180850154606083015260006080830181905260a083015260c090910190600485010154600160a060020a031681526020016004840160020154600160a060020a03908116825260088501546101009081900490911660208084019190915260098601805460408051600260018416159096026000190190921694909404601f8101849004840282018401855280825293909401939290918301828280156123d75780601f106123ac576101008083540402835291602001916123d7565b820191906000526020600020905b8154815290600101906020018083116123ba57829003601f168201915b5050509183525050600060208083018290526040805160608082018352848252818401859052818301859052828601919091528085018490526002880154608086015281519081018252838152918201839052810182905260a083015260c090910152825490915060ff1680156124e4575060016008830154600184015460405160e360020a63021e2d3d028152610100909204600160a060020a0316916310f169e8916124879160040161433a565b60206040518083038186803b15801561249f57600080fd5b505afa1580156124b3573d6000803e3d6000fd5b505050506040513d601f19601f820116820180604052506124d791908101906138ae565b60028111156124e257fe5b145b156127ad57600882015460018301546040517f1c3db16d000000000000000000000000000000000000000000000000000000008152610100909204600160a060020a031691631c3db16d9161253b9160040161433a565b60206040518083038186803b15801561255357600080fd5b505afa158015612567573d6000803e3d6000fd5b505050506040513d601f19601f8201168201806040525061258b91908101906138cc565b6101808201526008820154600183015460405160e360020a63021e2d3d028152610100909204600160a060020a0316916310f169e8916125cd9160040161433a565b60206040518083038186803b1580156125e557600080fd5b505afa1580156125f9573d6000803e3d6000fd5b505050506040513d601f19601f8201168201806040525061261d91908101906138ae565b816102200190600281111561262e57fe5b9081600281111561263b57fe5b905250600882015460018301546040517fafe15cfb000000000000000000000000000000000000000000000000000000008152610100909204600160a060020a03169163afe15cfb916126909160040161433a565b604080518083038186803b1580156126a757600080fd5b505afa1580156126bb573d6000803e3d6000fd5b505050506040513d601f19601f820116820180604052506126df9190810190613909565b60e083015260c082015260078201805460009190600019810190811061270157fe5b60009182526020822060069091020160048101546101c0850152604080516060810191829052919350909160038085019290918390855b825461010083900a900460ff1615158152602060019283018181049485019490930390920291018084116127385750505050506101a08401919091525060408051606081019182905290829060039082845b81548152602001906001019080831161278a575050505050826102000181905250505b808987815181106127ba57fe5b6020908102919091010152506001909401936127dd565b600196505050506127e8565b505050600101611f7d565b5050509550959350505050565b6000818152600d6020526040812060018082015460ff16600381111561281757fe5b148061283557506003600182015460ff16600381111561283357fe5b145b9150505b919050565b600082826040516128509291906142d8565b6040519081900390209050600080828152600d602052604090206001015460ff16600381111561287c57fe5b14610bc25760405160e560020a62461bcd02815260040161064e9061442a565b600154600160a060020a031633146128c95760405160e560020a62461bcd02815260040161064e906143ea565b600755565b61271081565b6000818152600d6020526040812060028101805491929160001981019081106128f957fe5b90600052602060002090600a0201905060075481600201544203116129335760405160e560020a62461bcd02815260040161064e9061440a565b805460ff16156129585760405160e560020a62461bcd02815260040161064e906143ba565b6002600183015460ff16600381111561296d57fe5b141561298b576001828101805460ff191682805b02179055506129d8565b6003600183015460ff1660038111156129a057fe5b14156129bd576001808301805460009260ff199091169083612981565b60405160e560020a62461bcd02815260040161064e9061445a565b60038101805460ff1916600117905560058101546002830154610c0191600160a060020a0316908590600019016000611632565b600082612a1b57506000612a3c565b82820282848281612a2857fe5b0414612a3657600019612a38565b805b9150505b92915050565b600082820183811015612a3657600019612a38565b600080612a8c84612a8789896002811115612a6e57fe5b60038110612a7857fe5b0154869063ffffffff612b2316565b612ffd565b600160a060020a038716600090815260058a016020526040902091935091508290876002811115612ab957fe5b60038110612ac357fe5b01805490910190558187876002811115612ad957fe5b60038110612ae357fe5b018054909101905560048701805483019055604051600160a060020a0386169082156108fc029083906000818181858888f1505050505050505050505050565b600082821115612b3557506000612a3c565b50808203612a3c565b80516020808301919091206000818152600d90925260409091206002810154612baa57600c80546001810182556000919091527fdf6966c971051c3d54ec59162606531493a51404a002842f56009d7e5cf4a8c7018290558251612ba890829060208601906132c1565b505b6000600182015460ff166003811115612bbf57fe5b1415612be2576001808201805460029260ff1990911690835b0217905550612c2e565b60018082015460ff166003811115612bf657fe5b1415612c13576001808201805460039260ff199091169083612bd8565b60405160e560020a62461bcd02815260040161064e9061447a565b60028101805460009190612c45826001830161333f565b81548110612c4f57fe5b60009182526020909120600a909102016005810180543373ffffffffffffffffffffffffffffffffffffffff199091161790554260028083019190915560035460088301805474ffffffffffffffffffffffffffffffffffffffff001916610100600160a060020a03909316830217905560048054939450612ce3936009860193919260018216150260001901160461336b565b5060078101805460009190612cfb82600183016131fc565b81548110612d0557fe5b60009182526020822060088501546040517ff7434ea900000000000000000000000000000000000000000000000000000000815260069093029091019350600160a060020a03610100909104169063f7434ea990612d6a906009870190600401614379565b60206040518083038186803b158015612d8257600080fd5b505afa158015612d96573d6000803e3d6000fd5b505050506040513d601f19601f82011682018060405250612dba91908101906138cc565b90506000612ddf6005546113fa6127106113e4600b5487612a0c90919063ffffffff16565b9050612def836001333485612a57565b8083600101541015612e165760405160e560020a62461bcd02815260040161064e906143aa565b5050600301805461ff00191661010017905550505050565b612e366133e0565b506040805180820190915281518152602082810190820152919050565b6060612e5e82613022565b612e6757600080fd5b6000612e728361305c565b905080604051908082528060200260200182016040528015612eae57816020015b612e9b6133e0565b815260200190600190039081612e935790505b5091506000612ec084602001516130b8565b60208501510190506000805b83811015612f1757612edd83613121565b9150604051806040016040528083815260200184815250858281518110612f0057fe5b602090810291909101015291810191600101612ecc565b50505050919050565b8051606090612f2e57600080fd5b6000612f3d83602001516130b8565b83516040805191839003808352601f19601f8201168301602001909152919250606090828015612f74576020820181803883390190505b5090506000816020019050612f908487602001510182856131b1565b50949350505050565b815181516000916001918114808314612fb55760009250612ff3565b600160208701838101602088015b600284838510011415612fee578051835114612fe25760009650600093505b60209283019201612fc3565b505050505b5090949350505050565b600080838311156130135750829050600061301b565b508190508083035b9250929050565b805160009061303357506000612839565b6020820151805160001a9060c082101561305257600092505050612839565b5060019392505050565b805160009061306d57506000612839565b6000809050600061308184602001516130b8565b602085015185519181019250015b808210156130af576130a082613121565b6001909301929091019061308f565b50909392505050565b8051600090811a60808110156130d2576000915050612839565b60b88110806130ed575060c081108015906130ed575060f881105b156130fc576001915050612839565b60c08110156131105760b519019050612839565b60f519019050612839565b50919050565b8051600090811a608081101561313b576001915050612839565b60b881101561314f57607e19019050612839565b60c081101561317c5760b78103600184019350806020036101000a8451046001820181019350505061311b565b60f88110156131905760be19019050612839565b60019290920151602083900360f7016101000a900490910160f51901919050565b806131bb57610c01565b5b602081106131db578251825260209283019290910190601f19016131bc565b915181516020939093036101000a6000190180199091169216919091179052565b815481835581811115610c0157600602816006028360005260206000209182019101610c0191906133fa565b6040805161024081018252600080825260606020830152909182019081526000602082018190526040820181905260608083018290526080830182905260a0830182905260c0830182905260e0830182905261010083018290526101208301526101408201526101600161329a613432565b815260200160008152602001600081526020016132b5613432565b81526020016000905290565b828054600181600116156101000203166002900490600052602060002090601f016020900481019282601f1061330257805160ff191683800117855561332f565b8280016001018555821561332f579182015b8281111561332f578251825591602001919060010190613314565b5061333b929150613450565b5090565b815481835581811115610c0157600a0281600a028360005260206000209182019101610c01919061346a565b828054600181600116156101000203166002900490600052602060002090601f016020900481019282601f106133a4578054855561332f565b8280016001018555821561332f57600052602060002091601f016020900482015b8281111561332f5782548255916001019190600101906133c5565b604051806040016040528060008152602001600081525090565b6111db91905b8082111561333b57600061341482826134f0565b613422600383016000613505565b5060006004820155600601613400565b60405180606001604052806003906020820280388339509192915050565b6111db91905b8082111561333b5760008155600101613456565b6111db91905b8082111561333b57805460ff199081168255600060018301819055600283018190556003830180549092169091556134ab60048301826134f0565b6134b960078301600061350c565b60088201805474ffffffffffffffffffffffffffffffffffffffffff191690556134e7600983016000613530565b50600a01613470565b50600081556001016000815560010160009055565b5060009055565b508054600082556006029060005260206000209081019061352d91906133fa565b50565b50805460018160011615610100020316600290046000825580601f10613556575061352d565b601f01602090049060005260206000209081019061352d9190613450565b8035612a3c816145ea565b806101008101831015612a3c57600080fd5b8035612a3c816145fe565b8035612a3c81614607565b60008083601f8401126135b957600080fd5b50813567ffffffffffffffff8111156135d157600080fd5b60208301915083600182028301111561301b57600080fd5b600082601f8301126135fa57600080fd5b813561360d613608826144f2565b6144cb565b9150808252602083016020830185838301111561362957600080fd5b613634838284614590565b50505092915050565b8051612a3c81614610565b8035612a3c81614610565b8051612a3c81614607565b6000806000806080858703121561367457600080fd5b60006136808787613574565b94505060206136918782880161359c565b93505060406136a28782880161359c565b92505060606136b38782880161359c565b91505092959194509250565b600080604083850312156136d257600080fd5b60006136de8585613574565b92505060206136ef8582860161359c565b9150509250929050565b60006020828403121561370b57600080fd5b6000612a388484613591565b60006020828403121561372957600080fd5b6000612a38848461359c565b6000806040838503121561374857600080fd5b6000613754858561359c565b92505060206136ef85828601613648565b60008060006040848603121561377a57600080fd5b6000613786868661359c565b935050602084013567ffffffffffffffff8111156137a357600080fd5b6137af868287016135a7565b92509250509250925092565b600080600080600061018086880312156137d457600080fd5b60006137e0888861359c565b95505060206137f18882890161359c565b94505060406138028882890161357f565b93505061014061381488828901613591565b92505061016061382688828901613574565b9150509295509295909350565b6000806020838503121561384657600080fd5b823567ffffffffffffffff81111561385d57600080fd5b613869858286016135a7565b92509250509250929050565b6000806000806080858703121561388b57600080fd5b843567ffffffffffffffff8111156138a257600080fd5b613680878288016135e9565b6000602082840312156138c057600080fd5b6000612a38848461363d565b6000602082840312156138de57600080fd5b6000612a388484613653565b600080604083850312156138fd57600080fd5b60006136de858561359c565b6000806040838503121561391c57600080fd5b60006139288585613653565b92505060206136ef85828601613653565b60006139458383613af6565b505060200190565b60006139598383613b38565b9392505050565b60006139598383614130565b60006139458383613aff565b6139818161453f565b82525050565b6139908161452c565b61399a8184612839565b92506139a5826111db565b8060005b838110156139d35781516139bd8782613939565b96506139c88361451a565b9250506001016139a9565b505050505050565b60006139e682614532565b6139f08185614536565b935083602082028501613a028561451a565b8060005b85811015613a3c5784840389528151613a1f858261394d565b9450613a2a8361451a565b60209a909a0199925050600101613a06565b5091979650505050505050565b6000613a5482614532565b613a5e8185614536565b935083602082028501613a708561451a565b8060005b85811015613a3c5784840389528151613a8d8582613960565b9450613a988361451a565b60209a909a0199925050600101613a74565b613ab38161452c565b613abd8184612839565b9250613ac8826111db565b8060005b838110156139d3578151613ae0878261396c565b9650613aeb8361451a565b925050600101613acc565b6139818161454a565b613981816111db565b613981613b14826111db565b6111db565b6000613b258385612839565b9350613b32838584614590565b50500190565b6000613b4382614532565b613b4d8185614536565b9350613b5d81856020860161459c565b613b66816145cc565b9093019392505050565b600081546001811660008114613b8d5760018114613bb357613bf2565b607f6002830416613b9e8187614536565b60ff1984168152955050602085019250613bf2565b60028204613bc18187614536565b9550613bcc85614520565b60005b82811015613beb57815488820152600190910190602001613bcf565b8701945050505b505092915050565b6139818161456f565b6139818161457a565b61398181614585565b6000613c218385614536565b9350613c2e838584614590565b613b66836145cc565b6000613c44601e83614536565b7f596f75206d7573742066756c6c792066756e6420796f757220736964652e0000815260200192915050565b6000613c7d602383614536565b7f54686520726571756573742073686f756c64206e6f742062652064697370757481527f65642e0000000000000000000000000000000000000000000000000000000000602082015260400192915050565b6000613cdc603483614536565b7f436f6e747269627574696f6e73206d757374206265206d61646520776974686981527f6e207468652061707065616c20706572696f642e000000000000000000000000602082015260400192915050565b6000613d3b603283614536565b7f54686520726571756573742073686f756c64206e6f74206861766520616c726581527f616479206265656e2064697370757465642e0000000000000000000000000000602082015260400192915050565b6000613d9a602083614536565b7f5468652063616c6c6572206d7573742062652074686520676f7665726e6f722e815260200192915050565b6000613dd3604583614536565b7f546865206c6f736572206d75737420636f6e7472696275746520647572696e6781527f207468652066697273742068616c66206f66207468652061707065616c20706560208201527f72696f642e000000000000000000000000000000000000000000000000000000604082015260600192915050565b6000613e58602f83614536565b7f54696d6520746f206368616c6c656e6765207468652072657175657374206d7581527f73742068617665207061737365642e0000000000000000000000000000000000602082015260400192915050565b6000613eb7603283614536565b7f4368616c6c656e676573206d757374206f6363757220647572696e672074686581527f206368616c6c656e676520706572696f642e0000000000000000000000000000602082015260400192915050565b6000613f16602083614536565b7f4974656d206d75737420626520616273656e7420746f2062652061646465642e815260200192915050565b6000613f4f602683614536565b7f4974656d206d757374206265207265676973746572656420746f20626520726581527f6d6f7665642e0000000000000000000000000000000000000000000000000000602082015260400192915050565b6000613fae603283614536565b7f412064697370757465206d7573742068617665206265656e207261697365642081527f746f2066756e6420616e2061707065616c2e0000000000000000000000000000602082015260400192915050565b600061400d601883614536565b7f5468657265206d757374206265206120726571756573742e0000000000000000815260200192915050565b6000614046601683614536565b7f54686520637572736f7220697320696e76616c69642e00000000000000000000815260200192915050565b600061407f602383614536565b7f4974656d20616c72656164792068617320612070656e64696e6720726571756581527f73742e0000000000000000000000000000000000000000000000000000000000602082015260400192915050565b60006140de602583614536565b7f546865206974656d206d757374206861766520612070656e64696e672072657181527f756573742e000000000000000000000000000000000000000000000000000000602082015260400192915050565b80516000906102c08401906141458582613aff565b506020830151848203602086015261415d8282613b38565b91505060408301516141726040860182613c0c565b5060608301516141856060860182613af6565b5060808301516141986080860182613af6565b5060a08301516141ab60a0860182613aff565b5060c08301516141be60c0860182613aff565b5060e08301516141d160e0860182613aff565b506101008301516141e6610100860182613978565b506101208301516141fb610120860182613978565b50610140830151614210610140860182613978565b5061016083015184820361016086015261422a8282613b38565b915050610180830151614241610180860182613aff565b506101a08301516142566101a0860182613987565b506101c083015161426b610200860182613aff565b506101e0830151614280610220860182613aff565b50610200830151614295610240860182613aaa565b506102208301516142aa6102a0860182613c03565b509392505050565b60006142be8285613b08565b6020820191506142ce8284613b08565b5060200192915050565b60006142e5828486613b19565b949350505050565b60208101612a3c8284613978565b6020808252810161395981846139db565b6040808252810161431d8185613a49565b90506139596020830184613af6565b60208101612a3c8284613af6565b60208101612a3c8284613aff565b602080825281016139598184613b38565b6040808252810161436a8185613b38565b90506139596020830184613c0c565b602080825281016139598184613b70565b60208101612a3c8284613bfa565b602080825281016142e5818486613c15565b60208082528101612a3c81613c37565b60208082528101612a3c81613c70565b60208082528101612a3c81613ccf565b60208082528101612a3c81613d2e565b60208082528101612a3c81613d8d565b60208082528101612a3c81613dc6565b60208082528101612a3c81613e4b565b60208082528101612a3c81613eaa565b60208082528101612a3c81613f09565b60208082528101612a3c81613f42565b60208082528101612a3c81613fa1565b60208082528101612a3c81614000565b60208082528101612a3c81614039565b60208082528101612a3c81614072565b60208082528101612a3c816140d1565b602080825281016139598184614130565b604081016144b98285613aff565b81810360208301526142e58184613b70565b60405181810167ffffffffffffffff811182821017156144ea57600080fd5b604052919050565b600067ffffffffffffffff82111561450957600080fd5b506020601f91909101601f19160190565b60200190565b60009081526020902090565b50600390565b5190565b90815260200190565b6000612a3c82614563565b151590565b80612839816145d6565b80612839816145e0565b600160a060020a031690565b6000612a3c8261453f565b6000612a3c8261454f565b6000612a3c82614559565b82818337506000910152565b60005b838110156145b757818101518382015260200161459f565b838111156145c6576000848401525b50505050565b601f01601f191690565b6003811061352d57fe5b6004811061352d57fe5b6145f38161453f565b811461352d57600080fd5b6145f38161454a565b6145f3816111db565b6003811061352d57600080fdfea365627a7a72315820a4f6ea10281cfd6ee9f259c9f91a45ff92e6f7b500e6b3d5ff1a1b9447a3e39d6c6578706572696d656e74616cf564736f6c634300050b004061606860eb6c87306811e2695215385101daab53bd6ab4e9f9049aead9363c7d",
  "source": "/**\n *  @authors: [@mtsalenc]\n *  @reviewers: []\n *  @auditors: []\n *  @bounties: []\n *  @deployments: []\n */\n\npragma solidity ^0.5.11;\npragma experimental ABIEncoderV2;\n\nimport { IArbitrable, Arbitrator } from \"@kleros/erc-792/contracts/Arbitrator.sol\";\nimport { IEvidence } from \"@kleros/erc-792/contracts/erc-1497/IEvidence.sol\";\n\nimport \"solidity-bytes-utils/contracts/BytesLib.sol\";\nimport \"solidity-rlp/contracts/RLPReader.sol\";\nimport \"./libraries/CappedMath.sol\";\n\ncontract GTCRMock is IArbitrable, IEvidence{\n    using CappedMath for uint; // Operations bounded between 0 and 2**256 - 1.\n    using RLPReader for RLPReader.RLPItem;\n    using RLPReader for bytes;\n    using BytesLib for bytes;\n\n    /* Enums */\n\n    enum ItemStatus {\n        Absent,\n        Registered,\n        RegistrationRequested,\n        ClearingRequested\n    }\n\n    enum Party {\n        None,      // Party per default when there is no challenger or requester. Also used for unconclusive ruling.\n        Requester, // Party that made the request to change an address status.\n        Challenger // Party that challenges the request to change an address status.\n    }\n\n    /* Structs */\n\n    struct Item {\n        bytes data;\n        ItemStatus status; // The status of the item.\n        Request[] requests; // List of status change requests made for the item.\n    }\n\n    struct Request {\n        bool disputed; // True if a dispute was raised.\n        uint disputeID; // ID of the dispute, if any.\n        uint submissionTime; // Time when the request was made. Used to track when the challenge period ends.\n        bool resolved; // True if the request was executed and/or any disputes raised were resolved.\n        address payable[3] parties; // Address of requester and challenger, if any.\n        Round[] rounds; // Tracks each round of a dispute.\n        Party ruling; // The final ruling given, if any.\n        Arbitrator arbitrator; // The arbitrator trusted to solve disputes for this request.\n        bytes arbitratorExtraData; // The extra data for the trusted arbitrator of this request.\n    }\n\n    struct Round {\n        uint[3] paidFees; // Tracks the fees paid by each side on this round.\n        bool[3] hasPaid; // True when the side has fully paid its fee. False otherwise.\n        uint feeRewards; // Sum of reimbursable fees and stake rewards available to the parties that made contributions to the side that ultimately wins a dispute.\n        mapping(address => uint[3]) contributions; // Maps contributors to their contributions for each side.\n    }\n\n    struct QueryResult {\n        bytes32 ID;\n        bytes data;\n        ItemStatus status;\n        bool disputed;\n        bool resolved;\n        uint disputeID;\n        uint appealStart;\n        uint appealEnd;\n        address requester;\n        address challenger;\n        address arbitrator;\n        bytes arbitratorExtraData;\n        uint currentRuling;\n        bool[3] hasPaid;\n        uint feeRewards;\n        uint submissionTime;\n        uint[3] paidFees;\n        Arbitrator.DisputeStatus disputeStatus;\n    }\n\n    /* Storage */\n\n    // Constants\n\n    uint RULING_OPTIONS = 2; // The amount of non 0 choices the arbitrator can give.\n\n    // Settings\n    address public governor; // The address that can make governance changes to the parameters of the TCR.\n    address public relatedTCR; // The address of the TCR of TCRs related to this one.\n    Arbitrator public arbitrator; // The arbitrator that will be used to resolve disputes on the next requests.\n    bytes public arbitratorExtraData; // The arbitrator extra data used for the next requests.\n    uint public requesterBaseDeposit; // The base deposit to make a request.\n    uint public challengerBaseDeposit; // The base deposit to challenge a request.\n    uint public challengePeriodDuration; // The time before a request becomes executable if not challenged.\n    uint public metaEvidenceUpdates; // The number of times the meta evidence has been updated. Used to track the latest meta evidence ID.\n\n    // The required fee stake that a party must pay depends on who won the previous round and is proportional to the arbitration cost such that the fee stake for a round is stake multiplier * arbitration cost for that round.\n    // Multipliers are in basis points.\n    uint public winnerStakeMultiplier; // Multiplier for calculating the fee stake paid by the party that won the previous round.\n    uint public loserStakeMultiplier; // Multiplier for calculating the fee stake paid by the party that lost the previous round.\n    uint public sharedStakeMultiplier; // Multiplier for calculating the fee stake that must be paid in the case where there isn't a winner and loser (e.g. when it's the first round or the arbitrator ruled \"refused to rule\"/\"could not rule\").\n    uint public constant MULTIPLIER_DIVISOR = 10000; // Divisor parameter for multipliers.\n\n    // Registry data.\n    bytes32[] public itemIDs; // List of IDs of submitted items.\n    mapping(bytes32 => Item) public items; // Maps the item ID to the item.\n    mapping(address => mapping(uint => bytes32)) public arbitratorDisputeIDToItemID; // Maps a dispute ID to the ID of the item with the disputed request. On the form arbitratorDisputeIDToItemID[arbitrator][disputeID].\n\n    /* Modifiers */\n\n    modifier onlyGovernor {require(msg.sender == governor, \"The caller must be the governor.\"); _;}\n\n    constructor(\n        Arbitrator _arbitrator,\n        bytes memory _arbitratorExtraData,\n        string memory _registrationMetaEvidence,\n        string memory _clearingMetaEvidence,\n        address _governor,\n        uint _requesterBaseDeposit,\n        uint _challengerBaseDeposit,\n        uint _challengePeriodDuration,\n        uint _sharedStakeMultiplier,\n        uint _winnerStakeMultiplier,\n        uint _loserStakeMultiplier\n    ) public {\n        emit MetaEvidence(0, _registrationMetaEvidence);\n        emit MetaEvidence(1, _clearingMetaEvidence);\n\n        arbitrator = _arbitrator;\n        arbitratorExtraData = _arbitratorExtraData;\n        governor = _governor;\n        requesterBaseDeposit = _requesterBaseDeposit;\n        challengerBaseDeposit = _challengerBaseDeposit;\n        challengePeriodDuration = _challengePeriodDuration;\n        sharedStakeMultiplier = _sharedStakeMultiplier;\n        winnerStakeMultiplier = _winnerStakeMultiplier;\n        loserStakeMultiplier = _loserStakeMultiplier;\n    }\n\n    function addItem(bytes calldata _item) external payable {\n        bytes32 itemID = keccak256(_item);\n        require(items[itemID].status == ItemStatus.Absent, \"Item must be absent to be added.\");\n        requestStatusChange(_item);\n    }\n\n    function removeItem(bytes calldata _item) external payable {\n        bytes32 itemID = keccak256(_item);\n        require(items[itemID].status == ItemStatus.Registered, \"Item must be registered to be removed.\");\n        requestStatusChange(_item);\n    }\n\n    /** @dev Executes a request if the challenge period passed and no one challenged the request.\n     *  @param _item The item with the request to execute.\n     */\n    function executeRequest(bytes32 _item) external {\n        Item storage addr = items[_item];\n        Request storage request = addr.requests[addr.requests.length - 1];\n        require(\n            now - request.submissionTime > challengePeriodDuration,\n            \"Time to challenge the request must have passed.\"\n        );\n        require(!request.disputed, \"The request should not be disputed.\");\n\n        if (addr.status == ItemStatus.RegistrationRequested)\n            addr.status = ItemStatus.Registered;\n        else if (addr.status == ItemStatus.ClearingRequested)\n            addr.status = ItemStatus.Absent;\n        else\n            revert(\"There must be a request.\");\n\n        request.resolved = true;\n        withdrawFeesAndRewards(request.parties[uint(Party.Requester)], _item, addr.requests.length - 1, 0); // Automatically withdraw for the requester.\n    }\n\n    /** @dev Challenges the latest request of a item. Accepts enough ETH to fund a potential dispute considering the current required amount. Reimburses unused ETH. TRUSTED.\n     *  @param _itemID The ID of the item with the request to challenge.\n     *  @param _evidence A link to an evidence using its URI. Ignored if not provided or if not enough funds were provided to create a dispute.\n     */\n    function challengeRequest(bytes32 _itemID, string calldata _evidence) external payable {\n        Item storage item = items[_itemID];\n        require(\n            item.status == ItemStatus.RegistrationRequested || item.status == ItemStatus.ClearingRequested,\n            \"The item must have a pending request.\"\n        );\n        Request storage request = item.requests[item.requests.length - 1];\n        require(now - request.submissionTime <= challengePeriodDuration, \"Challenges must occur during the challenge period.\");\n        require(!request.disputed, \"The request should not have already been disputed.\");\n\n        // Take the deposit and save the challenger's address.\n        request.parties[uint(Party.Challenger)] = msg.sender;\n\n        Round storage round = request.rounds[request.rounds.length - 1];\n        uint arbitrationCost = request.arbitrator.arbitrationCost(request.arbitratorExtraData);\n        uint totalCost = arbitrationCost.addCap((arbitrationCost.mulCap(sharedStakeMultiplier)) / MULTIPLIER_DIVISOR).addCap(challengerBaseDeposit);\n        contribute(round, Party.Challenger, msg.sender, msg.value, totalCost);\n        require(round.paidFees[uint(Party.Challenger)] >= totalCost, \"You must fully fund your side.\");\n        round.hasPaid[uint(Party.Challenger)] = true;\n\n        // Raise a dispute.\n        request.disputeID = request.arbitrator.createDispute.value(arbitrationCost)(RULING_OPTIONS, request.arbitratorExtraData);\n        arbitratorDisputeIDToItemID[address(request.arbitrator)][request.disputeID] = _itemID;\n        request.disputed = true;\n        request.rounds.length++;\n        round.feeRewards = round.feeRewards.subCap(arbitrationCost);\n\n        if (bytes(_evidence).length > 0)\n            emit Evidence(request.arbitrator, uint(keccak256(abi.encodePacked(_itemID,item.requests.length - 1))), msg.sender, _evidence);\n    }\n\n    /** @dev Takes up to the total amount required to fund a side of an appeal. Reimburses the rest. Creates an appeal if both sides are fully funded. TRUSTED.\n     *  @param _itemID The ID of the item with the appeal to fund.\n     *  @param _side The recipient of the contribution.\n     */\n    function fundAppeal(bytes32 _itemID, Party _side) external payable {\n        // Recipient must be either the requester or challenger.\n        require(_side == Party.Requester || _side == Party.Challenger); // solium-disable-line error-reason\n        Item storage item = items[_itemID];\n        require(\n            item.status == ItemStatus.RegistrationRequested || item.status == ItemStatus.ClearingRequested,\n            \"The item must have a pending request.\"\n        );\n        Request storage request = item.requests[item.requests.length - 1];\n        require(request.disputed, \"A dispute must have been raised to fund an appeal.\");\n        (uint appealPeriodStart, uint appealPeriodEnd) = request.arbitrator.appealPeriod(request.disputeID);\n        require(\n            now >= appealPeriodStart && now < appealPeriodEnd,\n            \"Contributions must be made within the appeal period.\"\n        );\n\n        // Amount required to fully fund each side: arbitration cost + (arbitration cost * multiplier)\n        Round storage round = request.rounds[request.rounds.length - 1];\n        Party winner = Party(request.arbitrator.currentRuling(request.disputeID));\n        Party loser;\n        if (winner == Party.Requester)\n            loser = Party.Challenger;\n        else if (winner == Party.Challenger)\n            loser = Party.Requester;\n        require(\n            !(_side==loser) || (now-appealPeriodStart < (appealPeriodEnd-appealPeriodStart)/2),\n            \"The loser must contribute during the first half of the appeal period.\"\n        );\n\n        uint multiplier;\n        if (_side == winner)\n            multiplier = winnerStakeMultiplier;\n        else if (_side == loser)\n            multiplier = loserStakeMultiplier;\n        else\n            multiplier = sharedStakeMultiplier;\n        uint appealCost = request.arbitrator.appealCost(request.disputeID, request.arbitratorExtraData);\n        uint totalCost = appealCost.addCap((appealCost.mulCap(multiplier)) / MULTIPLIER_DIVISOR);\n        contribute(round, _side, msg.sender, msg.value, totalCost);\n        if (round.paidFees[uint(_side)] >= totalCost)\n            round.hasPaid[uint(_side)] = true;\n\n        // Raise appeal if both sides are fully funded.\n        if (round.hasPaid[uint(Party.Challenger)] && round.hasPaid[uint(Party.Requester)]) {\n            request.arbitrator.appeal.value(appealCost)(request.disputeID, request.arbitratorExtraData);\n            request.rounds.length++;\n            round.feeRewards = round.feeRewards.subCap(appealCost);\n        }\n    }\n\n\n    /** @dev Give a ruling for a dispute. Can only be called by the arbitrator. TRUSTED.\n     *  Overrides parent function to account for the situation where the winner loses a case due to paying less appeal fees than expected.\n     *  @param _disputeID ID of the dispute in the arbitrator contract.\n     *  @param _ruling Ruling given by the arbitrator. Note that 0 is reserved for \"Not able/wanting to make a decision\".\n     */\n    function rule(uint _disputeID, uint _ruling) public {\n        Party winner = Party(_ruling);\n        bytes32 itemID = arbitratorDisputeIDToItemID[msg.sender][_disputeID];\n        Item storage item = items[itemID];\n        Request storage request = item.requests[item.requests.length - 1];\n        Round storage round = request.rounds[request.rounds.length - 1];\n        require(_ruling <= RULING_OPTIONS); // solium-disable-line error-reason\n        require(address(request.arbitrator) == msg.sender); // solium-disable-line error-reason\n        require(!request.resolved); // solium-disable-line error-reason\n\n        // The ruling is inverted if the loser paid its fees.\n        if (round.hasPaid[uint(Party.Requester)] == true) // If one side paid its fees, the ruling is in its favor. Note that if the other side had also paid, an appeal would have been created.\n            winner = Party.Requester;\n        else if (round.hasPaid[uint(Party.Challenger)] == true)\n            winner = Party.Challenger;\n\n        emit Ruling(Arbitrator(msg.sender), _disputeID, uint(winner));\n\n        // Update the item's state\n        if (winner == Party.Requester) { // Execute Request\n            if (item.status == ItemStatus.RegistrationRequested)\n                item.status = ItemStatus.Registered;\n            else\n                item.status = ItemStatus.Absent;\n        } else { // Revert to previous state.\n            if (item.status == ItemStatus.RegistrationRequested)\n                item.status = ItemStatus.Absent;\n            else if (item.status == ItemStatus.ClearingRequested)\n                item.status = ItemStatus.Registered;\n        }\n\n        request.resolved = true;\n        request.ruling = Party(winner);\n        // Automatically withdraw.\n        if (winner == Party.None) {\n            withdrawFeesAndRewards(request.parties[uint(Party.Requester)], itemID, item.requests.length-1, 0);\n            withdrawFeesAndRewards(request.parties[uint(Party.Challenger)], itemID, item.requests.length-1, 0);\n        } else {\n            withdrawFeesAndRewards(request.parties[uint(winner)], itemID, item.requests.length-1, 0);\n        }\n    }\n\n    /** @dev Reimburses contributions if no disputes were raised. If a dispute was raised, sends the fee stake rewards and reimbursements proportional to the contributions made to the winner of a dispute.\n     *  @param _beneficiary The address that made contributions to a request.\n     *  @param _itemID The ID of the item with the request from which to withdraw.\n     *  @param _request The request from which to withdraw.\n     *  @param _round The round from which to withdraw.\n     */\n    function withdrawFeesAndRewards(address payable _beneficiary, bytes32 _itemID, uint _request, uint _round) public {\n        Item storage item = items[_itemID];\n        Request storage request = item.requests[_request];\n        Round storage round = request.rounds[_round];\n        // The request must be executed and there can be no disputes pending resolution.\n        require(request.resolved); // solium-disable-line error-reason\n\n        uint reward;\n        if (!request.disputed || request.ruling == Party.None) {\n            // No disputes were raised, or there isn't a winner and loser. Reimburse unspent fees proportionally.\n            uint rewardRequester = round.paidFees[uint(Party.Requester)] > 0\n                ? (round.contributions[_beneficiary][uint(Party.Requester)] * round.feeRewards) / (round.paidFees[uint(Party.Challenger)] + round.paidFees[uint(Party.Requester)])\n                : 0;\n            uint rewardChallenger = round.paidFees[uint(Party.Challenger)] > 0\n                ? (round.contributions[_beneficiary][uint(Party.Challenger)] * round.feeRewards) / (round.paidFees[uint(Party.Challenger)] + round.paidFees[uint(Party.Requester)])\n                : 0;\n\n            reward = rewardRequester + rewardChallenger;\n            round.contributions[_beneficiary][uint(Party.Requester)] = 0;\n            round.contributions[_beneficiary][uint(Party.Challenger)] = 0;\n        } else {\n            // Reward the winner.\n            reward = round.paidFees[uint(request.ruling)] > 0\n                ? (round.contributions[_beneficiary][uint(request.ruling)] * round.feeRewards) / round.paidFees[uint(request.ruling)]\n                : 0;\n\n            round.contributions[_beneficiary][uint(request.ruling)] = 0;\n        }\n\n        _beneficiary.send(reward); // It is the user responsibility to accept ETH.\n    }\n\n    /** @dev Change the duration of the challenge period.\n     *  @param _challengePeriodDuration The new duration of the challenge period.\n     */\n    function changeTimeToChallenge(uint _challengePeriodDuration) external onlyGovernor {\n        challengePeriodDuration = _challengePeriodDuration;\n    }\n\n    /* Internal */\n\n    function requestStatusChange(bytes memory _item) internal {\n        bytes32 itemID = keccak256(_item);\n\n        Item storage item = items[itemID];\n        if (item.requests.length == 0) { // Initial item registration.\n            itemIDs.push(itemID);\n            item.data = _item;\n        }\n\n        // Update item status.\n        if (item.status == ItemStatus.Absent)\n            item.status = ItemStatus.RegistrationRequested;\n        else if (item.status == ItemStatus.Registered)\n            item.status = ItemStatus.ClearingRequested;\n        else\n            revert(\"Item already has a pending request.\");\n\n        // Setup request.\n        Request storage request = item.requests[item.requests.length++];\n        request.parties[uint(Party.Requester)] = msg.sender;\n        request.submissionTime = now;\n        request.arbitrator = arbitrator;\n        request.arbitratorExtraData = arbitratorExtraData;\n        Round storage round = request.rounds[request.rounds.length++];\n\n\n        // Amount required to fully fund each side: requesterBaseDeposit + arbitration cost + (arbitration cost * multiplier).\n        uint arbitrationCost = request.arbitrator.arbitrationCost(request.arbitratorExtraData);\n        uint totalCost = arbitrationCost.addCap((arbitrationCost.mulCap(sharedStakeMultiplier)) / MULTIPLIER_DIVISOR).addCap(requesterBaseDeposit);\n        contribute(round, Party.Requester, msg.sender, msg.value, totalCost);\n        require(round.paidFees[uint(Party.Requester)] >= totalCost, \"You must fully fund your side.\");\n        round.hasPaid[uint(Party.Requester)] = true;\n    }\n\n    /** @dev Returns the contribution value and remainder from available ETH and required amount.\n     *  @param _available The amount of ETH available for the contribution.\n     *  @param _requiredAmount The amount of ETH required for the contribution.\n     *  @return taken The amount of ETH taken.\n     *  @return remainder The amount of ETH left from the contribution.\n     */\n    function calculateContribution(uint _available, uint _requiredAmount)\n        internal\n        pure\n        returns(uint taken, uint remainder)\n    {\n        if (_requiredAmount > _available)\n            return (_available, 0); // Take whatever is available, return 0 as leftover ETH.\n\n        remainder = _available - _requiredAmount;\n        return (_requiredAmount, remainder);\n    }\n\n    /** @dev Make a fee contribution.\n     *  @param _round The round to contribute.\n     *  @param _side The side for which to contribute.\n     *  @param _contributor The contributor.\n     *  @param _amount The amount contributed.\n     *  @param _totalRequired The total amount required for this side.\n     */\n    function contribute(Round storage _round, Party _side, address payable _contributor, uint _amount, uint _totalRequired) internal {\n        // Take up to the amount necessary to fund the current round at the current costs.\n        uint contribution; // Amount contributed.\n        uint remainingETH; // Remaining ETH to send back.\n        (contribution, remainingETH) = calculateContribution(_amount, _totalRequired.subCap(_round.paidFees[uint(_side)]));\n        _round.contributions[_contributor][uint(_side)] += contribution;\n        _round.paidFees[uint(_side)] += contribution;\n        _round.feeRewards += contribution;\n\n        // Reimburse leftover ETH.\n        _contributor.send(remainingETH); // Deliberate use of send in order to not block the contract in case of reverting fallback.\n    }\n\n    /* Views */\n\n    /** @dev Return true if the item is on the list.\n     *  @param _itemID The ID of the item to be queried.\n     *  @return allowed True if the item is allowed, false otherwise.\n     */\n    function isPermitted(bytes32 _itemID) external view returns (bool allowed) {\n        Item storage item = items[_itemID];\n        return item.status == ItemStatus.Registered || item.status == ItemStatus.ClearingRequested;\n    }\n\n    function itemCount() external view returns (uint) {\n        return itemIDs.length;\n    }\n\n    function getItem(bytes32 _itemID) external view returns (QueryResult memory result) {\n        Item storage item = items[_itemID];\n        Request storage request = item.requests[item.requests.length - 1];\n        Round storage round = request.rounds[request.rounds.length - 1];\n\n        result = QueryResult({\n            ID: _itemID,\n            data: item.data,\n            status: item.status,\n            disputed: request.disputed,\n            resolved: request.resolved,\n            disputeID: request.disputeID,\n            requester: request.parties[uint(Party.Requester)],\n            challenger: request.parties[uint(Party.Challenger)],\n            appealStart: 0,\n            appealEnd: 0,\n            arbitrator: address(request.arbitrator),\n            arbitratorExtraData: request.arbitratorExtraData,\n            submissionTime: request.submissionTime,\n            hasPaid: [false,false,false],\n            paidFees: [uint(0), uint(0), uint(0)],\n            currentRuling: 0,\n            feeRewards: 0,\n            disputeStatus: Arbitrator.DisputeStatus.Waiting\n        });\n        if (request.disputed && request.arbitrator.disputeStatus(request.disputeID) == Arbitrator.DisputeStatus.Appealable) {\n            result.currentRuling = request.arbitrator.currentRuling(request.disputeID);\n            result.disputeStatus = request.arbitrator.disputeStatus(request.disputeID);\n            (result.appealStart, result.appealEnd) = request.arbitrator.appealPeriod(request.disputeID);\n\n            result.feeRewards = round.feeRewards;\n            result.hasPaid = round.hasPaid;\n            result.paidFees = round.paidFees;\n        }\n    }\n\n    /** @dev Find an item by matching column values.\n     *  - Example:\n     *  Item [18, 'PNK', 'Pinakion', '0xca35b7d915458ef540ade6068dfe2f44e8fa733c']\n     *  RLP encoded: 0xe383504e4b128850696e616b696f6e94ca35b7d915458ef540ade6068dfe2f44e8fa733c\n     *  Input for remix: [\"0xe3\",\"0x83\",\"0x50\",\"0x4e\",\"0x4b\",\"0x12\",\"0x88\",\"0x50\",\"0x69\",\"0x6e\",\"0x61\",\"0x6b\",\"0x69\",\"0x6f\",\"0x6e\",\"0x94\",\"0xca\",\"0x35\",\"0xb7\",\"0xd9\",\"0x15\",\"0x45\",\"0x8e\",\"0xf5\",\"0x40\",\"0xad\",\"0xe6\",\"0x06\",\"0x8d\",\"0xfe\",\"0x2f\",\"0x44\",\"0xe8\",\"0xfa\",\"0x73\",\"0x3c\"]\n     *  @param _rlpEncodedMatch The RLP encoded item to match against the items on the list.\n     *  @param _cursor The index from where to start looking for matches.\n     *  @param _returnCount The size of the array to return with matching values.\n     *  @param _count The number of items to iterate while searching.\n     *  @return An array with items that match the query.\n     */\n    function findItem(bytes memory _rlpEncodedMatch, uint _cursor, uint _returnCount, uint _count) public view returns (bytes[] memory) {\n        RLPReader.RLPItem[] memory matchItem = _rlpEncodedMatch.toRlpItem().toList();\n        bytes[] memory results = new bytes[](_count);\n        uint itemsFound;\n\n        for(uint i = _cursor; i < (_count == 0 ? itemIDs.length : _count); i++) { // Iterate over every item in storage.\n            bytes storage itemBytes = items[itemIDs[i]].data;\n            RLPReader.RLPItem[] memory item = itemBytes.toRlpItem().toList();\n            for (uint j = 0; j < matchItem.length; j++) { // Iterate over every column.\n                if (item[j].toBytes().equal(matchItem[j].toBytes())) {\n                    results[itemsFound] = itemBytes;\n                    itemsFound++;\n                    break;\n                }\n            }\n        }\n        return results;\n    }\n\n    /** @dev Return the values of the items the query finds. This function is O(n), where n is the number of items. This could exceed the gas limit, therefore this function should only be used for interface display and not by other contracts.\n     *  @param _cursor The ID of the items from which to start iterating. To start from either the oldest or newest item.\n     *  @param _count The number of items to return.\n     *  @param _filter The filter to use. Each element of the array in sequence means:\n     *  - Include absent items in result.\n     *  - Include registered items in result.\n     *  - Include items with registration requests that are not disputed in result.\n     *  - Include items with clearing requests that are not disputed in result.\n     *  - Include disputed items with registration requests in result.\n     *  - Include disputed items with clearing requests in result.\n     *  - Include items submitted by _party.\n     *  - Include items challenged by _party.\n     *  @param _oldestFirst Whether to sort from oldest to the newest item.\n     *  @param _party The address to use if checking for items submitted or challenged by a specific party.\n     *  @return The values of the tokens found and whether there are more tokens for the current filter and sort.\n     */\n    function queryItems(bytes32 _cursor, uint _count, bool[8] calldata _filter, bool _oldestFirst, address _party)\n        external\n        view\n        returns (QueryResult[] memory results, bool hasMore)\n    {\n        uint cursorIndex;\n        results = new QueryResult[](_count);\n\n        uint index = 0;\n\n        if (_cursor == 0)\n            cursorIndex = 0;\n        else {\n            for (uint j = 0; j < itemIDs.length; j++) {\n                if (itemIDs[j] == _cursor) {\n                    cursorIndex = j;\n                    break;\n                }\n            }\n            require(cursorIndex != 0, \"The cursor is invalid.\");\n        }\n\n        for (\n                uint i = cursorIndex == 0 ? (_oldestFirst ? 0 : 1) : (_oldestFirst ? cursorIndex + 1 : itemIDs.length - cursorIndex + 1);\n                _oldestFirst ? i < itemIDs.length : i <= itemIDs.length;\n                i++\n            ) { // Oldest or newest first.\n            bytes32 itemID = itemIDs[_oldestFirst ? i : itemIDs.length - i];\n            Item storage item = items[itemID];\n            Request storage request = item.requests[item.requests.length - 1];\n            if (\n                /* solium-disable operator-whitespace */\n                (_filter[0] && item.status == ItemStatus.Absent) ||\n                (_filter[1] && item.status == ItemStatus.Registered) ||\n                (_filter[2] && item.status == ItemStatus.RegistrationRequested && !request.disputed) ||\n                (_filter[3] && item.status == ItemStatus.ClearingRequested && !request.disputed) ||\n                (_filter[4] && item.status == ItemStatus.RegistrationRequested && request.disputed) ||\n                (_filter[5] && item.status == ItemStatus.ClearingRequested && request.disputed) ||\n                (_filter[6] && request.parties[uint(Party.Requester)] == _party) ||\n                (_filter[7] && request.parties[uint(Party.Challenger)] == _party)\n                /* solium-enable operator-whitespace */\n            ) {\n                if (index < _count) {\n                    QueryResult memory result = QueryResult({\n                        ID: itemIDs[_oldestFirst ? i : itemIDs.length - i],\n                        data: item.data,\n                        status: item.status,\n                        disputed: request.disputed,\n                        resolved: request.resolved,\n                        disputeID: request.disputeID,\n                        requester: request.parties[uint(Party.Requester)],\n                        challenger: request.parties[uint(Party.Challenger)],\n                        appealStart: 0,\n                        appealEnd: 0,\n                        arbitrator: address(request.arbitrator),\n                        arbitratorExtraData: request.arbitratorExtraData,\n                        submissionTime: request.submissionTime,\n                        hasPaid: [false,false,false],\n                        paidFees: [uint(0), uint(0), uint(0)],\n                        currentRuling: 0,\n                        feeRewards: 0,\n                        disputeStatus: Arbitrator.DisputeStatus.Waiting\n                    });\n                    if (request.disputed && request.arbitrator.disputeStatus(request.disputeID) == Arbitrator.DisputeStatus.Appealable) {\n                        result.currentRuling = request.arbitrator.currentRuling(request.disputeID);\n                        result.disputeStatus = request.arbitrator.disputeStatus(request.disputeID);\n                        (result.appealStart, result.appealEnd) = request.arbitrator.appealPeriod(request.disputeID);\n\n                        Round storage round = request.rounds[request.rounds.length - 1];\n                        result.feeRewards = round.feeRewards;\n                        result.hasPaid = round.hasPaid;\n                        result.paidFees = round.paidFees;\n                    }\n                    results[index] = result;\n                    index++;\n                } else {\n                    hasMore = true;\n                    break;\n                }\n            }\n        }\n    }\n\n}\n",
  "sourcePath": "/home/betelgiuse/Documents/visus/kleros/repos/gtcr/contracts/GTCRMock.sol",
  "compiler": {
    "name": "solc",
    "version": "0.5.11+commit.c082d0b4.Emscripten.clang"
  },
  "schemaVersion": "3.0.11",
  "updatedAt": "2019-08-18T15:52:18.502Z",
  "devdoc": {
    "methods": {
      "challengeRequest(bytes32,string)": {
        "details": "Challenges the latest request of a item. Accepts enough ETH to fund a potential dispute considering the current required amount. Reimburses unused ETH. TRUSTED.",
        "params": {
          "_evidence": "A link to an evidence using its URI. Ignored if not provided or if not enough funds were provided to create a dispute.",
          "_itemID": "The ID of the item with the request to challenge."
        }
      },
      "changeTimeToChallenge(uint256)": {
        "details": "Change the duration of the challenge period.",
        "params": {
          "_challengePeriodDuration": "The new duration of the challenge period."
        }
      },
      "executeRequest(bytes32)": {
        "details": "Executes a request if the challenge period passed and no one challenged the request.",
        "params": {
          "_item": "The item with the request to execute."
        }
      },
      "findItem(bytes,uint256,uint256,uint256)": {
        "details": "Find an item by matching column values. - Example: Item [18, 'PNK', 'Pinakion', '0xca35b7d915458ef540ade6068dfe2f44e8fa733c'] RLP encoded: 0xe383504e4b128850696e616b696f6e94ca35b7d915458ef540ade6068dfe2f44e8fa733c Input for remix: [\"0xe3\",\"0x83\",\"0x50\",\"0x4e\",\"0x4b\",\"0x12\",\"0x88\",\"0x50\",\"0x69\",\"0x6e\",\"0x61\",\"0x6b\",\"0x69\",\"0x6f\",\"0x6e\",\"0x94\",\"0xca\",\"0x35\",\"0xb7\",\"0xd9\",\"0x15\",\"0x45\",\"0x8e\",\"0xf5\",\"0x40\",\"0xad\",\"0xe6\",\"0x06\",\"0x8d\",\"0xfe\",\"0x2f\",\"0x44\",\"0xe8\",\"0xfa\",\"0x73\",\"0x3c\"]",
        "params": {
          "_count": "The number of items to iterate while searching.",
          "_cursor": "The index from where to start looking for matches.",
          "_returnCount": "The size of the array to return with matching values.",
          "_rlpEncodedMatch": "The RLP encoded item to match against the items on the list."
        },
        "return": "An array with items that match the query."
      },
      "fundAppeal(bytes32,uint8)": {
        "details": "Takes up to the total amount required to fund a side of an appeal. Reimburses the rest. Creates an appeal if both sides are fully funded. TRUSTED.",
        "params": {
          "_itemID": "The ID of the item with the appeal to fund.",
          "_side": "The recipient of the contribution."
        }
      },
      "isPermitted(bytes32)": {
        "details": "Return true if the item is on the list.",
        "params": {
          "_itemID": "The ID of the item to be queried."
        },
        "return": "allowed True if the item is allowed, false otherwise."
      },
      "queryItems(bytes32,uint256,bool[8],bool,address)": {
        "details": "Return the values of the items the query finds. This function is O(n), where n is the number of items. This could exceed the gas limit, therefore this function should only be used for interface display and not by other contracts.",
        "params": {
          "_count": "The number of items to return.",
          "_cursor": "The ID of the items from which to start iterating. To start from either the oldest or newest item.",
          "_filter": "The filter to use. Each element of the array in sequence means: - Include absent items in result. - Include registered items in result. - Include items with registration requests that are not disputed in result. - Include items with clearing requests that are not disputed in result. - Include disputed items with registration requests in result. - Include disputed items with clearing requests in result. - Include items submitted by _party. - Include items challenged by _party.",
          "_oldestFirst": "Whether to sort from oldest to the newest item.",
          "_party": "The address to use if checking for items submitted or challenged by a specific party."
        },
        "return": "The values of the tokens found and whether there are more tokens for the current filter and sort."
      },
      "rule(uint256,uint256)": {
        "details": "Give a ruling for a dispute. Can only be called by the arbitrator. TRUSTED. Overrides parent function to account for the situation where the winner loses a case due to paying less appeal fees than expected.",
        "params": {
          "_disputeID": "ID of the dispute in the arbitrator contract.",
          "_ruling": "Ruling given by the arbitrator. Note that 0 is reserved for \"Not able/wanting to make a decision\"."
        }
      },
      "withdrawFeesAndRewards(address,bytes32,uint256,uint256)": {
        "details": "Reimburses contributions if no disputes were raised. If a dispute was raised, sends the fee stake rewards and reimbursements proportional to the contributions made to the winner of a dispute.",
        "params": {
          "_beneficiary": "The address that made contributions to a request.",
          "_itemID": "The ID of the item with the request from which to withdraw.",
          "_request": "The request from which to withdraw.",
          "_round": "The round from which to withdraw."
        }
      }
    }
  },
  "userdoc": {
    "methods": {}
  }
}