{
  "contractName": "GTCRMock",
  "abi": [
    {
      "constant": true,
      "inputs": [],
      "name": "challengePeriodDuration",
      "outputs": [
        {
          "internalType": "uint256",
          "name": "",
          "type": "uint256"
        }
      ],
      "payable": false,
      "stateMutability": "view",
      "type": "function"
    },
    {
      "constant": true,
      "inputs": [],
      "name": "governor",
      "outputs": [
        {
          "internalType": "address",
          "name": "",
          "type": "address"
        }
      ],
      "payable": false,
      "stateMutability": "view",
      "type": "function"
    },
    {
      "constant": true,
      "inputs": [],
      "name": "arbitratorExtraData",
      "outputs": [
        {
          "internalType": "bytes",
          "name": "",
          "type": "bytes"
        }
      ],
      "payable": false,
      "stateMutability": "view",
      "type": "function"
    },
    {
      "constant": true,
      "inputs": [],
      "name": "loserStakeMultiplier",
      "outputs": [
        {
          "internalType": "uint256",
          "name": "",
          "type": "uint256"
        }
      ],
      "payable": false,
      "stateMutability": "view",
      "type": "function"
    },
    {
      "constant": true,
      "inputs": [],
      "name": "challengerBaseDeposit",
      "outputs": [
        {
          "internalType": "uint256",
          "name": "",
          "type": "uint256"
        }
      ],
      "payable": false,
      "stateMutability": "view",
      "type": "function"
    },
    {
      "constant": true,
      "inputs": [],
      "name": "sharedStakeMultiplier",
      "outputs": [
        {
          "internalType": "uint256",
          "name": "",
          "type": "uint256"
        }
      ],
      "payable": false,
      "stateMutability": "view",
      "type": "function"
    },
    {
      "constant": true,
      "inputs": [
        {
          "internalType": "bytes32",
          "name": "",
          "type": "bytes32"
        }
      ],
      "name": "items",
      "outputs": [
        {
          "internalType": "bytes",
          "name": "data",
          "type": "bytes"
        },
        {
          "internalType": "enum GTCRMock.ItemStatus",
          "name": "status",
          "type": "uint8"
        }
      ],
      "payable": false,
      "stateMutability": "view",
      "type": "function"
    },
    {
      "constant": true,
      "inputs": [],
      "name": "relatedTCR",
      "outputs": [
        {
          "internalType": "address",
          "name": "",
          "type": "address"
        }
      ],
      "payable": false,
      "stateMutability": "view",
      "type": "function"
    },
    {
      "constant": true,
      "inputs": [],
      "name": "arbitrator",
      "outputs": [
        {
          "internalType": "contract Arbitrator",
          "name": "",
          "type": "address"
        }
      ],
      "payable": false,
      "stateMutability": "view",
      "type": "function"
    },
    {
      "constant": true,
      "inputs": [],
      "name": "metaEvidenceUpdates",
      "outputs": [
        {
          "internalType": "uint256",
          "name": "",
          "type": "uint256"
        }
      ],
      "payable": false,
      "stateMutability": "view",
      "type": "function"
    },
    {
      "constant": true,
      "inputs": [],
      "name": "winnerStakeMultiplier",
      "outputs": [
        {
          "internalType": "uint256",
          "name": "",
          "type": "uint256"
        }
      ],
      "payable": false,
      "stateMutability": "view",
      "type": "function"
    },
    {
      "constant": true,
      "inputs": [],
      "name": "requesterBaseDeposit",
      "outputs": [
        {
          "internalType": "uint256",
          "name": "",
          "type": "uint256"
        }
      ],
      "payable": false,
      "stateMutability": "view",
      "type": "function"
    },
    {
      "constant": true,
      "inputs": [
        {
          "internalType": "address",
          "name": "",
          "type": "address"
        },
        {
          "internalType": "uint256",
          "name": "",
          "type": "uint256"
        }
      ],
      "name": "arbitratorDisputeIDToItemID",
      "outputs": [
        {
          "internalType": "bytes32",
          "name": "",
          "type": "bytes32"
        }
      ],
      "payable": false,
      "stateMutability": "view",
      "type": "function"
    },
    {
      "constant": true,
      "inputs": [
        {
          "internalType": "uint256",
          "name": "",
          "type": "uint256"
        }
      ],
      "name": "itemIDs",
      "outputs": [
        {
          "internalType": "bytes32",
          "name": "",
          "type": "bytes32"
        }
      ],
      "payable": false,
      "stateMutability": "view",
      "type": "function"
    },
    {
      "constant": true,
      "inputs": [],
      "name": "MULTIPLIER_DIVISOR",
      "outputs": [
        {
          "internalType": "uint256",
          "name": "",
          "type": "uint256"
        }
      ],
      "payable": false,
      "stateMutability": "view",
      "type": "function"
    },
    {
      "inputs": [
        {
          "internalType": "contract Arbitrator",
          "name": "_arbitrator",
          "type": "address"
        },
        {
          "internalType": "bytes",
          "name": "_arbitratorExtraData",
          "type": "bytes"
        },
        {
          "internalType": "string",
          "name": "_registrationMetaEvidence",
          "type": "string"
        },
        {
          "internalType": "string",
          "name": "_clearingMetaEvidence",
          "type": "string"
        },
        {
          "internalType": "address",
          "name": "_governor",
          "type": "address"
        },
        {
          "internalType": "uint256",
          "name": "_requesterBaseDeposit",
          "type": "uint256"
        },
        {
          "internalType": "uint256",
          "name": "_challengerBaseDeposit",
          "type": "uint256"
        },
        {
          "internalType": "uint256",
          "name": "_challengePeriodDuration",
          "type": "uint256"
        },
        {
          "internalType": "uint256",
          "name": "_sharedStakeMultiplier",
          "type": "uint256"
        },
        {
          "internalType": "uint256",
          "name": "_winnerStakeMultiplier",
          "type": "uint256"
        },
        {
          "internalType": "uint256",
          "name": "_loserStakeMultiplier",
          "type": "uint256"
        }
      ],
      "payable": false,
      "stateMutability": "nonpayable",
      "type": "constructor"
    },
    {
      "anonymous": false,
      "inputs": [
        {
          "indexed": true,
          "internalType": "uint256",
          "name": "_metaEvidenceID",
          "type": "uint256"
        },
        {
          "indexed": false,
          "internalType": "string",
          "name": "_evidence",
          "type": "string"
        }
      ],
      "name": "MetaEvidence",
      "type": "event"
    },
    {
      "anonymous": false,
      "inputs": [
        {
          "indexed": true,
          "internalType": "contract Arbitrator",
          "name": "_arbitrator",
          "type": "address"
        },
        {
          "indexed": true,
          "internalType": "uint256",
          "name": "_evidenceGroupID",
          "type": "uint256"
        },
        {
          "indexed": true,
          "internalType": "address",
          "name": "_party",
          "type": "address"
        },
        {
          "indexed": false,
          "internalType": "string",
          "name": "_evidence",
          "type": "string"
        }
      ],
      "name": "Evidence",
      "type": "event"
    },
    {
      "anonymous": false,
      "inputs": [
        {
          "indexed": true,
          "internalType": "contract Arbitrator",
          "name": "_arbitrator",
          "type": "address"
        },
        {
          "indexed": true,
          "internalType": "uint256",
          "name": "_disputeID",
          "type": "uint256"
        },
        {
          "indexed": false,
          "internalType": "uint256",
          "name": "_metaEvidenceID",
          "type": "uint256"
        },
        {
          "indexed": false,
          "internalType": "uint256",
          "name": "_evidenceGroupID",
          "type": "uint256"
        }
      ],
      "name": "Dispute",
      "type": "event"
    },
    {
      "anonymous": false,
      "inputs": [
        {
          "indexed": true,
          "internalType": "contract Arbitrator",
          "name": "_arbitrator",
          "type": "address"
        },
        {
          "indexed": true,
          "internalType": "uint256",
          "name": "_disputeID",
          "type": "uint256"
        },
        {
          "indexed": false,
          "internalType": "uint256",
          "name": "_ruling",
          "type": "uint256"
        }
      ],
      "name": "Ruling",
      "type": "event"
    },
    {
      "constant": false,
      "inputs": [
        {
          "internalType": "bytes",
          "name": "_item",
          "type": "bytes"
        }
      ],
      "name": "addItem",
      "outputs": [],
      "payable": true,
      "stateMutability": "payable",
      "type": "function"
    },
    {
      "constant": false,
      "inputs": [
        {
          "internalType": "bytes",
          "name": "_item",
          "type": "bytes"
        }
      ],
      "name": "removeItem",
      "outputs": [],
      "payable": true,
      "stateMutability": "payable",
      "type": "function"
    },
    {
      "constant": false,
      "inputs": [
        {
          "internalType": "bytes32",
          "name": "_item",
          "type": "bytes32"
        }
      ],
      "name": "executeRequest",
      "outputs": [],
      "payable": false,
      "stateMutability": "nonpayable",
      "type": "function"
    },
    {
      "constant": false,
      "inputs": [
        {
          "internalType": "bytes32",
          "name": "_itemID",
          "type": "bytes32"
        },
        {
          "internalType": "string",
          "name": "_evidence",
          "type": "string"
        }
      ],
      "name": "challengeRequest",
      "outputs": [],
      "payable": true,
      "stateMutability": "payable",
      "type": "function"
    },
    {
      "constant": false,
      "inputs": [
        {
          "internalType": "bytes32",
          "name": "_itemID",
          "type": "bytes32"
        },
        {
          "internalType": "enum GTCRMock.Party",
          "name": "_side",
          "type": "uint8"
        }
      ],
      "name": "fundAppeal",
      "outputs": [],
      "payable": true,
      "stateMutability": "payable",
      "type": "function"
    },
    {
      "constant": false,
      "inputs": [
        {
          "internalType": "uint256",
          "name": "_disputeID",
          "type": "uint256"
        },
        {
          "internalType": "uint256",
          "name": "_ruling",
          "type": "uint256"
        }
      ],
      "name": "rule",
      "outputs": [],
      "payable": false,
      "stateMutability": "nonpayable",
      "type": "function"
    },
    {
      "constant": false,
      "inputs": [
        {
          "internalType": "address payable",
          "name": "_beneficiary",
          "type": "address"
        },
        {
          "internalType": "bytes32",
          "name": "_itemID",
          "type": "bytes32"
        },
        {
          "internalType": "uint256",
          "name": "_request",
          "type": "uint256"
        },
        {
          "internalType": "uint256",
          "name": "_round",
          "type": "uint256"
        }
      ],
      "name": "withdrawFeesAndRewards",
      "outputs": [],
      "payable": false,
      "stateMutability": "nonpayable",
      "type": "function"
    },
    {
      "constant": false,
      "inputs": [
        {
          "internalType": "uint256",
          "name": "_challengePeriodDuration",
          "type": "uint256"
        }
      ],
      "name": "changeTimeToChallenge",
      "outputs": [],
      "payable": false,
      "stateMutability": "nonpayable",
      "type": "function"
    },
    {
      "constant": true,
      "inputs": [
        {
          "internalType": "bytes32",
          "name": "_itemID",
          "type": "bytes32"
        }
      ],
      "name": "isPermitted",
      "outputs": [
        {
          "internalType": "bool",
          "name": "allowed",
          "type": "bool"
        }
      ],
      "payable": false,
      "stateMutability": "view",
      "type": "function"
    },
    {
      "constant": true,
      "inputs": [],
      "name": "itemCount",
      "outputs": [
        {
          "internalType": "uint256",
          "name": "",
          "type": "uint256"
        }
      ],
      "payable": false,
      "stateMutability": "view",
      "type": "function"
    },
    {
      "constant": true,
      "inputs": [
        {
          "internalType": "bytes32",
          "name": "_itemID",
          "type": "bytes32"
        }
      ],
      "name": "getItem",
      "outputs": [
        {
          "components": [
            {
              "internalType": "bytes32",
              "name": "ID",
              "type": "bytes32"
            },
            {
              "internalType": "bytes",
              "name": "data",
              "type": "bytes"
            },
            {
              "internalType": "enum GTCRMock.ItemStatus",
              "name": "status",
              "type": "uint8"
            },
            {
              "internalType": "bool",
              "name": "disputed",
              "type": "bool"
            },
            {
              "internalType": "bool",
              "name": "resolved",
              "type": "bool"
            },
            {
              "internalType": "uint256",
              "name": "disputeID",
              "type": "uint256"
            },
            {
              "internalType": "uint256",
              "name": "appealCost",
              "type": "uint256"
            },
            {
              "internalType": "uint256",
              "name": "appealStart",
              "type": "uint256"
            },
            {
              "internalType": "uint256",
              "name": "appealEnd",
              "type": "uint256"
            },
            {
              "internalType": "address",
              "name": "requester",
              "type": "address"
            },
            {
              "internalType": "address",
              "name": "challenger",
              "type": "address"
            },
            {
              "internalType": "address",
              "name": "arbitrator",
              "type": "address"
            },
            {
              "internalType": "bytes",
              "name": "arbitratorExtraData",
              "type": "bytes"
            },
            {
              "internalType": "uint256",
              "name": "currentRuling",
              "type": "uint256"
            },
            {
              "internalType": "bool[3]",
              "name": "hasPaid",
              "type": "bool[3]"
            },
            {
              "internalType": "uint256",
              "name": "feeRewards",
              "type": "uint256"
            },
            {
              "internalType": "uint256",
              "name": "submissionTime",
              "type": "uint256"
            },
            {
              "internalType": "uint256[3]",
              "name": "paidFees",
              "type": "uint256[3]"
            },
            {
              "internalType": "enum Arbitrator.DisputeStatus",
              "name": "disputeStatus",
              "type": "uint8"
            }
          ],
          "internalType": "struct GTCRMock.QueryResult",
          "name": "result",
          "type": "tuple"
        }
      ],
      "payable": false,
      "stateMutability": "view",
      "type": "function"
    },
    {
      "constant": true,
      "inputs": [
        {
          "internalType": "bytes",
          "name": "_rlpEncodedMatch",
          "type": "bytes"
        },
        {
          "internalType": "uint256",
          "name": "_cursor",
          "type": "uint256"
        },
        {
          "internalType": "uint256",
          "name": "_returnCount",
          "type": "uint256"
        },
        {
          "internalType": "uint256",
          "name": "_count",
          "type": "uint256"
        }
      ],
      "name": "findItem",
      "outputs": [
        {
          "internalType": "bytes[]",
          "name": "",
          "type": "bytes[]"
        }
      ],
      "payable": false,
      "stateMutability": "view",
      "type": "function"
    },
    {
      "constant": true,
      "inputs": [
        {
          "internalType": "bytes32",
          "name": "_cursor",
          "type": "bytes32"
        },
        {
          "internalType": "uint256",
          "name": "_count",
          "type": "uint256"
        },
        {
          "internalType": "bool[8]",
          "name": "_filter",
          "type": "bool[8]"
        },
        {
          "internalType": "bool",
          "name": "_oldestFirst",
          "type": "bool"
        },
        {
          "internalType": "address",
          "name": "_party",
          "type": "address"
        }
      ],
      "name": "queryItems",
      "outputs": [
        {
          "components": [
            {
              "internalType": "bytes32",
              "name": "ID",
              "type": "bytes32"
            },
            {
              "internalType": "bytes",
              "name": "data",
              "type": "bytes"
            },
            {
              "internalType": "enum GTCRMock.ItemStatus",
              "name": "status",
              "type": "uint8"
            },
            {
              "internalType": "bool",
              "name": "disputed",
              "type": "bool"
            },
            {
              "internalType": "bool",
              "name": "resolved",
              "type": "bool"
            },
            {
              "internalType": "uint256",
              "name": "disputeID",
              "type": "uint256"
            },
            {
              "internalType": "uint256",
              "name": "appealCost",
              "type": "uint256"
            },
            {
              "internalType": "uint256",
              "name": "appealStart",
              "type": "uint256"
            },
            {
              "internalType": "uint256",
              "name": "appealEnd",
              "type": "uint256"
            },
            {
              "internalType": "address",
              "name": "requester",
              "type": "address"
            },
            {
              "internalType": "address",
              "name": "challenger",
              "type": "address"
            },
            {
              "internalType": "address",
              "name": "arbitrator",
              "type": "address"
            },
            {
              "internalType": "bytes",
              "name": "arbitratorExtraData",
              "type": "bytes"
            },
            {
              "internalType": "uint256",
              "name": "currentRuling",
              "type": "uint256"
            },
            {
              "internalType": "bool[3]",
              "name": "hasPaid",
              "type": "bool[3]"
            },
            {
              "internalType": "uint256",
              "name": "feeRewards",
              "type": "uint256"
            },
            {
              "internalType": "uint256",
              "name": "submissionTime",
              "type": "uint256"
            },
            {
              "internalType": "uint256[3]",
              "name": "paidFees",
              "type": "uint256[3]"
            },
            {
              "internalType": "enum Arbitrator.DisputeStatus",
              "name": "disputeStatus",
              "type": "uint8"
            }
          ],
          "internalType": "struct GTCRMock.QueryResult[]",
          "name": "results",
          "type": "tuple[]"
        },
        {
          "internalType": "bool",
          "name": "hasMore",
          "type": "bool"
        }
      ],
      "payable": false,
      "stateMutability": "view",
      "type": "function"
    }
  ],
  "bytecode": "0x608060405260026000553480156200001657600080fd5b50604051620046d0380380620046d0833981016040819052620000399162000230565b6000600080516020620046b08339815191528a6040516200005b9190620003bd565b60405180910390a26001600080516020620046b083398151915289604051620000859190620003bd565b60405180910390a260038054600160a060020a031916600160a060020a038d161790558951620000bd9060049060208d019062000102565b5060018054600160a060020a031916600160a060020a039890981697909717909655600594909455600692909255600755600b55600955600a5550620004c692505050565b828054600181600116156101000203166002900490600052602060002090601f016020900481019282601f106200014557805160ff191683800117855562000175565b8280016001018555821562000175579182015b828111156200017557825182559160200191906001019062000158565b506200018392915062000187565b5090565b620001a491905b808211156200018357600081556001016200018e565b90565b8051620001b48162000496565b92915050565b600082601f830112620001cc57600080fd5b8151620001e3620001dd82620003fe565b620003d7565b915080825260208301602083018583830111156200020057600080fd5b6200020d83828462000459565b50505092915050565b8051620001b481620004b0565b8051620001b481620004bb565b60008060008060008060008060008060006101608c8e0312156200025357600080fd5b6000620002618e8e62000216565b9b505060208c01516001604060020a038111156200027e57600080fd5b6200028c8e828f01620001ba565b9a505060408c01516001604060020a03811115620002a957600080fd5b620002b78e828f01620001ba565b99505060608c01516001604060020a03811115620002d457600080fd5b620002e28e828f01620001ba565b9850506080620002f58e828f01620001a7565b97505060a0620003088e828f0162000223565b96505060c06200031b8e828f0162000223565b95505060e06200032e8e828f0162000223565b945050610100620003428e828f0162000223565b935050610120620003568e828f0162000223565b9250506101406200036a8e828f0162000223565b9150509295989b509295989b9093969950565b60006200038a8262000426565b6200039681856200042a565b9350620003a881856020860162000459565b620003b3816200048c565b9093019392505050565b60208082528101620003d081846200037d565b9392505050565b6040518181016001604060020a0381118282101715620003f657600080fd5b604052919050565b60006001604060020a038211156200041557600080fd5b506020601f91909101601f19160190565b5190565b90815260200190565b6000620001b4826200044d565b6000620001b48262000433565b600160a060020a031690565b60005b83811015620004765781810151838201526020016200045c565b8381111562000486576000848401525b50505050565b601f01601f191690565b620004a18162000433565b8114620004ad57600080fd5b50565b620004a18162000440565b620004a181620001a4565b6141da80620004d66000396000f3fe6080604052600436106101d3576000357c0100000000000000000000000000000000000000000000000000000000900480636cdc090f11610109578063aa0372e7116100a7578063d294ccef11610081578063d294ccef146104af578063d36fdb18146104c2578063d661dd31146104e2578063e9c24166146104f7576101d3565b8063aa0372e714610427578063b70e6a0f14610454578063beabdb7b14610482576101d3565b80638c10fef3116100e35780638c10fef3146103b25780639c81a827146103c7578063a1c2bf4d146103e7578063a836f30714610407576101d3565b80636cdc090f146103755780637b9433831461038a578063873db1a71461039f576101d3565b8063329cedb411610176578063571e053d11610150578063571e053d146102fc5780635cfb0924146103115780636bfb0d011461033e5780636cc6cde114610353576101d3565b8063329cedb4146102a457806341658341146102b957806348f343f3146102ce576101d3565b80631d512085116101b25780631d512085146102475780632baf80ee1461025c5780632c2decc114610271578063311a6c5614610284576101d3565b806282a36d146101d85780630c340a24146102035780630c7ac7b614610225575b600080fd5b3480156101e457600080fd5b506101ed610517565b6040516101fa9190613eb4565b60405180910390f35b34801561020f57600080fd5b5061021861051d565b6040516101fa9190613e67565b34801561023157600080fd5b5061023a61052c565b6040516101fa9190613ec2565b34801561025357600080fd5b506101ed6105ba565b61026f61026a36600461329a565b6105c0565b005b61026f61027f366004613398565b610b63565b34801561029057600080fd5b5061026f61029f36600461344f565b610c06565b3480156102b057600080fd5b506101ed610eb6565b3480156102c557600080fd5b506101ed610ebc565b3480156102da57600080fd5b506102ee6102e936600461327c565b610ec2565b6040516101fa929190613ed3565b34801561030857600080fd5b50610218610f6c565b34801561031d57600080fd5b5061033161032c3660046133da565b610f7b565b6040516101fa9190613e75565b34801561034a57600080fd5b506101ed6111d7565b34801561035f57600080fd5b506103686111de565b6040516101fa9190613f04565b34801561038157600080fd5b506101ed6111ed565b34801561039657600080fd5b506101ed6111f3565b61026f6103ad3660046132ca565b6111f9565b3480156103be57600080fd5b506101ed61160f565b3480156103d357600080fd5b506101ed6103e2366004613224565b611615565b3480156103f357600080fd5b5061026f6104023660046131c3565b611632565b34801561041357600080fd5b506101ed61042236600461327c565b61189d565b34801561043357600080fd5b5061044761044236600461327c565b6118bb565b6040516101fa9190614014565b34801561046057600080fd5b5061047461046f366004613320565b611fa5565b6040516101fa929190613e86565b34801561048e57600080fd5b506104a261049d36600461327c565b612352565b6040516101fa9190613ea6565b61026f6104bd366004613398565b61239b565b3480156104ce57600080fd5b5061026f6104dd36600461327c565b6123f9565b3480156104ee57600080fd5b506101ed61242b565b34801561050357600080fd5b5061026f61051236600461327c565b612431565b60075481565b600154600160a060020a031681565b6004805460408051602060026001851615610100026000190190941693909304601f810184900484028201840190925281815292918301828280156105b25780601f10610587576101008083540402835291602001916105b2565b820191906000526020600020905b81548152906001019060200180831161059557829003601f168201915b505050505081565b600a5481565b60018160028111156105ce57fe5b14806105e5575060028160028111156105e357fe5b145b6105ee57600080fd5b6000828152600d602052604090206002600182015460ff16600381111561061157fe5b148061062f57506003600182015460ff16600381111561062d57fe5b145b6106575760405160e560020a62461bcd02815260040161064e90614004565b60405180910390fd5b60028101805460009190600019810190811061066f57fe5b60009182526020909120600a90910201805490915060ff166106a65760405160e560020a62461bcd02815260040161064e90613fc4565b600881015460018201546040517fafe15cfb0000000000000000000000000000000000000000000000000000000081526000928392610100909104600160a060020a03169163afe15cfb916106fd91600401613eb4565b604080518083038186803b15801561071457600080fd5b505afa158015610728573d6000803e3d6000fd5b505050506040513d601f19601f8201168201806040525061074c919081019061346e565b9150915081421015801561075f57508042105b61077e5760405160e560020a62461bcd02815260040161064e90613f44565b60078301805460009190600019810190811061079657fe5b600091825260208220600887015460018801546040517f1c3db16d00000000000000000000000000000000000000000000000000000000815260069094029092019450600160a060020a036101009091041691631c3db16d916107fb91600401613eb4565b60206040518083038186803b15801561081357600080fd5b505afa158015610827573d6000803e3d6000fd5b505050506040513d601f19601f8201168201806040525061084b9190810190613431565b600281111561085657fe5b90506000600182600281111561086857fe5b14156108765750600261088e565b600282600281111561088457fe5b141561088e575060015b80600281111561089a57fe5b8860028111156108a657fe5b1415806108b95750600285850304854203105b6108d85760405160e560020a62461bcd02815260040161064e90613f74565b60008260028111156108e657fe5b8960028111156108f257fe5b1415610901575060095461092d565b81600281111561090d57fe5b89600281111561091957fe5b14156109285750600a5461092d565b50600b545b600887015460018801546040517ff23f16e60000000000000000000000000000000000000000000000000000000081526000926101009004600160a060020a03169163f23f16e691610987919060098d0190600401614025565b60206040518083038186803b15801561099f57600080fd5b505afa1580156109b3573d6000803e3d6000fd5b505050506040513d601f19601f820116820180604052506109d79190810190613431565b90506000610a076127106109f1848663ffffffff61256916565b816109f857fe5b8491900463ffffffff61259f16565b9050610a16868c3334856125b4565b80868c6002811115610a2457fe5b60038110610a2e57fe5b015410610a71576001866003018c6002811115610a4757fe5b60038110610a5157fe5b602091828204019190066101000a81548160ff0219169083151502179055505b600386015462010000900460ff168015610a9457506003860154610100900460ff165b15610b5557600889015460018a01546040517f49912f88000000000000000000000000000000000000000000000000000000008152610100909204600160a060020a0316916349912f88918591610af3919060098f0190600401614025565b6000604051808303818588803b158015610b0c57600080fd5b505af1158015610b20573d6000803e3d6000fd5b50505060078b0180549250610b39915060018301612d59565b506004860154610b4f908363ffffffff61268016565b60048701555b505050505050505050505050565b60008282604051610b75929190613e52565b604051908190039020905060016000828152600d602052604090206001015460ff166003811115610ba257fe5b14610bc25760405160e560020a62461bcd02815260040161064e90613fb4565b610c0183838080601f01602080910402602001604051908101604052809392919081815260200183838082843760009201919091525061269b92505050565b505050565b6000816002811115610c1457fe5b336000908152600e60209081526040808320878452825280832054808452600d90925282206002810180549495509193909291906000198101908110610c5657fe5b6000918252602082206007600a909202019081018054919350906000198101908110610c7e57fe5b90600052602060002090600602019050600054861115610c9d57600080fd5b60088201546101009004600160a060020a03163314610cbb57600080fd5b600382015460ff1615610ccd57600080fd5b600381015460ff61010090910416151560011415610cee5760019450610d0b565b600381015462010000900460ff16151560011415610d0b57600294505b86337f394027a5fa6e098a1191094d1719d6929b9abc535fcc0c8f448d6a4e75622276876002811115610d3a57fe5b604051610d479190613eb4565b60405180910390a36001856002811115610d5d57fe5b1415610db1576002600184015460ff166003811115610d7857fe5b1415610d93576001838101805460ff19169091179055610dac565b6001808401805460009260ff1990911690835b02179055505b610e0f565b6002600184015460ff166003811115610dc657fe5b1415610de3576001808401805460009260ff199091169083610da6565b6003600184015460ff166003811115610df857fe5b1415610e0f576001838101805460ff191690911790555b600382018054600160ff199182168117909255600884018054889391921690836002811115610e3a57fe5b02179055506000856002811115610e4d57fe5b1415610e9a57610e876004830160015b60038110610e6757fe5b01546002850154600160a060020a03909116908690600019016000611632565b610e95600483016002610e5d565b610ead565b610ead82600401866002811115610e5d57fe5b50505050505050565b60065481565b600b5481565b600d6020908152600091825260409182902080548351601f60026000196101006001861615020190931692909204918201849004840281018401909452808452909291839190830182828015610f595780601f10610f2e57610100808354040283529160200191610f59565b820191906000526020600020905b815481529060010190602001808311610f3c57829003601f168201915b5050506001909301549192505060ff1682565b600254600160a060020a031681565b606080610f8f610f8a8761298b565b6129b0565b9050606083604051908082528060200260200182016040528015610fc757816020015b6060815260200190600190039081610fb25790505b5090506000865b8515610fda5785610fde565b600c545b8110156111ca576000600d6000600c8481548110610ff857fe5b90600052602060002001548152602001908152602001600020600001905060606110bd610f8a838054600181600116156101000203166002900480601f0160208091040260200160405190810160405280929190818152602001828054600181600116156101000203166002900480156110b35780601f10611088576101008083540402835291602001916110b3565b820191906000526020600020905b81548152906001019060200180831161109657829003601f168201915b505050505061298b565b905060005b86518110156111bf576111056110ea8883815181106110dd57fe5b6020026020010151612a7d565b6110f98484815181106110dd57fe5b9063ffffffff612af616565b156111b7578254604080516020601f600260001961010060018816150201909516949094049384018190048102820181019092528281529185918301828280156111905780601f1061116557610100808354040283529160200191611190565b820191906000526020600020905b81548152906001019060200180831161117357829003601f168201915b50505050508686815181106111a157fe5b60209081029190910101526001909401936111bf565b6001016110c2565b505050600101610fce565b5090979650505050505050565b600c545b90565b600354600160a060020a031681565b60085481565b60095481565b6000838152600d602052604090206002600182015460ff16600381111561121c57fe5b148061123a57506003600182015460ff16600381111561123857fe5b145b6112595760405160e560020a62461bcd02815260040161064e90614004565b60028101805460009190600019810190811061127157fe5b90600052602060002090600a020190506007548160020154420311156112ac5760405160e560020a62461bcd02815260040161064e90613f94565b805460ff16156112d15760405160e560020a62461bcd02815260040161064e90613f54565b60068101805473ffffffffffffffffffffffffffffffffffffffff19163317905560078101805460009190600019810190811061130a57fe5b60009182526020822060088501546040517ff7434ea900000000000000000000000000000000000000000000000000000000815260069093029091019350600160a060020a03610100909104169063f7434ea99061136f906009870190600401613ef3565b60206040518083038186803b15801561138757600080fd5b505afa15801561139b573d6000803e3d6000fd5b505050506040513d601f19601f820116820180604052506113bf9190810190613431565b905060006114066006546113fa6127106113e4600b548761256990919063ffffffff16565b816113eb57fe5b8691900463ffffffff61259f16565b9063ffffffff61259f16565b90506114168360023334856125b4565b808360020154101561143d5760405160e560020a62461bcd02815260040161064e90613f24565b6003830180546201000062ff00001990911617905560088401546000546040517fc13517e1000000000000000000000000000000000000000000000000000000008152610100909204600160a060020a03169163c13517e19185916114aa919060098a0190600401614025565b6020604051808303818588803b1580156114c357600080fd5b505af11580156114d7573d6000803e3d6000fd5b50505050506040513d601f19601f820116820180604052506114fc9190810190613431565b600185810182905560088601546101009004600160a060020a03166000908152600e6020908152604080832094835293905291909120899055845460ff1916811785556007850180549161155291908301612d59565b506004830154611568908363ffffffff61268016565b600484015585156116055760028501546040513391611590918b916000190190602001613e2c565b60405160208183030381529060405280519060200120600190048560080160019054906101000a9004600160a060020a0316600160a060020a03167fdccf2f8b2cc26eafcd61905cba744cff4b81d14740725f6376390dc6298a6a3c8a8a6040516115fc929190613f12565b60405180910390a45b5050505050505050565b60055481565b600e60209081526000928352604080842090915290825290205481565b6000838152600d602052604081206002810180549192918590811061165357fe5b90600052602060002090600a02019050600081600701848154811061167457fe5b600091825260209091206003840154600690920201915060ff1661169757600080fd5b815460009060ff1615806116bd57506000600884015460ff1660028111156116bb57fe5b145b15611796576000808360010154116116d6576000611712565b826001015483600201546004850154600160a060020a038c1660009081526005870160205260409020929091019160010154028161171057fe5b045b9050600080846002015411611728576000611764565b836001015484600201546004860154600160a060020a038d1660009081526005880160205260409020929091019160020154028161176257fe5b045b600160a060020a038b1660009081526005860160205260408120600181018290556002015591909101915061186e9050565b6008830154600090839060ff1660028111156117ae57fe5b600381106117b857fe5b0154116117c657600061182f565b6008830154829060ff1660028111156117db57fe5b600381106117e557fe5b01546004830154600160a060020a038a1660009081526005850160205260409020600886015460ff16600281111561181957fe5b6003811061182357fe5b0154028161182d57fe5b045b600160a060020a038916600090815260058401602052604081206008860154929350909160ff16600281111561186157fe5b6003811061186b57fe5b01555b604051600160a060020a0389169082156108fc029083906000818181858888f150505050505050505050505050565b600c81815481106118aa57fe5b600091825260209091200154905081565b6118c3612d85565b6000828152600d6020526040812060028101805491929160001981019081106118e857fe5b6000918252602082206007600a90920201908101805491935090600019810190811061191057fe5b6000918252602091829020604080516102608101825289815287548251601f600260001961010060018616150201909316929092049182018790048702810187019093528083526006909402909201945090928381019287918301828280156119ba5780601f1061198f576101008083540402835291602001916119ba565b820191906000526020600020905b81548152906001019060200180831161199d57829003601f168201915b5050509183525050600185015460209091019060ff1660038111156119db57fe5b8152835460ff9081161515602083015260038501541615156040820152600180850154606083015260006080830181905260a0830181905260c083015260e090910190600485010154600160a060020a031681526020016004840160020154600160a060020a03908116825260088501546101009081900490911660208084019190915260098601805460408051600260018416159096026000190190921694909404601f810184900484028201840185528082529390940193929091830182828015611ae95780601f10611abe57610100808354040283529160200191611ae9565b820191906000526020600020905b815481529060010190602001808311611acc57829003601f168201915b5050509183525050600060208083018290526040805160608082018352848252818401859052818301859052828601919091528085018490526002880154608086015281519081018252838152918201839052810182905260a083015260c090910152825490945060ff168015611c0c57506001600883015460018401546040517f10f169e8000000000000000000000000000000000000000000000000000000008152610100909204600160a060020a0316916310f169e891611baf91600401613eb4565b60206040518083038186803b158015611bc757600080fd5b505afa158015611bdb573d6000803e3d6000fd5b505050506040513d601f19601f82011682018060405250611bff9190810190613413565b6002811115611c0a57fe5b145b15611f9d57600882015460018301546040517f1c3db16d000000000000000000000000000000000000000000000000000000008152610100909204600160a060020a031691631c3db16d91611c6391600401613eb4565b60206040518083038186803b158015611c7b57600080fd5b505afa158015611c8f573d6000803e3d6000fd5b505050506040513d601f19601f82011682018060405250611cb39190810190613431565b6101a0850152600882015460018301546040517f10f169e8000000000000000000000000000000000000000000000000000000008152610100909204600160a060020a0316916310f169e891611d0b91600401613eb4565b60206040518083038186803b158015611d2357600080fd5b505afa158015611d37573d6000803e3d6000fd5b505050506040513d601f19601f82011682018060405250611d5b9190810190613413565b8461024001906002811115611d6c57fe5b90816002811115611d7957fe5b905250600882015460018301546040517fafe15cfb000000000000000000000000000000000000000000000000000000008152610100909204600160a060020a03169163afe15cfb91611dce91600401613eb4565b604080518083038186803b158015611de557600080fd5b505afa158015611df9573d6000803e3d6000fd5b505050506040513d601f19601f82011682018060405250611e1d919081019061346e565b6101008681019190915260e0860191909152600883015460018401546040517ff23f16e600000000000000000000000000000000000000000000000000000000815292909104600160a060020a03169163f23f16e691611e84916009870190600401614025565b60206040518083038186803b158015611e9c57600080fd5b505afa158015611eb0573d6000803e3d6000fd5b505050506040513d601f19601f82011682018060405250611ed49190810190613431565b60c0850152600782018054600091906000198101908110611ef157fe5b60009182526020822060069091020160048101546101e0880152604080516060810191829052919350909160038085019290918390855b825461010083900a900460ff161515815260206001928301818104948501949093039092029101808411611f285750505050506101c08701919091525060408051606081019182905290829060039082845b815481526020019060010190808311611f7a575050505050856102200181905250505b505050919050565b606060008086604051908082528060200260200182016040528015611fe457816020015b611fd1612d85565b815260200190600190039081611fc95790505b509250600088611ff75760009150612054565b60005b600c548110156120335789600c828154811061201257fe5b9060005260206000200154141561202b57809250612033565b600101611ffa565b50816120545760405160e560020a62461bcd02815260040161064e90613fe4565b60008215612079578661206f57600c54839003600101612074565b826001015b61208c565b86612085576001612088565b60005b60ff165b90505b8661209f57600c548111156120a5565b600c5481105b15612345576000600c886120be57600c548390036120c0565b825b815481106120ca57fe5b6000918252602080832090910154808352600d9091526040822060028101805492945090929160001981019081106120fe57fe5b6000918252602091829020600a9190910201915061211e908c018c61325e565b801561213c57506000600183015460ff16600381111561213a57fe5b145b8061216f575061215260408c0160208d0161325e565b801561216f575060018083015460ff16600381111561216d57fe5b145b806121b1575061218560608c0160408d0161325e565b80156121a357506002600183015460ff1660038111156121a157fe5b145b80156121b15750805460ff16155b806121f357506121c760808c0160608d0161325e565b80156121e557506003600183015460ff1660038111156121e357fe5b145b80156121f35750805460ff16155b80612234575061220960a08c0160808d0161325e565b801561222757506002600183015460ff16600381111561222557fe5b145b80156122345750805460ff165b80612275575061224a60c08c0160a08d0161325e565b801561226857506003600183015460ff16600381111561226657fe5b145b80156122755750805460ff165b806122af575061228b60e08c0160c08d0161325e565b80156122af5750600160a060020a0389166004820160010154600160a060020a0316145b806122ea57506122c66101008c0160e08d0161325e565b80156122ea5750600160a060020a0389166004820160020154600160a060020a0316145b1561233a578b85101561232e576122ff612d85565b612308846118bb565b90508089878151811061231757fe5b60209081029190910101525060019094019361233a565b60019650505050612345565b50505060010161208f565b5050509550959350505050565b6000818152600d6020526040812060018082015460ff16600381111561237457fe5b148061239257506003600182015460ff16600381111561239057fe5b145b9150505b919050565b600082826040516123ad929190613e52565b6040519081900390209050600080828152600d602052604090206001015460ff1660038111156123d957fe5b14610bc25760405160e560020a62461bcd02815260040161064e90613fa4565b600154600160a060020a031633146124265760405160e560020a62461bcd02815260040161064e90613f64565b600755565b61271081565b6000818152600d60205260408120600281018054919291600019810190811061245657fe5b90600052602060002090600a0201905060075481600201544203116124905760405160e560020a62461bcd02815260040161064e90613f84565b805460ff16156124b55760405160e560020a62461bcd02815260040161064e90613f34565b6002600183015460ff1660038111156124ca57fe5b14156124e8576001828101805460ff191682805b0217905550612535565b6003600183015460ff1660038111156124fd57fe5b141561251a576001808301805460009260ff1990911690836124de565b60405160e560020a62461bcd02815260040161064e90613fd4565b60038101805460ff1916600117905560058101546002830154610c0191600160a060020a0316908590600019016000611632565b60008261257857506000612599565b8282028284828161258557fe5b041461259357600019612595565b805b9150505b92915050565b60008282018381101561259357600019612595565b6000806125e9846125e4898960028111156125cb57fe5b600381106125d557fe5b0154869063ffffffff61268016565b612b5a565b600160a060020a038716600090815260058a01602052604090209193509150829087600281111561261657fe5b6003811061262057fe5b0180549091019055818787600281111561263657fe5b6003811061264057fe5b018054909101905560048701805483019055604051600160a060020a0386169082156108fc029083906000818181858888f1505050505050505050505050565b60008282111561269257506000612599565b50808203612599565b80516020808301919091206000818152600d9092526040909120600281015461270757600c80546001810182556000919091527fdf6966c971051c3d54ec59162606531493a51404a002842f56009d7e5cf4a8c70182905582516127059082906020860190612e26565b505b6000600182015460ff16600381111561271c57fe5b141561273f576001808201805460029260ff1990911690835b021790555061278b565b60018082015460ff16600381111561275357fe5b1415612770576001808201805460039260ff199091169083612735565b60405160e560020a62461bcd02815260040161064e90613ff4565b600281018054600091906127a28260018301612ea4565b815481106127ac57fe5b60009182526020909120600a909102016005810180543373ffffffffffffffffffffffffffffffffffffffff199091161790554260028083019190915560035460088301805474ffffffffffffffffffffffffffffffffffffffff001916610100600160a060020a039093168302179055600480549394506128409360098601939192600182161502600019011604612ed0565b50600781018054600091906128588260018301612d59565b8154811061286257fe5b60009182526020822060088501546040517ff7434ea900000000000000000000000000000000000000000000000000000000815260069093029091019350600160a060020a03610100909104169063f7434ea9906128c7906009870190600401613ef3565b60206040518083038186803b1580156128df57600080fd5b505afa1580156128f3573d6000803e3d6000fd5b505050506040513d601f19601f820116820180604052506129179190810190613431565b9050600061293c6005546113fa6127106113e4600b548761256990919063ffffffff16565b905061294c8360013334856125b4565b80836001015410156129735760405160e560020a62461bcd02815260040161064e90613f24565b5050600301805461ff00191661010017905550505050565b612993612f45565b506040805180820190915281518152602082810190820152919050565b60606129bb82612b7f565b6129c457600080fd5b60006129cf83612bb9565b905080604051908082528060200260200182016040528015612a0b57816020015b6129f8612f45565b8152602001906001900390816129f05790505b5091506000612a1d8460200151612c15565b60208501510190506000805b83811015612a7457612a3a83612c7e565b9150604051806040016040528083815260200184815250858281518110612a5d57fe5b602090810291909101015291810191600101612a29565b50505050919050565b8051606090612a8b57600080fd5b6000612a9a8360200151612c15565b83516040805191839003808352601f19601f8201168301602001909152919250606090828015612ad1576020820181803883390190505b5090506000816020019050612aed848760200151018285612d0e565b50949350505050565b815181516000916001918114808314612b125760009250612b50565b600160208701838101602088015b600284838510011415612b4b578051835114612b3f5760009650600093505b60209283019201612b20565b505050505b5090949350505050565b60008083831115612b7057508290506000612b78565b508190508083035b9250929050565b8051600090612b9057506000612396565b6020820151805160001a9060c0821015612baf57600092505050612396565b5060019392505050565b8051600090612bca57506000612396565b60008090506000612bde8460200151612c15565b602085015185519181019250015b80821015612c0c57612bfd82612c7e565b60019093019290910190612bec565b50909392505050565b8051600090811a6080811015612c2f576000915050612396565b60b8811080612c4a575060c08110801590612c4a575060f881105b15612c59576001915050612396565b60c0811015612c6d5760b519019050612396565b60f519019050612396565b50919050565b8051600090811a6080811015612c98576001915050612396565b60b8811015612cac57607e19019050612396565b60c0811015612cd95760b78103600184019350806020036101000a84510460018201810193505050612c78565b60f8811015612ced5760be19019050612396565b60019290920151602083900360f7016101000a900490910160f51901919050565b80612d1857610c01565b5b60208110612d38578251825260209283019290910190601f1901612d19565b915181516020939093036101000a6000190180199091169216919091179052565b815481835581811115610c0157600602816006028360005260206000209182019101610c019190612f5f565b6040805161026081018252600080825260606020830152909182019081526000602082018190526040820181905260608083018290526080830182905260a0830182905260c0830182905260e083018290526101008301829052610120830182905261014083015261016082015261018001612dff612f97565b81526020016000815260200160008152602001612e1a612f97565b81526020016000905290565b828054600181600116156101000203166002900490600052602060002090601f016020900481019282601f10612e6757805160ff1916838001178555612e94565b82800160010185558215612e94579182015b82811115612e94578251825591602001919060010190612e79565b50612ea0929150612fb5565b5090565b815481835581811115610c0157600a0281600a028360005260206000209182019101610c019190612fcf565b828054600181600116156101000203166002900490600052602060002090601f016020900481019282601f10612f095780548555612e94565b82800160010185558215612e9457600052602060002091601f016020900482015b82811115612e94578254825591600101919060010190612f2a565b604051806040016040528060008152602001600081525090565b6111db91905b80821115612ea0576000612f798282613055565b612f8760038301600061306a565b5060006004820155600601612f65565b60405180606001604052806003906020820280388339509192915050565b6111db91905b80821115612ea05760008155600101612fbb565b6111db91905b80821115612ea057805460ff199081168255600060018301819055600283018190556003830180549092169091556130106004830182613055565b61301e600783016000613071565b60088201805474ffffffffffffffffffffffffffffffffffffffffff1916905561304c600983016000613095565b50600a01612fd5565b50600081556001016000815560010160009055565b5060009055565b50805460008255600602906000526020600020908101906130929190612f5f565b50565b50805460018160011615610100020316600290046000825580601f106130bb5750613092565b601f0160209004906000526020600020908101906130929190612fb5565b803561259981614164565b80610100810183101561259957600080fd5b803561259981614178565b803561259981614181565b60008083601f84011261311e57600080fd5b50813567ffffffffffffffff81111561313657600080fd5b602083019150836001820283011115612b7857600080fd5b600082601f83011261315f57600080fd5b813561317261316d8261406c565b614045565b9150808252602083016020830185838301111561318e57600080fd5b61319983828461410a565b50505092915050565b80516125998161418a565b80356125998161418a565b805161259981614181565b600080600080608085870312156131d957600080fd5b60006131e587876130d9565b94505060206131f687828801613101565b935050604061320787828801613101565b925050606061321887828801613101565b91505092959194509250565b6000806040838503121561323757600080fd5b600061324385856130d9565b925050602061325485828601613101565b9150509250929050565b60006020828403121561327057600080fd5b600061259584846130f6565b60006020828403121561328e57600080fd5b60006125958484613101565b600080604083850312156132ad57600080fd5b60006132b98585613101565b9250506020613254858286016131ad565b6000806000604084860312156132df57600080fd5b60006132eb8686613101565b935050602084013567ffffffffffffffff81111561330857600080fd5b6133148682870161310c565b92509250509250925092565b6000806000806000610180868803121561333957600080fd5b60006133458888613101565b955050602061335688828901613101565b9450506040613367888289016130e4565b935050610140613379888289016130f6565b92505061016061338b888289016130d9565b9150509295509295909350565b600080602083850312156133ab57600080fd5b823567ffffffffffffffff8111156133c257600080fd5b6133ce8582860161310c565b92509250509250929050565b600080600080608085870312156133f057600080fd5b843567ffffffffffffffff81111561340757600080fd5b6131e58782880161314e565b60006020828403121561342557600080fd5b600061259584846131a2565b60006020828403121561344357600080fd5b600061259584846131b8565b6000806040838503121561346257600080fd5b60006132438585613101565b6000806040838503121561348157600080fd5b600061348d85856131b8565b9250506020613254858286016131b8565b60006134aa838361365b565b505060200190565b60006134be838361369d565b9392505050565b60006134be8383613c95565b60006134aa8383613664565b6134e6816140b9565b82525050565b6134f5816140a6565b6134ff8184612396565b925061350a826111db565b8060005b83811015613538578151613522878261349e565b965061352d83614094565b92505060010161350e565b505050505050565b600061354b826140ac565b61355581856140b0565b93508360208202850161356785614094565b8060005b858110156135a1578484038952815161358485826134b2565b945061358f83614094565b60209a909a019992505060010161356b565b5091979650505050505050565b60006135b9826140ac565b6135c381856140b0565b9350836020820285016135d585614094565b8060005b858110156135a157848403895281516135f285826134c5565b94506135fd83614094565b60209a909a01999250506001016135d9565b613618816140a6565b6136228184612396565b925061362d826111db565b8060005b8381101561353857815161364587826134d1565b965061365083614094565b925050600101613631565b6134e6816140c4565b6134e6816111db565b6134e6613679826111db565b6111db565b600061368a8385612396565b935061369783858461410a565b50500190565b60006136a8826140ac565b6136b281856140b0565b93506136c2818560208601614116565b6136cb81614146565b9093019392505050565b6000815460018116600081146136f2576001811461371857613757565b607f600283041661370381876140b0565b60ff1984168152955050602085019250613757565b6002820461372681876140b0565b95506137318561409a565b60005b8281101561375057815488820152600190910190602001613734565b8701945050505b505092915050565b6134e6816140e9565b6134e6816140f4565b6134e6816140ff565b600061378683856140b0565b935061379383858461410a565b6136cb83614146565b60006137a9601e836140b0565b7f596f75206d7573742066756c6c792066756e6420796f757220736964652e0000815260200192915050565b60006137e26023836140b0565b7f54686520726571756573742073686f756c64206e6f742062652064697370757481527f65642e0000000000000000000000000000000000000000000000000000000000602082015260400192915050565b60006138416034836140b0565b7f436f6e747269627574696f6e73206d757374206265206d61646520776974686981527f6e207468652061707065616c20706572696f642e000000000000000000000000602082015260400192915050565b60006138a06032836140b0565b7f54686520726571756573742073686f756c64206e6f74206861766520616c726581527f616479206265656e2064697370757465642e0000000000000000000000000000602082015260400192915050565b60006138ff6020836140b0565b7f5468652063616c6c6572206d7573742062652074686520676f7665726e6f722e815260200192915050565b60006139386045836140b0565b7f546865206c6f736572206d75737420636f6e7472696275746520647572696e6781527f207468652066697273742068616c66206f66207468652061707065616c20706560208201527f72696f642e000000000000000000000000000000000000000000000000000000604082015260600192915050565b60006139bd602f836140b0565b7f54696d6520746f206368616c6c656e6765207468652072657175657374206d7581527f73742068617665207061737365642e0000000000000000000000000000000000602082015260400192915050565b6000613a1c6032836140b0565b7f4368616c6c656e676573206d757374206f6363757220647572696e672074686581527f206368616c6c656e676520706572696f642e0000000000000000000000000000602082015260400192915050565b6000613a7b6020836140b0565b7f4974656d206d75737420626520616273656e7420746f2062652061646465642e815260200192915050565b6000613ab46026836140b0565b7f4974656d206d757374206265207265676973746572656420746f20626520726581527f6d6f7665642e0000000000000000000000000000000000000000000000000000602082015260400192915050565b6000613b136032836140b0565b7f412064697370757465206d7573742068617665206265656e207261697365642081527f746f2066756e6420616e2061707065616c2e0000000000000000000000000000602082015260400192915050565b6000613b726018836140b0565b7f5468657265206d757374206265206120726571756573742e0000000000000000815260200192915050565b6000613bab6016836140b0565b7f54686520637572736f7220697320696e76616c69642e00000000000000000000815260200192915050565b6000613be46023836140b0565b7f4974656d20616c72656164792068617320612070656e64696e6720726571756581527f73742e0000000000000000000000000000000000000000000000000000000000602082015260400192915050565b6000613c436025836140b0565b7f546865206974656d206d757374206861766520612070656e64696e672072657181527f756573742e000000000000000000000000000000000000000000000000000000602082015260400192915050565b80516000906102e0840190613caa8582613664565b5060208301518482036020860152613cc2828261369d565b9150506040830151613cd76040860182613771565b506060830151613cea606086018261365b565b506080830151613cfd608086018261365b565b5060a0830151613d1060a0860182613664565b5060c0830151613d2360c0860182613664565b5060e0830151613d3660e0860182613664565b50610100830151613d4b610100860182613664565b50610120830151613d606101208601826134dd565b50610140830151613d756101408601826134dd565b50610160830151613d8a6101608601826134dd565b50610180830151848203610180860152613da4828261369d565b9150506101a0830151613dbb6101a0860182613664565b506101c0830151613dd06101c08601826134ec565b506101e0830151613de5610220860182613664565b50610200830151613dfa610240860182613664565b50610220830151613e0f61026086018261360f565b50610240830151613e246102c0860182613768565b509392505050565b6000613e38828561366d565b602082019150613e48828461366d565b5060200192915050565b6000613e5f82848661367e565b949350505050565b6020810161259982846134dd565b602080825281016134be8184613540565b60408082528101613e9781856135ae565b90506134be602083018461365b565b60208101612599828461365b565b602081016125998284613664565b602080825281016134be818461369d565b60408082528101613ee4818561369d565b90506134be6020830184613771565b602080825281016134be81846136d5565b60208101612599828461375f565b60208082528101613e5f81848661377a565b602080825281016125998161379c565b60208082528101612599816137d5565b6020808252810161259981613834565b6020808252810161259981613893565b60208082528101612599816138f2565b602080825281016125998161392b565b60208082528101612599816139b0565b6020808252810161259981613a0f565b6020808252810161259981613a6e565b6020808252810161259981613aa7565b6020808252810161259981613b06565b6020808252810161259981613b65565b6020808252810161259981613b9e565b6020808252810161259981613bd7565b6020808252810161259981613c36565b602080825281016134be8184613c95565b604081016140338285613664565b8181036020830152613e5f81846136d5565b60405181810167ffffffffffffffff8111828210171561406457600080fd5b604052919050565b600067ffffffffffffffff82111561408357600080fd5b506020601f91909101601f19160190565b60200190565b60009081526020902090565b50600390565b5190565b90815260200190565b6000612599826140dd565b151590565b8061239681614150565b806123968161415a565b600160a060020a031690565b6000612599826140b9565b6000612599826140c9565b6000612599826140d3565b82818337506000910152565b60005b83811015614131578181015183820152602001614119565b83811115614140576000848401525b50505050565b601f01601f191690565b6003811061309257fe5b6004811061309257fe5b61416d816140b9565b811461309257600080fd5b61416d816140c4565b61416d816111db565b6003811061309257600080fdfea365627a7a723158206efb29d1877d8ed094e14ec2e18b8b982b4122e6230b9fd12b6f8f367b2973a66c6578706572696d656e74616cf564736f6c634300050b004061606860eb6c87306811e2695215385101daab53bd6ab4e9f9049aead9363c7d",
  "source": "/**\n *  @authors: [@mtsalenc]\n *  @reviewers: []\n *  @auditors: []\n *  @bounties: []\n *  @deployments: []\n */\n\npragma solidity ^0.5.11;\npragma experimental ABIEncoderV2;\n\nimport { IArbitrable, Arbitrator } from \"@kleros/erc-792/contracts/Arbitrator.sol\";\nimport { IEvidence } from \"@kleros/erc-792/contracts/erc-1497/IEvidence.sol\";\n\nimport \"solidity-bytes-utils/contracts/BytesLib.sol\";\nimport \"solidity-rlp/contracts/RLPReader.sol\";\nimport \"./libraries/CappedMath.sol\";\n\ncontract GTCRMock is IArbitrable, IEvidence{\n    using CappedMath for uint; // Operations bounded between 0 and 2**256 - 1.\n    using RLPReader for RLPReader.RLPItem;\n    using RLPReader for bytes;\n    using BytesLib for bytes;\n\n    /* Enums */\n\n    enum ItemStatus {\n        Absent,\n        Registered,\n        RegistrationRequested,\n        ClearingRequested\n    }\n\n    enum Party {\n        None,      // Party per default when there is no challenger or requester. Also used for unconclusive ruling.\n        Requester, // Party that made the request to change an address status.\n        Challenger // Party that challenges the request to change an address status.\n    }\n\n    /* Structs */\n\n    struct Item {\n        bytes data;\n        ItemStatus status; // The status of the item.\n        Request[] requests; // List of status change requests made for the item.\n    }\n\n    struct Request {\n        bool disputed; // True if a dispute was raised.\n        uint disputeID; // ID of the dispute, if any.\n        uint submissionTime; // Time when the request was made. Used to track when the challenge period ends.\n        bool resolved; // True if the request was executed and/or any disputes raised were resolved.\n        address payable[3] parties; // Address of requester and challenger, if any.\n        Round[] rounds; // Tracks each round of a dispute.\n        Party ruling; // The final ruling given, if any.\n        Arbitrator arbitrator; // The arbitrator trusted to solve disputes for this request.\n        bytes arbitratorExtraData; // The extra data for the trusted arbitrator of this request.\n    }\n\n    struct Round {\n        uint[3] paidFees; // Tracks the fees paid by each side on this round.\n        bool[3] hasPaid; // True when the side has fully paid its fee. False otherwise.\n        uint feeRewards; // Sum of reimbursable fees and stake rewards available to the parties that made contributions to the side that ultimately wins a dispute.\n        mapping(address => uint[3]) contributions; // Maps contributors to their contributions for each side.\n    }\n\n    struct QueryResult {\n        bytes32 ID;\n        bytes data;\n        ItemStatus status;\n        bool disputed;\n        bool resolved;\n        uint disputeID;\n        uint appealCost;\n        uint appealStart;\n        uint appealEnd;\n        address requester;\n        address challenger;\n        address arbitrator;\n        bytes arbitratorExtraData;\n        uint currentRuling;\n        bool[3] hasPaid;\n        uint feeRewards;\n        uint submissionTime;\n        uint[3] paidFees;\n        Arbitrator.DisputeStatus disputeStatus;\n    }\n\n    /* Storage */\n\n    // Constants\n\n    uint RULING_OPTIONS = 2; // The amount of non 0 choices the arbitrator can give.\n\n    // Settings\n    address public governor; // The address that can make governance changes to the parameters of the TCR.\n    address public relatedTCR; // The address of the TCR of TCRs related to this one.\n    Arbitrator public arbitrator; // The arbitrator that will be used to resolve disputes on the next requests.\n    bytes public arbitratorExtraData; // The arbitrator extra data used for the next requests.\n    uint public requesterBaseDeposit; // The base deposit to make a request.\n    uint public challengerBaseDeposit; // The base deposit to challenge a request.\n    uint public challengePeriodDuration; // The time before a request becomes executable if not challenged.\n    uint public metaEvidenceUpdates; // The number of times the meta evidence has been updated. Used to track the latest meta evidence ID.\n\n    // The required fee stake that a party must pay depends on who won the previous round and is proportional to the arbitration cost such that the fee stake for a round is stake multiplier * arbitration cost for that round.\n    // Multipliers are in basis points.\n    uint public winnerStakeMultiplier; // Multiplier for calculating the fee stake paid by the party that won the previous round.\n    uint public loserStakeMultiplier; // Multiplier for calculating the fee stake paid by the party that lost the previous round.\n    uint public sharedStakeMultiplier; // Multiplier for calculating the fee stake that must be paid in the case where there isn't a winner and loser (e.g. when it's the first round or the arbitrator ruled \"refused to rule\"/\"could not rule\").\n    uint public constant MULTIPLIER_DIVISOR = 10000; // Divisor parameter for multipliers.\n\n    // Registry data.\n    bytes32[] public itemIDs; // List of IDs of submitted items.\n    mapping(bytes32 => Item) public items; // Maps the item ID to the item.\n    mapping(address => mapping(uint => bytes32)) public arbitratorDisputeIDToItemID; // Maps a dispute ID to the ID of the item with the disputed request. On the form arbitratorDisputeIDToItemID[arbitrator][disputeID].\n\n    /* Modifiers */\n\n    modifier onlyGovernor {require(msg.sender == governor, \"The caller must be the governor.\"); _;}\n\n    constructor(\n        Arbitrator _arbitrator,\n        bytes memory _arbitratorExtraData,\n        string memory _registrationMetaEvidence,\n        string memory _clearingMetaEvidence,\n        address _governor,\n        uint _requesterBaseDeposit,\n        uint _challengerBaseDeposit,\n        uint _challengePeriodDuration,\n        uint _sharedStakeMultiplier,\n        uint _winnerStakeMultiplier,\n        uint _loserStakeMultiplier\n    ) public {\n        emit MetaEvidence(0, _registrationMetaEvidence);\n        emit MetaEvidence(1, _clearingMetaEvidence);\n\n        arbitrator = _arbitrator;\n        arbitratorExtraData = _arbitratorExtraData;\n        governor = _governor;\n        requesterBaseDeposit = _requesterBaseDeposit;\n        challengerBaseDeposit = _challengerBaseDeposit;\n        challengePeriodDuration = _challengePeriodDuration;\n        sharedStakeMultiplier = _sharedStakeMultiplier;\n        winnerStakeMultiplier = _winnerStakeMultiplier;\n        loserStakeMultiplier = _loserStakeMultiplier;\n    }\n\n    function addItem(bytes calldata _item) external payable {\n        bytes32 itemID = keccak256(_item);\n        require(items[itemID].status == ItemStatus.Absent, \"Item must be absent to be added.\");\n        requestStatusChange(_item);\n    }\n\n    function removeItem(bytes calldata _item) external payable {\n        bytes32 itemID = keccak256(_item);\n        require(items[itemID].status == ItemStatus.Registered, \"Item must be registered to be removed.\");\n        requestStatusChange(_item);\n    }\n\n    /** @dev Executes a request if the challenge period passed and no one challenged the request.\n     *  @param _item The item with the request to execute.\n     */\n    function executeRequest(bytes32 _item) external {\n        Item storage addr = items[_item];\n        Request storage request = addr.requests[addr.requests.length - 1];\n        require(\n            now - request.submissionTime > challengePeriodDuration,\n            \"Time to challenge the request must have passed.\"\n        );\n        require(!request.disputed, \"The request should not be disputed.\");\n\n        if (addr.status == ItemStatus.RegistrationRequested)\n            addr.status = ItemStatus.Registered;\n        else if (addr.status == ItemStatus.ClearingRequested)\n            addr.status = ItemStatus.Absent;\n        else\n            revert(\"There must be a request.\");\n\n        request.resolved = true;\n        withdrawFeesAndRewards(request.parties[uint(Party.Requester)], _item, addr.requests.length - 1, 0); // Automatically withdraw for the requester.\n    }\n\n    /** @dev Challenges the latest request of a item. Accepts enough ETH to fund a potential dispute considering the current required amount. Reimburses unused ETH. TRUSTED.\n     *  @param _itemID The ID of the item with the request to challenge.\n     *  @param _evidence A link to an evidence using its URI. Ignored if not provided or if not enough funds were provided to create a dispute.\n     */\n    function challengeRequest(bytes32 _itemID, string calldata _evidence) external payable {\n        Item storage item = items[_itemID];\n        require(\n            item.status == ItemStatus.RegistrationRequested || item.status == ItemStatus.ClearingRequested,\n            \"The item must have a pending request.\"\n        );\n        Request storage request = item.requests[item.requests.length - 1];\n        require(now - request.submissionTime <= challengePeriodDuration, \"Challenges must occur during the challenge period.\");\n        require(!request.disputed, \"The request should not have already been disputed.\");\n\n        // Take the deposit and save the challenger's address.\n        request.parties[uint(Party.Challenger)] = msg.sender;\n\n        Round storage round = request.rounds[request.rounds.length - 1];\n        uint arbitrationCost = request.arbitrator.arbitrationCost(request.arbitratorExtraData);\n        uint totalCost = arbitrationCost.addCap((arbitrationCost.mulCap(sharedStakeMultiplier)) / MULTIPLIER_DIVISOR).addCap(challengerBaseDeposit);\n        contribute(round, Party.Challenger, msg.sender, msg.value, totalCost);\n        require(round.paidFees[uint(Party.Challenger)] >= totalCost, \"You must fully fund your side.\");\n        round.hasPaid[uint(Party.Challenger)] = true;\n\n        // Raise a dispute.\n        request.disputeID = request.arbitrator.createDispute.value(arbitrationCost)(RULING_OPTIONS, request.arbitratorExtraData);\n        arbitratorDisputeIDToItemID[address(request.arbitrator)][request.disputeID] = _itemID;\n        request.disputed = true;\n        request.rounds.length++;\n        round.feeRewards = round.feeRewards.subCap(arbitrationCost);\n\n        if (bytes(_evidence).length > 0)\n            emit Evidence(request.arbitrator, uint(keccak256(abi.encodePacked(_itemID,item.requests.length - 1))), msg.sender, _evidence);\n    }\n\n    /** @dev Takes up to the total amount required to fund a side of an appeal. Reimburses the rest. Creates an appeal if both sides are fully funded. TRUSTED.\n     *  @param _itemID The ID of the item with the appeal to fund.\n     *  @param _side The recipient of the contribution.\n     */\n    function fundAppeal(bytes32 _itemID, Party _side) external payable {\n        // Recipient must be either the requester or challenger.\n        require(_side == Party.Requester || _side == Party.Challenger); // solium-disable-line error-reason\n        Item storage item = items[_itemID];\n        require(\n            item.status == ItemStatus.RegistrationRequested || item.status == ItemStatus.ClearingRequested,\n            \"The item must have a pending request.\"\n        );\n        Request storage request = item.requests[item.requests.length - 1];\n        require(request.disputed, \"A dispute must have been raised to fund an appeal.\");\n        (uint appealPeriodStart, uint appealPeriodEnd) = request.arbitrator.appealPeriod(request.disputeID);\n        require(\n            now >= appealPeriodStart && now < appealPeriodEnd,\n            \"Contributions must be made within the appeal period.\"\n        );\n\n        // Amount required to fully fund each side: arbitration cost + (arbitration cost * multiplier)\n        Round storage round = request.rounds[request.rounds.length - 1];\n        Party winner = Party(request.arbitrator.currentRuling(request.disputeID));\n        Party loser;\n        if (winner == Party.Requester)\n            loser = Party.Challenger;\n        else if (winner == Party.Challenger)\n            loser = Party.Requester;\n        require(\n            !(_side==loser) || (now-appealPeriodStart < (appealPeriodEnd-appealPeriodStart)/2),\n            \"The loser must contribute during the first half of the appeal period.\"\n        );\n\n        uint multiplier;\n        if (_side == winner)\n            multiplier = winnerStakeMultiplier;\n        else if (_side == loser)\n            multiplier = loserStakeMultiplier;\n        else\n            multiplier = sharedStakeMultiplier;\n        uint appealCost = request.arbitrator.appealCost(request.disputeID, request.arbitratorExtraData);\n        uint totalCost = appealCost.addCap((appealCost.mulCap(multiplier)) / MULTIPLIER_DIVISOR);\n        contribute(round, _side, msg.sender, msg.value, totalCost);\n        if (round.paidFees[uint(_side)] >= totalCost)\n            round.hasPaid[uint(_side)] = true;\n\n        // Raise appeal if both sides are fully funded.\n        if (round.hasPaid[uint(Party.Challenger)] && round.hasPaid[uint(Party.Requester)]) {\n            request.arbitrator.appeal.value(appealCost)(request.disputeID, request.arbitratorExtraData);\n            request.rounds.length++;\n            round.feeRewards = round.feeRewards.subCap(appealCost);\n        }\n    }\n\n\n    /** @dev Give a ruling for a dispute. Can only be called by the arbitrator. TRUSTED.\n     *  Overrides parent function to account for the situation where the winner loses a case due to paying less appeal fees than expected.\n     *  @param _disputeID ID of the dispute in the arbitrator contract.\n     *  @param _ruling Ruling given by the arbitrator. Note that 0 is reserved for \"Not able/wanting to make a decision\".\n     */\n    function rule(uint _disputeID, uint _ruling) public {\n        Party winner = Party(_ruling);\n        bytes32 itemID = arbitratorDisputeIDToItemID[msg.sender][_disputeID];\n        Item storage item = items[itemID];\n        Request storage request = item.requests[item.requests.length - 1];\n        Round storage round = request.rounds[request.rounds.length - 1];\n        require(_ruling <= RULING_OPTIONS); // solium-disable-line error-reason\n        require(address(request.arbitrator) == msg.sender); // solium-disable-line error-reason\n        require(!request.resolved); // solium-disable-line error-reason\n\n        // The ruling is inverted if the loser paid its fees.\n        if (round.hasPaid[uint(Party.Requester)] == true) // If one side paid its fees, the ruling is in its favor. Note that if the other side had also paid, an appeal would have been created.\n            winner = Party.Requester;\n        else if (round.hasPaid[uint(Party.Challenger)] == true)\n            winner = Party.Challenger;\n\n        emit Ruling(Arbitrator(msg.sender), _disputeID, uint(winner));\n\n        // Update the item's state\n        if (winner == Party.Requester) { // Execute Request\n            if (item.status == ItemStatus.RegistrationRequested)\n                item.status = ItemStatus.Registered;\n            else\n                item.status = ItemStatus.Absent;\n        } else { // Revert to previous state.\n            if (item.status == ItemStatus.RegistrationRequested)\n                item.status = ItemStatus.Absent;\n            else if (item.status == ItemStatus.ClearingRequested)\n                item.status = ItemStatus.Registered;\n        }\n\n        request.resolved = true;\n        request.ruling = Party(winner);\n        // Automatically withdraw.\n        if (winner == Party.None) {\n            withdrawFeesAndRewards(request.parties[uint(Party.Requester)], itemID, item.requests.length-1, 0);\n            withdrawFeesAndRewards(request.parties[uint(Party.Challenger)], itemID, item.requests.length-1, 0);\n        } else {\n            withdrawFeesAndRewards(request.parties[uint(winner)], itemID, item.requests.length-1, 0);\n        }\n    }\n\n    /** @dev Reimburses contributions if no disputes were raised. If a dispute was raised, sends the fee stake rewards and reimbursements proportional to the contributions made to the winner of a dispute.\n     *  @param _beneficiary The address that made contributions to a request.\n     *  @param _itemID The ID of the item with the request from which to withdraw.\n     *  @param _request The request from which to withdraw.\n     *  @param _round The round from which to withdraw.\n     */\n    function withdrawFeesAndRewards(address payable _beneficiary, bytes32 _itemID, uint _request, uint _round) public {\n        Item storage item = items[_itemID];\n        Request storage request = item.requests[_request];\n        Round storage round = request.rounds[_round];\n        // The request must be executed and there can be no disputes pending resolution.\n        require(request.resolved); // solium-disable-line error-reason\n\n        uint reward;\n        if (!request.disputed || request.ruling == Party.None) {\n            // No disputes were raised, or there isn't a winner and loser. Reimburse unspent fees proportionally.\n            uint rewardRequester = round.paidFees[uint(Party.Requester)] > 0\n                ? (round.contributions[_beneficiary][uint(Party.Requester)] * round.feeRewards) / (round.paidFees[uint(Party.Challenger)] + round.paidFees[uint(Party.Requester)])\n                : 0;\n            uint rewardChallenger = round.paidFees[uint(Party.Challenger)] > 0\n                ? (round.contributions[_beneficiary][uint(Party.Challenger)] * round.feeRewards) / (round.paidFees[uint(Party.Challenger)] + round.paidFees[uint(Party.Requester)])\n                : 0;\n\n            reward = rewardRequester + rewardChallenger;\n            round.contributions[_beneficiary][uint(Party.Requester)] = 0;\n            round.contributions[_beneficiary][uint(Party.Challenger)] = 0;\n        } else {\n            // Reward the winner.\n            reward = round.paidFees[uint(request.ruling)] > 0\n                ? (round.contributions[_beneficiary][uint(request.ruling)] * round.feeRewards) / round.paidFees[uint(request.ruling)]\n                : 0;\n\n            round.contributions[_beneficiary][uint(request.ruling)] = 0;\n        }\n\n        _beneficiary.send(reward); // It is the user responsibility to accept ETH.\n    }\n\n    /** @dev Change the duration of the challenge period.\n     *  @param _challengePeriodDuration The new duration of the challenge period.\n     */\n    function changeTimeToChallenge(uint _challengePeriodDuration) external onlyGovernor {\n        challengePeriodDuration = _challengePeriodDuration;\n    }\n\n    /* Internal */\n\n    function requestStatusChange(bytes memory _item) internal {\n        bytes32 itemID = keccak256(_item);\n\n        Item storage item = items[itemID];\n        if (item.requests.length == 0) { // Initial item registration.\n            itemIDs.push(itemID);\n            item.data = _item;\n        }\n\n        // Update item status.\n        if (item.status == ItemStatus.Absent)\n            item.status = ItemStatus.RegistrationRequested;\n        else if (item.status == ItemStatus.Registered)\n            item.status = ItemStatus.ClearingRequested;\n        else\n            revert(\"Item already has a pending request.\");\n\n        // Setup request.\n        Request storage request = item.requests[item.requests.length++];\n        request.parties[uint(Party.Requester)] = msg.sender;\n        request.submissionTime = now;\n        request.arbitrator = arbitrator;\n        request.arbitratorExtraData = arbitratorExtraData;\n        Round storage round = request.rounds[request.rounds.length++];\n\n\n        // Amount required to fully fund each side: requesterBaseDeposit + arbitration cost + (arbitration cost * multiplier).\n        uint arbitrationCost = request.arbitrator.arbitrationCost(request.arbitratorExtraData);\n        uint totalCost = arbitrationCost.addCap((arbitrationCost.mulCap(sharedStakeMultiplier)) / MULTIPLIER_DIVISOR).addCap(requesterBaseDeposit);\n        contribute(round, Party.Requester, msg.sender, msg.value, totalCost);\n        require(round.paidFees[uint(Party.Requester)] >= totalCost, \"You must fully fund your side.\");\n        round.hasPaid[uint(Party.Requester)] = true;\n    }\n\n    /** @dev Returns the contribution value and remainder from available ETH and required amount.\n     *  @param _available The amount of ETH available for the contribution.\n     *  @param _requiredAmount The amount of ETH required for the contribution.\n     *  @return taken The amount of ETH taken.\n     *  @return remainder The amount of ETH left from the contribution.\n     */\n    function calculateContribution(uint _available, uint _requiredAmount)\n        internal\n        pure\n        returns(uint taken, uint remainder)\n    {\n        if (_requiredAmount > _available)\n            return (_available, 0); // Take whatever is available, return 0 as leftover ETH.\n\n        remainder = _available - _requiredAmount;\n        return (_requiredAmount, remainder);\n    }\n\n    /** @dev Make a fee contribution.\n     *  @param _round The round to contribute.\n     *  @param _side The side for which to contribute.\n     *  @param _contributor The contributor.\n     *  @param _amount The amount contributed.\n     *  @param _totalRequired The total amount required for this side.\n     */\n    function contribute(Round storage _round, Party _side, address payable _contributor, uint _amount, uint _totalRequired) internal {\n        // Take up to the amount necessary to fund the current round at the current costs.\n        uint contribution; // Amount contributed.\n        uint remainingETH; // Remaining ETH to send back.\n        (contribution, remainingETH) = calculateContribution(_amount, _totalRequired.subCap(_round.paidFees[uint(_side)]));\n        _round.contributions[_contributor][uint(_side)] += contribution;\n        _round.paidFees[uint(_side)] += contribution;\n        _round.feeRewards += contribution;\n\n        // Reimburse leftover ETH.\n        _contributor.send(remainingETH); // Deliberate use of send in order to not block the contract in case of reverting fallback.\n    }\n\n    /* Views */\n\n    /** @dev Return true if the item is on the list.\n     *  @param _itemID The ID of the item to be queried.\n     *  @return allowed True if the item is allowed, false otherwise.\n     */\n    function isPermitted(bytes32 _itemID) external view returns (bool allowed) {\n        Item storage item = items[_itemID];\n        return item.status == ItemStatus.Registered || item.status == ItemStatus.ClearingRequested;\n    }\n\n    function itemCount() external view returns (uint) {\n        return itemIDs.length;\n    }\n\n    function getItem(bytes32 _itemID) public view returns (QueryResult memory result) {\n        Item storage item = items[_itemID];\n        Request storage request = item.requests[item.requests.length - 1];\n        Round storage round = request.rounds[request.rounds.length - 1];\n\n        result = QueryResult({\n            ID: _itemID,\n            data: item.data,\n            status: item.status,\n            disputed: request.disputed,\n            resolved: request.resolved,\n            disputeID: request.disputeID,\n            requester: request.parties[uint(Party.Requester)],\n            challenger: request.parties[uint(Party.Challenger)],\n            appealStart: 0,\n            appealEnd: 0,\n            appealCost: 0,\n            arbitrator: address(request.arbitrator),\n            arbitratorExtraData: request.arbitratorExtraData,\n            submissionTime: request.submissionTime,\n            hasPaid: [false,false,false],\n            paidFees: [uint(0), uint(0), uint(0)],\n            currentRuling: 0,\n            feeRewards: 0,\n            disputeStatus: Arbitrator.DisputeStatus.Waiting\n        });\n        if (request.disputed && request.arbitrator.disputeStatus(request.disputeID) == Arbitrator.DisputeStatus.Appealable) {\n            result.currentRuling = request.arbitrator.currentRuling(request.disputeID);\n            result.disputeStatus = request.arbitrator.disputeStatus(request.disputeID);\n            (result.appealStart, result.appealEnd) = request.arbitrator.appealPeriod(request.disputeID);\n            result.appealCost = request.arbitrator.appealCost(request.disputeID, request.arbitratorExtraData);\n\n            Round storage round = request.rounds[request.rounds.length - 1];\n            result.feeRewards = round.feeRewards;\n            result.hasPaid = round.hasPaid;\n            result.paidFees = round.paidFees;\n        }\n    }\n\n    /** @dev Find an item by matching column values.\n     *  - Example:\n     *  Item [18, 'PNK', 'Pinakion', '0xca35b7d915458ef540ade6068dfe2f44e8fa733c']\n     *  RLP encoded: 0xe383504e4b128850696e616b696f6e94ca35b7d915458ef540ade6068dfe2f44e8fa733c\n     *  Input for remix: [\"0xe3\",\"0x83\",\"0x50\",\"0x4e\",\"0x4b\",\"0x12\",\"0x88\",\"0x50\",\"0x69\",\"0x6e\",\"0x61\",\"0x6b\",\"0x69\",\"0x6f\",\"0x6e\",\"0x94\",\"0xca\",\"0x35\",\"0xb7\",\"0xd9\",\"0x15\",\"0x45\",\"0x8e\",\"0xf5\",\"0x40\",\"0xad\",\"0xe6\",\"0x06\",\"0x8d\",\"0xfe\",\"0x2f\",\"0x44\",\"0xe8\",\"0xfa\",\"0x73\",\"0x3c\"]\n     *  @param _rlpEncodedMatch The RLP encoded item to match against the items on the list.\n     *  @param _cursor The index from where to start looking for matches.\n     *  @param _returnCount The size of the array to return with matching values.\n     *  @param _count The number of items to iterate while searching.\n     *  @return An array with items that match the query.\n     */\n    function findItem(bytes memory _rlpEncodedMatch, uint _cursor, uint _returnCount, uint _count) public view returns (bytes[] memory) {\n        RLPReader.RLPItem[] memory matchItem = _rlpEncodedMatch.toRlpItem().toList();\n        bytes[] memory results = new bytes[](_count);\n        uint itemsFound;\n\n        for(uint i = _cursor; i < (_count == 0 ? itemIDs.length : _count); i++) { // Iterate over every item in storage.\n            bytes storage itemBytes = items[itemIDs[i]].data;\n            RLPReader.RLPItem[] memory item = itemBytes.toRlpItem().toList();\n            for (uint j = 0; j < matchItem.length; j++) { // Iterate over every column.\n                if (item[j].toBytes().equal(matchItem[j].toBytes())) {\n                    results[itemsFound] = itemBytes;\n                    itemsFound++;\n                    break;\n                }\n            }\n        }\n        return results;\n    }\n\n    /** @dev Return the values of the items the query finds. This function is O(n), where n is the number of items. This could exceed the gas limit, therefore this function should only be used for interface display and not by other contracts.\n     *  @param _cursor The ID of the items from which to start iterating. To start from either the oldest or newest item.\n     *  @param _count The number of items to return.\n     *  @param _filter The filter to use. Each element of the array in sequence means:\n     *  - Include absent items in result.\n     *  - Include registered items in result.\n     *  - Include items with registration requests that are not disputed in result.\n     *  - Include items with clearing requests that are not disputed in result.\n     *  - Include disputed items with registration requests in result.\n     *  - Include disputed items with clearing requests in result.\n     *  - Include items submitted by _party.\n     *  - Include items challenged by _party.\n     *  @param _oldestFirst Whether to sort from oldest to the newest item.\n     *  @param _party The address to use if checking for items submitted or challenged by a specific party.\n     *  @return The values of the tokens found and whether there are more tokens for the current filter and sort.\n     */\n    function queryItems(bytes32 _cursor, uint _count, bool[8] calldata _filter, bool _oldestFirst, address _party)\n        external\n        view\n        returns (QueryResult[] memory results, bool hasMore)\n    {\n        uint cursorIndex;\n        results = new QueryResult[](_count);\n\n        uint index = 0;\n\n        if (_cursor == 0)\n            cursorIndex = 0;\n        else {\n            for (uint j = 0; j < itemIDs.length; j++) {\n                if (itemIDs[j] == _cursor) {\n                    cursorIndex = j;\n                    break;\n                }\n            }\n            require(cursorIndex != 0, \"The cursor is invalid.\");\n        }\n\n        for (\n                uint i = cursorIndex == 0 ? (_oldestFirst ? 0 : 1) : (_oldestFirst ? cursorIndex + 1 : itemIDs.length - cursorIndex + 1);\n                _oldestFirst ? i < itemIDs.length : i <= itemIDs.length;\n                i++\n            ) { // Oldest or newest first.\n            bytes32 itemID = itemIDs[_oldestFirst ? i : itemIDs.length - i];\n            Item storage item = items[itemID];\n            Request storage request = item.requests[item.requests.length - 1];\n            if (\n                /* solium-disable operator-whitespace */\n                (_filter[0] && item.status == ItemStatus.Absent) ||\n                (_filter[1] && item.status == ItemStatus.Registered) ||\n                (_filter[2] && item.status == ItemStatus.RegistrationRequested && !request.disputed) ||\n                (_filter[3] && item.status == ItemStatus.ClearingRequested && !request.disputed) ||\n                (_filter[4] && item.status == ItemStatus.RegistrationRequested && request.disputed) ||\n                (_filter[5] && item.status == ItemStatus.ClearingRequested && request.disputed) ||\n                (_filter[6] && request.parties[uint(Party.Requester)] == _party) ||\n                (_filter[7] && request.parties[uint(Party.Challenger)] == _party)\n                /* solium-enable operator-whitespace */\n            ) {\n                if (index < _count) {\n                    QueryResult memory result = getItem(itemID);\n                    results[index] = result;\n                    index++;\n                } else {\n                    hasMore = true;\n                    break;\n                }\n            }\n        }\n    }\n\n}\n",
  "sourcePath": "/home/betelgiuse/Documents/visus/kleros/repos/gtcr/contracts/GTCRMock.sol",
  "compiler": {
    "name": "solc",
    "version": "0.5.11+commit.c082d0b4.Emscripten.clang"
  },
  "schemaVersion": "3.0.11",
  "updatedAt": "2019-08-19T14:30:32.143Z",
  "devdoc": {
    "methods": {
      "challengeRequest(bytes32,string)": {
        "details": "Challenges the latest request of a item. Accepts enough ETH to fund a potential dispute considering the current required amount. Reimburses unused ETH. TRUSTED.",
        "params": {
          "_evidence": "A link to an evidence using its URI. Ignored if not provided or if not enough funds were provided to create a dispute.",
          "_itemID": "The ID of the item with the request to challenge."
        }
      },
      "changeTimeToChallenge(uint256)": {
        "details": "Change the duration of the challenge period.",
        "params": {
          "_challengePeriodDuration": "The new duration of the challenge period."
        }
      },
      "executeRequest(bytes32)": {
        "details": "Executes a request if the challenge period passed and no one challenged the request.",
        "params": {
          "_item": "The item with the request to execute."
        }
      },
      "findItem(bytes,uint256,uint256,uint256)": {
        "details": "Find an item by matching column values. - Example: Item [18, 'PNK', 'Pinakion', '0xca35b7d915458ef540ade6068dfe2f44e8fa733c'] RLP encoded: 0xe383504e4b128850696e616b696f6e94ca35b7d915458ef540ade6068dfe2f44e8fa733c Input for remix: [\"0xe3\",\"0x83\",\"0x50\",\"0x4e\",\"0x4b\",\"0x12\",\"0x88\",\"0x50\",\"0x69\",\"0x6e\",\"0x61\",\"0x6b\",\"0x69\",\"0x6f\",\"0x6e\",\"0x94\",\"0xca\",\"0x35\",\"0xb7\",\"0xd9\",\"0x15\",\"0x45\",\"0x8e\",\"0xf5\",\"0x40\",\"0xad\",\"0xe6\",\"0x06\",\"0x8d\",\"0xfe\",\"0x2f\",\"0x44\",\"0xe8\",\"0xfa\",\"0x73\",\"0x3c\"]",
        "params": {
          "_count": "The number of items to iterate while searching.",
          "_cursor": "The index from where to start looking for matches.",
          "_returnCount": "The size of the array to return with matching values.",
          "_rlpEncodedMatch": "The RLP encoded item to match against the items on the list."
        },
        "return": "An array with items that match the query."
      },
      "fundAppeal(bytes32,uint8)": {
        "details": "Takes up to the total amount required to fund a side of an appeal. Reimburses the rest. Creates an appeal if both sides are fully funded. TRUSTED.",
        "params": {
          "_itemID": "The ID of the item with the appeal to fund.",
          "_side": "The recipient of the contribution."
        }
      },
      "isPermitted(bytes32)": {
        "details": "Return true if the item is on the list.",
        "params": {
          "_itemID": "The ID of the item to be queried."
        },
        "return": "allowed True if the item is allowed, false otherwise."
      },
      "queryItems(bytes32,uint256,bool[8],bool,address)": {
        "details": "Return the values of the items the query finds. This function is O(n), where n is the number of items. This could exceed the gas limit, therefore this function should only be used for interface display and not by other contracts.",
        "params": {
          "_count": "The number of items to return.",
          "_cursor": "The ID of the items from which to start iterating. To start from either the oldest or newest item.",
          "_filter": "The filter to use. Each element of the array in sequence means: - Include absent items in result. - Include registered items in result. - Include items with registration requests that are not disputed in result. - Include items with clearing requests that are not disputed in result. - Include disputed items with registration requests in result. - Include disputed items with clearing requests in result. - Include items submitted by _party. - Include items challenged by _party.",
          "_oldestFirst": "Whether to sort from oldest to the newest item.",
          "_party": "The address to use if checking for items submitted or challenged by a specific party."
        },
        "return": "The values of the tokens found and whether there are more tokens for the current filter and sort."
      },
      "rule(uint256,uint256)": {
        "details": "Give a ruling for a dispute. Can only be called by the arbitrator. TRUSTED. Overrides parent function to account for the situation where the winner loses a case due to paying less appeal fees than expected.",
        "params": {
          "_disputeID": "ID of the dispute in the arbitrator contract.",
          "_ruling": "Ruling given by the arbitrator. Note that 0 is reserved for \"Not able/wanting to make a decision\"."
        }
      },
      "withdrawFeesAndRewards(address,bytes32,uint256,uint256)": {
        "details": "Reimburses contributions if no disputes were raised. If a dispute was raised, sends the fee stake rewards and reimbursements proportional to the contributions made to the winner of a dispute.",
        "params": {
          "_beneficiary": "The address that made contributions to a request.",
          "_itemID": "The ID of the item with the request from which to withdraw.",
          "_request": "The request from which to withdraw.",
          "_round": "The round from which to withdraw."
        }
      }
    }
  },
  "userdoc": {
    "methods": {}
  }
}