{
  "contractName": "ItemMock",
  "abi": [
    {
      "constant": true,
      "inputs": [],
      "name": "prevBlockNumber",
      "outputs": [
        {
          "name": "",
          "type": "uint256"
        }
      ],
      "payable": false,
      "stateMutability": "view",
      "type": "function"
    },
    {
      "constant": true,
      "inputs": [
        {
          "name": "",
          "type": "uint256"
        }
      ],
      "name": "items",
      "outputs": [
        {
          "name": "",
          "type": "bytes"
        }
      ],
      "payable": false,
      "stateMutability": "view",
      "type": "function"
    },
    {
      "inputs": [
        {
          "name": "_offsets",
          "type": "uint256[]"
        },
        {
          "name": "_lengths",
          "type": "uint256[]"
        },
        {
          "name": "_registrationMetaEvidence",
          "type": "string"
        },
        {
          "name": "_clearingMetaEvidence",
          "type": "string"
        },
        {
          "name": "_prevBlockNumber",
          "type": "uint256"
        }
      ],
      "payable": false,
      "stateMutability": "nonpayable",
      "type": "constructor"
    },
    {
      "anonymous": false,
      "inputs": [
        {
          "indexed": true,
          "name": "_metaEvidenceID",
          "type": "uint256"
        },
        {
          "indexed": false,
          "name": "_evidence",
          "type": "string"
        }
      ],
      "name": "MetaEvidence",
      "type": "event"
    },
    {
      "constant": false,
      "inputs": [
        {
          "name": "_item",
          "type": "bytes"
        }
      ],
      "name": "addItem",
      "outputs": [],
      "payable": false,
      "stateMutability": "nonpayable",
      "type": "function"
    },
    {
      "constant": true,
      "inputs": [
        {
          "name": "_selector",
          "type": "bytes"
        },
        {
          "name": "cursor",
          "type": "uint256"
        },
        {
          "name": "_skipColumn",
          "type": "bool[]"
        }
      ],
      "name": "getItem",
      "outputs": [
        {
          "name": "",
          "type": "uint256[10]"
        }
      ],
      "payable": false,
      "stateMutability": "view",
      "type": "function"
    }
  ],
  "bytecode": "0x608060405234801561001057600080fd5b50604051610b19380380610b19833981810160405260a081101561003357600080fd5b81019080805164010000000081111561004b57600080fd5b8201602081018481111561005e57600080fd5b815185602082028301116401000000008211171561007b57600080fd5b5050929190602001805164010000000081111561009757600080fd5b820160208101848111156100aa57600080fd5b81518560208202830111640100000000821117156100c757600080fd5b505092919060200180516401000000008111156100e357600080fd5b820160208101848111156100f657600080fd5b815164010000000081118282018710171561011057600080fd5b5050929190602001805164010000000081111561012c57600080fd5b8201602081018481111561013f57600080fd5b815164010000000081118282018710171561015957600080fd5b5050602090910151909250905060005b85518110156101dd576002604051806040016040528088848151811061018b57fe5b602002602001015181526020018784815181106101a457fe5b60209081029190910181015190915282546001818101855560009485529382902083516002909202019081559101519082015501610169565b5060038190556040805160208082528551818301528551600093600080516020610af9833981519152938893909283928301918501908083838a5b83811015610230578181015183820152602001610218565b50505050905090810190601f16801561025d5780820380516001836020036101000a031916815260200191505b509250505060405180910390a26001600080516020610af9833981519152836040518080602001828103825283818151815260200191508051906020019080838360005b838110156102b95781810151838201526020016102a1565b50505050905090810190601f1680156102e65780820380516001836020036101000a031916815260200191505b509250505060405180910390a250505050506107f2806103076000396000f3fe608060405234801561001057600080fd5b5060043610610068577c01000000000000000000000000000000000000000000000000000000006000350463707c3492811461006d5780637806b77714610087578063bfb231d214610186578063d294ccef14610218575b600080fd5b61007561028a565b60408051918252519081900360200190f35b61014d6004803603606081101561009d57600080fd5b8101906020810181356401000000008111156100b857600080fd5b8201836020820111156100ca57600080fd5b803590602001918460018302840111640100000000831117156100ec57600080fd5b9193909282359260408101906020013564010000000081111561010e57600080fd5b82018360208201111561012057600080fd5b8035906020019184602083028401116401000000008311171561014257600080fd5b509092509050610290565b604051808261014080838360005b8381101561017357818101518382015260200161015b565b5050505090500191505060405180910390f35b6101a36004803603602081101561019c57600080fd5b503561047a565b6040805160208082528351818301528351919283929083019185019080838360005b838110156101dd5781810151838201526020016101c5565b50505050905090810190601f16801561020a5780820380516001836020036101000a031916815260200191505b509250505060405180910390f35b6102886004803603602081101561022e57600080fd5b81019060208101813564010000000081111561024957600080fd5b82018360208201111561025b57600080fd5b8035906020019184600183028401116401000000008311171561027d57600080fd5b509092509050610520565b005b60035481565b610298610703565b6102a0610703565b6000855b60005481101561046d5760008082815481106102bc57fe5b6000918252602082200191505b600254811015610463578787828181106102df57fe5b90506020020135156102f05761045b565b6000600282815481106102ff57fe5b906000526020600020906002020160000154905060006002838154811061032257fe5b906000526020600020906002020160010154905060606103dc858054600181600116156101000203166002900480601f0160208091040260200160405190810160405280929190818152602001828054600181600116156101000203166002900480156103d05780601f106103a5576101008083540402835291602001916103d0565b820191906000526020600020905b8154815290600101906020018083116103b357829003601f168201915b5050505050848461061f565b905060606104238f8f8080601f01602080910402602001604051908101604052809392919081815260200183838082843760009201919091525088925087915061061f9050565b905061042f828261069f565b1561045657868989600a811061044157fe5b60200201525050600190950194506104639050565b505050505b6001016102c9565b50506001016102a4565b5090979650505050505050565b6000818154811061048757fe5b600091825260209182902001805460408051601f60026000196101006001871615020190941693909304928301859004850281018501909152818152935090918301828280156105185780601f106104ed57610100808354040283529160200191610518565b820191906000526020600020905b8154815290600101906020018083116104fb57829003601f168201915b505050505081565b6000828260405180838380828437604080519190930181900390206000818152600160205292909220549195505060ff161592506105c291505057604080517f08c379a000000000000000000000000000000000000000000000000000000000815260206004820152601260248201527f4974656d20616c72656164792061646465640000000000000000000000000000604482015290519081900360640190fd5b60008054600181018083559180526105fd907f290decd9548b62a8d60345a988386fc84ba6bc95484008f6362f93160ef3e563018585610722565b50506000908152600160208190526040909120805460ff191690911790555050565b60608183018451101561063157600080fd5b60608215801561064c57604051915060208201604052610696565b6040519150601f8416801560200281840101858101878315602002848b0101015b8183101561068557805183526020928301920161066d565b5050858452601f01601f1916604052505b50949350505050565b8151815160009160019181148083146106bb57600092506106f9565b600160208701838101602088015b6002848385100114156106f45780518351146106e85760009650600093505b602092830192016106c9565b505050505b5090949350505050565b604051806101400160405280600a906020820280388339509192915050565b828054600181600116156101000203166002900490600052602060002090601f016020900481019282601f106107635782800160ff19823516178555610790565b82800160010185558215610790579182015b82811115610790578235825591602001919060010190610775565b5061079c9291506107a0565b5090565b6107ba91905b8082111561079c57600081556001016107a6565b9056fea265627a7a72305820da1ffe8d1455aff7fe6d738321b0b1a139bdfb48cd0151514506721232c6565b64736f6c634300050a003261606860eb6c87306811e2695215385101daab53bd6ab4e9f9049aead9363c7d",
  "source": "/**\n *  @authors: [@mtsalenc]\n *  @reviewers: []\n *  @auditors: []\n *  @bounties: []\n *  @deployments: []\n */\n\npragma solidity ^0.5.10;\n\ncontract ItemMock {\n\n    bytes[] public items;\n    mapping(bytes32 => bool) keys;\n    Column[] columns;\n    uint public prevBlockNumber;\n\n    struct Column {\n        uint offset;\n        uint length;\n    }\n\n    event MetaEvidence(uint indexed _metaEvidenceID, string _evidence);\n\n    constructor(\n        uint[] memory _offsets,\n        uint[] memory _lengths,\n        string memory _registrationMetaEvidence,\n        string memory _clearingMetaEvidence,\n        uint _prevBlockNumber // The most recent mined block number. Used for speeding up log scanning.\n    ) public {\n        for (uint i = 0; i < _offsets.length; i++)\n            columns.push(Column(_offsets[i], _lengths[i]));\n\n        prevBlockNumber = _prevBlockNumber;\n\n        emit MetaEvidence(0, _registrationMetaEvidence);\n        emit MetaEvidence(1, _clearingMetaEvidence);\n    }\n\n    // [\"0x00\",\"0x00\",\"0x00\",\"0x00\",\"0x00\",\"0x00\",\"0x00\",\"0x00\",\"0x00\",\"0x00\",\"0x00\",\"0x00\",\"0x00\",\"0x00\",\"0x00\",\"0x00\",\"0x00\",\"0x00\",\"0x00\",\"0x00\",\"0x00\",\"0x00\",\"0x00\",\"0x00\",\"0x00\",\"0x00\",\"0x00\",\"0x00\",\"0x00\",\"0x00\",\"0x00\",\"0x01\",\"0x00\",\"0x00\",\"0x00\",\"0x00\",\"0x00\",\"0x00\",\"0x00\",\"0x00\",\"0x00\",\"0x00\",\"0x00\",\"0x00\",\"0x14\",\"0x72\",\"0x3a\",\"0x09\",\"0xac\",\"0xff\",\"0x6d\",\"0x2a\",\"0x60\",\"0xdc\",\"0xdf\",\"0x7a\",\"0xa4\",\"0xaf\",\"0xf3\",\"0x08\",\"0xfd\",\"0xdc\",\"0x16\",\"0x0c\"]\n    // [\"0x00\",\"0x00\",\"0x00\",\"0x00\",\"0x00\",\"0x00\",\"0x00\",\"0x00\",\"0x00\",\"0x00\",\"0x00\",\"0x00\",\"0x00\",\"0x00\",\"0x00\",\"0x00\",\"0x00\",\"0x00\",\"0x00\",\"0x00\",\"0x00\",\"0x00\",\"0x00\",\"0x00\",\"0x00\",\"0x00\",\"0x00\",\"0x00\",\"0x00\",\"0x00\",\"0x00\",\"0x05\",\"0x00\",\"0x00\",\"0x00\",\"0x00\",\"0x00\",\"0x00\",\"0x00\",\"0x00\",\"0x00\",\"0x00\",\"0x00\",\"0x00\",\"0xca\",\"0x35\",\"0xb7\",\"0xd9\",\"0x15\",\"0x45\",\"0x8e\",\"0xf5\",\"0x40\",\"0xad\",\"0xe6\",\"0x06\",\"0x8d\",\"0xfe\",\"0x2f\",\"0x44\",\"0xe8\",\"0xfa\",\"0x73\",\"0x3c\"]\n\n    function addItem(bytes calldata _item) external {\n        bytes32 key = keccak256(_item);\n        require(!keys[key], \"Item already added\");\n        items.push(_item);\n        keys[key] = true;\n    }\n\n    /**\n     * @dev Search the list of items by columns.\n     * @return Any item that with a column value that matches the column provided at `_selector`.\n     */\n    function getItem(bytes calldata _selector, uint cursor, bool[] calldata _skipColumn) external view returns (uint[10] memory) {\n        uint[10] memory indexes;\n        uint count = 0;\n        for(uint i = cursor; i < items.length; i++) { // Iterate over list of items starting at cursor.\n            bytes storage item = items[i];\n            for(uint j = 0; j < columns.length; j++) { // Iterate over each column.\n                if (_skipColumn[j]) continue; // Skip that column if the caller doesn't want to provide it.\n                uint offset = columns[j].offset;\n                uint length = columns[j].length;\n                bytes memory val = slice(item, offset, length);\n                bytes memory selector = slice(_selector, offset, length);\n                if (equal(val, selector)) {\n                    indexes[count] = i;\n                    count++;\n                    break;\n                }\n            }\n        }\n        return indexes;\n    }\n\n    function equal(bytes memory _preBytes, bytes memory _postBytes) internal pure returns (bool) {\n        bool success = true;\n\n        assembly {\n            let length := mload(_preBytes)\n\n            // if lengths don't match the arrays are not equal\n            switch eq(length, mload(_postBytes))\n            case 1 {\n                // cb is a circuit breaker in the for loop since there's\n                //  no said feature for inline assembly loops\n                // cb = 1 - don't breaker\n                // cb = 0 - break\n                let cb := 1\n\n                let mc := add(_preBytes, 0x20)\n                let end := add(mc, length)\n\n                for {\n                    let cc := add(_postBytes, 0x20)\n                // the next line is the loop condition:\n                // while(uint(mc < end) + cb == 2)\n                } eq(add(lt(mc, end), cb), 2) {\n                    mc := add(mc, 0x20)\n                    cc := add(cc, 0x20)\n                } {\n                    // if any of these checks fails then arrays are not equal\n                    if iszero(eq(mload(mc), mload(cc))) {\n                        // unsuccess:\n                        success := 0\n                        cb := 0\n                    }\n                }\n            }\n            default {\n                // unsuccess:\n                success := 0\n            }\n        }\n\n        return success;\n    }\n\n    function slice(\n        bytes memory _bytes,\n        uint _start,\n        uint _length\n    )\n        internal\n        pure\n        returns (bytes memory)\n    {\n        require(_bytes.length >= (_start + _length));\n\n        bytes memory tempBytes;\n\n        assembly {\n            switch iszero(_length)\n            case 0 {\n                // Get a location of some free memory and store it in tempBytes as\n                // Solidity does for memory variables.\n                tempBytes := mload(0x40)\n\n                // The first word of the slice result is potentially a partial\n                // word read from the original array. To read it, we calculate\n                // the length of that partial word and start copying that many\n                // bytes into the array. The first word we copy will start with\n                // data we don't care about, but the last `lengthmod` bytes will\n                // land at the beginning of the contents of the new array. When\n                // we're done copying, we overwrite the full first word with\n                // the actual length of the slice.\n                let lengthmod := and(_length, 31)\n\n                // The multiplication in the next line is necessary\n                // because when slicing multiples of 32 bytes (lengthmod == 0)\n                // the following copy loop was copying the origin's length\n                // and then ending prematurely not copying everything it should.\n                let mc := add(add(tempBytes, lengthmod), mul(0x20, iszero(lengthmod)))\n                let end := add(mc, _length)\n\n                for {\n                    // The multiplication in the next line has the same exact purpose\n                    // as the one above.\n                    let cc := add(add(add(_bytes, lengthmod), mul(0x20, iszero(lengthmod))), _start)\n                } lt(mc, end) {\n                    mc := add(mc, 0x20)\n                    cc := add(cc, 0x20)\n                } {\n                    mstore(mc, mload(cc))\n                }\n\n                mstore(tempBytes, _length)\n\n                //update free-memory pointer\n                //allocating the array padded to 32 bytes like the compiler does now\n                mstore(0x40, and(add(mc, 31), not(31)))\n            }\n            //if we want a zero-length slice let's just return a zero-length array\n            default {\n                tempBytes := mload(0x40)\n\n                mstore(0x40, add(tempBytes, 0x20))\n            }\n        }\n\n        return tempBytes;\n    }\n\n}\n",
  "sourcePath": "/home/betelgiuse/Documents/visus/kleros/repositories/gtcr/contracts/ItemMock.sol",
  "compiler": {
    "name": "solc",
    "version": "0.5.10+commit.5a6ea5b1.Emscripten.clang"
  },
  "schemaVersion": "3.0.11",
  "updatedAt": "2019-07-30T18:50:23.644Z",
  "devdoc": {
    "methods": {
      "getItem(bytes,uint256,bool[])": {
        "details": "Search the list of items by columns.",
        "return": "Any item that with a column value that matches the column provided at `_selector`."
      }
    }
  },
  "userdoc": {
    "methods": {}
  }
}