{
  "contractName": "ItemMock",
  "abi": [
    {
      "constant": true,
      "inputs": [
        {
          "name": "",
          "type": "uint256"
        }
      ],
      "name": "items",
      "outputs": [
        {
          "name": "",
          "type": "bytes"
        }
      ],
      "payable": false,
      "stateMutability": "view",
      "type": "function"
    },
    {
      "inputs": [
        {
          "name": "_offsets",
          "type": "uint256[]"
        },
        {
          "name": "_lengths",
          "type": "uint256[]"
        },
        {
          "name": "_registrationMetaEvidence",
          "type": "string"
        },
        {
          "name": "_clearingMetaEvidence",
          "type": "string"
        }
      ],
      "payable": false,
      "stateMutability": "nonpayable",
      "type": "constructor"
    },
    {
      "anonymous": false,
      "inputs": [
        {
          "indexed": true,
          "name": "_metaEvidenceID",
          "type": "uint256"
        },
        {
          "indexed": false,
          "name": "_evidence",
          "type": "string"
        }
      ],
      "name": "MetaEvidence",
      "type": "event"
    },
    {
      "constant": false,
      "inputs": [
        {
          "name": "_item",
          "type": "bytes"
        }
      ],
      "name": "addItem",
      "outputs": [],
      "payable": false,
      "stateMutability": "nonpayable",
      "type": "function"
    },
    {
      "constant": true,
      "inputs": [
        {
          "name": "_selector",
          "type": "bytes"
        },
        {
          "name": "cursor",
          "type": "uint256"
        },
        {
          "name": "_skipColumn",
          "type": "bool[]"
        }
      ],
      "name": "getItem",
      "outputs": [
        {
          "name": "",
          "type": "uint256[10]"
        }
      ],
      "payable": false,
      "stateMutability": "view",
      "type": "function"
    }
  ],
  "bytecode": "0x608060405234801561001057600080fd5b50604051610bc0380380610bc08339810180604052608081101561003357600080fd5b81019080805164010000000081111561004b57600080fd5b8281019050602081018481111561006157600080fd5b815185602082028301116401000000008211171561007e57600080fd5b5050929190602001805164010000000081111561009a57600080fd5b828101905060208101848111156100b057600080fd5b81518560208202830111640100000000821117156100cd57600080fd5b505092919060200180516401000000008111156100e957600080fd5b828101905060208101848111156100ff57600080fd5b815185600182028301116401000000008211171561011c57600080fd5b5050929190602001805164010000000081111561013857600080fd5b8281019050602081018481111561014e57600080fd5b815185600182028301116401000000008211171561016b57600080fd5b505092919050505060008090505b845181101561020e576002604051806040016040528087848151811061019b57fe5b602002602001015181526020018684815181106101b457fe5b60200260200101518152509080600181540180825580915050906001820390600052602060002090600202016000909192909190915060008201518160000155602082015181600101555050508080600101915050610179565b5060007f61606860eb6c87306811e2695215385101daab53bd6ab4e9f9049aead9363c7d836040518080602001828103825283818151815260200191508051906020019080838360005b83811015610273578082015181840152602081019050610258565b50505050905090810190601f1680156102a05780820380516001836020036101000a031916815260200191505b509250505060405180910390a260017f61606860eb6c87306811e2695215385101daab53bd6ab4e9f9049aead9363c7d826040518080602001828103825283818151815260200191508051906020019080838360005b838110156103115780820151818401526020810190506102f6565b50505050905090810190601f16801561033e5780820380516001836020036101000a031916815260200191505b509250505060405180910390a2505050506108628061035e6000396000f3fe608060405234801561001057600080fd5b50600436106100415760003560e01c80637806b77714610046578063bfb231d21461015a578063d294ccef14610201575b600080fd5b61011c6004803603606081101561005c57600080fd5b810190808035906020019064010000000081111561007957600080fd5b82018360208201111561008b57600080fd5b803590602001918460018302840111640100000000831117156100ad57600080fd5b909192939192939080359060200190929190803590602001906401000000008111156100d857600080fd5b8201836020820111156100ea57600080fd5b8035906020019184602083028401116401000000008311171561010c57600080fd5b909192939192939050505061027a565b6040518082600a60200280838360005b8381101561014757808201518184015260208101905061012c565b5050505090500191505060405180910390f35b6101866004803603602081101561017057600080fd5b8101908080359060200190929190505050610493565b6040518080602001828103825283818151815260200191508051906020019080838360005b838110156101c65780820151818401526020810190506101ab565b50505050905090810190601f1680156101f35780820380516001836020036101000a031916815260200191505b509250505060405180910390f35b6102786004803603602081101561021757600080fd5b810190808035906020019064010000000081111561023457600080fd5b82018360208201111561024657600080fd5b8035906020019184600183028401116401000000008311171561026857600080fd5b909192939192939050505061054c565b005b61028261076e565b61028a61076e565b600080905060008690505b6000805490508110156104845760008082815481106102b057fe5b90600052602060002001905060008090505b600280549050811015610475578787828181106102db57fe5b90506020020135156102ec57610468565b6000600282815481106102fb57fe5b906000526020600020906002020160000154905060006002838154811061031e57fe5b906000526020600020906002020160010154905060606103d8858054600181600116156101000203166002900480601f0160208091040260200160405190810160405280929190818152602001828054600181600116156101000203166002900480156103cc5780601f106103a1576101008083540402835291602001916103cc565b820191906000526020600020905b8154815290600101906020018083116103af57829003601f168201915b50505050508484610675565b9050606061042b8f8f8080601f016020809104026020016040519081016040528093929190818152602001838380828437600081840152601f19601f820116905080830192505050505050508585610675565b90506104378282610701565b1561046357868989600a811061044957fe5b602002018181525050878060010198505050505050610475565b505050505b80806001019150506102c2565b50508080600101915050610295565b50819250505095945050505050565b600081815481106104a057fe5b906000526020600020016000915090508054600181600116156101000203166002900480601f0160208091040260200160405190810160405280929190818152602001828054600181600116156101000203166002900480156105445780601f1061051957610100808354040283529160200191610544565b820191906000526020600020905b81548152906001019060200180831161052757829003601f168201915b505050505081565b60008282604051808383808284378083019250505092505050604051809103902090506001600082815260200190815260200160002060009054906101000a900460ff1615610603576040517f08c379a00000000000000000000000000000000000000000000000000000000081526004018080602001828103825260128152602001807f4974656d20616c7265616479206164646564000000000000000000000000000081525060200191505060405180910390fd5b6000838390918060018154018082558091505090600182039060005260206000200160009091929390919293909192909192509190610643929190610791565b5050600180600083815260200190815260200160002060006101000a81548160ff021916908315150217905550505050565b60608183018451101561068757600080fd5b60608215600081146106a4576040519150602082016040526106f5565b6040519150601f8416801560200281840101858101878315602002848b0101015b818310156106e257805183526020830192506020810190506106c5565b50868552601f19601f8301166040525050505b50809150509392505050565b600080600190508351835181146001811461071f5760009250610762565b600160208701838101602088015b60028483851001141561075d57805183511461074c5760009650600093505b60208301925060208101905061072d565b505050505b50508091505092915050565b604051806101400160405280600a90602082028038833980820191505090505090565b828054600181600116156101000203166002900490600052602060002090601f016020900481019282601f106107d257803560ff1916838001178555610800565b82800160010185558215610800579182015b828111156107ff5782358255916020019190600101906107e4565b5b50905061080d9190610811565b5090565b61083391905b8082111561082f576000816000905550600101610817565b5090565b9056fea165627a7a7230582096d01294d3c41db5332c4cf8a37f35a1238606a2ec2fa3f3e9727e997e9065f80029",
  "source": "/**\n *  @authors: [@mtsalenc]\n *  @reviewers: []\n *  @auditors: []\n *  @bounties: []\n *  @deployments: []\n */\n\npragma solidity ^0.5.1;\n\ncontract ItemMock {\n\n    bytes[] public items;\n    mapping(bytes32 => bool) keys;\n    Column[] columns;\n\n    struct Column {\n        uint offset;\n        uint length;\n    }\n\n    event MetaEvidence(uint indexed _metaEvidenceID, string _evidence);\n\n    constructor(\n        uint[] memory _offsets,\n        uint[] memory _lengths,\n        string memory _registrationMetaEvidence,\n        string memory _clearingMetaEvidence\n    ) public {\n        for (uint i = 0; i < _offsets.length; i++)\n            columns.push(Column(_offsets[i], _lengths[i]));\n\n        emit MetaEvidence(0, _registrationMetaEvidence);\n        emit MetaEvidence(1, _clearingMetaEvidence);\n    }\n\n    // [\"0x00\",\"0x00\",\"0x00\",\"0x00\",\"0x00\",\"0x00\",\"0x00\",\"0x00\",\"0x00\",\"0x00\",\"0x00\",\"0x00\",\"0x00\",\"0x00\",\"0x00\",\"0x00\",\"0x00\",\"0x00\",\"0x00\",\"0x00\",\"0x00\",\"0x00\",\"0x00\",\"0x00\",\"0x00\",\"0x00\",\"0x00\",\"0x00\",\"0x00\",\"0x00\",\"0x00\",\"0x01\",\"0x00\",\"0x00\",\"0x00\",\"0x00\",\"0x00\",\"0x00\",\"0x00\",\"0x00\",\"0x00\",\"0x00\",\"0x00\",\"0x00\",\"0x14\",\"0x72\",\"0x3a\",\"0x09\",\"0xac\",\"0xff\",\"0x6d\",\"0x2a\",\"0x60\",\"0xdc\",\"0xdf\",\"0x7a\",\"0xa4\",\"0xaf\",\"0xf3\",\"0x08\",\"0xfd\",\"0xdc\",\"0x16\",\"0x0c\"]\n    // [\"0x00\",\"0x00\",\"0x00\",\"0x00\",\"0x00\",\"0x00\",\"0x00\",\"0x00\",\"0x00\",\"0x00\",\"0x00\",\"0x00\",\"0x00\",\"0x00\",\"0x00\",\"0x00\",\"0x00\",\"0x00\",\"0x00\",\"0x00\",\"0x00\",\"0x00\",\"0x00\",\"0x00\",\"0x00\",\"0x00\",\"0x00\",\"0x00\",\"0x00\",\"0x00\",\"0x00\",\"0x05\",\"0x00\",\"0x00\",\"0x00\",\"0x00\",\"0x00\",\"0x00\",\"0x00\",\"0x00\",\"0x00\",\"0x00\",\"0x00\",\"0x00\",\"0xca\",\"0x35\",\"0xb7\",\"0xd9\",\"0x15\",\"0x45\",\"0x8e\",\"0xf5\",\"0x40\",\"0xad\",\"0xe6\",\"0x06\",\"0x8d\",\"0xfe\",\"0x2f\",\"0x44\",\"0xe8\",\"0xfa\",\"0x73\",\"0x3c\"]\n\n    function addItem(bytes calldata _item) external {\n        bytes32 key = keccak256(_item);\n        require(!keys[key], \"Item already added\");\n        items.push(_item);\n        keys[key] = true;\n    }\n\n    /**\n     * @dev Search the list of items by columns.\n     * @return Any item that with a column value that matches the column provided at `_selector`.\n     */\n    function getItem(bytes calldata _selector, uint cursor, bool[] calldata _skipColumn) external view returns (uint[10] memory) {\n        uint[10] memory indexes;\n        uint count = 0;\n        for(uint i = cursor; i < items.length; i++) { // Iterate over list of items starting at cursor.\n            bytes storage item = items[i];\n            for(uint j = 0; j < columns.length; j++) { // Iterate over each column.\n                if (_skipColumn[j]) continue; // Skip that column if the caller doesn't want to provide it.\n                uint offset = columns[j].offset;\n                uint length = columns[j].length;\n                bytes memory val = slice(item, offset, length);\n                bytes memory selector = slice(_selector, offset, length);\n                if (equal(val, selector)) {\n                    indexes[count] = i;\n                    count++;\n                    break;\n                }\n            }\n        }\n        return indexes;\n    }\n\n    function equal(bytes memory _preBytes, bytes memory _postBytes) internal pure returns (bool) {\n        bool success = true;\n\n        assembly {\n            let length := mload(_preBytes)\n\n            // if lengths don't match the arrays are not equal\n            switch eq(length, mload(_postBytes))\n            case 1 {\n                // cb is a circuit breaker in the for loop since there's\n                //  no said feature for inline assembly loops\n                // cb = 1 - don't breaker\n                // cb = 0 - break\n                let cb := 1\n\n                let mc := add(_preBytes, 0x20)\n                let end := add(mc, length)\n\n                for {\n                    let cc := add(_postBytes, 0x20)\n                // the next line is the loop condition:\n                // while(uint(mc < end) + cb == 2)\n                } eq(add(lt(mc, end), cb), 2) {\n                    mc := add(mc, 0x20)\n                    cc := add(cc, 0x20)\n                } {\n                    // if any of these checks fails then arrays are not equal\n                    if iszero(eq(mload(mc), mload(cc))) {\n                        // unsuccess:\n                        success := 0\n                        cb := 0\n                    }\n                }\n            }\n            default {\n                // unsuccess:\n                success := 0\n            }\n        }\n\n        return success;\n    }\n\n    function slice(\n        bytes memory _bytes,\n        uint _start,\n        uint _length\n    )\n        internal\n        pure\n        returns (bytes memory)\n    {\n        require(_bytes.length >= (_start + _length));\n\n        bytes memory tempBytes;\n\n        assembly {\n            switch iszero(_length)\n            case 0 {\n                // Get a location of some free memory and store it in tempBytes as\n                // Solidity does for memory variables.\n                tempBytes := mload(0x40)\n\n                // The first word of the slice result is potentially a partial\n                // word read from the original array. To read it, we calculate\n                // the length of that partial word and start copying that many\n                // bytes into the array. The first word we copy will start with\n                // data we don't care about, but the last `lengthmod` bytes will\n                // land at the beginning of the contents of the new array. When\n                // we're done copying, we overwrite the full first word with\n                // the actual length of the slice.\n                let lengthmod := and(_length, 31)\n\n                // The multiplication in the next line is necessary\n                // because when slicing multiples of 32 bytes (lengthmod == 0)\n                // the following copy loop was copying the origin's length\n                // and then ending prematurely not copying everything it should.\n                let mc := add(add(tempBytes, lengthmod), mul(0x20, iszero(lengthmod)))\n                let end := add(mc, _length)\n\n                for {\n                    // The multiplication in the next line has the same exact purpose\n                    // as the one above.\n                    let cc := add(add(add(_bytes, lengthmod), mul(0x20, iszero(lengthmod))), _start)\n                } lt(mc, end) {\n                    mc := add(mc, 0x20)\n                    cc := add(cc, 0x20)\n                } {\n                    mstore(mc, mload(cc))\n                }\n\n                mstore(tempBytes, _length)\n\n                //update free-memory pointer\n                //allocating the array padded to 32 bytes like the compiler does now\n                mstore(0x40, and(add(mc, 31), not(31)))\n            }\n            //if we want a zero-length slice let's just return a zero-length array\n            default {\n                tempBytes := mload(0x40)\n\n                mstore(0x40, add(tempBytes, 0x20))\n            }\n        }\n\n        return tempBytes;\n    }\n\n}\n",
  "sourcePath": "/home/betelgiuse/Documents/visus/kleros/repositories/gtcr/contracts/ItemMock.sol",
  "compiler": {
    "name": "solc",
    "version": "0.5.8+commit.23d335f2.Emscripten.clang"
  },
  "schemaVersion": "3.0.11",
  "updatedAt": "2019-07-23T19:38:56.543Z",
  "devdoc": {
    "methods": {
      "getItem(bytes,uint256,bool[])": {
        "details": "Search the list of items by columns.",
        "return": "Any item that with a column value that matches the column provided at `_selector`."
      }
    }
  },
  "userdoc": {
    "methods": {}
  }
}